:03000000024DA20C
:0C4DA200787FE4F6D8FD758122024DE90F
:0653A9009000001212FC4E
:1053AF009080197403F0908018F0E49002AEF0A38F
:1053BF00F0900234F0A3F0C2147F20FEFDFC9000A9
:1053CF0000E0F8A3E0F9A3E0FAA3E0FB121194A820
:1053DF0004A905AA06AB077F007E407D387C00122A
:1053EF00121FC3E49FFFE49EAD0775C824F5CBAE33
:0E53FF00058ECAF5CD8ECCD2CE759850D2ACAC
:01540D00227C
:105340009002AFE0FD9002AEE0FCC39D5006C3EDBD
:105350009CFE800DED2414FE9002AEE0FDC3EE9D98
:10536000FEEED3940140D9C2AC9002AEE004F0E06E
:1053700075F01484E5F0F0E0249AF582E43402F547
:1053800083EFF0201420D2AC9002AFE004F0E0757F
:10539000F01484E5F0F0E0249AF582E43402F58319
:0853A000E0F599D21422D2AC11
:0153A80022E2
:0300230002526C1A
:10526C00C0E0C0F0C083C082C0D075D000C0073091
:10527C00981DC298900234E004F0E075F06484E567
:10528C00F0F0E02436F582E43402F583E599F03051
:10529C00992BC2999002AFE0FF9002AEE06F601BB9
:1052AC00A3E004F0E075F01484E5F0F0E0249AF546
:1052BC0082E43402F583E0F5998002C214D007D061
:0A52CC00D0D082D083D0F0D0E032C1
:10560B0090012EEBF0A3EAF0A3E9F090012EE0FB62
:10561B00A3E0FAA3E0F91210AF601790012EA3E4F8
:10562B0075F00112117EA9F0FA1210AFFF12534060
:03563B0080D922F1
:0B546400900000EBF0A3EAF0A3E9F0D9
:10546F0090002B7401F0A37400F0A37403F090006C
:10547F0000E0F9A3E0FAA3E090012EC9F0A3EAF04F
:10548F00A3E9F090002BE0F9A3E0FAA3E09001313B
:10549F00C9F0A3EAF0A3E9F07B017A00792E125547
:0A54AF00057B017A00792E02560BEE
:1000260090800A7482F090800BF090800CF09080A3
:100036000DF090801F7402F090801DF09080067481
:1000460081F0908007F090801CF0908005F0908001
:10005600037441F09080047481F090800E04F0C225
:020066009622E0
:0458ED0043A2802230
:0F58870043F14043F12043F18043E840D2AF2288
:10580F009080087405F075B91D75BA10E5BA54F09B
:08581F004401F5BA53B9DF2280
:10519400E4900000F01258961200037F90125741D9
:1051A4007FAB1257411258A31200037FC11257411B
:1051B400125670EF64AA6016124AB712589612007B
:1051C400037FC01257417FAA1257411258A31200FD
:1051D400037F85125741125670900000EFF030E7BC
:1051E400069002F27401F09002F2E0B4010D900016
:0B51F40000E030E5069003137401F0AA
:0151FF00228D
:1056F3001200037FC3125741125670EF64AA60165B
:10570300122AFB1258961200037FC21257417FAA36
:065713001257411258A3D9
:01571900226D
:10585500E58954FC4401F589758CFF758AB0D2A998
:015865002220
:07000300C2B7C2B5D2B5225D
:10567000E490800CF0FFD2B690801E7441F0E4FEFE
:10568000D2B7C2B790801E7441F0A2B6E433C433DF
:0F56900033335480FDEFC3134DFF0EEEB408E12A
:01569F0022E8
:10574100E490800CF090801E7442F0E4FEC2B7C277
:10575100B6EF30E002D2B6D2B7EFC313FF0EEEB40C
:0257610008EB53
:015763002223
:0D5896001200037F8E125741E4FF025741BC
:0D58A3001200037F8E1257417F8002574193
:10583F00EF1FAA0670011E4A600BE4FDEDC3940F23
:05584F0050EE0D80F792
:015854002231
:10000E00AC07AF041CEF60097F147E0012583F80CE
:02001E00F122CD
:102F56005002243F065B4F666D7D077F6F777C3995
:102F66005E797160C001640401050106010701086C
:102F76000109010A010B0104020502060207020803
:102F86000209020A020B02040405040604070408E7
:102F96000409040A040B04040805080608070808BF
:102FA6000809080A080B08000101010201030108CB
:102FB6001009100A100B1000020102020203020897
:102FC6002009200A200B200004010402040304083F
:102FD6004009400A400B400008010802080308089F
:102FE6008009800A800B8000100110021003100473
:102FF60010051006100710002001200220032004EF
:10300600200520062007200040014002400340041E
:10301600400540064007400080018002800380048E
:073026008005800680078091
:1057870012579E900012E0FBA3E0FAA3E090000FEF
:07579700F91213851213DB68
:05579E00007F19DFFE91
:0157A30022E3
:104F3F00900012EBF0A3EAF0A3E9F0900012E0FB6F
:104F4F00A3E0FAA3E0F99000121213851213DB907D
:104F5F000012E0FBA3E0FAA3E0F990000C12138516
:104F6F001213DB900012E0FBA3E0FAA3E0F990002C
:104F7F00031213851213DB900012E0FBA3E0FAA3D8
:104F8F00E0F91213651213DB12579E900012E0FB2B
:104F9F00A3E0FAA3E0900015125797900012E0FBE0
:104FAF00A3E0FAA3E0F990000F1213851213DB02AE
:024FBF00579EFB
:10520000900012EBF0A3EAF0A3E9F0900012E0FBAB
:10521000A3E0FAA3E0F990000C1213851213DB90BF
:105220000012E0FBA3E0FAA3E0F990001512138549
:105230001213DB900012E0FBA3E0FAA3E0F9900068
:1052400003125798900012E0FBA3E0FAA3E0F99054
:1052500000121213851213DB900012E0FBA3E0FA98
:0C526000A3E0F99000061213850213DB96
:0E467700900012EBF0A3EAF0A3E9F0A3EDF03F
:10468500E4900017F0A3F0900012E0FBA3E0FAA37A
:10469500E0F99000031213851213DBE4900016F085
:1046A500900015E090001230E70DE0FBA3E0FAA3BF
:1046B500E0F9900012800BE0FBA3E0FAA3E0F9908B
:1046C50000151213851213DB900012E0FBA3E0FA2C
:1046D500A3E0F990000C1213851213DB900015E08E
:1046E500FF25E0F0125787900016E004F0E064081B
:1046F50070AE900012E0FBA3E0FAA3E0F99000127F
:104705001213851213DB900012E0FBA3E0FAA3E07D
:10471500F99000061213851213DB900012E0FBA33B
:10472500E0FAA3E0F990000C1213851213DB900058
:1047350012E0FBA3E0FAA3E0F99000091213851239
:1047450013DBEF4E9000177005F0A3F08005E4F041
:0E475500A304F0125787900017E0FEA3E0FFC8
:014763002233
:10563E00900011EDF090000EEBF0A3EAF0A3E9F06C
:10564E00124F3F90000EE0FBA3E0FAA3E0F9A3E0B7
:10565E00FD12467790000EE0FBA3E0FAA3E0F902FC
:02566E005200E8
:0B4FC100900007EBF0A3EAF0A3E9F07A
:104FCC00A3E0FBA3E0FAA3E0F97D4012563E90006B
:104FDC000AE0FBA3E0FAA3E0F9124F3F90000AE0CD
:104FEC00FBA3E0FAA3E0F97DC0124677E490000D34
:104FFC00F090000DE0FFD3940B502A900007E0FBDB
:10500C00A3E0FAA3E0F98F827583001210C8FD901B
:10501C00000AE0FBA3E0FAA3E0F912467790000D3A
:10502C00E004F080CC90000AE0FBA3E0FAA3E0F9E6
:03503C000252001D
:10512600900001EBF0A3EAF0A3E9F0900001E0FBA8
:10513600A3E0FAA3E0F990000D1210C8FD90000458
:10514600E0FBA3E0FAA3E0F912563E900004E0F972
:10515600A3E0FAA3E090000AC9F0A3EAF0A3E9F0FD
:10516600900001E0FBA3E0FAA3E0F9124FC1900022
:1051760001E0FBA3E0FAA3E0F990000C1210C8FDD1
:0E518600900004E0FBA3E0FAA3E0F902563E1D
:10476400900001EFF0A3EDF0A3EBF0A3EAF0A3E9CE
:01477400F054
:10477500E4A3F0900006E0FFC39408400302484D0F
:1047850074017E00A807088005C333CE33CED8F95F
:10479500FF900002E0FDEF5D9000016052E0FFC474
:1047A50054F02464F582E43401F583C083C082901B
:1047B5000006E0FED082D08375F002121339E0FDC9
:1047C500900007F0900003E0FBA3E0FAA3E02DF9C9
:1047D500E43AFA1210AFFDEFC454F02465F582E413
:1047E5003401F58375F002EE121339E04D804DE08A
:1047F500FFC454F02464F582E43401F583C083C01A
:1048050082900006E0FED082D08375F00212133943
:10481500E0FD900003E0FBA3E0FAA3E02DF9E43A04
:10482500FA1210AFFDEFC454F02465F582E43401AB
:10483500F58375F002EE121339E0F45D1210F59070
:084845000006E004F0024778D0
:01484D002248
:0B52D600900000EBF0A3EAF0A3E9F069
:1052E100A3E0FBA3E0FAA3E0F990000DE41211079B
:1052F100900000E0FBA3E0FAA3E0F9E4FD12563EC2
:10530100E4FF900003E0FBA3E0FAA3E0F98F8275CC
:10531100830074FF1211070FEFB40CE6900003E055
:10532100FBA3E0FAA3E0F990000C748F121107902F
:0F5331000000E0FBA3E0FAA3E0F97D8F02563EF7
:0758C40090800D7482F022B8
:0758CB0090800C7482F022B2
:0758D20090800C7401F0222C
:0758D900A294E4FE33FF225C
:03002000D2952254
:03006800C295221C
:0358F100D294222C
:0358F400C2942239
:104CF10090032774FFF0A37400F0A37468F090038D
:104D01001874FFF0A37458F0A374C4F090032474D2
:104D1100FFF0A37400F0A37420F090032D74FFF052
:104D2100A37458F0A374F4F090031E74FFF0A374FD
:104D310058F0A374D2F090031B74FFF0A37458F0E1
:104D4100A374CBF090032174FFF0A37458F0A37403
:104D5100D9F090032A74FFF0A37458F0A374F1F012
:104D61009000037401F0A37403F0A37430F07B018D
:104D71007A0379181252D6E4FF74302FF582E434A5
:104D810003F583E4F00FEFB40CEF9000047401F02D
:104D9100A37403F0A37418F07B017A0379300251F4
:014DA10026EB
:0558E700007F19DFFE47
:0158EC002299
:1057DD0090800A7482F090800BF0D292D29312587E
:0957ED00E7C2921258E7C29322B0
:1057F60090800A7482F090800BF0C2921258E7D221
:09580600931258E7D2920258E710
:0255D100AE0723
:1055D30090800A7482F0E4FDEE30E704D2928002F8
:1055E300C2921258E7D293EE25E0FE1258E7C29317
:1055F3000DEDB408E3D29290800A7401F01258E7DB
:07560300D2931258E7C29395
:01560A00227D
:10582700900375EFF01257DD7F481255D19003753D
:08583700E0FF1255D10257F603
:1057C1009003757401F0E4FF74652FF582E43403EE
:0C57D100F583E4F00FEFB410EF0258B0C5
:0B58B0001256CA900375E0FF02582753
:1056CA001257DD7F601255D1E4FC74652CF582E433
:1056DA003403F583E0FF1255D10CECB410EC1257E9
:0956EA00F6900375E0FF02582759
:0B50B700900013EFF0A3ECF0A3EDF06D
:1050C200E4FD900015E030E02374652DF582E434B0
:1050D20003F583C083C082E0FF900013E0FE7401F9
:1050E200A806088002C333D8FC4F802274652DF5D0
:1050F20082E43403F583C083C082E0FF900013E0B2
:10510200FE7401A806088002C333D8FCF45FD08283
:10511200D083F0900014E0C313F0A3E013F00DED80
:03512200B4109F27
:015125002267
:0758E00053746172740A00A9
:10540E007F007EC27D017C001253A97BFF7A587902
:10541E00E0125464D2AF1258ED12588712002612C1
:10542E00580F1258771258551251941257C1124CE8
:10543E00F11251941256F31240C612140812006E55
:10544E001256A0123A20300A05124C3C80EC124043
:06545E00C612559080E427
:10302D004102B2004102D4004102B8014102F30055
:10303D004103030141030E044102B1004102FB00B3
:10304D004102FA024102DD004102DE00410310009F
:10305D00410311004102B6004102B400C105C18314
:10306D00410308004102F7004402D0000000004176
:10307D0002C5004102C700C186410313004102F29F
:10308D00004102C30041031500410317004102B086
:10309D0000410312004102F6014102BF004102F15D
:1030AD00014102B500410301004102B7014102DBBC
:1030BD00004102F5004102FF0041030000410302FF
:1030CD00004102F9014102D900410316004102D528
:1030DD00004102BA004102B3004102D8004102D7BB
:1030ED00004102E0004102DF004102DA004102B975
:1030FD000041030D00410314004102D6004102F8C6
:10310D00004102C4004102F401C10A4102C0004164
:10311D0002C6014102CF004102DC004102C100C1E3
:0E312D00804A02E13F065B4F666D7D077F6FB3
:03000B000258BBDD
:0958BB00758CFE758AB0B29632BC
:03006B00024E2E14
:104E2E00C0E0C083C082C0D075D000C007E5EE30B0
:104E3E00E20375EE04E5EE30E16775EE029002F3E3
:104E4E00E004F0900303E0FF9002F3E0B5070FD209
:104E5E0002D2099003147401F09002F3E4F0900270
:104E6E00C2E004F090030EE0FF9002C2E0B5070727
:104E7E00E4F090030F04F09002FBE004F09002FACD
:104E8E00E0FFA3E0B5071AE4F09002D5E004F0903D
:104E9E0002B1E004F090030DE004F09002CFE004C4
:0C4EAE00F0D007D0D0D082D083D0E0320A
:10576400EFF0A3E0FF125779EFF0A3E0FF125779AF
:05577400EFF0A3E0FFCF
:0E577900EFC4540F75F006A4FEC3EF9EFF228E
:05586600A3EFF07F013B
:0C586B00EF75F00A8475F006A42FFF22F0
:1054B9009002CAE004F09002C8E024D0FFE4340767
:1054C900FEE4FCFD9003041212FC900304A3A3E084
:0454D900FEA3E0FF4F
:1054DD00AB07AA067C017D90121129ED4C6013EBF0
:1054ED0054037011AE02AF03FC7D64121129ED4C13
:0854FD0060037F01227F002201
:1056A0009002FFE0FF700AA3E07006900302E06042
:1056B00018EF60031238E5900300E060031237A78B
:0A56C000900302E060031234E522BB
:10140800124EBA9002BAE06003021AAF9002DFE00F
:101418006003021AAFA3E06003021AAF30B40302FC
:1014280014EC1257A430B4030214D69002DDE07015
:101438006F9002F7E06402606730026430012FC2E7
:1014480001900373E054EFF0900313E060079003FA
:1014580073E04408F09002FFE0700AA3E070069081
:101468000302E06036900373E04440F0802DD2011F
:10147800900373E04410F0900313E0600790037347
:10148800E04408F09002FFE0700AA3E070069003C1
:1014980002E06007900373E04440F01258B0C202C3
:1014A80090030FE06401600302142DD2059002DD61
:1014B80004F0E49002C1F09002B7F09002F604F054
:1014C8009002F1F0D200E4FF124B7D02142DE4905B
:1014D800030FF030B4FD20050B9002DE7401F0E438
:1014E80090030FF03086030216F51257A4308603D6
:1014F800021615123DAA90030FE0B401F0D205A31D
:101508007401F09002D9F09002DDE0B401DF90029E
:10151800C1E0B40F0050D6901526F828287302159C
:101528005302155A0215610214F502156802156F67
:101538000214F50215770215900214F50215A90296
:1015480015C20214F50215DB0215F8E4FF124589ED
:10155800809BE4FF123EB98094E4FF122D46808DF3
:10156800E4FF12313C8086E4FF1241C30214F5788F
:10157800027C007D017B017A0279EB7E007F0212FA
:1015880010897D017F01806278027C007D017B01EA
:101598007A0279EB7E007F021210897D017F01803B
:1015A8006678027C007D017B017A0279ED7E007FFE
:1015B800021210897D017F02803078027C007D0153
:1015C8007B017A0279ED7E007F021210897D017F0E
:1015D80002803478027C007D017B017A0279EF7EFB
:1015E800007F021210897D017F031228740214F50E
:1015F80078027C007D017B017A0279EF7E007F0210
:101608001210897D017F0312365B0214F59002C522
:10161800E024FE602C14604E240270729002EBE00D
:1016280014F09002F2E0600B9002EBE0705B740C37
:10163800F080569002EBE0C39418404D7417F08088
:10164800489002EDE014F09002F2E0600B9002ED99
:10165800E07011740CF0800C9002EDE0C394184017
:10166800037417F080239002EFE014F09002F2E088
:10167800600B9002EFE07011740CF0800C9002EF98
:10168800E0C3941840037417F0E49002C5F0900288
:10169800C7E024FE6018146026240270369002EC1D
:1016A800E014F0E0C3943C4025743BF080209002A5
:1016B800EEE014F0E0C3943C4003743BF0800F90DC
:1016C80002F0E014F0E0C3943C4003743BF0E49073
:1016D80002C7F0E49002D9F090030FF03086FD20A5
:1016E800050B9003117401F0E490030FF0308503AB
:1016F800021A811257A43085030219A4123DAA9038
:10170800030FE0B401F09002D97401F0C28CD20545
:101718009002B4F09002DDE06401600302182790A3
:1017280002C1E0B40F0050CE901737F82828730292
:10173800176402176B0217720216FE021779021756
:10174800810216FE0217890217A20216FE0217BBB3
:101758000217D40216FE0217ED02180A7F0112457D
:101768008980937F01123EB9808C7F01122D4680BB
:10177800857F0112313C0216FE7F011241C3021619
:10178800FE78027C007D017B017A0279EB7E007F86
:10179800021210897D027F01806278027C007D013F
:1017A8007B017A0279EB7E007F021210897D027F2D
:1017B80001806678027C007D017B017A0279ED7EEA
:1017C800007F021210897D027F02803078027C003F
:1017D8007D017B017A0279ED7E007F021210897DFE
:1017E800027F02803478027C007D017B017A0279D5
:1017F800EF7E007F021210897D027F031228740297
:1018080016FE78027C007D017B017A0279EF7E006A
:101818007F021210897D027F0312365B0216FE904A
:1018280002B8E0640160030216FE9002B2E07004A0
:1018380004F08005E49002B2F09002B2E014700364
:101848000218DE04600302199C900309E0FCA3E07F
:10185800FDA3E0FEA3E0FF120D39EF75F00A842422
:10186800E1F582E43402F583E0FD7B017A03793007
:101878007F08124764900309E0FCA3E0FDA3E0FEA3
:10188800A3E0FF120D39EF75F00A8474E125F0F535
:1018980082E43402F583E0FD7B017A0379307F0925
:1018A8001247647B017A0379307D617F0A124764AD
:1018B800900337E04440F09000047401F0A37403EF
:1018C800F0A37418F07B017A037930125126E49062
:1018D80002D4F002199C9002BBE0FCA3E0FDA3E057
:1018E800FEA3E0FF120D39EF75F064849002FEF05C
:1018F800EFFB7A00E075F064A4FFC3EB9FFFEA9565
:10190800F0FE7C007D0A1211299002FDEFF0A3E0A1
:1019180075F064A4FFC3EB9FFFEA95F0FE7C007DA1
:101928000A1211299002FCEDF09002FEE024E1F584
:1019380082E43402F583E0FD7B017A0379307F0885
:101948001247649002FDE024E1F582E43402F58355
:10195800E0FD7B017A0379307F091247649002FC2D
:10196800E024E1F582E43402F583E0FD7B017A03AB
:1019780079307F0A1247649000047401F0A374035D
:10198800F0A37418F07B017A037930125126900283
:10199800D47401F0E49002B8F00216FE9002C5E09B
:1019A80024FB602C14604E240270729002EBE00459
:1019B800F09002F2E0600C9002EBE0B40D107401BC
:1019C800F080559002EBE0C39418404CE4F0804856
:1019D8009002EDE004F09002F2E0600C9002EDE07D
:1019E800B40D107401F0800B9002EDE0C394184020
:1019F80002E4F080239002EFE004F09002F2E0604D
:101A08000C9002EFE0B40D107401F0800B9002EF1F
:101A1800E0C394184002E4F0E49002C5F09002C7D5
:101A2800E024FB60151460202402702D9002ECE085
:101A380004F0E0B43C02E4F0801A9002EEE004F016
:101A4800E0B43C02E4F0800C9002F0E004F0E0B472
:101A58003C02E4F0E49002C7F09002B87401F0E4AC
:101A68009002D9F090030FF03085FD20050B90020D
:101A7800B67401F0E490030FF020872BD28C7F46D8
:101A880012000EC28CC296124AB7900375740BF0FE
:101A9800FF12582790033C748AF07B017A03791867
:101AA800FD12563E3087FD9002BAE0B4011430B4FE
:101AB8000630860320850BE49002BAF09002B3F05A
:101AC800C2969002DFE0B4011430B40630860320D9
:101AD800850BE49002DFF09002D7F0C2969002E006
:101AE800E0B4011430B40630860320850BE490027C
:091AF800E0F09002D8F0C2962241
:10006E00124EBA1225DB9002DDE07003020A5C909C
:10007E0002F9E0600AE4F0900311F09002B6F090FD
:10008E0002DEE060169002C1E004F0E49002DEF0C1
:10009E009002C1E0D3940F4002E4F09002C1E0B4AC
:1000AE000F004003020A189000BCF82828730200C3
:1000BE00E902013902019F0203390204AD0205A3D0
:1000CE0002063602070602072302077602084802D6
:1000DE0008690208BD0209A10209C4E49002B7F042
:1000EE00FF124B7D900311E0B401139002C8E0049F
:1000FE00F0E0D394634002E4F0E4900311F0900238
:10010E00B6E0B4010B9002C8E014F0E49002B6F031
:10011E009002C8E0FF12586BEFF0125896120003CF
:10012E007F8C1257419002C8020598E49002F1F0BC
:10013E009002B704F0E4FF123FC3900311E0B40144
:10014E00149002C9E004F0E0C3940D40037401F072
:10015E00E4900311F09002B6E0B4011A9002C9E0E7
:10016E0014F0E06005D3940D40079002C9E0240C12
:10017E00F0E49002B6F09002C9E0FF12586BEFF077
:10018E001258961200037F881257419002C9020539
:10019E0098E49002F1F09002B704F0E4FF12449953
:1001AE00900311E0C3940150030202651254B9E4A6
:1001BE00FCFDFE9002D01212FC9002CAE0FFC39426
:1001CE001E40519002C9E0FE6401601DEE640360A2
:1001DE0018EE64056013EE6407600EEE64086009A5
:1001EE00EE640A6004EEB40C0AEFB420069002CA64
:1001FE007401F09002C9E0FF6404600EEF640660C3
:10020E0009EF64096004EFB40B0A9002CAE0B41F50
:10021E00037401F09002C9E064027036A3E0FFC3DC
:10022E00941C402E9002D0E0F8A3E0F9A3E0FAA3CC
:10023E00E0FBE8494A4B600AEFB41E069002CA740E
:10024E0001F0E8494A4B700A9002CAE0B41D0374EB
:10025E0001F0E4900311F09002B6E0C39401500354
:10026E000203199002CAE014F0E06008D394205003
:10027E00030203141254BFE4FCFDFE9002D01212CE
:10028E00FC9002CAE06005C3941E404B9002C9E088
:10029E00FF6401601DEF64036018EF64056013EFE7
:1002AE006407600EEF64086009EF640A6004EFB43F
:1002BE000C079002CAE0241FF09002C9E0FF64040C
:1002CE00600EEF64066009EF64096004EFB40B077B
:1002DE009002CAE0241EF09002C9E0B402289002F7
:1002EE00D0E0FCA3E0FDA3E0FEA3E0FFEC4D4E4FFB
:1002FE0060079002CAE0241DF0EC4D4E4F7007903F
:10030E0002CAE0241CF0E49002B6F09002CAE0FFAC
:10031E0012586BEFF01258961200037F8612574157
:10032E009002CAE0FF1257410206301200037F8589
:10033E001257411256709002CCEFF01200037F83D9
:10034E001257411256709002CDEFF09002F2E0B4C7
:10035E0001179002CCE033333354F8F0E01313134B
:10036E00541FF0547FF054DFF09002CC12576FEF11
:10037E00F0E49002F6F09002F104F0E4FF12503F28
:10038E00900311E064016003020A309002F2E06013
:10039E0071E4F0FF1249ED900315E060139002EB4B
:1003AE00E0640C6004E0240CF0E4900315F0800986
:1003BE009002EBE0B40C02E4F0900317E0601390AF
:1003CE0002EDE0640C6004E0240CF0E4900317F0FE
:1003DE0080099002EDE0B40C02E4F09002B0E0600F
:1003EE00129002EFE0640C70030204A5E0240CF0FE
:1003FE000204A59002EFE0640C6003020999F0027A
:10040E0009999002F27401F0FF1249ED9002EBE0AF
:10041E00D3940C400AE024F4F09003157401F0908C
:10042E0002EBE0FFB40C069003157401F0EF700BB5
:10043E009002EB740CF0E4900315F09002EDE0D313
:10044E00940C400AE024F4F09003177401F090022B
:10045E00EDE0FFB40C069003177401F0EF700B90F3
:10046E0002ED740CF0E4900317F09002EFE0D394D9
:10047E000C400AE024F4F09002B07401F09002EF08
:10048E00E0FFB40C069002B07401F0EF60030209B5
:10049E00999002EF740CF0E49002B0F0020999E426
:1004AE009002F6F09002F2E0B401179002CCE03325
:1004BE00333354F8F0E0131313541FF0547FF054F9
:1004CE00DFF0E4FF1242B7900311E0640170349044
:1004DE0002CCE004F09002F2E060189002CCE0C38F
:1004EE00940D40037401F09002CCE0B40C10125540
:1004FE004F800B9002CCE0C394184002E4F0E490DD
:10050E000311F09002B6E06401703E9002CCE0144C
:10051E00F09002F2E060209002CCE0FFC3940D5008
:10052E0003EF70079002CCE0240CF09002CCE0B404
:10053E000B1212554F800D9002CCE0C3941840045C
:10054E00E02418F0E49002B6F09002CCE0FF1258CE
:10055E006BEFF09002F2E0601C9002CCE04480F071
:10056E00900313E09002CC6006E04420F0800DE092
:10057E0054DFF080079002CCE0547FF012589612B0
:10058E0000037F841257419002CCE0FF12574112B4
:10059E000003020630E49002F6F0FF1243A8900327
:1005AE0011E0640170299002CDE004F0E0C3943CA8
:1005BE004002E4F0E4900311F01258961200037F0B
:1005CE0080125741E4FF1257411200031258A390B4
:1005DE0002B6E06401702B9002CDE014F0E0D394EB
:1005EE003C4004E0243CF0E49002B6F0125896121F
:1005FE0000037F80125741E4FF125741120003128D
:10060E0058A39002CDE0FF12586BEFF012589612DD
:10061E0000037F821257419002CDE0FF1257411224
:10062E0000031258A3020A30C200E49002F6F07DD5
:10063E00F7FCFF1250B77D387C007F011250B79047
:10064E0002E2E0FD7C007F021250B73009723007E3
:10065E004B9002FFE0701FFDFC7F031250B77D5CD4
:10066E007C007F041250B77D717C007F051250B75D
:10067E007D717C00801DE4FDFC7F031250B77D5C14
:10068E007C007F041250B77D547C007F051250B75A
:10069E00E4FDFC7F061250B7C2078022E4FDFC7F0A
:1006AE00031250B7E4FDFC7F041250B7E4FDFC7F4B
:1006BE00051250B7E4FDFC7F061250B7D207C209EF
:1006CE009002FFE0700AA3E07006900302E060075C
:1006DE00900373E04440F01258B0900311E06401AF
:1006EE006003020A309002FFE06004E4F08006909E
:1006FE0002FF7401F002099978037C007D017B01F1
:10070E007A0279EB7E007F021210897D011223316D
:10071E007F010209BF78037C007D017B017A02799B
:10072E00EB7E007F021210897D021223319003119D
:10073E00E0B401139002ECE004F0E0C3943C4002FC
:10074E00E4F0E4900311F09002B6E064016003025D
:10075E000A309002ECE014F0E0D3943C5003020A0D
:10076E0011E0243CF0020A11C200E49002F6F07D82
:10077E00F7FCFF1250B77D387C007F011250B79006
:10078E0002E3E04480FD7C007F021250B730097214
:10079E0030074B900300E0701FFDFC7F031250B733
:1007AE007D5C7C007F041250B77D717C007F05124A
:1007BE0050B77D717C00801DE4FDFC7F031250B7A5
:1007CE007D5C7C007F041250B77D547C007F051247
:1007DE0050B7E4FDFC7F061250B7C2078022E4FD3D
:1007EE00FC7F031250B7E4FDFC7F041250B7E4FD0A
:1007FE00FC7F051250B7E4FDFC7F061250B7D207FE
:10080E00C2099002FFE0700AA3E07006900302E0B6
:10081E006007900373E04440F01258B0900311E06B
:10082E0064016003020A30900300E06004E4F0808B
:10083E00069003007401F002099978037C007D0193
:10084E007B017A0279ED7E007F02121089E4FB7D36
:10085E00017F021223357F020209BF78037C007DDF
:10086E00017B017A0279ED7E007F02121089E4FB92
:10087E007D027F02122335900311E0B40113900222
:10088E00EEE004F0E0C3943C4002E4F0E490031187
:10089E00F09002B6E064016003020A309002EEE0CE
:1008AE0014F0E0D3943C4004E0243CF0020A11C260
:1008BE0000E49002F6F07DF7FCFF1250B77D387C15
:1008CE00007F011250B79002E4E04480FD7C007F6F
:1008DE00021250B730097230074B900302E0701FBE
:1008EE00FDFC7F031250B77D5C7C007F041250B775
:1008FE007D717C007F051250B77D717C00801DE4F8
:10090E00FDFC7F031250B77D5C7C007F041250B754
:10091E007D547C007F051250B7E4FDFC7F0612501B
:10092E00B7C2078022E4FDFC7F031250B7E4FDFC42
:10093E007F041250B7E4FDFC7F051250B7E4FDFCB6
:10094E007F061250B7D207C2099002B0E06007903E
:10095E000373E04408F09002FFE0700AA3E0700613
:10096E00900302E06007900373E04440F01258B029
:10097E00900311E064016003020A30900302E0600C
:10098E0004E4F080069003027401F0E4900311F089
:10099E00020A3078037C007D017B017A0279EF7EBA
:1009AE00007F02121089E4FB7D017F031223357F45
:1009BE0003123315806C78037C007D017B017A0273
:1009CE0079EF7E007F02121089E4FB7D027F031215
:1009DE002335900311E0B401139002F0E004F0E02F
:1009EE00C3943C4002E4F0E4900311F09002B6E0B0
:1009FE00B4012F9002F0E014F0E0D3943C4004E0F8
:100A0E00243CF0E49002B6F08018E49002C1F0901D
:100A1E0002DDF09002F104F09002F6F09002B7F0D1
:100A2E00D2009002B1E0B40A259002F17401F09068
:100A3E0002F6F09002B7F0D200E49002DDF09002E0
:0F0A4E00B1F0D2039002F904F0E49002C1F0225B
:10587700E49002EBF0A3F0A3F0A3F0A3F0A3F022CF
:1057A400C205D203E490030FF09002C2F09002B15C
:0D57B400F0D28C7F4612000EC28CC29622ED
:10503F00900000EFF030096F300740C2079002F286
:10504F00E060119002E2E0FD7C007F031250B79008
:10505F0002E3800F9002E3E0FD7C007F031250B764
:10506F009002E5E0FD7C007F041250B77D767C0056
:10507F007F051250B77D447C008022D2079000003C
:10508F00E07022FDFC7F031250B7E4FDFC7F041299
:10509F0050B7E4FDFC7F051250B7E4FDFC7F06120C
:0850AF0050B71258B0C20922EB
:104B7D00900000EFF0200903024C3B30085DC208A5
:104B8D009002E3E0FD7B017A037930E4FF12476484
:104B9D009002E1E0FD7B017A0379307F01124764D9
:104BAD009002C8E075F00A8424E1F582E43402F540
:104BBD0083E0FD7B017A0379307F02124764900216
:104BCD00C8E075F00A8474E125F0F582E43402F54D
:104BDD0083E0FD7B017A0379308035D208900000A7
:104BED00E070497B017A037930FDFF1247647B0148
:104BFD007A037930E4FD7F011247647B017A0379F2
:104C0D0030E4FD7F021247647B017A037930E4FDC5
:104C1D007F031247649000047401F0A37403F0A3A2
:0F4C2D007418F07B017A037930125126C20922E4
:04233100E4FB7F0149
:10233500900000EFF0900002EBF0900001EDF064EA
:1023450001600302248C900004E075F00A8424E106
:10235500F582E43402F583E0FD7C007F051250B779
:10236500900004E075F00A8474E125F0F582E43408
:1023750002F583E0FD7C007F061250B720090302B9
:10238500248C200703022418900003E075F00A84CA
:1023950024E1F582E43402F583E0FD7C007F03123D
:1023A50050B7900003E075F00A8474E125F0F582DA
:1023B500E43402F583E0FD7C007F041250B7900001
:1023C50000E0FDB4010D900315E06007900373E094
:1023D5004408F0EDB4020D900317E0600790037315
:1023E500E04408F0900000E0B4030D9002B0E06016
:1023F50007900373E04408F09002FFE0700AA3E041
:102405007006900302E06007900373E04440F0C259
:10241500078068D207900002E0706AFDFC7F031216
:1024250050B7E4FDFC7F041250B7900000E0FDB406
:10243500010D900315E06007900373E04408F0ED8B
:10244500B4020D900317E06007900373E04408F0B1
:10245500900000E0B4030D9002B0E06007900373B4
:10246500E04408F09002FFE0700AA3E070069003D4
:1024750002E06007900373E04440F0900373E0448A
:1024850010F01258B0C209900001E0640260030226
:1024950025DA900003E075F00A8424E1F582E4343E
:1024A50002F583E0FD7C007F031250B7900003E046
:1024B50075F00A8474E125F0F582E43402F583E0D1
:1024C500FD7C007F041250B72009030225DA20079E
:1024D50003022566C207900004E075F00A8424E132
:1024E500F582E43402F583E0FD7C007F051250B7E8
:1024F500900004E075F00A8474E125F0F582E43477
:1025050002F583E0FD7C007F061250B7900000E0E5
:10251500FDB4010D900315E06007900373E04408D6
:10252500F0EDB4020D900317E06007900373E044EB
:1025350008F0900000E0B4030D9002B0E060079051
:102545000373E04408F09002FFE0700AA3E0700610
:10255500900302E06007900373E04440F0C20180FD
:1025650068D207900002E0706AFDFC7F051250B743
:10257500E4FDFC7F061250B7900000E0FDB4010DAC
:10258500900315E06007900373E04408F0EDB40292
:102595000D900317E06007900373E04408F0900086
:1025A50000E0B4030D9002B0E06007900373E044CF
:1025B50008F09002FFE0700AA3E07006900302E0C5
:1025C5006007900373E04440F0900373E04410F01B
:0625D5001258B0C20922F9
:1025DB009002F6E0B4010312484E9002F1E0640160
:1025EB0060030226AF9002C9E0FFC3940A4029EFB3
:1025FB0075F00A8424E1F582E43402F583E0FD7B77
:10260B00017A0379307F061247649002C9E075F0B6
:10261B000A8474E125F0801C9002C9E0D394095020
:10262B00277B017A037930E4FD7F06124764900221
:10263B00C9E024E1F582E43402F583E0FD7B017A05
:10264B000379307F071247649002CAE075F00A8461
:10265B0024E1F582E43402F583E0FD7B017A037912
:10266B00307F041247649002CAE075F00A8474E16B
:10267B0025F0F582E43402F583E0FD7B017A0379E2
:10268B00307F0512476490033BE04420F090000438
:10269B007401F0A37403F0A37418F07B017A03792F
:1026AB00301251269002B7E0640170759002E3E09E
:1026BB00FD7B017A037930E4FF1247649002E1E07D
:1026CB00FD7B017A0379307F011247649002C8E0E9
:1026DB0075F00A8424E1F582E43402F583E0FD7B96
:1026EB00017A0379307F021247649002C8E075F0DB
:1026FB000A8474E125F0F582E43402F583E0FD7B76
:10270B00017A0379307F031247649000047401F05F
:10271B00A37403F0A37418F07B017A037930125180
:10272B0026300605123B54C2069002D5E0B40A08C7
:10273B00123B54E49002D5F0121F849002D4E07047
:10274B006F900309E0FCA3E0FDA3E0FEA3E0FF1202
:10275B000D39EF75F00A8424E1F582E43402F58338
:10276B00E0FD7B017A0379307F08124764900309FF
:10277B00E0FCA3E0FDA3E0FEA3E0FF120D39EF7533
:10278B00F00A8474E125F0F582E43402F583E0FD70
:10279B007B017A0379307F091247647B017A0379D5
:1027AB00307D617F0A124764900337E04440F0228A
:1027BB009002BBE0FCA3E0FDA3E0FEA3E0FF120D43
:1027CB0039EF75F064849002FEF0EFFB7A00E07550
:1027DB00F064A4FFC3EB9FFFEA95F0FE7C007D0A3B
:1027EB001211299002FDEFF0A3E075F064A4FFC372
:1027FB00EB9FFFEA95F0FE7C007D0A1211299002F7
:10280B00FCEDF09002FEE024E1F582E43402F58366
:10281B00E0FD7B017A0379307F081247649002FD5B
:10282B00E024E1F582E43402F583E0FD7B017A03D9
:10283B0079307F091247649002FCE024E1F582E4D1
:10284B003402F583E0FD7B017A0379307F0A12476E
:10285B00649000047401F0A37403F0A37418F07B6C
:09286B00017A0379301251262292
:1042B700900000EFF02009030243A79002CDE075BC
:1042C700F00A8424E1F582E43402F583E0FD7C0002
:1042D7007F051250B79002CDE075F00A8474E1258E
:1042E700F0F582E43402F583E0FD7C007F0612508E
:1042F700B7300765C2079002CCE075F00A8424E165
:10430700F582E43402F583E0FD7C007F031250B7A9
:104317009002CCE075F00A8474E125F0F582E4346C
:1043270002F583E0FD7C007F041250B7900373E031
:104337004410F0900313E06007900373E04408F023
:104347009002FFE0700AA3E07006900302E0604B62
:10435700900373E04440F08042D207900000E07081
:104367003DFDFC7F031250B7E4FDFC7F041250B7FC
:10437700900373E04410F0900313E0600790037319
:10438700E04408F09002FFE0700AA3E07006900393
:1043970002E06007900373E04440F01258B0C2098E
:0143A70022F3
:10554F001200037F851257411256709002C3EFF07D
:10555F0030E50BE054DFF0E4900313F0800D900280
:10556F00C3E04420F09003137401F0125896120018
:10557F00037F841257419002C3E0FF125741025834
:01558F00A378
:1043A800900000EFF02009030244989002CCE075D9
:1043B800F00A8424E1F582E43402F583E0FD7C0010
:1043C8007F031250B79002CCE075F00A8474E1259F
:1043D800F0F582E43402F583E0FD7C007F0412509E
:1043E800B7300765C2079002CDE075F00A8424E172
:1043F800F582E43402F583E0FD7C007F051250B7B6
:104408009002CDE075F00A8474E125F0F582E43479
:1044180002F583E0FD7C007F061250B7900373E03D
:104428004410F0900313E06007900373E04408F031
:104438009002FFE0700AA3E07006900302E0604B70
:10444800900373E04440F08042D207900000E0708F
:104458003DFDFC7F051250B7E4FDFC7F061250B706
:10446800900313E06007900373E04408F09003732F
:10447800E04410F09002FFE0700AA3E07006900399
:1044880002E06007900373E04440F01258B0C2099C
:014498002201
:103FC300900000EFF09002CAE075F00A8424E1F556
:103FD30082E43402F583E0FD7B017A0379307F04C8
:103FE3001247649002CAE075F00A8474E125F0F583
:103FF30082E43402F583E0FD7B017A0379307F05A7
:1040030012476490033BE04420F02009030240C5BB
:1040130030076EC2079002C9E0FFC3940A4029EF3C
:1040230075F00A8424E1F582E43402F583E0FD7B34
:10403300017A0379307F061247649002C9E075F074
:104043000A8474E125F0801C9002C9E0D3940950DE
:10405300587B017A037930E4FD7F061247649002AE
:10406300C9E024E1F582E43402F583E0FD7B017AC3
:104073000379307F0712476490033BE04420F080CC
:1040830028D207900000E070377B017A037930FD76
:104093007F061247647B017A037930E4FD7F0712C0
:1040A300476490033BE04420F09000047401F0A3C4
:1040B3007403F0A37418F07B017A0379301251264C
:0340C300C209220D
:10449900900000EFF09002C9E0FFC3940A4029EFB1
:1044A90075F00A8424E1F582E43402F583E0FD7BAA
:1044B900017A0379307F061247649002C9E075F0EA
:1044C9000A8474E125F0801C9002C9E0D394095054
:1044D900277B017A037930E4FD7F06124764900255
:1044E900C9E024E1F582E43402F583E0FD7B017A39
:1044F9000379307F07124764200903024588300792
:104509003DC2079002CAE075F00A8424E1F582E40D
:104519003402F583E0FD7B017A0379307F04124789
:10452900649002CAE075F00A8474E125F0F582E42A
:104539003402F583E0FD7B017A037930801CD207D0
:10454900900000E070377B017A037930FD7F041217
:1045590047647B017A037930E4FD7F051247649053
:10456900033BE04420F09000047401F0A37403F0CD
:10457900A37418F07B017A037930125126C20922FB
:10331500900311E0640160030233EFEF24FE604D7A
:103325001470030233AE240260030233EA9002EB09
:10333500E004F09002F2E060279002EBE0C3940D08
:1033450040037401F09002EBE0640C60030233EA81
:10335500900315E06005E4F00233EA9003158075EB
:103365009002EBE0C39418407CE4F080789002ED85
:10337500E004F09002F2E060239002EDE0C3940DCA
:1033850040037401F09002EDE0640C70589003174F
:10339500E06004E4F0804E90031780399002EDE080
:1033A500C394184040E4F0803C9002EFE004F090B4
:1033B50002F2E060259002EFE0C3940D4003740132
:1033C500F09002EFE0B40C1D9002B0E06004E4F070
:1033D50080139002B07401F0800B9002EFE0C3946B
:1033E500184002E4F0E4900311F09002B6E06401A5
:1033F50060030234E4EF24FE60581470030234992C
:10340500240260030234DF9002EBE014F09002F234
:10341500E060309002EBE0FFC3940D5003EF7007BE
:103425009002EBE0240CF09002EBE0640B600302E9
:1034350034DF900315E06005E4F00234DF900315F6
:103445000234CD9002EBE0C3941850030234DF023E
:1034550034DB9002EDE014F09002F2E0602B900274
:10346500EDE0FFC3940D5003EF70079002EDE024EB
:103475000CF09002EDE0640B7060900317E06004BF
:10348500E4F08056900317803F9002EDE0C3941856
:10349500404880429002EFE014F09002F2E0602D87
:1034A5009002EFE0FFC3940D5003EF70079002EF19
:1034B500E0240CF09002EFE0B40B1F9002B0E06046
:1034C50004E4F080159002B07401F0800D9002EFD5
:1034D500E0C394184004E02418F0E49002B6F0220A
:103DAA0090030FE06003023EB89002DDE064016018
:103DBA0003023EB89002C1E0B40F004003023EB8CD
:103DCA00903DD1F8282873023DFE023E03023E08C8
:103DDA00023EB8023E0D023E12023EB8023E1702F1
:103DEA003E30023EB8023E4B023E66023EB8023EFA
:103DFA0081023E9C7F01024B7D7F01023FC37F010E
:103E0A000244997F010242B77F010243A878037CEA
:103E1A00007D017B017A0279EB7E007F0212108914
:103E2A007B017D01801778037C007D017B017A028A
:103E3A0079EB7E007F021210897B017D027F01806F
:103E4A006A78037C007D017B017A0279ED7E007F2E
:103E5A00021210897B017D017F02804F78037C006A
:103E6A007D017B017A0279ED7E007F021210897B47
:103E7A00017D027F02803478037C007D017B017A18
:103E8A000279EF7E007F021210897B017D017F0398
:103E9A00801978037C007D017B017A0279EF7E002C
:0F3EAA007F021210897B017D027F0312233522D4
:10313C00900000EFF01200037F8512574112567079
:10314C009002CCEFF01200039002F2E0B401179061
:10315C0002CCE033333354F8F0E0131313541FF064
:10316C00547FF054DFF09002CCE0FF125779EFF06F
:10317C00900000E070619002CCE004F09002F2E06C
:10318C00604A9002CCE0C3940D40037401F09002AD
:10319C00CCE0640C70411258961200037F851257D4
:1031AC00411256709002C3EFF01258A39002C3E084
:1031BC0030E50A54DFF0E4900313F0801A9002C358
:1031CC00E04420F09003137401F0800B9002CCE0EB
:1031DC00C394184002E4F0900000E0640170629027
:1031EC0002CCE014F09002F2E060499002CCE0FFD7
:1031FC00C3940D5003EF70079002CCE0240CF090B8
:10320C0002CCE0640C703A1200037F851257411215
:10321C0056709002C3EFF030E50BE054DFF0E49011
:10322C000313F0801C9002C3E04420F0900313744D
:10323C0001F0800D9002CCE0C394184004E02418F7
:10324C00F09002CCE075F00A8424E1F582E43402BB
:10325C00F583E0FD7C007F031250B79002CCE07543
:10326C00F00A8474E125F0F582E43402F583E0FD84
:10327C007C007F041250B7900373E04410F090036D
:10328C0013E06007900373E04408F09002FFE070D5
:10329C000AA3E07006900302E06007900373E04419
:1032AC0040F01258B09002CCE0FF12586BEFF09047
:1032BC0002F2E0601C9002CCE04480F0900313E03A
:1032CC009002CC6006E04420F0800DE054DFF080EA
:1032DC00079002CCE0547FF01258961200037F84C2
:1032EC001257419002CCE0FF1257411200031258C2
:1032FC00A31240C67FFA12000E9002CCE0FF1257C8
:09330C0079EFF0E49002B1F02227
:1041C300900000EFF01200037F83125741125670E4
:1041D3009002CDEFF01200039002CDE0FF12577969
:1041E300EFF0900000E0FF700E9002CDE004F0E0ED
:1041F300C3943C4002E4F0EFB401109002CDE0140C
:10420300F0E0D3943C4004E0243CF09002CDE07510
:10421300F00A8424E1F582E43402F583E0FD7C00B6
:104223007F051250B79002CDE075F00A8474E12542
:10423300F0F582E43402F583E0FD7C007F06125042
:10424300B7900313E06007900373E04408F0900312
:1042530073E04410F09002FFE0700AA3E070069050
:104263000302E06007900373E04440F01258B090FB
:1042730002CDE0FF12586BEFF01258961200037F45
:10428300821257419002CDE0FF1257411200037F83
:1042930080125741E4FF1257411200031258A390B2
:1042A30002CDE0FF125779EFF07FFA12000EE4908F
:0442B30002B1F02242
:10458900900000EFF01200037F8D12574112567010
:104599009002C8EFF01200039002C8E0FF125779A9
:1045A900EFF0900000E0FFB401069002C8E014F0BB
:1045B900EF700E9002C8E004F0E0D394634002E487
:1045C900F09002E3E0FD7B017A037930E4FF1247C2
:1045D900649002E1E0FD7B017A0379307F011247A3
:1045E900649002C8E075F00A8424E1F582E434029B
:1045F900F583E0FD7B017A0379307F0212476490ED
:1046090002C8E075F00A8474E125F0F582E4340209
:10461900F583E0FD7B017A0379307F0312476490CB
:1046290000047401F0A37403F0A37418F07B017AF9
:104639000379301251269002C8E0FF12586BEFF04F
:104649001258961200037F8C1257419002C8E0FF5E
:104659001257411200031258A37FFA12000E90025A
:0E466900C8E0FF125779EFF0E49002B1F022A2
:103EB900900000EFF01200037F89125741125670EB
:103EC9009002C9EFF01200039002C9E0FF1257797E
:103ED900EFF0900000E0FF700F9002C9E004F0E0FD
:103EE900C3940D40037401F0EFB401159002C9E0C9
:103EF90014F0E06005D3940D40079002C9E0240C4A
:103F0900F09002C9E0FFC3940A4029EF75F00A84D2
:103F190024E1F582E43402F583E0FD7B017A03793B
:103F2900307F061247649002C9E075F00A8474E193
:103F390025F0801C9002C9E0D39409502E7B017AA8
:103F4900037930E4FD7F061247649002C9E024E159
:103F5900F582E43402F583E0FD7B017A0379307F51
:103F69000712476490033BE04420F0900004740179
:103F7900F0A37403F0A37418F07B017A037930126B
:103F890051269002C9E0FF12586BEFF012589612B1
:103F990000037F881257419002C9E0FF125741126E
:103FA90000031258A39002C9E0FF125779EFF07F7E
:0A3FB900FA12000EE49002B1F022AB
:102D4600900000EFF01200037F8712574112567071
:102D56009002CAEFF01200039002CAE0FF12577900
:102D6600EFF0900000E06003022E171254B9E4FC65
:102D7600FDFE9002D01212FC9002CAE0FFC3941E20
:102D860040519002C9E0FE6401601DEE64036018C4
:102D9600EE64056013EE6407600EEE64086009EEEB
:102DA600640A6004EEB40C0AEFB420069002CA74FA
:102DB60001F09002C9E0FF6404600EEF640660094A
:102DC600EF64096004EFB40B0A9002CAE0B41F0373
:102DD6007401F09002C9E064027036A3E0FFC39468
:102DE6001C402E9002D0E0F8A3E0F9A3E0FAA3E09D
:102DF600FBE8494A4B600AEFB41E069002CA74010A
:102E0600F0E8494A4B700A9002CAE0B41D03740107
:102E1600F0900000E064016003022EC59002CAE053
:102E260014F0E06008D394205003022EC51254BF5C
:102E3600E4FCFDFE9002D01212FC9002CAE060058E
:102E4600C3941E404B9002C9E0FF6401601DEF640D
:102E5600036018EF64056013EF6407600EEF640803
:102E66006009EF640A6004EFB40C079002CAE0241C
:102E76001FF09002C9E0FF6404600EEF640660096B
:102E8600EF64096004EFB40B079002CAE0241EF059
:102E96009002C9E0B402289002D0E0FCA3E0FDA3B2
:102EA600E0FEA3E0FFEC4D4E4F60079002CAE0241F
:102EB6001DF0EC4D4E4F70079002CAE0241CF090B6
:102EC60002CAE075F00A8424E1F582E43402F5834F
:102ED600E0FD7B017A0379307F041247649002CAD1
:102EE600E075F00A8474E125F0F582E43402F58396
:102EF600E0FD7B017A0379307F0512476490033B3E
:102F0600E04420F09000047401F0A37403F0A3746D
:102F160018F07B017A0379301251269002CAE0FF3D
:102F260012586BEFF01258961200037F8612574123
:102F36009002CAE0FF1257411258A39002CAE0FF5E
:102F4600125779EFF07FFA12000EE49002B1F022E8
:10287400900000EFF0ED6401600302295DE0FF6465
:102884000170452086429002EBE004F09002F2E0F1
:1028940060259002EBE0C3940D40037401F09002B4
:1028A400EBE0B4011D900315E06004E4F0801390A4
:1028B40003157401F0800B9002EBE0C394184002FE
:1028C400E4F09002C57401F0EF640270429002EDEE
:1028D400E004F09002F2E060259002EDE0C3940D74
:1028E40040037401F09002EDE0B4011D900317E081
:1028F4006004E4F080139003177401F0800B9002DD
:10290400EDE0C394184002E4F09002C57402F09024
:102914000000E0640370429002EFE004F09002F2E1
:10292400E060259002EFE0C3940D40037401F09041
:1029340002EFE0B4011D9002B0E06004E4F0801303
:102944009002B07401F0800B9002EFE0C394184041
:1029540002E4F09002C57403F0ED64026003022AFD
:102964005F900000E0FF6401704C9002EBE014F013
:102974009002F2E0602D9002EBE0FEC3940D500350
:10298400EE70079002EBE0240CF09002EBE0B40A46
:102994001F900315E06004E4F080159003157401A2
:1029A400F0800D9002EBE0C394184004E02418F08A
:1029B4009002C57404F0EF6402704C9002EDE014D0
:1029C400F09002F2E0602D9002EDE0FFC3940D5010
:1029D40003EF70079002EDE0240CF09002EDE0B4F8
:1029E4000A1F900317E06004E4F080159003177445
:1029F40001F0800D9002EDE0C394184004E0241827
:102A0400F09002C57405F0900000E06403704C90EF
:102A140002EFE014F09002F2E0602D9002EFE0FF8C
:102A2400C3940D5003EF70079002EFE0240CF09074
:102A340002EFE0B40A1F9002B0E06004E4F08015F5
:102A44009002B07401F0800D9002EFE0C39418403E
:102A540004E02418F09002C57406F0900002E075BA
:102A6400F00A8424E1F582E43402F583E0FD7C007D
:102A74007F031250B7900002E075F00A8474E125D8
:102A8400F0F582E43402F583E0FD7C007F0412500B
:102A9400B7900373E04410F0900000E0FDB4010D22
:102AA400900315E06007900373E04408F0EDB4026E
:102AB4000D900317E06007900373E04408F0900062
:102AC40000E0B4030D9002B0E06007900373E044AB
:102AD40008F09002FFE0700AA3E07006900302E0A1
:102AE4006007900373E04440F01258B07FFA12007C
:072AF4000EE49002B1F02294
:10365B00900000EFF0ED6401704CE0FFB4011490AA
:10366B0002ECE004F0E0C3943C4002E4F09002C7AB
:10367B007401F0EFB402149002EEE004F0E0C39496
:10368B003C4002E4F09002C77402F0900000E0B4FA
:10369B0003149002F0E004F0E0C3943C4002E4F029
:1036AB009002C77403F0ED64027055900000E0FFC8
:1036BB00B401169002ECE014F0E0D3943C4004E02B
:1036CB00243CF09002C77404F0EFB402169002EEA3
:1036DB00E014F0E0D3943C4004E0243CF09002C7AB
:1036EB007405F0900000E0B403169002F0E014F0C3
:1036FB00E0D3943C4004E0243CF09002C77406F005
:10370B00900003E075F00A8424E1F582E43402F5BD
:10371B0083E0FD7C007F051250B7900003E075F04D
:10372B000A8474E125F0F582E43402F583E0FD7C34
:10373B00007F061250B7900000E0FDB4010D90031E
:10374B0015E06007900373E04408F0EDB4020D90B0
:10375B000317E06007900373E04408F0900000E06B
:10376B00B4030D9002B0E06007900373E04408F0DF
:10377B009002FFE0700AA3E07006900302E060077E
:10378B00900373E04440F0900373E04410F0125840
:0C379B00B07FFA12000EE49002B1F022A0
:103B540090000012130840533333900008740FF0A0
:103B6400A3746EF043B980E5B930E5FB43B920AFE7
:103B7400BDEFFEADBC7C00E42DFFEC3EC4F854F078
:103B8400C868FEEFC4540F48FFFDAC06E4120D00F4
:103B9400900000E0F8A3E0F9A3E0FAA3E0FB120B25
:103BA40055E4FBFA79807845120C5E9000041212F9
:103BB400FC900004E0F8A3E0F9A3E0FAA3E0FB9092
:103BC4000000E0FCA3E0FDA3E0FEA3E0FF120A6016
:103BD400A804A905AA06AB07900004E0FCA3E0FD35
:103BE400A3E0FEA3E0FF120C5E123CB5C004C005C6
:103BF400C006C007900008E0FCA3E0FDE4120D003D
:103C0400A804A905AA06AB07D007D006D005D0049E
:103C1400120C5E7B0F7ACF795B783B120A64A8049E
:103C2400A905AA06AB07E4FFFE7D807C3F120C5E6B
:103C34009003091212FC900309E0FCA3E0FDA3E049
:103C4400FEA3E0FF7B337A93798878C3120A6490E9
:103C540003091212FC7F667E667DE67C3F900309B1
:103C6400E0F8A3E0F9A3E0FAA3E0FB120B55E4FBB0
:0D3C7400FAF97842120A649002BB0212FCB9
:1038E5009002CEE0702E9002EBE0FF9002CCE0B5A6
:1038F50007229002ECE0FF9002CDE0B50716900399
:1039050015E0FF900313E0B5070A9002BA7401F0C1
:103915009002B3F09002BAE07003023A1F9002ECF5
:10392500E0FF04F9EF2406FFE0FE2407FDEE240C7A
:10393500FEE0240DFC9002B3E06016900314E060F5
:1039450010308C06C28CC2968002D28CE49003148F
:10395500F09080047481F0208409C28CC296E490B2
:1039650002B3F0E9C3943C400DE924C4FB9002CDB9
:10397500E0B5031280079002CDE0B50109C28CC203
:1039850096E49002B3F0EFC3943C4011EF24C4FBDE
:103995009002CDE0B50316A3E07012800B9002CD26
:1039A500E0B50709A3E070059002B304F0EDC394F8
:1039B5003C400DED24C4FF9002CDE0B50712800711
:1039C5009002CDE0B50509C28CC296E49002B3F031
:1039D500EEC3943C4011EE24C4FF9002CDE0B50740
:1039E50016A3E07012800B9002CDE0B50609A3E0A6
:1039F50070059002B304F0ECC3943C400DEC24C474
:103A0500FF9002CDE0B5071280079002CDE0B50426
:0A3A150009C28CC296E49002B3F0DF
:013A1F002284
:1037A7009002CEE0702E9002EDE0FF9002CCE0B5E3
:1037B70007229002EEE0FF9002CDE0B507169003D6
:1037C70017E0FF900313E0B5070A9002DF7401F0DA
:1037D7009002D7F09002DFE070030238E49002EE27
:1037E700E0FF04F9EF2406FFE0FE2407FDEE240CBA
:1037F700FEE0240DFC9002D7E06016900314E06011
:1038070010308C06C28CC2968002D28CE4900314CE
:10381700F09080047481F0208409C28CC296E490F1
:1038270002D7F0E9C3943C400DE924C4FB9002CDD4
:10383700E0B5031280079002CDE0B50109C28CC242
:1038470096E49002D7F0EFC3943C4011EF24C4FBF9
:103857009002CDE0B50316A3E07012800B9002CD65
:10386700E0B50709A3E070059002D704F0EDC39413
:103877003C4010ED24C4FF9002CDE0FBEFC39B401A
:103887001280079002CDE0B50509C28CC296E4907C
:1038970002D7F0EEC3943C4011EE24C4FF9002CD52
:1038A700E0B50716A3E07012800B9002CDE0B506D5
:1038B70009A3E070059002D704F0ECC3943C400DD7
:1038C700EC24C4FF9002CDE0B5071280079002CD2B
:0D38D700E0B50409C28CC296E49002D7F05F
:0138E40022C1
:1034E5009002CEE0702E9002EFE0FF9002CCE0B5A6
:1034F50007229002F0E0FF9002CDE0B5071690029A
:10350500B0E0FF900313E0B5070A9002E07401F004
:103515009002D8F09002E0E0700302365A9002F073
:10352500E0FE04900000F0EE2406A3F09002F0E027
:10353500FF2407F9EF240CFFE0240DFE9002D8E0EC
:103545006016900314E06010308C06C28CC2968021
:1035550002D28CE4900314F09080047481F02084EE
:1035650009C28CC296E49002D8F09002F0E02401E2
:10357500FDE433FC9002CDE07A00B5050DEAB50413
:1035850009C28CC296E49002D8F0900000E0FDC319
:10359500943C400DED24C4FD9002CDE0B5051780A7
:1035A5000C9002CDE0FD900000E0B50509C28CC28B
:1035B50096E49002D8F0900001E0FDC3943C4011E0
:1035C500ED24C4FD9002CDE0B5051DA3E070198082
:1035D500129002CDE0FD900001E0B5050B9002CE02
:1035E500E070059002D804F0E9C3943C400DE9244D
:1035F500C4FD9002CDE0B5051280079002CDE0B57F
:103605000109C28CC296E49002D8F0EFC3943C4005
:1036150011EF24C4FD9002CDE0B50516A3E07012AC
:10362500800B9002CDE0B50709A3E070059002D8A4
:1036350004F0EEC3943C400DEE24C4FF9002CDE0AF
:10364500B5071280079002CDE0B50609C28CC29677
:05365500E49002D8F032
:01365A00224D
:10492200EF14B4070040030249EC90493A75F003D2
:10493200A4C58325F0C5837302494F02495D02492C
:10494200730249890249A10249B90249D17D367CE3
:104952002AE4FF1250B77D3F0249DC7D017C09E465
:10496200FF1250B77D3E7C007F011250B77DF98067
:104972002A7D367C15E4FF1250B77DF97C007F0159
:104982001250B77D0F80447D017C09E4FF1250B7BD
:104992007DF67C007F011250B77D3E7C0080467D13
:1049A200F17C00E4FF1250B77DF37C047F011250CA
:1049B200B77409FDFC802E7DED7C00E4FF1250B738
:1049C2007DF77C007F011250B77D017C0980167D46
:1049D200ED7C00E4FF1250B77D3E7C007F01125057
:0B49E200B77D367C247F021250B72204
:101F840090000C121308000000001200037F8D1251
:101F94005741125670900012EFF01200037F89121D
:101FA4005741125670900010EFF01200037F871211
:101FB4005741125670900011125774EFF0900010B0
:101FC40012576FEFF0A3E024D0FFE43407FEE4FCE3
:101FD400FD9000041212FC90000012130800000788
:101FE400D0900004E0FCA3E0FDA3E0FEA3E0FF909A
:101FF4000000E0F8A3E0F9A3E0FAA3E0FBC31212A7
:10200400BF50599000001254D6EF90000C600EE0BF
:10201400FCA3E0FDA3E0FEA3E0246E800CE0FCA39F
:10202400E0FDA3E0FEA3E0246DFFEE3401FEE43DF9
:10203400FDE43CFC90000C1212FC900000E0FCA3B8
:10204400E0FDA3E0FEA3E02401FFE43EFEE43DFD49
:10205400E43CFC9000001212FC021FE59000081200
:10206400130800000001900010E0FFE4FCFDFE9066
:102074000008E0F8A3E0F9A3E0FAA3E0FBC312121E
:10208400BF4003022272E47F01FEFDFC900008E0E1
:10209400F8A3A3A3E0C31212BF7003022120E47FBC
:1020A40003FEFDFC900008E0F8A3A3A3E0C3121212
:1020B400BF6069E47F05FEFDFC900008E0F8A3A37F
:1020C400A3E0C31212BF6054E47F07FEFDFC90003E
:1020D40008E0F8A3A3A3E0C31212BF603FE47F08A3
:1020E400FEFDFC900008E0F8A3A3A3E0C31212BF16
:1020F400602AE47F0AFEFDFC900008E0F8A3A3A395
:10210400E0C31212BF6015E47F0CFEFDFC900008D2
:10211400E0F8A3A3A3E0C31212BF701F90000CE069
:10212400FCA3E0FDA3E0FEA3E0241FFFE43EFEE4E5
:102134003DFDE43CFC90000C1212FCE47F04FEFD27
:10214400FC900008E0F8A3E0F9A3E0FAA3E0FBC3E5
:102154001212BF603FE47F06FEFDFC900008E0F829
:10216400A3A3A3E0C31212BF602AE47F09FEFDFC0F
:10217400900008E0F8A3A3A3E0C31212BF6015E423
:102184007F0BFEFDFC900008E0F8A3A3A3E0C312BC
:1021940012BF701F90000CE0FCA3E0FDA3E0FEA3BF
:1021A400E0241EFFE43EFEE43DFDE43CFC90000C14
:1021B4001212FC9002D0E0FCA3E0FDA3E0FEA3E039
:1021C400FFEC4D4E4F6039E47F02FEFDFC900008A9
:1021D400E0F8A3E0F9A3E0FAA3E0FBC31212BF7096
:1021E4001F90000CE0FCA3E0FDA3E0FEA3E0241D8F
:1021F400FFE43EFEE43DFDE43CFC90000C1212FCC6
:102204009002D0E0FCA3E0FDA3E0FEA3E0FFEC4DD0
:102214004E4F70387F02FEFDFC900008E0F8A3E00A
:10222400F9A3E0FAA3E0FBC31212BF701F90000CE5
:10223400E0FCA3E0FDA3E0FEA3E0241CFFE43EFEDB
:10224400E43DFDE43CFC90000C1212FC900008E01C
:10225400FCA3E0FDA3E0FEA3E02401FFE43EFEE4D2
:102264003DFDE43CFC9000081212FC02206A900040
:102274000CE0F8A3E0F9A3E0FAA3E0FB900011E07E
:10228400FFE4FCFDFEEB2FFFEE3AFEED39FDEC38EA
:10229400FC90000C1212FCE47B07FAF9F890000C95
:1022A400E0FCA3E0FDA3E0FEA3E0FF12121FAF03D6
:1022B400EFB4070050529022C1F82828730222D6A6
:1022C4000222DE0222E60222EE0222F60222FE02AE
:1022D40023069002CB7405F0802E9002CB7406F096
:1022E40080269002CB7407F0801E9002CB7401F01C
:1022F40080169002CB7402F0800E9002CB7403F02F
:1023040080069002CB7404F01258961200037F8A60
:102314001257419002CBE0FF1257411200031258AA
:0C232400A33000089002CBE0FF12492219
:01233000228A
:103A20009002B6E07003023B15E490030DF09002A3
:103A3000DDE06003023B079002B7F09002F8E0047B
:103A4000F09002F4E0B4010B9002F8E014F0E4907E
:103A500002F4F09002F8E0D394014002E4F0900206
:103A6000F8E0146055046003023B077B017A037998
:103A7000307D40E4FF1247647B017A0379307D405A
:103A80007F011247647B017A0379307D6D7F0212DA
:103A900047647B017A0379307D5E7F03124764902F
:103AA00000047401F0A37403F0A37418F07B017A8E
:103AB000037930125126C20A804D7B017A03793096
:103AC0007D5CE4FF1247647B017A0379307D547F8B
:103AD000011247647B017A0379307D6D7F021247C2
:103AE000647B017A0379307D5E7F03124764900026
:103AF000047401F0A37403F0A37418F07B017A033B
:103B00007930125126D20AE49002B6F030030690C2
:103B100002B1F0C203300307E49002B1F0C2039097
:103B200002B1E0640A60079002DEE0B4011F900277
:103B3000B77401F0E49002B1F0D203900311F09059
:103B400002DEF09002F404F0E4900316F0300A0371
:043B5000124C3C22B5
:104C3C009002C0E070569080037441F0308334F0E1
:104C4C003083491240C6900375E0600890033CE045
:104C5C00648070389003757401F0FF12582790032C
:104C6C003C748FF07B017A037918FD12563E12408A
:104C7C00C68019E4900375F0FF12582790033C741A
:104C8C0080F07B017A037918FD12563E90033CE0CC
:104C9C0020E307900375E030E04A9002C07401F005
:104CAC009002C6E06009E490030DF09002C6F0900B
:104CBC00030DE06405702DF09002C0F09002C60464
:104CCC00F0E4900375F0FF12582790033C7480F0C9
:104CDC007B017A037918FD12563E7F9612000E7FE7
:054CEC009612000E22EB
:104AB7007F1212586B9000011258671258661258ED
:104AC70066A3EFF07F0C12586BA3EFF0E4FF1258C8
:104AD7006BA3EFF0E4FF12586BA3EFF0900005E033
:104AE7004480F054DFF09002F27401F0E490031375
:104AF700F01258961200037F901257417FAB12575E
:104B0700411200037FBE125741900007E0FF125782
:104B170041900006E0FF125741900005E0FF125751
:104B270041900003E0FF125741900002E0FF125747
:104B370041900004E0FF125741900001E0FF125737
:104B470041E4FF1257411200031258A3E49002FFF9
:104B5700F0A3F0900302F09002F7F09002DDF090DE
:104B670002F604F09002F1F09002B7F0D200C20A08
:054B7700E49002F8F0DB
:014B7C002216
:1040C6001200037F85125741125670900001EFF0DF
:1040D6009002F2E07003024183900001E033333333
:1040E60054F8F0E0131313541FFFF0125779EFF052
:1040F600900313E06046900001E0FFC39401400680
:10410600EFD394064004EFB40C1A9003757401F0D3
:10411600FF12582790033C748FF07B017A037918BD
:10412600FD12563E900001E0FFC394075003024182
:10413600C2EFD3940B40030241C28066900001E0B7
:10414600FFC394074020EFD3940B501A9003757465
:1041560001F0FF12582790033C748FF07B017A031D
:104166007918FD12563E900001E0FFC39401400607
:10417600EFD394064005EF640C7041802590000152
:10418600E0FF125779EFF0C394074016E0941350FE
:10419600119003757401F0FF12582790033C748F39
:1041A600800F900375740BF0FF12582790033C7430
:0C41B6008AF07B017A037918FD12563E56
:0141C20022DA
:102AFB007FE812000EE4900000F0900000E0FFC3AE
:102B0B00940A4003022CC774E12FF582E43402F5DA
:102B1B0083E0FD7B017A037930E4FF124764900078
:102B2B0000E024E1F582E43402F583E0FD7B017AD9
:102B3B000379307F01124764900000E024E1F582B5
:102B4B00E43402F583E0FD7B017A0379307F0212D6
:102B5B004764900000E024E1F582E43402F583E061
:102B6B00FD7B017A0379307F03124764900000E00C
:102B7B0024E1F582E43402F583E0FD7B017A0379ED
:102B8B00307F04124764900000E024E1F582E434C6
:102B9B0002F583E0FD7B017A0379307F05124764F0
:102BAB00900000E024E1F582E43402F583E0FD7B44
:102BBB00017A0379307F06124764900000E024E12C
:102BCB00F582E43402F583E0FD7B017A0379307FF3
:102BDB0007124764900000E024E1F582E43402F52B
:102BEB0083E0FD7B017A0379307F08124764900004
:102BFB0000E024E1F582E43402F583E0FD7B017A09
:102C0B000379307F09124764900000E024E1F582DC
:102C1B00E43402F583E0FD7B017A0379307F0A12FD
:102C2B004764900000E024E1F582E43402F583E090
:102C3B00FD7B017A0379307F0B124764900000E033
:102C4B0024E1F582E43402F583E0FD7C007F03127E
:102C5B0050B7900000E024E1F582E43402F583E004
:102C6B00FD7C007F041250B7900000E024E1F58258
:102C7B00E43402F583E0FD7C007F051250B7900031
:102C8B0000E024E1F582E43402F583E0FD7C007F73
:102C9B00061250B71258B09000047401F0A37403DD
:102CAB00F0A37418F07B017A0379301251267FE878
:102CBB0012000E900000E004F0022B05E4FF7430CC
:102CCB002FF582E43403F583E4F00FEFB40CEFE45B
:102CDB00900000F0900000E0FFC394105014746556
:102CEB002FF582E43403F583E4F0900000E004F068
:102CFB0080E21258B09000047401F0A37403F0A3A7
:102D0B007418F07B017A037930125126900000740D
:102D1B0001F0900000E0FFC39408501312492212F7
:102D2B0058B07FE812000E900000E004F080E3D270
:0A2D3B008C7FE812000EC28CC296D5
:012D4500226B
:105590009080017441F02081329002DCE07009902B
:1055A00002CFF09002DC04F09002CFE0D3941E40D2
:1055B0001FD20A9002F87401F0E49002C0F0900348
:1055C0000DF09002CFF09002DCF022E49002CFF0D8
:0155D00022B8
:0549ED00900000EFF056
:1049F2001200037F85125741125670900001EFF0AA
:104A0200900000E064017052A3E0FF125779EFF0CA
:104A1200D3940C4019E024F4F0E0FF12586BEFF04D
:104A22004420F04480F09003137401F0802C900035
:104A320001E0FFB40C129003137401F012586B9052
:104A42000001EFF04420800E900001E0FFC3940CBF
:104A5200500812586BEFF04480F0900000E0703F75
:104A6200A3E030E51E547FF054DFFFF0E49003131F
:104A7200F0125779900001EFF0640C6018E0240CFA
:104A8200F08012900001E0547FFFF0125779EFF0AE
:104A9200BF0C02E4F0900001E0FF12586BEFF0123D
:104AA20058961200037F84125741900001E0FF12D2
:054AB20057410258A36A
:10484E009002CCE075F00A8424E1F582E43402F59E
:10485E0083E0FD7C007F031250B79002CCE075F030
:10486E000A8474E125F0F582E43402F583E0FD7CE0
:10487E00007F041250B79002CDE075F00A8424E157
:10488E00F582E43402F583E0FD7C007F051250B71B
:10489E009002CDE075F00A8474E125F0F582E434DF
:1048AE0002F583E0FD7C007F061250B730026430C3
:1048BE00012FC201900373E054EFF0900313E060F8
:1048CE0007900373E04408F09002FFE0700AA3E043
:1048DE007006900302E06036900373E04440F0806F
:1048EE002DD201900373E04410F0900313E06007A3
:1048FE00900373E04408F09002FFE0700AA3E070AA
:10490E0006900302E06007900373E04440F01258F3
:04491E00B0C20222FF
:104EBA001200037FBF1257411256709002CEEFF0D4
:104ECA001256709002CDEFF01256709002CCEFF0AD
:104EDA001256709002CAEFF01256709002C9EFF0A3
:104EEA001256709002CBEFF01256709002C8EFF093
:104EFA001200039002F2E0640170299002CCE0FFF4
:104F0A0030E50B30E7089003137401F08005E49054
:104F1A000313F0EF33333354F89002CCF0E0131359
:104F2A0013541FF09002C8E0FF1257791257641207
:054F3A005764EFF022B6
:100A5D00020DA5E86480F8E933E83360110460F015
:100A6D00ED33EC337009E8FCE9FDEAFEEBFF2204FF
:100A7D0060DED3EB9FEA9EE99DE8C2E78CF0C2F7FA
:100A8D0095F0400CE8CCF8E9CDF9EACEFAEBCFFBC6
:100A9D00120D7085D0F05804700320D5B3E80470A2
:100AAD00075002B2D5020DAF92D5EC0460F7E4CC3D
:100ABD00C0E0C398F8603B94186008400DD0E0FB8F
:100ACD00020D87E4FBFAC9FC8028E830E406E4C98E
:100ADD00FBE4CAFCE830E305E4C9CACBFCE85407E3
:100AED006010F8C3E913F9EA13FAEB13FBEC13FCEE
:100AFD00D8F130F52FC3E49CFCEF9BFFEE9AFEED91
:100B0D0099FDD0E0FBEF4E4D4C701222DB03020D30
:100B1D00ACEC2CFCEF33FFEE33FEED33FDED30E7A7
:100B2D00EB020D87EF2BFFEE3AFEED39FDD0E0FB2A
:100B3D0050130BBB0003020DAFED13FDEE13FEEFD3
:080B4D0013FFEC13FC020D87FD
:100B5500EC4D6011E8497017ED33EC3304600DE49A
:100B6500FCFFFEFD22E933E8330470F8020DA512FF
:100B75000D7058046009E4CC248150062850090200
:100B85000DAF284003020DACC0E0EB4A7044B980BC
:100B950006D0E0FB020D9BEF4E701CBD8008EBFFFD
:100BA500EAFEE9FD80EBE98DF0A4FEE5F0020C3EDE
:100BB500E9CDF9EAFEEBFFEF89F0A4FCE5F0CE897B
:100BC500F0A42EFFE435F0CD89F0A42DFEE435F038
:100BD5008067EF4E7005BD80D780C3EF8BF0A4AC66
:100BE500F0EE8BF0A42CFCE435F0F8EF8AF0A42CA1
:100BF500E5F038FCE433CB8DF0A42CFCE5F03BF8B4
:100C0500EE8AF0A42CFCE5F038F8E433CF89F0A4A3
:100C15002CFCE5F038CF3400CE89F0A42FFFE5F0A9
:100C25003EFEE433C98DF0A42EFEE5F039CD8AF001
:100C3500A42FFFE5F03EFEE43DFD33D0E0FB500779
:100C45000BBB000F020DAFEC2CFCEF33FFEE33FEB8
:060C5500ED33FD020D87E6
:100C5B00020DAFEC5D046005E859047003020DA5AD
:100C6B00120D70580460F6EC4860F2EC7004FDFE57
:100C7B00FF22C860DB2481C85009C398600250066C
:100C8B00020DAC9850CAF582E9294B4A7005AB822C
:100C9B00020D9B75F0007C1A7880C3EF9BEE9AEDEA
:100CAB0099400DC3EF9BFFEE9AFEED99FDE842F0E4
:100CBB00DC23ACF0D0E0FFD0E0FED0E0FDAB822037
:100CCB00E7101BEB60BAEC2CFCEF33FFEE33FEEDC1
:100CDB0033FD020D87E803F830E705C0F075F0002F
:100CEB00EF2FFFEE33FEED33FD40B830E7C280AAA5
:100CFB0075F020800E75F010800575F0087D007E74
:100D0B00007F003392D530D5031212B1EC33401073
:100D1B00EF33FFEE33FEED33FDEC33FCD5F0ED227C
:0E0D2B00E5F0247EA2D513CC92E7CDCEFF22B8
:100D3900EDD2E7CD33EC3392D524814006E4FFFEB2
:100D4900FDFC22FCE4CFCECDCC24E0501174FF8011
:100D5900EDC3CC13CCCD13CDCE13CECF13CF0470AE
:070D6900F030D5DE0212B1EB
:103C81003E9248DA3ECCCCCD3F2AAAAB40000000A0
:103C91003F8000003F9837F03FB504F33FD744FC25
:103CA1003E3172173EB172173F0515913EDE5BD969
:103CB100D20B8002C20BEDD2E7F8CD33EC330470A6
:103CC1000BBD800592D5020DAF020DA540FBD314AB
:103CD10060F2F5F07C3FEE7A00C39496C8948B4075
:103CE100230AC89469C8941A401A0AC89468C894E7
:103CF1001F40110AC8945AC89425400805F07A005B
:103D0100CDC2E7CDC0F090000A1212FCEA2323C015
:103D1100E02491F582E4343CF5831212EC120A643A
:103D2100ECC0E0EDC0E0EEC0E0EFC0E01212D090D8
:103D3100000A1212E0120A60D0E0FBD0E0FAD0E0F3
:103D4100F9D0E0B2E7F8120C5E90000A1212FC9072
:103D51003C817403120DBA90000A1212E0120B5545
:103D6100D0E0600F249DF582E4343CF5831212EC1F
:103D7100120A6490000A1212FCD0E0C3947FFDE4A1
:103D81009400FC120D007B187A727931783F120B86
:103D91005590000A1212E0120A64300B0B7BD97A9B
:093DA1005B79DE783E120B55221D
:1055050090012EE0FFA3E0FEA3E0CF900137F0A3CA
:10551500EEF0A3EFF0900131E0CBF0A3E0CAF0A3E9
:10552500E0C9F07F2290013AAD82AC831210AF8DB5
:10553500828C83F0A309E970010ADFEC900131E068
:0A554500FBA3E0FAA3E0F9021B66E5
:100D7000E9D2E7C933E833F892D5EDD2E7CD33ECC9
:070D800033FC5002B2D52242
:100D8700EC30E7100FBF000C0EBE00080DBD0004CD
:100D97000BEB6014A2D5EB13FCED92E7FD2274FF79
:100DA700FCFDFEFF22E480F8A2D574FF13FC7D80D2
:030DB700E480EFE6
:101B0100E5082437F582E43401F583E005082290E5
:101B11000134301203900137E475F00112134502CC
:101B210010AF200BE97F2ED20B8018EF540F2490B9
:101B3100D43440D4FF300F0BEF24BFB41A0050034C
:101B41002461FFE50960021509050CE50C70020529
:101B51000B30120E900134E475F001121345EF02BF
:101B610010F502571A7403D2128003E4C212F50869
:101B710090013412135CE4F509F50BF50CE50960ED
:101B8100077F20121B4480F5750AFFC20CC20BC2ED
:101B91000DC20EC210C211C213121B10FF700D3004
:101BA10012057F00121B55AF0CAE0B22B4255FC28C
:101BB100D5C20F121B10FF24D0B40A00501A75F0C1
:101BC1000A780930D50508B6FF0106C6A426F62015
:101BD100D5047002D20E80D924CFB41A00EF50047C
:101BE100C2E5D20F021E47D20C80C6D20B80C0D2F2
:101BF1000D80BCD2D580BAD21080B47F20121B4494
:101C0100200D077401B5090040F1121B01FF121BE1
:101C110044021B7ED213D2118095121B01FB121BB1
:101C210001FA121B01F94A4B700679457A1F7BFFB5
:101C3100200D2EE509602A7E008E82758300121028
:101C4100C860060EEE650A70F0C2D5EBC0E0EAC0CE
:101C5100E0E9C0E0EE121EA8D0E0F9D0E0FAD0E051
:101C6100FB1210AFFF60AAEBC0E0EAC0E0E9C0E000
:101C7100121B44D0E02401F9D0E03400FAD0E0FB9B
:101C8100E50A0460DCD50AD98087D20D80A2121E34
:101C91008A60F7E50A700104120E07A90A600DE5D2
:101CA1000A600914F50A121F32EF60F3EA30E70205
:101CB100F404C3995079EAF4250A0430E701E404F5
:101CC100F50A800D121E8A60C1EA050A250A120E64
:101CD10007EA900163F030E701E4250A04D50A041C
:101CE10020100114121EA8E4C0E0121F32900163FB
:101CF100E0601320E70714F0121B2C802204F0D0BF
:101D0100E014C0E07F00121B2CE50A6007121B23C0
:101D1100150A800B301003121B23D0E0021B7ED06A
:101D2100E00480C4121E8A609EE50A04120E079028
:101D31000163EAF0E50A2010026001042404121E86
:011D4100A8F9
:101D420074FF04C0E0121F32121B2CE50A2010029D
:101D52006003121B23D0E0B50AE87F45121B3690C0
:101D62000163E07F2B30E7047F2DF404C0E0121BF7
:101D720044D0E075F00A84C0F0121B2DD0E0121B93
:101D82002D021B7E791080027908C211C2138008CD
:101D9200D2D5790A8004790AC2D5E50A047002F51F
:101DA2000AE4FAFDFEFF121B01FC7B08200C131251
:101DB2001B01FD7B10300B0A121B01FE121B01FFDF
:101DC2007B20EC3382D592D55013C3E4300B069FAF
:101DD200FFE49EFEE4200C039DFDE49CFCE4CBF8B2
:101DE200C20CEC700CCFCECDCCE824F8F870F380A6
:101DF20017C3EF33FFEE33FEED33FDEC33FCEB3371
:101E0200FB994002FB0FD8E9EB300C05F8D0E0C497
:101E120048B20CC0E00AEC4D4E4F78207B0070C2F5
:101E2200EAB50A0040BCC0E0121EAAD0F0D0E02001
:101E32000C04C4C0E0C4B20CC0F0121B2DD0F0D50B
:101E4200F0EB021B7E1213B51C1B531D86581BECB4
:101E52004C1BE8421D8A4F1D92441D92491C0143AE
:101E62001D98551CC5461D25451C8F471F65501BD7
:101E7200F02D1BF42E1C172B1BF8231C15201F4EB4
:101E82002A1BB04800001C0FE50AB4FF03750A06BE
:101E9200121B01FC121B01FD121B01FE121B01FF92
:101EA20090015C020E44790AA2D5200E143010096A
:101EB200B910020404B9080104A2D520110250018C
:101EC20004200D68920DB509005034C0E07F203027
:101ED2000E197F30A20D72117210500F121F01C223
:101EE2000DC211C210C2137F30800F301003E9C03F
:101EF200E0121B44301003D0E0F9D0E0B509CC3039
:101F020010177F30B9100C121B447F58300F077F17
:101F1200788003B90803121B44300D057F2D021B84
:101F2200447F202013F87F2B2011F322920D80CFC3
:101F32007F00B40700500B245CF582E43401F58382
:101F4200E0FF22286E756C6C2900D20C121B013046
:101F52000CF8C20C780930D50108F6021BB02D50DE
:101F6200434958121B012403B405004001E4901FA9
:101F72006093121B35743A121B35D20E7509040296
:021F82001D86BA
:100DBA00C0E0EFFBEEFAEDF9ECF8120B55D0E0F5D6
:100DCA00F0EFFBEEFAEDF9ECF81212D0A3A3A3A30D
:100DDA00E8C0E0E9C0E0EAC0E0EBC0E0C0F0120B16
:100DEA00551212ECA3A3A3A3120A64D0F0D0E0FB1D
:0D0DFA00D0E0FAD0E0F9D0E0F8D5F0D42236
:100E0700F920E73624F950037907E4F42402FBE5D7
:100E170082158270021583DBF6E024FB501BE96024
:100E270014E4F0E582158270021583E004F0B40A39
:0D0E370008E4F0D9EE7401F00A22C2D522C1
:100E4400ED33EC3392D5FA602AB4FF33EDC2E77B7D
:100E5400FF60067A0E7969E4227A0E797220D5044D
:100E64007A0E796D224E614E002B494E46002D4973
:100E74004E4600E47A08F0A3DAFC7B00740722C033
:100E840083C082ECC0E0EDC0E0EEC0E0EFC0E0EA79
:100E940075F010A4CAABF075F04DA42BFBE435F04B
:100EA400FCEA2410FAEB34C5FBEC34D9FCEDC2E7C0
:100EB400FF75F056A4F42411C5F0F434C58FF0A4E2
:100EC4002AE5F03BE43CF020E714120F79D0E0FF70
:100ED400D0E0FED0E0FDD0E0FC120C5E8014F404FF
:100EE400120F79D0E0FFD0E0FED0E0FDD0E0FC129C
:100EF4000B55D082D083E0FAEDD2E7CD33EC332426
:100F040082FBE4C3CF33CFCE33CECD33CD33DBF34B
:100F14007B0775F00A846004F0A31B0AE5F0F0A3D4
:100F24008FF0740AA4FFACF08EF0740AA42CFEAC0B
:100F3400F050010C8DF0740AA42CFDE435F0F0A3FC
:050F4400DBDE74072252
:100F49003F8000004120000042C80000447A0000B0
:100F5900461C400047C35000497424004B18968032
:100F69004CBEBC205A0E1BCA6753C21C749DC5AE29
:100F7900FB60065407601C2323120FA7EB5438604B
:100F890009120F93120FA2120B55ECF8EDF9EEFAB4
:100F9900EFCB22EB120FA280F1543803241C900FDF
:100FA90049FE93FC0EEE93FD0EEE930ECE93FF22B7
:104DAE0002540EE493A3F8E493A34003F68001F2B9
:104DBE0008DFF48029E493A3F85407240CC8C33306
:104DCE00C4540F4420C8834004F456800146F6DFD5
:104DDE00E4800B0102040810204080902F56E47EE0
:104DEE00019360BCA3FF543F30E509541FFEE493CA
:104DFE00A360010ECF54C025E060A840B8E493A391
:104E0E00FAE493A3F8E493A3C8C582C8CAC583CABB
:104E1E00F0A3C8C582C8CAC583CADFE9DEE780BE73
:01313B000093
:100FB900E709F608DFFA8046E709F208DFFA803E1A
:100FC90088828C83E709F0A3DFFA8032E309F60807
:100FD900DFFA8078E309F208DFFA807088828C836F
:100FE900E309F0A3DFFA806489828A83E0A3F60823
:100FF900DFFA805889828A83E0A3F208DFFA804CFD
:1010090080D280FA80C680D4806980F280338010D3
:1010190080A680EA809A80A880DA80E280CA80333C
:1010290089828A83ECFAE493A3C8C582C8CCC583B4
:10103900CCF0A3C8C582C8CCC583CCDFE9DEE78084
:101049000D89828A83E493A3F608DFF9ECFAA9F003
:10105900EDFB2289828A83ECFAE0A3C8C582C8CC59
:10106900C583CCF0A3C8C582C8CCC583CCDFEADE72
:10107900E880DB89828A83E493A3F208DFF980CCD4
:1010890088F0EF60010E4E60C388F0ED2402B404CD
:101099000050B9F582EB2402B4040050AF23234574
:0610A90082239010097380
:1010AF00BB010689828A83E0225002E722BBFE023F
:0910BF00E32289828A83E4932272
:1010C800BB010CE58229F582E5833AF583E02250DD
:1010D80006E92582F8E622BBFE06E92582F8E22227
:0D10E800E58229F582E5833AF583E4932241
:1010F500BB010689828A83F0225002F722BBFE01DA
:02110500F322D3
:10110700F8BB010DE58229F582E5833AF583E8F01E
:10111700225006E92582C8F622BBFE05E92582C8CA
:02112700F222B2
:10112900BC000BBE0029EF8DF084FFADF022E4CCAA
:10113900F875F008EF2FFFEE33FEEC33FCEE9DEC73
:10114900984005FCEE9DFE0FD5F0E9E4CEFD22EDB9
:10115900F8F5F0EE8420D21CFEADF075F008EF2F03
:10116900FFED33FD4007985006D5F0F222C398FDF4
:051179000FD5F0EA2291
:10117E00A3F8E0C5F025F0F0E58215827002158324
:06118E00E0C838F0E82281
:10119400E88FF0A4CC8BF0A42CFCE98EF0A42CFCFA
:1011A4008AF0EDA42CFCEA8EF0A4CDA8F08BF0A478
:1011B4002DCC3825F0FDE98FF0A42CCD35F0FCEBD7
:1011C4008EF0A4FEA9F0EB8FF0A4CFC5F02ECD399C
:0F11D400FEE43CFCEAA42DCE35F0FDE43CFC2209
:1011E30075F008758200EF2FFFEE33FECD33CDCCC3
:1011F30033CCC58233C5829BED9AEC99E582984046
:101203000CF582EE9BFEED9AFDEC99FC0FD5F0D622
:10121300E4CEFBE4CDFAE4CCF9A88222B800C1B94C
:101223000059BA002DEC8BF084CFCECDFCE5F0CB8A
:10123300F97818EF2FFFEE33FEED33FDEC33FCEBC3
:1012430033FB10D703994004EB99FB0FD8E5E4F97E
:10125300FA227818EF2FFFEE33FEED33FDEC33FC6B
:10126300C933C910D7059BE99A4007EC9BFCE99A5F
:10127300F90FD8E0E4C9FAE4CCFB2275F010EF2FA4
:10128300FFEE33FEED33FDCC33CCC833C810D707A4
:101293009BEC9AE899400AED9BFDEC9AFCE899F8DF
:0E12A3000FD5F0DAE4CDFBE4CCFAE4C8F92272
:0E12B100C3E49FFFE49EFEE49DFDE49CFC224E
:1012BF00EB9FF5F0EA9E42F0E99D42F0E89C45F085
:0112CF0022FC
:1012D000E493FC740193FD740293FE740393FF2264
:0C12E000E0F8A3E0F9A3E0FAA3E0FB2291
:1012EC00E493F8740193F9740293FA740393FB2258
:0C12FC00ECF0A3EDF0A3EEF0A3EFF02265
:10130800A8828583F0D083D08212131F12131F1274
:10131800131F12131FE473E493A3C583C5F0C58399
:10132800C8C582C8F0A3C583C5F0C583C8C582C82F
:011338002292
:0C133900A42582F582E5F03583F58322BF
:10134500F8E0FBA3A3E0F925F0F0E5821582700231
:071355001583E0FA38F022D5
:09135C00EBF0A3EAF0A3E9F02292
:10136500BB010789828A830213EA5005E9F8021353
:10137500E1BBFE05E9F80213F389828A830213FCB7
:10138500BB010DE58229F582E5833AF5830213EA6F
:101395005007E92582F80213E1BBFE07E92582F82B
:1013A5000213F3E58229F582E5833AF5830213FCFE
:1013B500D083D082F8E4937012740193700DA3A3C7
:1013C50093F8740193F5828883E4737402936860DB
:0613D500EFA3A3A380DFDB
:0613DB008A838982E4739D
:10571A00EFB40A07740D125725740A309811A89924
:10572A00B8130CC2983098FDA899C298B811F630EF
:07573A0099FDC299F59922C7
:0913E100E6FB08E6FA08E6F92231
:0913EA00E0FBA3E0FAA3E0F92204
:0913F300E2FB08E2FA08E2F9222B
:0C13FC00E493FB740193FA740293F9224D
:00000001FF
