:03000000022D4589
:0C2D4500787FE4F6D8FD758120022D8C0B
:1017CF005000CE3F065B4F666D7D077F6F777C398C
:1017DF005E797160C0000004010501060107010870
:1017EF000109010A010B01040205020602070208A2
:1017FF000209020A020B0204040504060407040886
:10180F000409040A040B040408050806080708085D
:10181F000809080A080B0800010101020103010869
:10182F001009100A100B1000020102020203020835
:10183F002009200A200B20000401040204030408DD
:10184F004009400A400B400008010802080308083D
:10185F008009800A800B8000100110021003100411
:10186F00100510061007100020012002200320048D
:10187F0020052006200720004001400240034004BD
:10188F00400540064007400080018002800380042D
:07189F008005800680078030
:05370000007F19DFFE4F
:0137050022A1
:10369000D2B0D2B1123700C2B0123700C2B1023775
:0136A0000029
:0A36DA00D2B1C2B0123700D2B02204
:02341400AE0701
:10341600E4FDFCFBEE30E704D2B08002C2B0D2B1CC
:10342600EE25E0FE123700C2B11237000BEBB408EE
:10343600E3D2B0D2B120B005E4FCFD80047C007D6F
:0D34460001123700C2B1123700AE04AF050D
:013453002256
:0D000E00AE07123690AF061234140236DA37
:103510007F4012000E1236907FC0123414E4FA7409
:10352000C02AF582E43400F583E0FF1234140AEA7D
:06353000B40CEC0236DAD7
:103647009000CDE0FF12000E1235109000CCE0FF85
:0336570002000E60
:0827AF0090016DEFF0A3EDF0C5
:1027B700E4A3F090016FE0FFC39408400302288B65
:1027C70074017E00A807088005C333CE33CED8F93D
:1027D700FF90016EE0FDEF5D90016D604FE0FFC47B
:1027E70054F02400F582E43400F583C083C082905E
:1027F700016FE0FED082D08375F0021217C3E0901C
:102807000170F024C0F582E43400F583C083C082F0
:10281700E0FDEFC454F02401F582E43400F583753C
:10282700F002EE1217C3E0FFED4F804AE0FFC454F9
:10283700F02400F582E43400F583C083C082900160
:102847006FE0FED082D08375F0021217C3E024C078
:10285700F582E43400F583C083C082E0FDEFC45401
:10286700F02401F582E43400F58375F002EE1217C7
:10287700C3E0F4FFED5FD082D083F090016FE004F6
:04288700F00227BA7A
:01288B00222A
:1034E700E49000CDF0FF12000EE4FF74C02FF582C8
:1034F700E43400F583E4F00FEFB40CEF9000CC74E4
:093507008FF0FF12000E0236479E
:102A3200E4900166F0900166E0FFC3940A4003024D
:102A42002AE074132FF582E43401F583E0FDE4FFFC
:102A52001227AF900166E02413F582E43401F58376
:102A6200E0FD7F011227AF900166E02413F582E4B6
:102A72003401F583E0FD7F021227AF900166E02466
:102A820013F582E43401F583E0FD7F031227AF9052
:102A92000166E02413F582E43401F583E0FD7F044E
:102AA2001227AF900166E02413F582E43401F58326
:102AB200E0FD7F051227AF900166E02413F582E462
:102AC2003401F583E0FD7F061227AF1236477FC837
:102AD2007E0012361B900166E004F0022A37D28C87
:0B2AE2007FC87E0012361BC28CC2B4FD
:012AED0022C6
:10365A0075A15575A1AAE5B954F84404F5B9E4F57C
:02366A00A1229B
:0E36B200EF4E600905A1EF1F70F61E80F32297
:10361B00AD07AC06ED4C600E7FE87E031236B2EDC3
:07362B001D70F11C80EE226E
:1032640053C67F7D047F031231BA7D057F0312317B
:10327400BA7D067F031231BAE4FD7F0312320F7D5B
:10328400017F0312320F7D02E4FF12320F7D047FAF
:103294000312320FC2B47D077F031231BA7D077F58
:0B32A4000312320F7D037F0302320F84
:0936EE00EF44FE529A439A0822AF
:10334400E4900166F07DAB7F901236327FC1123675
:10335400E4EF64AA600A122B8A7DAA7FC012363277
:103364007F851236E4900166EFF030E7069001297C
:103374007401F0900129E0B4010D900166E030E59C
:07338400069001617401F0E5
:01338B00221F
:1035D1005389F75389FB5389FD43890153C9EF751A
:0A35E1008CFF758A90D2A9D2AF22A8
:1035990053897F5389BF5389DF43891053C9DF7525
:0C35A9008D3C758BB0D2ABD2AFD28E221D
:1031BA00EF14601B146029146039240370467401EB
:1031CA00A805088002C333D8FCF4529252932274A1
:1031DA0001A805088002C333D8FCFFF4529280216B
:1031EA007401A805088002C333D8FCFF4292EFF4A9
:1031FA005293227401A805088002C333D8FCFF4207
:05320A0092EF42932247
:10320F00EF14601B14602914603924037046740195
:10321F00A805088002C333D8FCF452965297227443
:10322F0001A805088002C333D8FCFFF45296802111
:10323F007401A805088002C333D8FCFF4296EFF44F
:10324F005297227401A805088002C333D8FCFF42AD
:05325F0096EF429722EA
:1035EB007FC31236E4EF64AA600D122A321234E75D
:0735FB007DAA7FC2123632E7
:0136020022A5
:07000300C294C296D29622BE
:10357A00E4FFD295FED294C294A295E433C43333C5
:0E358A00335480FDEFC3134DFF0EEEB408E77F
:013598002210
:10360300E4FEC294C295EF30E002D295D294EFC3A8
:0736130013FF0EEEB408EBFB
:01361A00228D
:0D36C0001200037F8E123603E4FF02360372
:0D36CD001200037F8E1236037F8002360349
:0A36E40012000312360312357A2299
:10363200AC071236C0120003AF04123603AF0512F4
:0536420036030236CD45
:1032FA0012365A7F147E0012361B1232641235D1EE
:10330A0012359912366CE4FF1236EE123344122348
:10331A00921234E71235EB1207599000F9E0701255
:10332A0012001E1235B51233D3900131E060031238
:0A333A002F5512288C122AEE80DDB8
:1018A60041012200420126002842015F0000420158
:1018B6005A000A42015D000041010E00410110007C
:1018C60041015700410159004100E6004100E40092
:1018D60041015C0041012C014100EC004A01133F2B
:1018E600065B4F666D7D077F6F4101280141010749
:1018F60000410156004101481441012E01410125D4
:10190600014100E500410133004101060041012B80
:10191600004101300041013200410134004100E044
:101926000041010D00410109144100F7014100EA9F
:10193600004101470041016300410108004100E9FF
:10194600004100E20041010C0041010A0041011280
:1019560000410111004100ED004100FB0141012D54
:10196600004100F9004101310041012A014100E135
:1019760000410105004100E80141012F014100EE4F
:10198600014100E30041015800410155004100E7D3
:101996000041010F0041010B00410165004100FAC1
:1019A600004100FC004100EB00410121004100F82C
:1019B60000410129004101610041016200410164C9
:0519C600004100DE00FD
:03000B000236F7C3
:0936F700758CFF758A90B2B432A3
:03001B0002227846
:10227800C0E0C083C082C0D075D010758D3C758B0E
:10228800B0900160E004F0700690015FE004F09007
:102298000126E0FEA3E0FF90015FE0B51612A3E07F
:1022A800B5170D9000DF7401F090015FE4F0A3F022
:1022B80090015EE004F0700690015DE004F090018A
:1022C8005AE0FEA3E0FF90015DE0B51612A3E0B569
:1022D800170D9001227401F090015DE4F0A3F090D5
:1022E8000156E004F0900148E0FD900156E0B51574
:1022F8000B900107E004F0900156E4F090010DE026
:1023080004F0900109E0FD90010DE0B5150B900077
:10231800E0E004F090010DE4F09000EAE004F0E061
:10232800B5150B900147E004F09000EAE4F0900145
:1023380008E004F0E07C00B5170FECB5160B90012F
:10234800637401F0900108E4F09000E7E004F09075
:102358000109E0FF9000E7E0B5172690015CE0FF77
:10236800B40106900158E004F0EF7006900155E0C2
:1023780004F0EFB4050690010FE004F09000E7E4E4
:0A238800F0D0D0D082D083D0E03234
:10353600EFF0A3E0FF12354BEFF0A3E0FF12354B9F
:05354600EFF0A3E0FF1F
:0E354B00EFC4540F75F006A4FEC3EF9EFF22DE
:0536A100A3EFF07F0122
:0C36A600EF75F00A8475F006A42FFF22D7
:10366C00E490011DF0A3F0A3F0A3F0900123F0A3CC
:02367C00F0223A
:10338C00E49000FDF09000F704F0900126E4F0A327
:10339C007428F0E49000DFF090015FF0A3F090004F
:1033AC00E0F09000E3E0700C90010FF0900155F00C
:1033BC00900158F0D28C7F467E0012361BC28CC214
:0733CC00B4E4900147F02278
:10075900122E599000E9E06003020CEC900111E0BF
:100769006003020CECA3E06003020CEC30B303025B
:10077900080D12338C20B37490015CE0700990016C
:100789000EE070031226BF9000DFE0B401E790008D
:10079900FD7401F090010EF090015CE014601214F8
:1007A900601614602114602C240470C91232AF80C1
:1007B900C4E4FF1230FC80BD78667C017D017B01B9
:1007C9007A01791D801A78667C017D017B017A01A5
:1007D900791F800C78667C017D017B017A01792380
:1007E9007E007F02121726122EDE8089E49000DF38
:1007F900F030B3FD9000FDE0700A90011004F0E4C0
:100809009000DFF030B703020A6812338C30B70367
:1008190002098090010EE0B401031224A59000DFC3
:10082900E0B401E99000FD7401F0900157F09001E6
:100839000BF090010EE0B401D4E49000E0F09000D8
:10084900E3E0700C90010FF0900155F0900158F021
:1008590090015CE014602D1460521470030208F8D2
:1008690014700302093A240470A39000ECE0B40167
:1008790005E4FF121BB19000ECE06402708FFF12D7
:100889002C2680899000E5E07004FF123162900007
:10089900E5E0B40105E4FF122FC29000E5E064022F
:1008A9006003020816FF122CB6020816900133E005
:1008B900701978687C017D017B017A01791DFE7FC1
:1008C900021217267D017F011219CC900133E064D1
:1008D90001600302081678687C017D017B017A01B9
:1008E900791DFE7F021217267D017F0102097A9088
:1008F9000133E0701978687C017D017B017A017907
:100909001FFE7F021217267D017F021219CC90016A
:1009190033E06401600302081678687C017D017B7D
:10092900017A01791FFE7F021217267D017F02805D
:1009390040900133E0701978687C017D017B017A70
:10094900017923FE7F021217267D017F031219CC3C
:10095900900133E06401600302081678687C017D28
:10096900017B017A017923FE7F021217267D017F1F
:10097900031229600208169000FAE024FE6032147E
:1009890060542402707890011DE014F0900129E070
:10099900600B90011DE07011740CF0800C90011D2A
:1009A900E0C3941840037417F0E49000FAF0F08063
:1009B9004D90011FE014F0900129E0600B90011F98
:1009C900E07036740CF0803190011FE0C394184038
:1009D900287417F08023900123E014F0900129E096
:1009E900600B900123E07011740CF0800C900123CE
:1009F900E0C3941840037417F0E49000FAF09000F3
:100A0900FCE024FE60181460262402703690011E52
:100A1900E014F0E0C3943C4025743BF08020900141
:100A290020E014F0E0C3943C4003743BF0800F9045
:100A39000124E014F0E0C3943C4003743BF0E490DB
:100A490000FCF0E490010BF09000DFF030B7FD906E
:100A590000FDE0700A90015904F0E49000DFF030E5
:100A69009703020CEC12338C309703020C0D9001A2
:100A79000EE0B401031224A59000DFE0B401E9E41B
:100A8900A3F09000E3E0700C90010FF0900155F095
:100A9900900158F090010B7401F09000FDF0900066
:100AA900E4F090010EE064016003020BDD90015C4B
:100AB900E014603514605C147003020B5E1470035B
:100AC900020B9D24046003020BDD9000ECE0B401ED
:100AD900057F01121BB19000ECE064026003020B78
:100AE900DD7F01122C26020BDD9000E5E070057F09
:100AF900011231629000E5E0B401057F01122FC2B5
:100B09009000E5E064026003020BDD7F01122CB660
:100B1900020BDD900133E0701978687C017D017B5F
:100B2900017A01791DFE7F021217267D027F0112CB
:100B390019CC900133E064016003020BDD78687C15
:100B4900017D017B017A01791DFE7F021217267D45
:100B5900027F01807C900133E0701978687C017D07
:100B6900017B017A01791FFE7F021217267D027F20
:100B7900021219CC900133E06401705878687C0145
:100B89007D017B017A01791FFE7F021217267D0202
:100B99007F02803D900133E0701978687C017D0106
:100BA9007B017A017923FE7F021217267D027F03DA
:100BB9001219CC900133E0B4011A78687C017D01E7
:100BC9007B017A0179237E007F021217267D027F3D
:100BD9000312296090015CE064056003020A7190C8
:100BE90000E8E064016003020A719000E1E070042A
:100BF90004F08005E49000E1F01225B6E49000E8E5
:100C0900F0020A719000FAE024FB602C14604E2473
:100C190002707290011DE004F0900129E0600C90CF
:100C2900011DE0B40D107401F0805590011DE0C361
:100C39009418404CE4F0804890011FE004F09001C2
:100C490029E0600C90011FE0B40D107401F0800BD5
:100C590090011FE0C394184002E4F080239001231F
:100C6900E004F0900129E0600C900123E0B40D103C
:100C79007401F0800B900123E0C394184002E4F062
:100C8900E49000FAF09000FCE024FB601514602069
:100C99002402702D90011EE004F0E0B43C02E4F05F
:100CA900801A900120E004F0E0B43C02E4F0800CEA
:100CB900900124E004F0E0B43C02E4F0E49000FC8C
:100CC900F0E490010BF09000E804F0E49000DFF00C
:100CD9003097FD9000FDE0700A9000E604F0E49082
:100CE90000DFF09000E9E0B4011530B30630B70336
:100CF90020970CE49000E9F0539DF79000E2F09002
:100D09000111E0B4011530B30630B70320970CE4A4
:100D1900900111F0539DF790010AF0900112E0B48F
:100D2900011530B30630B70320970CE4900112F097
:080D3900539DF790010CF0221C
:10001E00122E5990010EE07021900110E0601B909D
:10002E00015CE004F0E4900110F090015CE0D394E8
:10003E00054007E4F090012E04F090015CE014708E
:10004E00030204301470030206C01470030206D7B4
:10005E001470030206EE14700302070624056003F3
:10006E0002075890012CE060031226BF90010EE0AB
:10007E00700302075890012FE0600AE4F0900159D6
:10008E00F09000E6F0E490012CF0900110E0601684
:10009E009000ECE004F0E4900110F09000ECE0D35E
:1000AE0094044002E4F09000ECE060030201DB12E5
:1000BE0032AF900159E0640160030201DB90012927
:1000CE00E0606EE4F0FF122DD1900162E0601390BB
:1000DE00011DE0640C6004E0240CF0E4900162F079
:1000EE00800990011DE0B40C02E4F0900164E06020
:1000FE001390011FE0640C6004E0240CF0E4900106
:10010E0064F0800990011FE0B40C02E4F09000DE70
:10011E00E0600F900123E0640C6004E0240CF00218
:10012E0001D1900123E0640C60030201D6F00201BC
:10013E00D69001297401F0FF122DD190011DE0D34C
:10014E00940C400AE024F4F09001627401F09001E6
:10015E001DE0FFB40C069001627401F0EF700B907D
:10016E00011D740CF0E4900162F090011FE0D39435
:10017E000C400AE024F4F09001647401F090011F29
:10018E00E0FFB40C069001647401F0EF700B900167
:10019E001F740CF0E4900164F0900123E0D3940CF2
:1001AE00400AE024F4F09000DE7401F0900123E0A8
:1001BE00FFB40C069000DE7401F0EF700B9001237B
:1001CE00740CF0E49000DEF0E4900159F09000EC35
:1001DE00E064016003020319900103E0FF75F00A69
:1001EE00842413F582E43401F583E0FDEF75F00A03
:1001FE0084741325F0F582E43401F583E0FB7F026D
:10020E00123054900122E060439000EBE0602AE44B
:10021E00F0900102E0FF75F00A842413F582E434B5
:10022E0001F583E0FDEF75F00A84741325F0F58275
:10023E00E43401F583E0FB80099000EB7401F0E4F7
:10024E00FBFD7F01123054E4900122F0900159E041
:10025E0064017034900102E004F0900129E060180E
:10026E00900102E0C3940D40037401F0900102E08E
:10027E00B40C1012348D800B900102E0C394184020
:10028E0002E4F0E4900159F09000E6E06401703E63
:10029E00900102E014F0900129E06020900102E04C
:1002AE00FFC3940D5003EF7007900102E0240CF091
:1002BE00900102E0B40B1212348D800D900102E019
:1002CE00C394184004E02418F0E49000E6F0900186
:1002DE0002E0FF1236A6EFF0900129E0601C9001BB
:1002EE0002E04480F0900161E09001026006E0447B
:1002FE0020F0800DE054DFF08007900102E0547F83
:10030E00F0900102E0FD7F841236329000ECE06442
:10031E000260030203DB9000CCE04404F012302CA8
:10032E00900122E060559000EBE06030E4F0900127
:10033E0003E075F00A842413F582E43401F583E0BA
:10034E00FD7F021227AF900103E075F00A8474134B
:10035E0025F0F582E43401F583E0800E9000EB7415
:10036E0001F0E4FD7F021227AFE4FD7F031227AFF9
:10037E00121E03123647E4900122F0900159E0B4A8
:10038E000119900103E004F0E0C3943C4002E4F054
:10039E00E4900159F0FD7F801236329000E6E0B411
:1003AE00011B900103E014F0E0D3943C4004E024E0
:1003BE003CF0E49000E6F0FD7F80123632900103AF
:1003CE00E0FF1236A6EFF0FD7F821236329000EC7F
:1003DE00E0B4031490012C7401F0E490010EF0903F
:1003EE0000ECF090012F04F09000F7E06009E4902B
:1003FE0000E0F09000F7F09000E0E0640F60030280
:10040E00075890012C04F0E490010EF09000EC12CD
:10041E0035599000E3E06402600302075890015CD6
:10042E00F02290010EE0700302066590012FE0604D
:10043E000AE4F0900159F09000E6F0E4900125F006
:10044E00900110E060169000E5E004F0E4900110D9
:10045E00F09000E5E0D394044002E4F09000E5E073
:10046E007040FF1230FC900159E0B401139000FE71
:10047E00E004F0E0D394634002E4F0E4900159F01C
:10048E009000E6E0B4010B9000FEE014F0E4900062
:10049E00E6F09000FEE0FF1236A6EFF0FD7F8C1224
:1004AE0036329000E5E06401600302057B900100A6
:1004BE00E0FF75F00A842413F582E43401F583E03D
:1004CE00FDEF75F00A84741325F0F582E43401F51E
:1004DE0083E0FB7F02123054900122E060439000D3
:1004EE00EBE0602AE4F09000FFE0FF75F00A842450
:1004FE0013F582E43401F583E0FDEF75F00A8474A0
:10050E001325F0F582E43401F583E0FB80099000B9
:10051E00EB7401F0E4FBFD7F01123054E4900122F4
:10052E00F0900159E0B401149000FFE004F0E0C334
:10053E00940D40037401F0E4900159F09000E6E050
:10054E00B4011A9000FFE014F0E06005D3940D4062
:10055E00079000FFE0240CF0E49000E6F09000FF1E
:10056E00E0FF1236A6EFF0FD7F881236329000E5DE
:10057E00E0640260030206239000FF12302F900108
:10058E0022E060439000EBE0602AE4F0900100E08E
:10059E00FF75F00A842413F582E43401F583E0FD3F
:1005AE00EF75F00A84741325F0F582E43401F583B7
:1005BE00E0FB80099000EB7401F0E4FBFD7F02127A
:1005CE003054E4900122F0900159E0C3940140139D
:1005DE00900100E004F0E0942040037401F0E490F8
:1005EE000159F09000E6E0C394014019900100E03B
:1005FE0014F0E0600494204007900100E0241FF006
:10060E00E49000E6F0900100E0FF1236A6EFF0FD58
:10061E007F861236329000E5E0B403149001257403
:10062E0001F0E490010EF09000E5F090012F04F03F
:10063E009000F7E06009E49000E0F09000F7F09091
:10064E0000E0E0B40F119001257401F0E490010E6A
:10065E00F09000E5123559900125E070030207581D
:10066E009000FFE0FE75F00A842413F582E4340155
:10067E00F583E0FFEE75F00A84741325F0F582E43D
:10068E003401F583E0FD900100E0FE75F00A84244C
:10069E0013F582E43401F583E0FBEE75F00A847401
:1006AE001325F0F582E43401F583E090016CF0023D
:1006BE0030C978677C017D017B017A01791D7E004E
:1006CE007F021217267F01802C78677C017D017BCB
:1006DE00017A01791F7E007F021217267F02801594
:1006EE0078677C017D017B017A0179237E007F0290
:1006FE001217267F03020D4190010EE0B40102E4B1
:10070E00F0900159E06002E4F090012EE0600C12CE
:10071E002392E490012EF0900107F012367E9000A5
:10072E00F7E06009E49000E0F09000F7F09000E050
:10073E00E0B40F16E4F09000F704F09000E3E0B49C
:0B074E000205E490015CF01235672208
:102392009001661217924098A3D790016E740FF0C5
:1023A200A3746EF0C281C2805393FDD2842084FD57
:1023B200AC9FE4121554900166E0F8A3E0F9A3E0A3
:1023C200FAA3E0FB1213A4E4FBFA797F7843121418
:1023D200AD90016A12178690016AE0F8A3E0F9A3B2
:1023E200E0FAA3E0FB900166E0FCA3E0FDA3E0FEBF
:1023F200A3E0FF1212AFA804A905AA06AB07900139
:102402006AE0FCA3E0FDA3E0FEA3E0FF1214AD121C
:102412001D0EC004C005C006C00790016EE0FCA3FB
:10242200E0FDE412154FA804A905AA06AB07D007E0
:10243200D006D005D0041214AD7B0F7ACF795B7829
:102442003B1212B3A804A905AA06AB07E4FFFE7D5E
:10245200807C3F1214AD9001431217867F667E6620
:102462007DE67C3F9000EFE0F8A3E0F9A3E0FAA359
:10247200E0FB1213A4E4FBFAF978421212B39000C3
:10248200F31217867F337E937D887CC3900143E0ED
:10249200F8A3E0F9A3E0FAA3E0FB1212B39000EF75
:0324A20002178698
:10204200900104E0702E90011DE0FF900102E0B5C6
:10205200072290011EE0FF900103E0B507169001F0
:1020620062E0FF900161E0B5070A9000E97401F0B7
:102072009000E2F09000E9E0700302215C90011E02
:10208200E0FF04F9EF2406FFE0FE2407FDEE240C36
:10209200FEE0240DFC9000E2E06016900163E06037
:1020A20010308C06C28CC2B48002D28CE4900163E0
:1020B200F0E9C3943C400DE924C4FB900103E0B570
:1020C20003128007900103E0B50109C28CC2B4E497
:1020D2009000E2F0EFC3943C400DEF24C4FB90016A
:1020E20003E0B5030F8007900103E0B507069000F7
:1020F200E27401F0EDC3943C400DED24C4FF900165
:1021020003E0B507128007900103E0B50509C28C10
:10211200C2B4E49000E2F0EEC3943C400DEE24C45D
:10212200FF900103E0B5070F8007900103E0B506B9
:10213200069000E27401F0ECC3943C400DEC24C420
:10214200FF900103E0B507128007900103E0B50498
:0A21520009C28CC2B4E49000E2F070
:01215C002260
:101F2400900104E0702E90011FE0FF900102E0B5E3
:101F34000722900120E0FF900103E0B5071690010D
:101F440064E0FF900161E0B5070A9001117401F0AB
:101F540090010AF0900111E07003022041900120E9
:101F6400E0FF04F9EF2406FFE0FE2407FDEE240C55
:101F7400FEE0240DFC90010AE06016900163E0602D
:101F840010308C06C28CC2B48002D28CE4900163FF
:101F9400F0E9C3943C400DE924C4FB900103E0B58F
:101FA40003128007900103E0B50109C28CC2B4E4B6
:101FB40090010AF0EFC3943C400DEF24C4FB900160
:101FC40003E0B5030F8007900103E0B50706900115
:101FD4000A7401F0EDC3943C4010ED24C4FF900159
:101FE40003E0FBEFC39B40128007900103E0B505BB
:101FF40009C28CC2B4E490010AF0EEC3943C400DD3
:10200400EE24C4FF900103E0B5070F80079001039D
:10201400E0B5060690010A7401F0ECC3943C400D4F
:10202400EC24C4FF900103E0B5071280079001037C
:0D203400E0B50409C28CC2B4E490010AF0CA
:01204100227C
:10215D00900104E0702E900123E0FF900102E0B5A4
:10216D000722900124E0FF900103E0B507169000CF
:10217D00DEE0FF900161E0B5070A9001127401F0F5
:10218D0090010CF0900112E070030222779001246F
:10219D00E0FF04F9EF2406FFE0FE2407FDEE240C1A
:1021AD00FEE0240DFC90010CE06016900163E060F0
:1021BD0010308C06C28CC2B48002D28CE4900163C4
:1021CD00F0E9C3943C400DE924C4FB900103E0B554
:1021DD0003128007900103E0B50109C28CC2B4E47B
:1021ED0090010CF0EFC3943C400DEF24C4FB900123
:1021FD0003E0B5030F8007900103E0B507069001DA
:10220D000C7401F0EDC3943C400DED24C4FF90011E
:10221D0003E0B507128007900103E0B50509C28CF4
:10222D00C2B4E490010CF0EEC3943C400DEE24C416
:10223D00FF900103E0B5070F8007900103E0B5069D
:10224D000690010C7401F0ECC3943C400DEC24C4D9
:10225D00FF900103E0B507128007900103E0B5047C
:0A226D0009C28CC2B4E490010CF029
:012277002244
:1035B500900130E06003122042900132E060031276
:0C35C5001F24900134E0600312215D22FD
:102F550090010EE070669000EDE0701A30B20A3014
:102F6500B2149000CC748F80059000CC7480F0FF73
:102F750012000E1236479000CCE030E33F9000ED92
:102F85007401F09000FBE06009E4900147F09000C7
:102F9500FBF0900147E0B40A23E49000EDF09000C7
:102FA500FB04F0E490015CF09000CC7480F0FF121B
:0D2FB500000E1236477F967E001236B222C3
:10288C009000E6E070030229219001657401F0903C
:10289C00010EE0706390015CE0705D9000F904F053
:1028AC0090012DE004F090012AE0B4010B90012D71
:1028BC00E014F0E490012AF090012DE0D394014053
:1028CC0002E4F090012DE014601904702B90016C5F
:1028DC00745EF07B6D7D407F401230C9E490013115
:1028EC00F0801590016C745EF07B6D7D547F5C12F2
:1028FC0030C99001317401F0E4900165F09000E66C
:10290C00F09000EE04F09000F7E06009E49000E035
:10291C00F09000F7F09000F7E06009E49000E0F030
:10292C009000F7F09000E0E0640F6007900110E079
:10293C00B40120E49000F9F09000E0F09000F7046E
:10294C00F0E4900159F0900110F09000EE04F0903A
:04295C00012AF0223A
:102AEE00900159E07003022B7A9001657401F09009
:102AFE00010EE0706290015CE0705C9000F904F0F1
:102B0E009000E3E004F09000EEE0B4010B9000E3DF
:102B1E00E014F0E49000EEF09000E3E0D394024075
:102B2E0002E4F09000E3E014600E146012240270D0
:102B3E001D90016C7406800C90016C745B80059086
:102B4E00016C744FF07B407D737F5E1230C9E49050
:102B5E000159F0900165F090012A7401F09000F790
:102B6E00E06009E49000E0F09000F7F09000F7E0EC
:0C2B7E006009E49000E0F09000F7F02205
:1033D3009000E3E0703A90010EE07034900158E001
:1033E300B4020B90015C7405F0E4900158F0900175
:1033F30055E0B40A0B90015C7401F0E4900155F0C0
:1034030090010FE0B40209E490015CF090010FF029
:013413002296
:10316200900166EFF07F8D1236E49000FEEFF012D0
:10317200354BEFF0900166E0FFB401069000FEE0EF
:1031820014F0EF700E9000FEE004F0E0D394634080
:1031920002E4F01230969000FEE0FF1236A6EFF045
:1031A200FD7F8C1236327FFA7E0012361B9000FEB3
:0831B200E0FF12354BEFF022A3
:101BB100900166EFF07F851236E4900102EFF0901C
:101BC1000129E0B40111900102E033333354F8F0FC
:101BD100E0131313541FF0900102E0FF12354BEF95
:101BE100F0900166E07047900102E004F090012955
:101BF100E06030900102E0C3940D40037401F09065
:101C01000102E0640C70277F851236E49000F8EF42
:101C1100F030E507E4900161F080139001617401F7
:101C2100F0800B900102E0C394184002E4F09001AF
:101C310066E064017051900102E014F0900129E026
:101C41006038900102E0FFC3940D5003EF700790DC
:101C51000102E0240CF0900102E0640B70297F8501
:101C61001236E49000F8EFF030E507E4900161F0FE
:101C710080159001617401F0800D900102E0C39420
:101C8100184004E02418F012302C900102E0FF12F9
:101C910036A6EFF0900129E0601C900102E044803B
:101CA100F0900161E09001026006E04420F0800DB7
:101CB100E054DFF08007900102E0547FF0900102D0
:101CC100E0FD7F841236327FFA7E0012361B9001CE
:091CD10002E0FF12354BEFF02296
:102C2600900166EFF07F831236E4900103EFF01215
:102C3600354BEFF0900166E0FF700E900103E00463
:102C4600F0E0C3943C4002E4F0EFB40110900103BD
:102C5600E014F0E0D3943C4004E0243CF0900103FF
:102C6600E0FF75F00A842413F582E43401F583E06D
:102C7600FDEF75F00A84741325F0F582E43401F54E
:102C860083E0FB7F02123054900103E0FF1236A668
:102C9600EFF0FD7F82123632E4FD7F8012363290ED
:102CA6000103E0FF12354BEFF07FFA7E0002361B80
:102FC200900166EFF07F891236E49000FFEFF01275
:102FD200354BEFF0900166E0FF700F9000FFE004C8
:102FE200F0E0C3940D40037401F0EFB401159000BA
:102FF200FFE014F0E06005D3940D40079000FFE07D
:10300200240CF09000FF12302F9000FFE0FF1236E8
:10301200A6EFF0FD7F881236329000FFE0FF1235F6
:0A3022004BEFF07FFA7E0002361B30
:102CB600900166EFF07F871236E4900100EFF01284
:102CC600354BEFF0900166E0FF700F900100E004D5
:102CD600F0E0D3941F40037401F0EFB401159001A6
:102CE60000E014F0E06005D3941F4007900100E077
:102CF600241FF0900100E0FF75F00A842413F5828A
:102D0600E43401F583E0FDEF75F00A84741325F0D1
:102D1600F582E43401F583E0FB7F02123054900122
:102D260000E0FF1236A6EFF0FD7F861236329001E4
:0F2D360000E0FF12354BEFF07FFA7E0002361BF4
:1019CC00ED64016003021AA9EF6401704290011DDD
:1019DC00E004F0900129E0602590011DE0C3940D16
:1019EC0040037401F090011DE0B4011D900162E010
:1019FC006004E4F080139001627401F0800B90019C
:101A0C001DE0C394184002E4F09000FA7401F0EF6A
:101A1C006402704290011FE004F0900129E06025FF
:101A2C0090011FE0C3940D40037401F090011FE07E
:101A3C00B4011D900164E06004E4F0801390016433
:101A4C007401F0800B90011FE0C394184002E4F085
:101A5C009000FA7402F0EF64037042900123E004EA
:101A6C00F0900129E06025900123E0C3940D400320
:101A7C007401F0900123E0B4011D9000DEE06004DD
:101A8C00E4F080139000DE7401F0800B900123E0F1
:101A9C00C394184002E4F09000FA7403F0ED640271
:101AAC006003021BA4EF6401704C90011DE014F064
:101ABC00900129E0602D90011DE0FEC3940D5003B0
:101ACC00EE700790011DE0240CF090011DE0B40AAB
:101ADC001F900162E06004E4F080159001627401D3
:101AEC00F0800D90011DE0C394184004E02418F020
:101AFC009000FA7404F0EF6402704C90011FE01433
:101B0C00F0900129E0602D90011FE0FEC3940D5070
:101B1C0003EE700790011FE0240CF090011FE0B45D
:101B2C000A1F900164E06004E4F080159001647475
:101B3C0001F0800D90011FE0C394184004E02418BC
:101B4C00F09000FA7405F0EF6403704C900123E000
:101B5C0014F0900129E0602D900123E0FFC3940D57
:101B6C005003EF7007900123E0240CF0900123E068
:101B7C00B40A1F9000DEE06004E4F080159000DEF3
:101B8C007401F0800D900123E0C394184004E0240C
:101B9C0018F09000FA7406F090016812302F7FFA5A
:051BAC007E0002361B63
:10296000ED64017048EFB4011490011EE004F0E042
:10297000C3943C4002E4F09000FC7401F0EFB40218
:1029800014900120E004F0E0C3943C4002E4F09095
:1029900000FC7402F0EFB40314900124E004F0E0B2
:1029A000C3943C4002E4F09000FC7403F0ED640238
:1029B000704EEFB4011690011EE014F0E0D3943C89
:1029C0004004E0243CF09000FC7404F0EFB40216E4
:1029D000900120E014F0E0D3943C4004E0243CF06B
:1029E0009000FC7405F0EFB40316900124E014F09D
:1029F000E0D3943C4004E0243CF09000FC7406F0EA
:102A0000900169E0FF75F00A842413F582E4340133
:102A1000F583E0FDEF75F00A84741325F0F582E488
:102A20003401F583E0FB7F021230547FFA7E00020E
:022A3000361B53
:100D4100900166EFF090010EE0700302116B9001CB
:100D51002FE0600AE4F0900159F09000E6F0900174
:100D610066E0FFB401069001307401F0EFB40206B1
:100D71009001327401F0EFB403069001347401F074
:100D8100900110E06016900133E004F0E49001104E
:100D9100F0900133E0D394034002E4F0900133E09A
:100DA1006003020FEC900122E060439000EBE060F1
:100DB1002AE4F0900167E0FF75F00A842413F582BC
:100DC100E43401F583E0FDEF75F00A84741325F036
:100DD100F582E43401F583E0FB80099000EB7401B6
:100DE100F0E4FBFD7F01123054E4900122F0900108
:100DF10068E0FF75F00A842413F582E43401F58379
:100E0100E0FDEF75F00A84741325F0F582E43401F6
:100E1100F583E0FB7F02123054900159E0640160D8
:100E210003020EF4900166E0FF6401703C90011D25
:100E3100E004F0900129E0602590011DE0C3940DCC
:100E410040037401F090011DE0B40C1D900162E0BB
:100E51006004E4F080139001627401F0800B900152
:100E61001DE0C394184002E4F0EF6402703C90016D
:100E71001FE004F0900129E0602590011FE0C39478
:100E81000D40037401F090011FE0B40C1D9001644A
:100E9100E06004E4F080139001647401F0800B9031
:100EA100011FE0C394184002E4F0900166E064037E
:100EB100703C900123E004F0900129E0602590014D
:100EC10023E0C3940D40037401F0900123E0B40CBE
:100ED1001D9000DEE06004E4F080139000DE7401F8
:100EE100F0800B900123E0C394184002E4F0E490F9
:100EF1000159F09000E6E064016003020FEC9001FB
:100F010066E0FF6401704690011DE014F090012934
:100F1100E0602D90011DE0FEC3940D5003EE7007BB
:100F210090011DE0240CF090011DE0B40B1F900115
:100F310062E06004E4F080159001627401F0800DBC
:100F410090011DE0C394184004E02418F0EF6402FE
:100F5100704690011FE014F0900129E0602D90018E
:100F61001FE0FFC3940D5003EF700790011FE024B1
:100F71000CF090011FE0B40B1F900164E06004E4E9
:100F8100F080159001647401F0800D90011FE0C3A1
:100F910094184004E02418F0900166E06403704660
:100FA100900123E014F0900129E0602D900123E0ED
:100FB100FFC3940D5003EF7007900123E0240CF060
:100FC10090011FE0B40B1F900164E06004E4F08025
:100FD100159001647401F0800D900123E0C3941811
:100FE1004004E02418F0E49000E6F0900133E0645E
:100FF1000160030210E0900122E060439000EBE009
:10100100602AE4F0900168E0FF75F00A842413F58A
:1010110082E43401F583E0FDEF75F00A8474132551
:10102100F0F582E43401F583E0FB80099000EB7474
:1010310001F0E4FBFD7F02123054E4900122F090B4
:10104100016712302F900159E064017042900166EE
:10105100E0FFB4010E90011EE004F0E0C3943C40B7
:1010610002E4F0EFB4020E900120E004F0E0C3943A
:101071003C4002E4F0900166E0B4030E900124E0EC
:1010810004F0E0C3943C4002E4F0E4900159F09094
:1010910000E6E064017048900166E0FFB401109041
:1010A100011EE014F0E0D3943C4004E0243CF0EF56
:1010B100B40210900120E014F0E0D3943C4004E02D
:1010C100243CF0900166E0B40310900124E014F098
:1010D100E0D3943C4004E0243CF0E49000E6F0903E
:1010E1000133E0B40230900166E0FFB401069001E3
:1010F100307401F0EFB402069001327401F0EFB4E4
:1011010003069001347401F0E490010EF090013374
:10111100F090012F04F09000F7E06009E49000E006
:10112100F09000F7F09000E0E0640F703D900166F0
:10113100E0FFB401069001307401F0EFB4020690B3
:1011410001327401F0EFB403069001347401F0E44C
:1011510090010EF0900133F09000E0F09000F70460
:10116100F012356790012F7401F0900166E064017F
:101171007052900130E0702190016C7406F07B7721
:101181007D407F401230C9900159E0B4010B9001BC
:10119100307401F0E4900159F090010EE070259057
:1011A1000130E0601F90016C7406F07B777D547F05
:1011B1005C1230C9900159E0B40109E4900130F0AA
:1011C100900159F0900166E064027052900132E0A2
:1011D100702190016C745BF07B777D407F40123011
:1011E100C9900159E0B4010B9001327401F0E4900F
:1011F1000159F090010EE07025900132E0601F90DE
:10120100016C745BF07B777D547F5C1230C9900177
:1012110059E0B40109E4900132F0900159F09001D4
:1012210066E064037052900134E0702190016C74A7
:101231004FF07B777D407F401230C9900159E0B477
:10124100010B9001347401F0E4900159F090010E0A
:10125100E07025900134E0601F90016C744FF07BC9
:10126100777D547F5C1230C9900159E0B40109E4E3
:10127100900134F0900159F090010EE0702C900033
:10128100F7E06009E49000E0F09000F7F09000E0F2
:10129100E0B40F16E4F09000F704F09000E3E0B43E
:0B12A1000205E490015CF012356722AA
:0E34540078667C017D017B01FE7F0212172647
:10346200900166E0FF75F00A842413F582E43401CA
:10347200F583E0FDEF75F00A84741325F0F582E41C
:0B3482003401F583E0FB7F01023054B1
:1034BC00900167E0FF75F00A842413F582E434016F
:1034CC00F583E0FDEF75F00A84741325F0F582E4C2
:0B34DC003401F583E0FB7F0202305456
:102EDE00900122E06401706E9000EBE0602AE4F055
:102EEE00900166E0FF75F00A842413F582E4340144
:102EFE00F583E0FDEF75F00A84741325F0F582E496
:102F0E003401F583E0FB80099000EB7401F0E4FBE3
:102F1E00FD7F01123054900167E0FF75F00A8424A2
:102F2E0013F582E43401F583E0FDEF75F00A847445
:102F3E001325F0F582E43401F583E0FB7F021230B5
:072F4E0054E4900122F0227F
:0E355900F09000E0F09000F704F090012FF0E9
:103567009000E3E0700C90015CF0900155F0900141
:0335770058F022E7
:1024A50090010BE060030225B590015CE0146034F7
:1024B50014700302253C14700302255F1470030297
:1024C5002583240460030225B59000ECE0B40103E4
:1024D50012302C9000ECE0640260030225B59001F7
:1024E500030225149000E5E070031230969000E594
:1024F500E06401700C90010BE070069000FF123053
:102505002F9000E5E0640260030225B5900100E02C
:10251500FF75F00A842413F582E43401F583E0FDA8
:10252500EF75F00A84741325F0F582E43401F58320
:10253500E0FB7F02023054900133E070077A0179A5
:102545001D123454900133E06401706478667C0197
:102555007D017B017A01791D8021900133E07007AF
:102565007A01791F123454900133E0640170417887
:10257500667C017D017B017A01791FFE802A90012D
:1025850033E0700F78667C017D017B017A01792348
:1025950012345C900133E0B4011678667C017D014C
:1025A5007B017A0179237E007F021217261234BC43
:0125B5002203
:10309600900115E0FF900113E0FD9000FEE0FE7543
:1030A600F00A842413F582E43401F583E0FBEE751F
:1030B600F00A84741325F0F582E43401F583E09078
:0330C600016CF0AA
:1030C90090016AEDF0A3EBF0AD07E4FF1227AF9092
:1030D900016AE0FD7F011227AF90016BE0FD7F02DD
:1030E9001227AF90016CE0FD7F031227AF121E0378
:0330F90002364755
:10302C00900102E0FF75F00A842413F582E4340168
:10303C00F583E0FDEF75F00A84741325F0F582E456
:08304C003401F583E0FB7F0174
:1030540090016BEDF0A3EBF090016AEFF0BF011566
:10306400A3E0FDE4FF1227AF90016CE0FD7F0112A5
:1030740027AF121E0390016AE0B40215A3E0FD7F9E
:10308400021227AF90016CE0FD7F031227AF121EDE
:02309400032215
:101E0300900129E064016003021EFF900161E0FC80
:101E13009000CBB40106E04401F08004E054FEF0EE
:101E230090010EE0FD64016003021EE2900162E096
:101E3300FEB4010E90015CE0B402079000CBE044D5
:101E430001F0EE700E90015CE0B402079000CBE06D
:101E530054FEF0900164E0FFB4010E90015CE0B425
:101E630003079000CBE04401F0EF700E90015CE0BB
:101E7300B403079000CBE054FEF09000DEE0FFB423
:101E8300010E90015CE0B404079000CBE04401F044
:101E9300EF700E90015CE0B404079000CBE054FEB9
:101EA300F090015CE0FF70149000ECE0FE640160D0
:101EB30004EEB402079000CBE04402F0EF6402604A
:101EC3000D90015CE0FF64036004EFB40411900122
:101ED30033E0FF6003B401079000CBE04402F0ED70
:101EE300701A90015CE0FF600864016004EFB405C0
:101EF3000BECB401079000CBE04401F0900130E01B
:101F0300700C900132E07006900134E0600990009B
:101F1300CBE04408F080079000CBE054F7F00236A2
:011F23004776
:10348D007F851236E49000F8EFF030E50BE054DF65
:10349D00F0E4900161F0800D9000F8E04420F09090
:0F34AD0001617401F09000F8E0FD7F8402363277
:052DD100900166EFF027
:102DD6007F851236E4900166E06401703D12354B42
:102DE600EFD3940C401574F42FFF1236A6EF44204F
:102DF6004480FF9001617401F0801FEFB40C0E90C7
:102E060001617401F01236A6EF4420800AEFC394E4
:102E16000C50071236A6EF4480FF900166E0702C36
:102E2600EF30E518547F54DFFFE4900161F012356E
:102E36004BEF640C6013740C2FFF800DEF547FFF73
:102E460012354BEFB40C02E4FF1236A6AD077F84B1
:032E56000236320F
:10367E00900107E0B41E08122392E4900107F002B5
:02368E0025B65F
:1032AF00900122E0640170429000EBE06026E4F0B0
:1032BF00900129E06008900114E0FDA380089001BF
:1032CF0015E0FD9001171230507B447D767F02127E
:1032DF00305480119000EB7401F0E490016CF0FB1E
:0B32EF00FDFF1230C9E4900122F02224
:1030FC00900166EFF0900122E0640170589000EBB3
:10310C00E06037E4F0900115E0FF900113E0FD90D2
:10311C0000FEE0FE75F00A842413F582E43401F518
:10312C0083E0FBEE75F00A84741325F0F582E43429
:10313C0001F583E090016CF080139000EB7401F0CA
:10314C00900166E0700A90016CF0FBFDFF1230C933
:06315C00E4900122F022C4
:102E59001200037FBF12360312357A900104EFF096
:102E690012357A900103EFF012357A900102EFF0F2
:102E790012357A900100EFF012357A9000FFEFF0E9
:102E890012357A900101EFF012357A9000FEEFF0D9
:102E9900120003900129E064017029900102E0FF0A
:102EA90030E50B30E7089001617401F08005E4908A
:102EB9000161F0EF33333354F8900102F0E013135A
:102EC90013541FF09000FEE0FF12354B12353612F5
:052ED9003536EFF02288
:102B8A007F121236A69001671236A21236A11236A9
:102B9A00A1A3EFF07F0C1236A6A3EFF0E4FF1236E2
:102BAA00A6A3EFF0E4FF1236A6A3EFF090016BE0C4
:102BBA004480F054DFF09001297401F0E49001613F
:102BCA00F01236C01200037F901236037FAB123622
:102BDA00031200037FBE12360390016DE0FF123626
:102BEA000390016CE0FF12360390016BE0FF12368E
:102BFA0003900169E0FF123603900168E0FF123684
:102C0A000390016AE0FF123603900167E0FF123673
:0C2C1A0003E4FF1236031200030236CD63
:1026BF00900102E075F00A842413F582E43401F5E9
:1026CF0083E0FDE4FF1227AF900102E075F00A846A
:1026DF00741325F0F582E43401F583E0FD7F0112D8
:1026EF0027AF900103E075F00A842413F582E434D8
:1026FF0001F583E0FD7F021227AF900103E075F033
:10270F000A84741325F0F582E43401F583E0FD7F2C
:10271F00031227AF900122E070030227AE90012130
:10272F00E06031E4F09000CBE054FDF0900161E007
:10273F009000CBB40106E04401F08004E054FEF0B9
:10274F00900130E07041900132E0703B900134E035
:10275F00603E80339001217401F09000CBE0440281
:10276F00F0900161E09000CBB40106E04401F080ED
:10277F0004E054FEF0900130E0700C900132E070F4
:10278F0006900134E060099000CBE04408F0800728
:10279F009000CBE054F7F0123647E4900122F0227C
:1025B6009000E1E01460710460030226BEE4FDFFB2
:1025C6001227AF9000EFE0FCA3E0FDA3E0FEA3E03E
:1025D600FF121588EF75F00A842413F582E434019E
:1025E600F583E0FD7F011227AF9000EFE0FCA3E04A
:1025F600FDA3E0FEA3E0FF121588EF75F00A8474D0
:102606001325F0F582E43401F583E0FD7F021227FD
:10261600AF7D617F031227AF9000CBE04440F012FC
:102626003647E4900105F0229000F3E0FCA3E0FDBC
:10263600A3E0FEA3E0FF121588EF75F0648424136F
:10264600F582E43401F583E0FDE4FF1227AF900044
:10265600F3E0FCA3E0FDA3E0FEA3E0FF121588EF84
:1026660075F06484E5F075F00A842413F582E43489
:1026760001F583E0FD7F011227AF9000F3E0FCA394
:10268600E0FDA3E0FEA3E0FF121588EF75F0648479
:10269600E5F075F00A84741325F0F582E43401F54B
:1026A60083E0FD7F021227AF7D717F031227AF12F1
:0926B60036479001057401F02281
:1012AC000215F4E86480F8E933E83360110460F067
:1012BC00ED33EC337009E8FCE9FDEAFEEBFF2204A8
:1012CC0060DED3EB9FEA9EE99DE8C2E78CF0C2F7A3
:1012DC0095F0400CE8CCF8E9CDF9EACEFAEBCFFB6F
:1012EC001215BF85D0F05804700320D5B3E80470F4
:1012FC00075002B2D50215FE92D5EC0460F7E4CC8F
:10130C00C0E0C398F8603B94186008400DD0E0FB37
:10131C000215D6E4FBFAC9FC8028E830E406E4C9DF
:10132C00FBE4CAFCE830E305E4C9CACBFCE854078B
:10133C006010F8C3E913F9EA13FAEB13FBEC13FC96
:10134C00D8F130F52FC3E49CFCEF9BFFEE9AFEED39
:10135C0099FDD0E0FBEF4E4D4C701222DB030215D1
:10136C00FBEC2CFCEF33FFEE33FEED33FDED30E701
:10137C00EB0215D6EF2BFFEE3AFEED39FDD0E0FB7C
:10138C0050130BBB00030215FEED13FDEE13FEEF25
:08139C0013FFEC13FC0215D64F
:1013A400EC4D6011E8497017ED33EC3304600DE443
:1013B400FCFFFEFD22E933E8330470F80215F41251
:1013C40015BF58046009E4CC248150062850090252
:1013D40015FE2840030215FBC0E0EB4A7044B980B7
:1013E40006D0E0FB0215EAEF4E701CBD8008EBFF4F
:1013F400EAFEE9FD80EBE98DF0A4FEE5F002148D30
:10140400E9CDF9EAFEEBFFEF89F0A4FCE5F0CE8923
:10141400F0A42EFFE435F0CD89F0A42DFEE435F0E0
:101424008067EF4E7005BD80D780C3EF8BF0A4AC0E
:10143400F0EE8BF0A42CFCE435F0F8EF8AF0A42C49
:10144400E5F038FCE433CB8DF0A42CFCE5F03BF85C
:10145400EE8AF0A42CFCE5F038F8E433CF89F0A44C
:101464002CFCE5F038CF3400CE89F0A42FFFE5F052
:101474003EFEE433C98DF0A42EFEE5F039CD8AF0AA
:10148400A42FFFE5F03EFEE43DFD33D0E0FB500722
:101494000BBB000F0215FEEC2CFCEF33FFEE33FE0A
:0614A400ED33FD0215D638
:1014AA000215FEEC5D046005E8590470030215F4A8
:1014BA001215BF580460F6EC4860F2EC7004FDFEA9
:1014CA00FF22C860DB2481C85009C3986002500615
:1014DA000215FB9850CAF582E9294B4A7005AB827E
:1014EA000215EA75F0007C1A7880C3EF9BEE9AED3C
:1014FA0099400DC3EF9BFFEE9AFEED99FDE842F08D
:10150A00DC23ACF0D0E0FFD0E0FED0E0FDAB8220DF
:10151A00E7101BEB60BAEC2CFCEF33FFEE33FEED69
:10152A0033FD0215D6E803F830E705C0F075F00080
:10153A00EF2FFFEE33FEED33FD40B830E7C280AA4D
:10154A0075F020800E75F010800575F0087D007E1C
:10155A00007F003392D530D50312174CEC3340107C
:10156A00EF33FFEE33FEED33FDEC33FCD5F0ED2225
:0E157A00E5F0247EA2D513CC92E7CDCEFF2261
:10158800EDD2E7CD33EC3392D524814006E4FFFE5B
:10159800FDFC22FCE4CFCECDCC24E0501174FF80BA
:1015A800EDC3CC13CCCD13CDCE13CECF13CF047057
:0715B800F030D5DE02174CF4
:101CDA003E9248DA3ECCCCCD3F2AAAAB4000000067
:101CEA003F8000003F9837F03FB504F33FD744FCEC
:101CFA003E3172173EB172173F0515913EDE5BD930
:101D0A00D2008002C200EDD2E7F8CD33EC33047082
:101D1A000BBD800592D50215FE0215F440FBD314C3
:101D2A0060F2F5F07C3FEE7A00C39496C8948B403B
:101D3A00230AC89469C8941A401A0AC89468C894AD
:101D4A001F40110AC8945AC89425400805F07A0021
:101D5A00CDC2E7CDC0F0900170121786EA2323C0E6
:101D6A00E024EAF582E4341CF5831217761212B3E2
:101D7A00ECC0E0EDC0E0EEC0E0EFC0E012175A9010
:101D8A00017012176A1212AFD0E0FBD0E0FAD0E06D
:101D9A00F9D0E0B2E7F81214AD90017012178690EC
:101DAA001CDA740312160990017012176A1213A42E
:101DBA00D0E0600F24F6F582E4341CF5831217761E
:101DCA001212B3900170121786D0E0C3947FFDE41B
:101DDA009400FC12154F7B187A727931783F1213EE
:101DEA00A490017012176A1212B330000B7BD97AD1
:091DFA005B79DE783E1213A4228D
:1015BF00E9D2E7C933E833F892D5EDD2E7CD33EC72
:0715CF0033FC5002B2D522EB
:1015D600EC30E7100FBF000C0EBE00080DBD000476
:1015E6000BEB6014A2D5EB13FCED92E7FD2274FF22
:1015F600FCFDFEFF22E480F8A2D574FF13FC7D807B
:03160600E480EF8E
:10160900C0E0EFFBEEFAEDF9ECF81213A4D0E0F527
:10161900F0EFFBEEFAEDF9ECF812175AA3A3A3A326
:10162900E8C0E0E9C0E0EAC0E0EBC0E0C0F01213B6
:10163900A4121776A3A3A3A31212B3D0F0D0E0FB90
:0D164900D0E0FAD0E0F9D0E0F8D5F0D422DE
:102D51000232FAE493A3F8E493A34003F68001F26C
:102D610008DFF48029E493A3F85407240CC8C33383
:102D7100C4540F4420C8834004F456800146F6DF52
:102D8100E4800B01020408102040809017CFE47EFC
:102D9100019360BCA3FF543F30E509541FFEE49347
:102DA100A360010ECF54C025E060A840B8E493A30E
:102DB100FAE493A3F8E493A3C8C582C8CAC583CA39
:102DC100F0A3C8C582C8CAC583CADFE9DEE780BEF1
:0119CB00001B
:10165600E709F608DFFA8046E709F208DFFA803E76
:1016660088828C83E709F0A3DFFA8032E309F60863
:10167600DFFA8078E309F208DFFA807088828C83CB
:10168600E309F0A3DFFA806489828A83E0A3F6087F
:10169600DFFA805889828A83E0A3F208DFFA804C59
:1016A60080D280FA80C680D4806980F28033801030
:1016B60080A680EA809A80A880DA80E280CA803399
:1016C60089828A83ECFAE493A3C8C582C8CCC58311
:1016D600CCF0A3C8C582C8CCC583CCDFE9DEE780E1
:1016E6000D89828A83E493A3F608DFF9ECFAA9F060
:1016F600EDFB2289828A83ECFAE0A3C8C582C8CCB6
:10170600C583CCF0A3C8C582C8CCC583CCDFEADECE
:10171600E880DB89828A83E493A3F208DFF980CC30
:1017260088F0EF60010E4E60C388F0ED2402B40429
:101736000050B9F582EB2402B4040050AF232345D0
:0617460082239016A67339
:0E174C00C3E49FFFE49EFEE49DFDE49CFC22AE
:10175A00E493FC740193FD740293FE740393FF22D5
:0C176A00E0F8A3E0F9A3E0FAA3E0FB2202
:10177600E493F8740193F9740293FA740393FB22C9
:0C178600ECF0A3EDF0A3EEF0A3EFF022D6
:10179200A8828583F0D083D0821217A91217A912CA
:1017A20017A91217A9E473E493A3C583C5F0C583EF
:1017B200C8C582C8F0A3C583C5F0C583C8C582C8A1
:0117C2002204
:0C17C300A42582F582E5F03583F5832231
:00000001FF
