:03000000021F0ECE
:0C1F0E00787FE4F6D8FD758120021F5595
:100E54005000CE3F065B4F666D7D077F6F777C3910
:100E64005E797160C00000040105010601070108F4
:100E74000109010A010B0104020502060207020826
:100E84000209020A020B020404050406040704080A
:100E94000409040A040B04040805080608070808E2
:100EA4000809080A080B08000101010201030108EE
:100EB4001009100A100B10000201020202030208BA
:100EC4002009200A200B2000040104020403040862
:100ED4004009400A400B40000801080208030808C2
:100EE4008009800A800B8000100110021003100496
:100EF4001005100610071000200120022003200412
:100F04002005200620072000400140024003400441
:100F140040054006400740008001800280038004B1
:070F240080058006800780B4
:052C3400007F19DFFE26
:012C39002278
:102BA300D2B0D2B1122C34C2B0122C34C2B1022C26
:012BB30034ED
:0A2C0E00D2B1C2B0122C34D2B022B1
:02284400AE07DD
:10284600E4FDFCFBEE30E704D2B08002C2B0D2B1A8
:10285600EE25E0FE122C34C2B1122C340BEBB40878
:10286600E3D2B0D2B120B005E4FCFD80047C007D4B
:0D28760001122C34C2B1122C34AE04AF0597
:012883002232
:0D000E00AE07122BA3AF06122844022C0EE1
:102A2A007F4012000E122BA37FC0122844E4FA74CE
:102A3A00C02AF582E43400F583E0FF1228440AEA4A
:062A4A00B40CEC022C0E9E
:102B6C009000CDE0FF12000E122A2A9000CCE0FF5C
:032B7C0002000E46
:08195E0090016DEFF0A3EDF024
:10196600E4A3F090016FE0FFC394084003021A3A23
:1019760074017E00A807088005C333CE33CED8F99C
:10198600FF90016EE0FDEF5D90016D604FE0FFC4DA
:1019960054F02400F582E43400F583C083C08290BD
:1019A600016FE0FED082D08375F002120659E090F6
:1019B6000170F024C0F582E43400F583C083C08250
:1019C600E0FDEFC454F02401F582E43400F583759C
:1019D600F002EE120659E0FFED4F804AE0FFC454D4
:1019E600F02400F582E43400F583C083C0829001C0
:1019F6006FE0FED082D08375F002120659E024C053
:101A0600F582E43400F583C083C082E0FDEFC45460
:101A1600F02401F582E43400F58375F002EE120637
:101A260059E0F4FFED5FD082D083F090016FE004BF
:041A3600F002196938
:011A3A002289
:1029D900E49000CDF0FF12000EE4FF74C02FF582E1
:1029E900E43400F583E4F00FEFB40CEF9000CC74FD
:0929F9008FF0FF12000E022B6C9E
:101BCA00E4900163F0900163E0FFC3940A400302CA
:101BDA001C78740C2FF582E43401F583E0FDE4FFF0
:101BEA0012195E900163E0240CF582E43401F58356
:101BFA00E0FD7F0112195E900163E0240CF582E496
:101C0A003401F583E0FD7F0212195E900163E0243E
:101C1A000CF582E43401F583E0FD7F0312195E902E
:101C2A000163E0240CF582E43401F583E0FD7F04CE
:101C3A0012195E900163E0240CF582E43401F58305
:101C4A00E0FD7F0512195E900163E0240CF582E441
:101C5A003401F583E0FD7F0612195E122B6C7FC8F2
:101C6A007E00122B40900163E004F0021BCFD28C5D
:0B1C7A007FC87E00122B40C28CC2B459
:011C8500223C
:102B7F0075A15575A1AAE5B954F84404F5B9E4F562
:022B8F00A12281
:0E2BE600EF4E600905A1EF1F70F61E80F3226E
:102B4000AD07AC06ED4C600E7FE87E03122BE6ED80
:072B50001D70F11C80EE2254
:1026DE0053C67F7D047F0312259B7D057F03122544
:1026EE009B7D067F0312259BE4FD7F031225F07D63
:1026FE00017F031225F07D02E4FF1225F07D047F99
:10270E00031225F0C2B47D077F0312259B7D077F40
:0B271E00031225F07D037F030225F06D
:092C2200EF44FE529A439A082285
:10277400E4900163F07DAB7F90122B577FC1122C44
:1027840018EF64AA600A121D347DAA7FC0122B5769
:102794007F85122C18900163EFF030E70690012A30
:1027A4007401F090012AE0B4010D900163E030E57A
:0727B4000690015E7401F0C4
:0127BB0022FB
:102AF6005389F75389FB5389FD43890153C9EF7500
:0A2B06008CFF758A01D2A9D2AF221C
:102ADA0053897F5389BF5389DF43891053C9DF75EF
:0C2AEA008D3C758BB0D2ABD2AFD28E22E7
:10259B00EF14601B14602914603924037046740116
:1025AB00A805088002C333D8FCF4529252932274CC
:1025BB0001A805088002C333D8FCFFF45292802196
:1025CB007401A805088002C333D8FCFF4292EFF4D4
:1025DB005293227401A805088002C333D8FCFF4232
:0525EB0092EF42932273
:1025F000EF14601B146029146039240370467401C1
:10260000A805088002C333D8FCF45296529722746E
:1026100001A805088002C333D8FCFFF4529680213C
:102620007401A805088002C333D8FCFF4296EFF47A
:102630005297227401A805088002C333D8FCFF42D8
:0526400096EF42972215
:102B10007FC3122C18EF64AA600D1229D9121BCAA8
:072B20007DAA7FC2122B57B2
:012B2700228B
:07000300C294C296D29622BE
:102ABB00E4FFD295FED294C294A295E433C433338F
:0E2ACB00335480FDEFC3134DFF0EEEB408E749
:012AD90022DA
:102B2800E4FEC294C295EF30E002D295D294EFC38E
:072B380013FF0EEEB408EBE1
:012B3F002273
:0D2BF4001200037F8E122B28E4FF022B2815
:0D2C01001200037F8E122B287F80022B28EB
:0A2C1800120003122B28122ABB221F
:102B5700AC07122BF4120003AF04122B28AF051297
:052B67002B28022C01E7
:1027BC00122B7F7F147E00122B401226DE122AF67B
:1027CC00122ADA122982E4FF122C22122774121612
:1027DC006D1229D9122B101209C19000F8E0700368
:1027EC00120665122954900130E06003122219126E
:0427FC001A3B80E321
:100F2B0041012100420128002842015C00004201DE
:100F3B0057000A42015A00004101090041010B0010
:100F4B0041015400410156004100E6004100E4001C
:100F5B004101590041012C014100EB004A010C3FBA
:100F6B00065B4F666D7D077F6F41010400410153A6
:100F7B000041014514410127014100E500410131C8
:100F8B000041012D00410103004100E00041010837
:100F9B0000410106144100F6014100E90041014402
:100FAB000041016000410105004100EC004100F9E6
:100FBB00014100E20041012E004100F800410130E7
:100FCB000041012B014100E100410102004100E819
:100FDB000141012F014100ED014100E302410155A7
:100FEB0000410152004100E70041010A00410107A5
:100FFB0000410162004100EA00410120004100F77D
:10100B000041012A0041015E0041015F0041016185
:05101B00004100DE00B1
:03000B00022C2B99
:092C2B00758CFF758A01B2B43208
:03001B0002187C4C
:10187C00C0E0C083C082C0D075D010758D3C758B14
:10188C00B090015DE004F0700690015CE004F09013
:10189C000128E0FEA3E0FF90015CE0B51612A3E086
:1018AC00B5170D9000DF7401F090015CE4F0A3F02B
:1018BC0090015BE004F0700690015AE004F0900196
:1018CC0057E0FEA3E0FF90015AE0B51612A3E0B575
:1018DC00170D9001217401F090015AE4F0A3F090DF
:1018EC000153E004F0900145E0FD900153E0B51583
:1018FC000B900104E004F0900153E4F0900108E037
:10190C0004F0900106E0FD900108E0B5150B900085
:10191C00E0E004F0900108E4F09000E9E004F0E06D
:10192C00B5150B900144E004F09000E9E4F090014F
:10193C0005E004F0E07C00B5170FECB5160B900138
:10194C00607401F0900105E4F0D0D0D082D083D047
:02195C00E03277
:102A7600EFF0A3E0FF122A8BEFF0A3E0FF122A8B00
:052A8600EFF0A3E0FFEA
:0E2A8B00EFC4540F75F006A4FEC3EF9EFF22A9
:052BB4009000FDE0FFB0
:0C2BB900EF75F00A8475F006A42FFF22CF
:10298200900116740CF0E4A3F0A3F0A3F0A3F0A35B
:10299200740CF0E4A3F0A3F0A3F0A3F0900122746E
:0C29A2000CF0E4A3F0A3F0A3F0A3F022DB
:1028BD00E49000FAF09000F604F0900128E4F0A303
:1028CD007428F0E49000DFF090015CF0A3F090002C
:1028DD00E0F0D28C7F46FE122B40C28CC2B4E49045
:0428ED000144F02290
:1009C10012202290011AE06003020C2790011FE01F
:1009D1006003020C27900126E06003020C2730B36C
:1009E10003020A921228BD30B303020A7A90015918
:1009F100E07009900109E070031211819000DFE0BD
:100A0100B401E49000FA7401F0900109F09000F84B
:100A1100E0B40107E4F090012B04F0900159E014D7
:100A2100601514601814601C1460271460322405CA
:100A310070B512272980B01224EA1222F0E4FF12C5
:100A410023C080A378637C017D017B017A01791643
:100A5100801A78637C017D017B017A01791B800C0E
:100A610078637C017D017B017A0179227E007F051B
:100A71001204981221A20209E8E49000DFF030B3D9
:100A8100FD9000FAE0700A90010B04F0E49000DFA1
:100A9100F020B7341228BD20B712900109E0B4014B
:100AA100031212DC9000DFE0B401EC22E4900107B4
:100AB100F09000DFF030B7FD9000FAE0700A90018D
:100AC1005604F0E49000DFF0309703020C2712285F
:100AD100BD309703020C05900109E0B40103121225
:100AE100DC9000DFE0B401E9E4A3F09000E3E07002
:100AF1000C90010AF0900152F0900155F09001071D
:100B01007401F09000FAF09000E4F0900109E064C3
:100B1100016003020BD7900159E014603514604C59
:100B2100146056146070147003020BB42405600342
:100B3100020BD79000EBE0B401057F011221259053
:100B410000EBE064026003020BD77F01121E7E02FC
:100B51000BD79000E5E070057F011226929000E529
:100B6100E0640170717F0112248A806A90012DE096
:100B710070647F01122543805D900131E070077A36
:100B8100017916121C86900131E0640170487B01E5
:100B91007A0179168039900131E070077A01791B69
:100BA100121C86900131E06401702B7B017A01797E
:100BB1001B801C900131E070097B017A01792212BE
:100BC1001C88900131E0B4010D7B017A0179227D0D
:100BD100017F011220A7900109E06003020AD2906F
:100BE10000E8E064016003020AD29000E1E07004D1
:100BF10004F08005E49000E1F0121780E49000E831
:100C0100F0020AD2E4900107F09000E804F0E490C9
:100C110000DFF03097FD9000FAE0700A9000E604E2
:100C2100F0E49000DFF07B017A017916122A997BBA
:100C3100017A01791B122A997B017A017922122A00
:020C41009922F6
:10066500122B91122022900109E0701C90010BE0E1
:100675006016900159E004F0E490010BF0900159E7
:10068500E0D394054002E4F0900159E014700302B0
:10069500080C1470030209141470030209A11470E4
:1006A500030209AB1470030209B5240560030209AE
:1006B500C090012CE06003121181900109E07003E4
:1006C50002099E122BC5E490012CF090010BE0600D
:1006D500169000EBE004F0E490010BF09000EBE0E5
:1006E500D394044002E4F09000EBE014602C147005
:1006F500030207851470030207F22403600302084E
:1007050006122729900156E06401600302080612CB
:100715002645E4900156F0020806900100E0FF75B9
:10072500F00A84240CF582E43401F583E0FDEF75CD
:10073500F00A84740C25F0F582E43401F583E0FBBE
:100745007F021222AE9000FF1222F3900156E0B410
:1007550001109000FFE004F0E4FF121DDEE49001BB
:1007650056F09000E6E0640160030208069000FF81
:10077500E014F07F01121DDEE49000E6F0020806A9
:100785009000CCE04404F09000FF12228990010013
:10079500E0FB7D02E4FF1222F9900156E0B4011955
:1007A500900100E004F0E0C3943C4002E4F0E490E2
:1007B5000156F0FD7F80122B579000E6E0B4011B37
:1007C500900100E014F0E0D3943C4004E0243CF0B8
:1007D500E49000E6F0FD7F80122B57900100E0FFCA
:1007E500122BB9EFF0FD7F82122B57801490012C4C
:1007F5007401F0E4900109F09000EBF090012F04F2
:10080500F012280002099E900127E060061224EAF2
:10081500122286900109E07003020908122BC5E433
:10082500900127F090010BE060169000E5E004F0E0
:10083500E490010BF09000E5E0D394024002E4F06F
:100845009000E5E01460461470030208F12402608C
:10085500030209051224EA1222F0900156E0C3941E
:10086500014008121B06E4900156F09000E6E0C333
:100875009401400E9000FDE014F0121B0CE4900072
:10088500E6F0122BB4EFF0FD7F860208EC1222860B
:10089500900121E060209000EAE06007E4F0122476
:1008A500EA800E9000EA7401F0E4FBFD7F0212225B
:1008B500AEE4900121F0900156E0B401081224261F
:1008C500E4900156F09000E6E0B4010E9000FCE0E3
:1008D50014F012242CE49000E6F09000FCE0FF12E6
:1008E5002BB9EFF0FD7F88122B57801490012774E8
:1008F50001F0E4900109F09000E5F090012F04F07B
:10090500122800900109E0700312280002099E9048
:100915000109E06401707C122BC5E4FF1223C0902D
:10092500010BE0601690012DE004F0E490010BF05E
:1009350090012DE0D394014002E4F090012DE014E4
:10094500603104703C900156E0B401139000FBE067
:1009550004F0E0D394634002E4F0E4900156F09093
:1009650000E6E0B4011B9000FBE014F0E49000E623
:10097500F0800EE4900109F090012DF090012F0414
:10098500F09000FBE0FF122BB9EFF0FD7F8C122BEE
:1009950057800312235A122800022BD67B017A01B5
:1009A50079167F0180127B017A01791B7F0280080D
:0C09B5007B017A0179227F03120C43229F
:10166D009001631206284098A3D790016B740FF078
:10167D00A3746EF0C281C2805393FDD2842084FD89
:10168D00AC9FE41202C6900163E0F8A3E0F9A3E079
:10169D00FAA3E0FB120116E4FBFA797F78431202FC
:1016AD001F90016712061C900167E0F8A3E0F9A3F3
:1016BD00E0FAA3E0FB900163E0FCA3E0FDA3E0FEF4
:1016CD00A3E0FF120021A804A905AA06AB0790010B
:1016DD0067E0FCA3E0FDA3E0FEA3E0FF12021F12F2
:1016ED001578C004C005C006C00790016BE0FCA3CF
:1016FD00E0FDE41202C1A804A905AA06AB07D007B4
:10170D00D006D005D00412021F7B0F7ACF795B78FB
:10171D003B120025A804A905AA06AB07E4FFFE7D30
:10172D00807C3F12021F90014012061C7F667E6670
:10173D007DE67C3F9000EEE0F8A3E0F9A3E0FAA38C
:10174D00E0FB120116E4FBFAF97842120025900035
:10175D00F212061C7F337E937D887CC3900140E09E
:10176D00F8A3E0F9A3E0FAA3E0FB1200259000EE48
:03177D0002061C45
:10102100900101E070351204BEFF9000FFE06F7087
:101031002A9000011204D7FF900100E0B5071C902F
:1010410000021204D7FF90015EE0B5070E90000484
:10105100740112056B9000E27401F0900004120417
:10106100D770030211809000011204D7FF04900190
:1010710063F0EF2406A3F09000011204D7FF2407C8
:10108100900165F0EF240CFF9000011204D7240DAC
:10109100FE9000E2E06016900160E06010308C0686
:1010A100C28CC2B48002D28CE4900160F0900163E2
:1010B100E0FDC3943C400DED24C4FD900100E0B57A
:1010C1000517800C900100E0FD900163E0B5050972
:1010D100C28CC2B4E49000E2F0900164E0FDC394DC
:1010E1003C400DED24C4FD900100E0B50514800CD9
:1010F100900100E0FD900164E0B505069000E27406
:1011010001F0900165E0FDC3943C400DED24C4FD68
:10111100900100E0B50517800C900100E0FD900101
:1011210065E0B50509C28CC2B4E49000E2F0EFC3FA
:10113100943C400DEF24C4FD900100E0B5050F8003
:1011410007900100E0B507069000E27401F0EEC3DC
:10115100943C4014EE24C4FF900100E06F7020C263
:101161008CC2B4900004800F900100E0B50610C25B
:0F1171008CC2B4900004E412056BE49000E2F02D
:01118000224C
:10295400900119E060097B017A0179161210219027
:10296400011EE060097B017A01791B12102190019C
:0E29740025E060097B017A01792212102122F0
:10221900900109E070669000ECE0701A30B20A3063
:10222900B2149000CC748F80059000CC7480F0FFBC
:1022390012000E122B6C9000CCE030E33F9000ECC2
:102249007401F09000F9E06009E4900144F0900015
:10225900F9F0900144E0B40A23E49000ECF0900016
:10226900F904F0E4900159F09000CC7480F0FF1269
:0D227900000E122B6C7F967E00122BE622C9
:101A3B009000E6E07003021ACB9001627401F09003
:101A4B000109E07063900159E0705D9000F804F0BB
:101A5B0090012EE004F090012BE0B4010B90012ECD
:101A6B00E014F0E490012BF090012EE0D3940140B0
:101A7B0002E4F090012EE014601904702B90016ABF
:101A8B00745EF07B6D7D407F4012238DE4900130BE
:101A9B00F0801590016A745EF07B6D7D547F5C1253
:101AAB00238D9001307401F0E4900162F09000E618
:101ABB00F09000F6E06009E49000E0F09000F6F0A2
:101ACB009000F6E06009E49000E0F09000F6F090F2
:101ADB0000E0E0640A600790010BE0B4011CE490A5
:101AEB0000F8F09000E0F09000F604F0E49001565E
:0B1AFB00F090010BF090012B04F02292
:10254300900163EFF07F8D122C189000FBEFF012D7
:102553002A8BEFF0900163E0FFB401069000FBE0EB
:1025630014F0EF700E9000FBE004F0E0D3946340AE
:1025730002E4F012235A9000FBE0FF122BB9EFF0B4
:10258300FD7F8C122B577FFA7E00122B409000FBAD
:08259300E0FF122A8BEFF02299
:10212500900163EFF07F85122C189000FFEFF0907F
:10213500012AE0B401119000FFE033333354F8F085
:10214500E0131313541FF09000FFE0FF122A8BEFEA
:10215500F0900163E0FF70099000FFE004F0121DAC
:10216500DE900163E0FFB401099000FFE014F01276
:102175001DDE90012AE060119000FFE033333354F7
:10218500F8F0E0131313541FF09000FFE0FF122A3C
:0D2195008BEFF012228B7FFA7E00022B40B0
:101E7E00900163EFF07F83122C18900100EFF012A7
:101E8E002A8BEFF0900163E0FF700E900100E004EA
:101E9E00F0E0C3943C4002E4F0EFB4011090010076
:101EAE00E014F0E0D3943C4004E0243CF0900100B8
:101EBE00E0FF75F00A84240CF582E43401F583E02A
:101ECE00FDEF75F00A84740C25F0F582E43401F50B
:101EDE0083E0FB7F021222AE900100E0FF122BB9CD
:101EEE00EFF0FD7F82122B57E4FD7F80122B57906F
:101EFE000100E0FF122A8BEFF07FFA7E00022B40EA
:10248A00900163EFF07F89122C189000FCEFF01294
:10249A002A8BEFF07F87122C189000FDEFF0122A9A
:1024AA008BEFF0900163E07003122426900163E041
:1024BA00B401099000FCE014F012242C1224EA90D2
:1024CA0000FCE0FF122BB9EFF0FD7F88122B57902A
:1024DA0000FCE0FF122A8BEFF07FFA7E00022B400D
:10269200900163EFF07F87122C189000FDEFF0128B
:1026A2002A8BEFF0900163E07003121B0690016326
:1026B200E0B401099000FDE014F0121B0C12228616
:1026C200122BB4EFF0FD7F86122B579000FDE0FF36
:0C26D200122A8BEFF07FFA7E00022B40F2
:061C86007B017D017F01DE
:101C8C00900167EFF0ED7043E060057401120504FC
:101C9C0090012AE060291204BEC3940D4005740122
:101CAC001205591204BE640C70219000021204D764
:101CBC009000026003E48002740112056B800C1228
:101CCC0004BEC394184004E4120559ED6401704439
:101CDC00900167E0600574FF12050490012AE06032
:101CEC00261204BE7005740C1205591204BE640B46
:101CFC0070229000021204D79000026003E480026C
:101D0C00740112056B800D1204BEC394FF40057460
:101D1C00171205591204BE12228A900167E060075F
:081D2C007FFA7E00122B402219
:1020A700900167EFF0ED701CE0600890000174018B
:1020B7001205269000011204D7C3943C40259000D6
:1020C70001E4801C900167E0600890000174FF1232
:1020D70005269000011204D7B4FF08900001743B55
:1020E70012056B9000011204D7FF75F00A84240CC7
:1020F700F582E43401F583E0FDEF75F00A84740C92
:1021070025F0F582E43401F583E0FB7F021222AE6D
:0E211700900167E060077FFA7E00122B4022E5
:100C4300900163EFF0A3EBF0A3EAF0A3E9F09001C6
:100C530009E07003020DAE122BC5900164E0FBA303
:100C6300E0FAA3E0F9900003740112056B90010B05
:100C7300E06013900131E004F0E0D394034002E418
:100C8300F0E490010BF0900131E0147003020D25A4
:100C9300147003020D9D24026003020E50900001A4
:100CA3001204D7FF75F00A84240CF582E43401F5AD
:100CB30083E0FDEF75F00A84740C25F0F582E434CB
:100CC30001F583E0FB7F021222AE900164E0FBA3F7
:100CD300E0FAA3E0F91204BE1222F4900156E0B444
:100CE300011B900164E0FBA3E0FAA3E0F974011295
:100CF3000504E4FDFF121C8CE4900156F09000E61D
:100D0300E064016003020E50900164E0FBA3E0FA8B
:100D1300A3E0F974FF1205047D01E4FF121C8C02A9
:100D23000D95900164E0FBA3E0FAA3E0F91204BE81
:100D330012228A900164E0FBA3E0FAA3E0F9900099
:100D4300011204D7FB7D02E4FF1222F9900156E061
:100D5300B4011E900164E0FBA3E0FAA3E0F9900064
:100D6300017401120526E4FDFF1220A7E490015649
:100D7300F09000E6E0B40130900164E0FBA3E0FAF8
:100D8300A3E0F990000174FF1205267D01E4FF1230
:100D930020A7E49000E6F0020E50E4900109F090E1
:100DA3000131F090012F04F0020E50900156E0B48F
:100DB3000123900164E0FBA3E0FAA3E0F9900003B0
:100DC3001204D79000036003E48002740112056BE0
:100DD300E4900156F0900163E024FE602514604026
:100DE30024027069900164E0FBA3E0FAA3E0F990A8
:100DF30000031204D790016A70047406803A7406E3
:100E03008041900164E0FBA3E0FAA3E0F9900003C2
:100E13001204D790016A7004745B801C745B802396
:100E2300900164E0FBA3E0FAA3E0F990000312044D
:100E3300D790016A700B744FF07B777D407F4080C1
:100E430009744FF07B777D547F5C12238D12280049
:010E5300227C
:0E28840078637C017D017B01FE7F05120498C4
:10289200900163E0FF75F00A84240CF582E43401B0
:1028A200F583E0FDEF75F00A84740C25F0F582E4FF
:0B28B2003401F583E0FB7F010222AE41
:1029AE00900164E0FF75F00A84240CF582E4340192
:1029BE00F583E0FDEF75F00A84740C25F0F582E4E2
:0B29CE003401F583E0FB7F020222AE23
:1021A200900121E06401706E9000EAE0602AE4F0A0
:1021B200900163E0FF75F00A84240CF582E4340197
:1021C200F583E0FDEF75F00A84740C25F0F582E4E6
:1021D2003401F583E0FB80099000EA7401F0E4FB2E
:1021E200FD7F011222AE900164E0FF75F00A8424A3
:1021F2000CF582E43401F583E0FDEF75F00A847496
:102202000C25F0F582E43401F583E0FB7F02122213
:07221200AEE4900121F0226F
:1012DC00900107E0600302141A900159E014605F5A
:1012EC001460731470030213A11470030213C4145A
:1012FC0070030213E82405600302141A9000EBE05B
:10130C00B401069000FF1222899000EBE0640260A9
:10131C000302141A900100E0FF75F00A84240CF506
:10132C0082E43401F583E0FDEF75F00A84740C253A
:10133C00F0F582E43401F583E0FB7F020222AE90EB
:10134C0000E5E070031222869000E5E06401600382
:10135C0002141A0224EA90012DE0600302141A9080
:10136C00010EE0FF90010CE0FD9000FBE0FE75F03B
:10137C000A84240CF582E43401F583E0FBEE75F06D
:10138C000A84740C25F0F582E43401F583E09001B5
:10139C006AF002238D900131E070077A0179161200
:1013AC002884900131E06401706478637C017D01D4
:1013BC007B017A0179168021900131E070077A0166
:1013CC00791B122884900131E06401704178637CB0
:1013DC00017D017B017A01791BFE802A900131E0AD
:1013EC00700F78637C017D017B017A0179221228D0
:1013FC008C900131E0B4011678637C017D017B0196
:0F140C007A0179227E007F051204981229AE2200
:10235A0090010EE0FF90010CE0FD9000FBE0FE759D
:10236A00F00A84240CF582E43401F583E0FBEE756F
:10237A00F00A84740C25F0F582E43401F583E090C8
:03238A00016AF0F5
:10238D00900168EDF0A3EBF0AD07E4FF12195E903C
:10239D000168E0FD7F0112195E900169E0FD7F0289
:1023AD0012195E90016AE0FD7F0312195E12141B73
:0323BD00022B6C84
:102286009000FDE0FF75F00A84240CF582E4340129
:10229600F583E0FDEF75F00A84740C25F0F582E411
:0822A6003401F583E0FB7F0128
:1022AE0090016BEDF0A3EBF090016AEFF0BF01151A
:1022BE00A3E0FDE4FF12195E90016CE0FD7F0112B8
:1022CE00195E12141B90016AE0B40215A3E0FD7FA3
:1022DE000212195E90016CE0FD7F0312195E12145A
:0222EE001B22B1
:10141B0090012AE06401600302151190015EE0FC6B
:10142B009000CBB40106E04401F08004E054FEF0E0
:10143B00900109E0FD640160030214F9900118E0CA
:10144B00FEB4010E900159E0B403079000CBE044C9
:10145B0001F0EE700E900159E0B403079000CBE061
:10146B0054FEF090011DE0FFB4010E900159E0B461
:10147B0004079000CBE04401F0EF700E900159E0AF
:10148B00B404079000CBE054FEF0900124E0FF6021
:10149B000E900159E0B405079000CBE04401F0EF4A
:1014AB00600E900159E0B405079000CBE054FEF0BC
:1014BB00900159E0FF70149000EBE0FE64016004B2
:1014CB00EEB402079000CBE04402F0EF6403600D32
:1014DB00900159E0FF64046004EFB40511900131F1
:1014EB00E0FF6003B401079000CBE04402F0ED7025
:1014FB0015900159E0FF6003B4020BECB4010790A7
:10150B0000CBE04401F0900119E0700C90011EE05B
:10151B007006900125E060099000CBE04408F08054
:10152B00079000CBE054F7F0900159E0B40107901D
:09153B0000CBE04401F0022B6C2E
:102925007F85122C189000F7EFF030E50BE054DFAF
:10293500F0E490015EF0800D9000F7E04420F09007
:0F294500015E7401F09000F7E0FD7F84022B57D4
:051F9A00900163EFF06F
:101F9F007F85122C18900163E06401703D122A8B2B
:101FAF00EFD3940C401574F42FFF122BB9EF44208C
:101FBF004480FF90015E7401F0801FEFB40C0E900F
:101FCF00015E7401F0122BB9EF4420800AEFC39425
:101FDF000C5007122BB9EF4480FF900163E0702C77
:101FEF00EF30E518547F54DFFFE490015EF0122AC2
:101FFF008BEF640C6013740C2FFF800DEF547FFF79
:10200F00122A8BEFB40C02E4FF122BB9AD077F84B9
:03201F00022B573A
:102B9100900104E0B41E0812166DE4900104F002E5
:022BA10017809B
:10272900900121E0640170429000EAE06026E4F043
:1027390090012AE0600890010DE0FDA38008900156
:102749000EE0FD9001101222AA7B447D767F0212D1
:1027590022AE80119000EA7401F0E490016AF0FB66
:0B276900FDFF12238DE4900121F022FF
:1023C000900163EFF0900121E0640170589000EA01
:1023D000E06037E4F090010EE0FF90010CE0FD902A
:1023E00000FBE0FE75F00A84240CF582E43401F56C
:1023F00083E0FBEE75F00A84740C25F0F582E4347A
:1024000001F583E090016AF080139000EA7401F016
:10241000900163E0700A90016AF0FBFDFF12238DCA
:06242000E4900121F0220E
:102022001200037FBF122B28122ABB900101EFF08E
:10203200122ABB900100EFF0122ABB9000FFEFF0D2
:10204200122ABB9000FDEFF0122ABB9000FCEFF0C9
:10205200122ABB9000FEEFF0122ABB9000FBEFF0B9
:1020620012000390012AE0640170299000FFE0FF52
:1020720030E50B30E70890015E7401F08005E490D2
:10208200015EF0EF33333354F89000FFF0E01313A6
:1020920013541FF09000FBE0FF122A8B122A7612D3
:0520A2002A76EFF02298
:101D34007F12122BB9900164EFF07F01122BB9A32B
:101D4400EFF07F01122BB9A3EFF07F01122BB9A39F
:101D5400EFF07F0C122BB9A3EFF0E4FF122BB9A321
:101D6400EFF0E4FF122BB9A3EFF0900168E0448098
:101D7400F054DFF090012A7401F0E490015EF01257
:101D84002BF41200037F90122B287FAB122B281206
:101D940000037FBE122B2890016AE0FF122B2890CB
:101DA4000169E0FF122B28900168E0FF122B2890B4
:101DB4000166E0FF122B28900165E0FF122B2890AA
:101DC4000167E0FF122B28900164E0FF122B28E446
:0A1DD400FF122B28120003022C015D
:10118100900121E070030212DB900120E070030264
:10119100122CE4F09000FFE075F00A84240CF58233
:1011A100E43401F583E0FDE4FF12195E9000FFE0F5
:1011B10075F00A84740C25F0F582E43401F583E0BE
:1011C100FD7F0112195E900100E075F00A84240C84
:1011D100F582E43401F583E0FD7F0212195E90018E
:1011E10000E075F00A84740C25F0F582E43401F511
:1011F10083E0FD7F0312195E9000CBE054FDF09077
:10120100015EE09000CBB40106E04401F08004E00F
:1012110054FEF0900119E0700C90011EE0700690F0
:101221000125E060030212C30212CC900120740177
:10123100F09000FFE075F00A84240CF582E434019B
:10124100F583E0FDE4FF12195E9000FFE075F00AFE
:1012510084740C25F0F582E43401F583E0FD7F010F
:1012610012195E900100E075F00A84240CF582E405
:101271003401F583E0FD7F0212195E900100E075F3
:10128100F00A84740C25F0F582E43401F583E0FD65
:101291007F0312195E9000CBE04402F090015EE002
:1012A1009000CBB40106E04401F08004E054FEF06C
:1012B100900119E0700C90011EE07006900125E08C
:1012C10060099000CBE04408F080079000CBE05427
:0B12D100F7F0122B6CE4900121F022DA
:101780009000E1E014606B04600302187B9000EEAF
:10179000E0FCA3E0FDA3E0FEA3E0FF1202FAEF7578
:1017A000F00A84240CF582E43401F583E0FD7F0423
:1017B00012195E9000EEE0FCA3E0FDA3E0FEA3E0C2
:1017C000FF1202FAEF75F00A84740C25F0F582E43A
:1017D0003401F583E0FD7F0512195E7D617F0612FD
:1017E000195E9000CBE04440F0122B6CE4900102B3
:1017F000F0229000F2E0FCA3E0FDA3E0FEA3E0FFF6
:101800001202FAEF75F06484240CF582E43401F5D9
:1018100083E0FD7F0412195E9000F2E0FCA3E0FD7E
:10182000A3E0FEA3E0FF1202FAEF75F06484E5F096
:1018300075F00A84240CF582E43401F583E0FD7F21
:101840000512195E9000F2E0FCA3E0FDA3E0FEA308
:10185000E0FF1202FAEF75F06484E5F075F00A8497
:10186000740C25F0F582E43401F583E0FD7F061267
:0C187000195E122B6C9001027401F02232
:102800009000F6E06009E49000E0F09000F6F090AF
:1028100000E0E0B40A2D9001277401F090012CF043
:10282000E4900109F09000E5F09000EBF0900131A8
:10283000F09000E0F09000F604F090012FF0E490AA
:042840000159F02228
:1024EA009000FCE0D394095024E4FD7F0212195EA7
:1024FA009000FCE075F00A84740C25F0F582E4344F
:10250A0001F583E0FD7F0312195E02141B9000FCA3
:10251A00E0FF75F00A84240CF582E43401F583E0C7
:10252A00FDEF75F00A84740C25F0F582E43401F5A8
:09253A0083E0FB7F021222AE22B5
:102A0200AB07AA067C017D9012058DED4C6013EB9D
:102A120054037011AE02AF03FC7D6412058DED4CC0
:082A220060037F01227F002206
:061B06009000FDE004F078
:101B0C009000FBE024D0FFE43407FEE4FCFD122A35
:101B1C0002900103EFF09000FCE0FF6401601DEF08
:101B2C0064036018EF64056013EF6407600EEF64E4
:101B3C00086009EF640A6004EFB40C139000FDE038
:101B4C00B420037401F09000FDE07003741FF0905A
:101B5C0000FCE0FF6404600EEF64066009EF6409AA
:101B6C006004EFB40B139000FDE0B41F037401F09C
:101B7C009000FDE07003741EF09000FCE0640270B5
:101B8C003C900103E0FF600A9000FDE0B41E03747A
:101B9C0001F0EF60099000FDE07003741DF09001FE
:101BAC0003E0700A9000FDE0B41D037401F0900195
:0D1BBC0003E070099000FDE07003741CF060
:011BC90022F9
:062426009000FCE004F050
:10242C009000FCE0C3940D40037401F09000FCE0BC
:10243C007003740CF09000FCE0FF6404600EEF6419
:10244C00066009EF64096004EFB40B159000FDE021
:10245C00B41F037401F0122BB4EFF0FD7F86122B26
:10246C00579000FCE0B40215A3E0C3941E40037423
:0E247C0001F0122BB4EFF0FD7F86122B5722D9
:1026450090012AE06021E4F0FF121F9A7B017A01D4
:102655007916122A507B017A01791B122A507B01C7
:102665007A017922022A5090012A7401F0FF121F83
:102675009A7B017A0179161228F17B017A01791B7F
:0D2685001228F17B017A0179221228F1223E
:102BC50090012FE0600AE4F0900156F09000E6F0E5
:012BD50022DD
:0922F0009000FDE0FB7D01E4FF1C
:1022F900900167EFF0A3EDF0A3EBF0900121E0600E
:102309004F9000EAE06004E4F080149000EA740160
:10231900F0900167E07008A3E0FFE4FBFD802990DD
:102329000168E0FFA3E0FE75F00A84240CF582E45D
:102339003401F583E0FDEE75F00A84740C25F0F59F
:1023490082E43401F583E0FB1222AEE4900121F02E
:012359002261
:101DDE00900164EFF090012AE06037900164E01406
:101DEE00601B04704E9000FFE0B40C031229259086
:101DFE0000FFE0C3940D403B7401F080369000FF6D
:101E0E00E0B40B031229259000FFE07026740CF04D
:101E1E008021900164E01460100470179000FFE0C0
:101E2E00C39418400EE4F0800A9000FFE0B4FF0364
:101E3E007417F09000FFE0FF122BB9EFF090012A1B
:101E4E00E0601C9000FFE04480F090015EE09000A6
:101E5E00FF6006E04420F0800DE054DFF080079034
:101E6E0000FFE0547FF09000FFE0FD7F84022B57CF
:102A99009000041204D7B4011830B30630B70320EC
:102AA900970F900004E412056B539DF7E49000E240
:022AB900F02209
:102BD600900109E07009900156E0B40102E4F02288
:102A50009000021204D760131204BE640C60057467
:102A60000C120504900002E402056B1204BEB40CC3
:062A700004E412055922E6
:1028F1001204BED3940C400D74F41205049000022E
:10290100740112056B1204BEFFB40C08900002742E
:102911000112056BEF700C740C120559900002E462
:0429210012056B220E
:10001E00020366E86480F8E933E83360110460F0A7
:10002E00ED33EC337009E8FCE9FDEAFEEBFF220448
:10003E0060DED3EB9FEA9EE99DE8C2E78CF0C2F743
:10004E0095F0400CE8CCF8E9CDF9EACEFAEBCFFB0F
:10005E0012033185D0F05804700320D5B3E8047034
:10006E00075002B2D502037092D5EC0460F7E4CCCF
:10007E00C0E0C398F8603B94186008400DD0E0FBD8
:10008E00020348E4FBFAC9FC8028E830E406E4C920
:10009E00FBE4CAFCE830E305E4C9CACBFCE854072C
:1000AE006010F8C3E913F9EA13FAEB13FBEC13FC37
:1000BE00D8F130F52FC3E49CFCEF9BFFEE9AFEEDDA
:1000CE0099FDD0E0FBEF4E4D4C701222DB03020384
:1000DE006DEC2CFCEF33FFEE33FEED33FDED30E730
:1000EE00EB020348EF2BFFEE3AFEED39FDD0E0FBBD
:1000FE0050130BBB0003020370ED13FDEE13FEEF66
:08010E0013FFEC13FC0203488F
:10011600EC4D6011E8497017ED33EC3304600DE4E3
:10012600FCFFFEFD22E933E8330470F80203661291
:10013600033158046009E4CC248150062850090292
:10014600037028400302036DC0E0EB4A7044B98097
:1001560006D0E0FB02035CEF4E701CBD8008EBFF8F
:10016600EAFEE9FD80EBE98DF0A4FEE5F00201FF71
:10017600E9CDF9EAFEEBFFEF89F0A4FCE5F0CE89C4
:10018600F0A42EFFE435F0CD89F0A42DFEE435F081
:100196008067EF4E7005BD80D780C3EF8BF0A4ACAF
:1001A600F0EE8BF0A42CFCE435F0F8EF8AF0A42CEA
:1001B600E5F038FCE433CB8DF0A42CFCE5F03BF8FD
:1001C600EE8AF0A42CFCE5F038F8E433CF89F0A4ED
:1001D6002CFCE5F038CF3400CE89F0A42FFFE5F0F3
:1001E6003EFEE433C98DF0A42EFEE5F039CD8AF04B
:1001F600A42FFFE5F03EFEE43DFD33D0E0FB5007C3
:100206000BBB000F020370EC2CFCEF33FFEE33FE4A
:06021600ED33FD02034878
:10021C00020370EC5D046005E85904700302036688
:10022C00120331580460F6EC4860F2EC7004FDFEE9
:10023C00FF22C860DB2481C85009C39860025006B5
:10024C0002036D9850CAF582E9294B4A7005AB82BE
:10025C0002035C75F0007C1A7880C3EF9BEE9AED7C
:10026C0099400DC3EF9BFFEE9AFEED99FDE842F02D
:10027C00DC23ACF0D0E0FFD0E0FED0E0FDAB822080
:10028C00E7101BEB60BAEC2CFCEF33FFEE33FEED0A
:10029C0033FD020348E803F830E705C0F075F000C1
:1002AC00EF2FFFEE33FEED33FD40B830E7C280AAEE
:1002BC0075F020800E75F010800575F0087D007EBD
:1002CC00007F003392D530D5031205E2EC33401099
:1002DC00EF33FFEE33FEED33FDEC33FCD5F0ED22C6
:0E02EC00E5F0247EA2D513CC92E7CDCEFF2202
:1002FA00EDD2E7CD33EC3392D524814006E4FFFEFC
:10030A00FDFC22FCE4CFCECDCC24E0501174FF805A
:10031A00EDC3CC13CCCD13CDCE13CECF13CF0470F7
:07032A00F030D5DE0205E210
:101544003E9248DA3ECCCCCD3F2AAAAB4000000004
:101554003F8000003F9837F03FB504F33FD744FC89
:101564003E3172173EB172173F0515913EDE5BD9CD
:10157400D2008002C200EDD2E7F8CD33EC33047020
:101584000BBD800592D502037002036640FBD314A1
:1015940060F2F5F07C3FEE7A00C39496C8948B40D9
:1015A400230AC89469C8941A401A0AC89468C8944B
:1015B4001F40110AC8945AC89425400805F07A00BF
:1015C400CDC2E7CDC0F090016D12061CEA2323C002
:1015D400E02454F582E43415F58312060C12002538
:1015E400ECC0E0EDC0E0EEC0E0EFC0E01205F0902A
:1015F400016D120600120021D0E0FBD0E0FAD0E029
:10160400F9D0E0B2E7F812021F90016D12061C90A7
:101614001544740312037B90016D12060012011627
:10162400D0E0600F2460F582E43415F58312060CD3
:1016340012002590016D12061CD0E0C3947FFDE4D6
:101644009400FC1202C17B187A727931783F12013E
:101654001690016D12060012002530000B7BD97A1A
:091664005B79DE783E12011622CA
:10033100E9D2E7C933E833F892D5EDD2E7CD33EC12
:0703410033FC5002B2D5228B
:10034800EC30E7100FBF000C0EBE00080DBD000416
:100358000BEB6014A2D5EB13FCED92E7FD2274FFC2
:10036800FCFDFEFF22E480F8A2D574FF13FC7D801B
:03037800E480EF2F
:10037B00C0E0EFFBEEFAEDF9ECF8120116D0E0F568
:10038B00F0EFFBEEFAEDF9ECF81205F0A3A3A3A343
:10039B00E8C0E0E9C0E0EAC0E0EBC0E0C0F0120169
:1003AB001612060CA3A3A3A3120025D0F0D0E0FBDA
:0D03BB00D0E0FAD0E0F9D0E0F8D5F0D4227F
:101F1A000227BCE493A3F8E493A34003F68001F2FA
:101F2A0008DFF48029E493A3F85407240CC8C333C8
:101F3A00C4540F4420C8834004F456800146F6DF97
:101F4A00E4800B0102040810204080900E54E47EC5
:101F5A00019360BCA3FF543F30E509541FFEE4938C
:101F6A00A360010ECF54C025E060A840B8E493A353
:101F7A00FAE493A3F8E493A3C8C582C8CAC583CA7E
:101F8A00F0A3C8C582C8CAC583CADFE9DEE780BE36
:0110200000CF
:1003C800E709F608DFFA8046E709F208DFFA803E17
:1003D80088828C83E709F0A3DFFA8032E309F60804
:1003E800DFFA8078E309F208DFFA807088828C836C
:1003F800E309F0A3DFFA806489828A83E0A3F60820
:10040800DFFA805889828A83E0A3F208DFFA804CF9
:1004180080D280FA80C680D4806980F280338010D0
:1004280080A680EA809A80A880DA80E280CA803339
:1004380089828A83ECFAE493A3C8C582C8CCC583B1
:10044800CCF0A3C8C582C8CCC583CCDFE9DEE78081
:100458000D89828A83E493A3F608DFF9ECFAA9F000
:10046800EDFB2289828A83ECFAE0A3C8C582C8CC56
:10047800C583CCF0A3C8C582C8CCC583CCDFEADE6F
:10048800E880DB89828A83E493A3F208DFF980CCD1
:1004980088F0EF60010E4E60C388F0ED2402B404CA
:1004A8000050B9F582EB2402B4040050AF23234571
:0604B8008223900418737A
:1004BE00BB010689828A83E0225002E722BBFE023C
:0904CE00E32289828A83E493226F
:1004D700BB010CE58229F582E5833AF583E02250DA
:1004E70006E92582F8E622BBFE06E92582F8E22224
:0D04F700E58229F582E5833AF583E493223E
:10050400BB010989828A83F8E028F022500327F787
:1005140022BBFE05F8E328F3228A838982F8E49358
:0205240028228B
:10052600BB010FF8E58229F582E5833AF583E028D9
:10053600F0225009C58229F8E58226F622BBFE097B
:10054600C58229F8E22582F222F8EA2583F583E9B5
:03055600932822C5
:10055900BB010689828A83F0225002F722BBFE0181
:02056900F3227B
:10056B00F8BB010DE58229F582E5833AF583E8F0C6
:10057B00225006E92582C8F622BBFE05E92582C872
:02058B00F2225A
:10058D00BC000BBE0029EF8DF084FFADF022E4CC52
:10059D00F875F008EF2FFFEE33FEEC33FCEE9DEC1B
:1005AD00984005FCEE9DFE0FD5F0E9E4CEFD22ED61
:1005BD00F8F5F0EE8420D21CFEADF075F008EF2FAB
:1005CD00FFED33FD4007985006D5F0F222C398FD9C
:0505DD000FD5F0EA2239
:0E05E200C3E49FFFE49EFEE49DFDE49CFC222A
:1005F000E493FC740193FD740293FE740393FF2251
:0C060000E0F8A3E0F9A3E0FAA3E0FB227D
:10060C00E493F8740193F9740293FA740393FB2244
:0C061C00ECF0A3EDF0A3EEF0A3EFF02251
:10062800A8828583F0D083D08212063F12063F123B
:10063800063F12063FE473E493A3C583C5F0C58360
:10064800C8C582C8F0A3C583C5F0C583C8C582C81C
:01065800227F
:0C065900A42582F582E5F03583F58322AC
:00000001FF
