:020000040000FA
:10000000B0370020BD020000EF020000FD0100003B
:10001000F3020000F5020000F702000000000000FB
:10002000000000000000000000000000550100007A
:10003000FB0200000000000099010000DD680000E4
:1000400001030000010300000103000001030000A0
:100050000103000001030000010300000103000090
:100060000103000001030000010300000103000080
:100070000103000001030000010300000103000070
:100080000103000001030000010300000103000060
:100090000103000001030000010300000103000050
:1000A0000103000001030000010300000103000040
:1000B0000103000001030000010300000103000030
:1000C0000103000001030000010300000103000020
:1000D0000103000001030000010300000103000010
:1000E0000103000001030000010300000103000000
:1000F00001030000010300000103000001030000F0
:1001000001030000010300000103000001030000DF
:1001100001030000010300000103000001030000CF
:1001200001030000010300000103000001030000BF
:1001300001030000010300000103000001030000AF
:10014000DFF80CD007F022FD0048004787040000CC
:10015000B0370020234B19680868B0E8F04F80F3EF
:1001600009884FF0000080F31188704700000000FC
:1001700003480068006880F3088862B600DF00BFAB
:1001800008ED00E0DFF80C00016841F47001016047
:10019000704700BF88ED00E0EFF30980114B1A684B
:1001A0001EF0100F08BF20ED108A20E9F04F1060FC
:1001B00008B54FF0500080F3118805F0F4FA4FF0C5
:1001C000000080F31188BDE8084019680868B0E8AD
:1001D000F04F1EF0100F08BFB0EC108A80F30988B2
:1001E000704700BFE4000020EFF311804FF0500192
:1001F00081F31188704780F311887047042071469D
:10020000084202D0EFF3098001E0EFF30880714665
:10021000004A1047096A000018B522A04FF0804438
:1002200000680090D4F8400210F4A02F01D0002103
:1002300017E0010301D51C4900E01C49820310D4DA
:10024000C0F30802C0F381338908921C1DF8033003
:10025000C0F344205143801C10FB03F0B1FBF0F0CD
:100260008100134A9160D4F8100200F007000228C0
:1002700003D002F10C0151F82010D4F8200200F054
:100280000F00401CB1FBF0F00A491060084449001F
:10029000B0FBF1F0506018BD0748016841F47001EF
:1002A000016070470102020400805101001BB70089
:1002B0000000002020A1070088ED00E011484FF069
:1002C000590101604FF0160101604FF08801016093
:1002D0000D4A45F6A52111600C4A116821F48051A0
:1002E0001160002101600A4880470A480047FEE784
:1002F000FEE7FEE7FEE7FEE7FEE7FEE7FEE7FEE7D6
:10030000FEE7000000010040240000400002004021
:10031000990200004101000070B5592084071621A0
:100320008822C4F80001C4F80011C4F80021D4F8F0
:100330000031002BF5D0042007F039F8102006F02A
:10034000E9FE0021072006F0FEFE012007F02FF84D
:10035000012006F0DFFE5F494FF4002006F02DFF7C
:100360000021022006F0EFFE5B4D4FF040760022A8
:100370003146284606F032FE3146AE1C0022304699
:1003800006F02CFE284606F04EFE304606F04BFEE8
:10039000524806F048FEFFF73FFFA06C20F0FF0038
:1003A000A064A06C40F03300A064206C20F47F4077
:1003B0002064206C40F44070206407F0A2F84848A4
:1003C000016841F00801016007F087F80020C4F8D7
:1003D00000014FF4E131434806F0BCFC00F0F5F8B1
:1003E00000F0A8F8BDE8704007F0F2BAFFF7FCFE95
:1003F000FEE77047FFF7F8FEFEE770473A4E3078A9
:100400003A4C082807D1206805F04FF9032802D09C
:10041000206805F0EFF93078354D092807D12868B4
:1004200005F043F9032802D0286805F0E3F900F04D
:100430005BFB00F089FB3078082807D1206805F0C5
:1004400034F9032802D1206805F01BFA3078092816
:1004500007D1286805F029F9032802D1286805F09A
:1004600010FA2448006805F0C5F94FF4FA7400F05A
:100470006BFB204605F001F9F9E703F0B2FA14200E
:1004800005F0FBF8F9E71FB5FFF746FF04F0E3FCC2
:1004900003F060FA0321002400911648CDE901041D
:1004A0002346322214A11848039404F0FFFE0220D0
:1004B000CDE9000400230294642214A1AFF24500A8
:1004C000039404F0F3FE14A007F0BCFB05F048FA17
:1004D000FEE7000000A24A04103D80570200805E43
:1004E00000C000400000074020020020A8000020BB
:1004F000AC0000202C00002075695F646973706C8B
:1005000061795F6675630000FD0300006576656EC6
:1005100074476574000000004672656552544F537D
:10052000206973207374617274696E67202E2E2E99
:100530000A00000070B5012211463E4806F074FF23
:100540003C4C0122803C1021204606F06DFF394EC4
:100550000122403E8021304606F066FF0122022142
:10056000204606F061FF01221146204606F05CFF9E
:10057000002201214FF0402006F056FF2D4D0022B1
:10058000C03D0121284606F04FFF002204213046DD
:1005900006F04AFF00220821304606F045FF0122FE
:1005A0000421204606F040FF01220821204606F0E3
:1005B0003BFF214901240C6022460221284606F017
:1005C00033FF1D484838046070BD10B51B4806F065
:1005D000D9FABDE810401A491A4806F07EBB1CB58E
:1005E0000221684606F096FFDDE9002116A007F01B
:1005F00029FB06F072FF0098222220F001000090F3
:100600004FF4F830019015484FF44011C26041603A
:100610000121016101690029FCD10168490603D566
:10062000016841F0400101600221684606F086FF42
:100630001CBD0000004100408C4800401200000436
:1006400090D0030000200740753332446174615F2D
:100650005F5F5F25785F5F25780D0A0000C000406E
:100660002DE9F047DFF804A405460020CAF8000091
:10067000FE4924390860DFF8F4830446A8F18008B5
:10068000814608F1040601274846C6F8009029066D
:1006900002D5C8F8007001E0C8F80000032003F09C
:1006A00069FA37606D00032003F064FA641CE4B259
:1006B000082CE9D3CAF80070BDE8F0872DE9F047AF
:1006C000DFF8A8A305460020CAF80000E749012783
:1006D00024390F60DFF894830446A8F1800881462E
:1006E00008F104064846C6F80090290602D5C8F865
:1006F000007001E0C8F80000032003F03BFA376007
:100700006D00032003F036FA641CE4B2082CE9D330
:10071000CAF80070D0E7002204E00021491C6E29CD
:10072000FCDB521C8242F8DB7047D0483438016849
:100730000129FCD04FF4FA70EDE7CC4910B5002048
:100740000860CA4B703B18606420FFF7E4FF01208B
:1007500018603220FFF7DFFFE220FFF781FF05205E
:10076000FFF7D9FF2C20FFF77BFF0520FFF7D3FF12
:100770002E20FFF775FF0520FFF7CDFF2F20FFF795
:100780006FFF0520FFF7C7FF2420FFF769FF8120D7
:10079000FFF766FF1F20FFF763FFA220FFF760FF50
:1007A000C820FFF75DFFA020FFF75AFF4020FFF7AA
:1007B00057FFBDE81040AF2052E7AC4B10B5002208
:1007C0001A60401E491EC0B2CCB2B030FFF748FFDD
:1007D000102000EB1410FFF743FF04F00F00BDE8FA
:1007E00010403DE770B500256D1CE8B20121FFF710
:1007F000E4FF00240020FFF761FF641CE4B2842CB6
:10080000F8D3EDB2092DEFD370BD2DE9F047804646
:10081000089816468946002503FB00F708EB0500FB
:10082000C0B24946FFF7C9FF002405E03078FFF762
:1008300045FF641CE4B2761CA742F7DC6D1CEDB2E8
:10084000022DEBD338E72DE9F041164688460746DE
:1008500000257819C0B24146FFF7AFFF0024307879
:10086000FFF72CFF641CE4B2761C102CF7D36D1C30
:10087000EDB2022DEDD3BDE8F0812DE9F047002661
:100880001F46904689468246354634460DE009EBC0
:10089000051007EB4412641CC1B26D1CE4B2EDB24A
:1008A0005046FFF7D0FF761CF6B24645EFD303E77C
:1008B00038B5102402EB831202230094FFF7A5FF42
:1008C00038BD2DE9F04116468846074600257819BF
:1008D000C0B24146FFF771FF00243078FFF7EEFE0B
:1008E000641CE4B2761C082CF7D36D1CEDB2022D0B
:1008F000EDD3C0E72DE9F04792460F46814600262A
:1009000022E020385E281DD85949C0B2002501EBED
:10091000001809EB0500F9B2C0B2FFF74EFF002442
:1009200004EBC50118F80100FFF7C8FE641CE4B22F
:10093000082CF5D36D1CEDB2022DEAD3761CF6B26D
:10094000083701E0761CF6B21AF806000028D8D164
:10095000B2E62DE9F041804645480025A0380F4613
:1009600000EB021608EB0500F9B2C0B2FFF725FF55
:10097000002404EBC500305CFFF7A0FE641CE4B269
:10098000082CF6D36D1CEDB2022DEBD373E72DE9E5
:10099000F74F82B014460D46092A03D8E2B20298F6
:1009A000FFF7D7FFA4F10A010A2605F1080000901D
:1009B00059290CD8B4FBF6F7FAB229460298FFF78A
:1009C000C8FF06FB174200990298FFF7C2FFA4F187
:1009D0006401642705F1100BB1F5617F16D2B4FBF9
:1009E000F7F808F0FF0229460298FFF7B2FF07FB6D
:1009F0001849B9FBF6F2904600990298FFF7A9FF53
:100A000006FB189259460298FFF7A3FFA4F57A71E6
:100A100042F2273205F118004FF47A7A01909142A0
:100A200021D8D146B4FBF9F808F0FF022946029814
:100A3000FFF78FFF09FB1849B9FBF7F808F0FF0231
:100A400000990298FFF785FF07FB1899B9FBF6F2AA
:100A5000904659460298FFF77CFFDDE9011006FB3E
:100A60001892FFF776FFA4F51C5003E00049004000
:100A7000128000001B49103888422FD842F21079AA
:100A8000B4FBF9F808F0FF0229460298FFF761FF6E
:100A900009FB1848D146B8FBF9F4E2B20099029874
:100AA000FFF757FF09FB1484B846B4FBF8F7FAB216
:100AB00059460298FFF74DFF08FB1744B4FBF6F2C6
:100AC000DDE901101746FFF744FF029806FB1742C5
:100AD00005B005F12001BDE8F04F3AE705B0BDE8EB
:100AE000F08F00008F5F010038B5012005F06BFC2E
:100AF000FE494860FFF721FEFFF774FE102407232C
:100B0000FB4A082101200094FFF77FFEF9A2202173
:100B10000320FFF7EFFEF64A0523E03219211846BD
:100B20000094FFF772FEF6A214210720FFF7E2FE01
:100B30004FF4FA64204604F0A0FD204604F09DFD29
:100B4000BDE83840FFF74EBE2DE9F84F05F0B9FE7D
:100B5000FFF748FEED48E54C007808B10120207011
:100B6000DFF8AC8398F80200E04FEA4E1037EA4D08
:100B70004FF040094FF47A7A052881F0CD85DFE8FF
:100B800010F00500DA005E021F06DD0B98F8030086
:100B9000102538B1012850D0022873D0032841F025
:100BA000BB85A0E0D24A0523E0321921012000953F
:100BB000FFF72BFED94B022201210320FFF75DFE38
:100BC000D74B022220210320FFF757FED5A2402158
:100BD0000320FFF78FFE717C032057F8212050215E
:100BE000FFF788FED04B022201210520FFF745FECA
:100BF000CD4B0222403320210520FFF73EFEC9A243
:100C000040210520FFF776FE3378C84A50210520A1
:100C1000FFF74EFEC44B0222C03301210720FFF72D
:100C20002CFEC34B022220210720FFF726FEBDA287
:100C300040210720FFF75EFE37E2207868B9BA4B03
:100C40000222403B01210320FFF717FEB64B022290
:100C5000803B20210320FFF710FEB44A0523A03A71
:100C6000192101200095FFF7D0FDAF4B0222012191
:100C70000520FFF702FEAC4B0222803B202105201D
:100C800023E0FFE7207860B1A74B02220121052075
:100C9000FFF7F3FDA44B0222803B20210520FFF744
:100CA000ECFDA24A0523A03A192101200095FFF787
:100CB000ACFD9D4B0222403B01210320FFF7DDFDEF
:100CC000994B0222803B20210320FFF7D6FD964B53
:100CD0000222803301210720FFF7CFFD924B803B9A
:100CE000E5E30720FBE3207868B18F4B02228033D5
:100CF00001210720FFF7C1FD8B4B0222803B202101
:100D00000720FFF7BAFD894A0523A03A19210120DF
:100D10000095FFF77AFD844B0222403B012103201E
:100D2000FFF7ABFD804B0222803B20210320FFF721
:100D3000A4FD7D4BCCE37C4B0222403B20210120D3
:100D4000FFF79BFD784B0222803B40210120FFF7FB
:100D500094FD98F80300012805D002287ED00328CE
:100D600041F0DA8417E198F80400062881F0D48471
:100D7000DFE800F0032134546482207860B16C4BCA
:100D80000222403B01210320FFF777FD684B02223E
:100D900020210320FFF771FD654B02224033012122
:100DA0000520FFF76AFD624B0222803320210520D7
:100DB000FFF763FD0FE05E4B0222403B0121032061
:100DC000FFF75BFD5A4B022220210320FFF755FD60
:100DD00020780028E0D1564BC033D3E3544B022295
:100DE000403B01210320FFF748FD514B0222202107
:100DF0000320FFF742FD4E4B022240330121052024
:100E0000FFF73BFD4A4B0222803320210520FFF7EC
:100E100034FD20780028DED101F086BC2078E0B1D6
:100E2000444B022201210320FFF727FD414B012201
:100E3000403320210320FFF720FD0EE03D4B02222E
:100E400001210320FFF719FD3A4B012240332021F5
:100E50000320FFF712FD207850B300E032E02F4B63
:100E6000022201210520FFF708FD2D4B022220213F
:100E70000520FFF702FD1BE02E4B0222012103207B
:100E8000FFF7FBFC2B4B0122403320210320FFF70F
:100E9000F4FC224B022201210520FFF7EEFC204B3F
:100EA000022220210520FFF7E8FC20780028B3D09B
:100EB00021A201210720FFF71DFD1B4B02228033D9
:100EC00010210EE7184B022220210120FFF7D5FC4C
:100ED000154B0222803B40210120FFF7CEFC98F801
:100EE000040058B3012841F017843BE03000002093
:100EF000048600006675646168697369000000001B
:100F000046442D4A474B5A512D4131009400002050
:100F10008C00002020020020D0010020C49400009A
:100F2000449100003A000000048C00008487000017
:100F3000048D0000448E0000525A0000FFE7207824
:100F400000B3F64B022201210320FFF796FCF34B7E
:100F50000222403320210320FFF78FFC12E02021E2
:100F60000520BCE2ED4B022201210320FFF785FCA6
:100F7000EA4B0222403320210320FFF77EFC207839
:100F8000002894D0E64B022201210520FFF775FCD2
:100F9000E44B0422E3E7E14B0222803320210120CD
:100FA000FFF76BFCDD4B0222803B40210120FFF765
:100FB00064FC98F80400052881F0AE83DFE800F0B7
:100FC00003101C2A3600207820B1D7A2012103206B
:100FD000FFF790FCD6A201210520FFF78BFC07E06C
:100FE000D1A201210320FFF785FC20780028F1D150
:100FF000D1A2012101F08DBBCBA201210320FFF77B
:1010000079FCCBA201210520FFF774FC2078002891
:10101000EED101E7207820B1C9A201210320FFF71A
:1010200069FC0121C9A2052001F074BBC4A2012101
:101030000320FFF75FFC20780028F2D1ECE698F857
:101040000300012805D002287DD0032841F06483E5
:10105000C0E198F804000628AED2DFE800F00328CB
:101060005A83ABCCAE4B0222403B20210120FFF73C
:1010700004FCAB4B022240210120FFF7FEFBA84BF2
:10108000022201210720FFF7F8FBA64B0122203B9B
:1010900020210720FFF7F1FBAFF278123021072063
:1010A000FFF728FC20780028B3D07268F1E39C4B4E
:1010B0000222403320210120FFF7DFFB984B022260
:1010C000803340210120FFF7D8FB954B022280336B
:1010D00001210720FFF7D1FBAFF2B8122021072032
:1010E000FFF708FC20789C4D40B1B06855F82010FF
:1010F0000720B1FBFAF24021FFF749FCB06897499D
:1011000055F82000884275D2F4E309EBC00194A29F
:1011100070E7834B0222C03320210120FFF7ADFB93
:10112000804B0222A03B40210120FFF7A6FB7D4B14
:101130000222A03B01210720FFF79FFBAFF21C22F8
:101140002021072000E078E0FFF7D4FB207820B1D1
:10115000F26840210720FFF71AFC7F4B01226C3B0D
:101160006021BEE56F4B0222603B30210120FFF77A
:1011700084FB6C4B0122203B50211046FFF77DFB86
:10118000684B0222603B01210720FFF776FB654B8D
:101190000122203B20210720FFF76FFBAFF27C22CA
:1011A00030210720FFF7A6FB2078002801F0BC8241
:1011B000327C7BE7684B02224C3B20210120FFF769
:1011C0005CFB694B022240210120FFF756FB664B76
:1011D000022201210720FFF750FBAFF2B8222021A5
:1011E0000720FFF787FB20780028DFD0717C57F8B5
:1011F000212020E0F8E3AFF2C02220210120FFF7F8
:1012000079FB464B0222803330210120FFF735FB6A
:10121000424B0222803301210720FFF72EFBAFF261
:10122000FC2220210720FFF765FB20780028BDD095
:10123000B07C4E49FEE33021DCE698F8040018B19A
:10124000012841F0698223E0344B02222021012051
:10125000FFF713FB314B0222403340210120FFF7FF
:101260000CFB2E4B022201210720FFF706FBAFF2F9
:101270004C3220210720FFF73DFB2078002895D035
:1012800033783B4A32210720FFF712FB01F044BAC2
:10129000234B022210210120FFF7EFFA214B0422F9
:1012A00030210120FFF7E9FA98F8050003280DD254
:1012B00030A201210320FFF71DFB2FA201210520F1
:1012C000FFF718FB01212DA2072007E02CA2012126
:1012D0000320FFF70FFB2BA201210520FFF70AFBDC
:1012E00098F805000528D1D2DFE800F0030B4F6025
:1012F0006800207860B1327E18210320FFF747FB99
:1013000006E0327E18210320FFF741FB2078D8B396
:10131000727E18210520FFF73AFB43E0048C0000A1
:10132000048D0000A48E0000534D31373531580034
:10133000534D313635585800534D31373530300024
:10134000534D31363730335000000000534D3136A5
:1013500038303450000000001095000040420F006B
:101360006B70627300000000449100004800002090
:1013700084870000523A0000473A0000423A0000D9
:10138000573A0000593A00000CE0327E1821032041
:10139000FFF7FDFA727E18210520FFF7F8FA207892
:1013A00000287DD0B27EF5E30720F4E3207868B111
:1013B000F27E18210320FFF7EAFA07E0F27E1821F7
:1013C0000320FFF7E4FA20780028EAD0327F1821C2
:1013D0000520EAE798F80400052884D2DFE800F049
:1013E0000390E5F7F600AFF2C00220210120FFF7DD
:1013F00081FA98F805000528EFD2DFE800F0031322
:10140000305971002078E0B1FB4B0222012103200A
:10141000FFF733FAF84B0222403320210320FFF775
:101420002CFA0EE0F44B022201210320FFF725FAEB
:10143000F14B0222403320210320FFF71EFA2078CF
:1014400050B3EE4B022201210520FFF716FAEA4BBA
:101450000222403320210520FFF70FFA1CE0E64B63
:10146000022201210320FFF708FAE34B0222403356
:1014700020210320FFF701FAE04B02220121052081
:10148000FFF7FBF9DC4B0222403320210520FFF758
:10149000F4F92078002884D0D74B8033022200E072
:1014A00056E301210720FFF7E8F9D34BC033D9E217
:1014B000207858B1D24B022201210320FFF7DDF939
:1014C000D04B022220210320FFF7D7F9CC4B403329
:1014D000022201210520FFF7D0F9CB4BF0E247E1D2
:1014E000C74B022201210320FFF7C7F9C54B022297
:1014F00020210320FFF7C1F920780028E6D18BE4F2
:10150000AFF2D41220210120FFF7F4F998F805007A
:1015100030B1012820D0022829D003287ED138E01C
:10152000207850B1B44B022201210320FFF7A5F926
:10153000B14B022240332021C0E0AF4B0222803366
:1015400001210520FFF799F9AD4B0222403B2021F4
:101550000520FFF792F9CBE0A74B022201210320DF
:10156000FFF78BF9A44B022240332021BAE0A24BB3
:10157000022201210320FFF780F99F4B0222403312
:101580002021C7E0022201210720FFF776F99D4BB9
:1015900068E220780028B2D0994B02224033012122
:1015A0000320FFF76AF9984B54E3AFF2742220212D
:1015B0000120FFF79FF998F8050007282ED2DFE8F1
:1015C00000F007173C6981990400E2E7D3E0B6E038
:1015D0002078E0B1894B022201210320FFF74DF969
:1015E000854B0222403320210320FFF746F90EE00D
:1015F000824B022201210320FFF73FF97E4B02229A
:10160000403320210320FFF738F92078C0B30122AE
:101610007E4B11460520FFF730F900E018E1774BCB
:10162000022210210520FFF728F9734B02224033D4
:1016300030210520FFF721F922E0704B0222012121
:101640000320FFF71AF96C4B0222403320210320BC
:10165000FFF713F901226D4B11460520FFF70DF935
:10166000664B022210210520FFF707F9624B022288
:10167000403330210520FFF700F9207800288AD078
:101680005F4B0222803301210720FFF7F6F85F4B02
:10169000403BE7E1207800283FF44FAF01225B4B4D
:1016A00011460320FFF7E9F8544B022210210320D2
:1016B000FFF7E3F8534B0122803330210320FFF77B
:1016C000DCF83AE70122514B11460320FFF7D5F829
:1016D0004A4B022210210320FFF7CFF8494B012289
:1016E000803330210320FFF7C8F820780028E8D1A4
:1016F000434B47E70122454B11460320FFF7BDF856
:101700003E4B022210210320FFF7B7F83D4B012288
:10171000803330210320FFF7B0F8374B02228033AB
:1017200001210520FFF7A9F8354B0222403B20217B
:101730000520FFF7A2F820780028D9D169E4AFF29C
:10174000004220210120FFF7D5F898F80500002875
:101750007ED120780028F1D0284B0222803B012145
:101760000320FFF78AF8274B803301222021032032
:10177000FFF783F88AE5AFF22C4220210120FFF722
:10178000B9F898F8050010B10128F3D10DE02078E0
:1017900000287DD0194B0222803B01210320FFF756
:1017A0006CF8184B803301226CE1144B0222803B11
:1017B00001210320FFF761F8124B803301226FE112
:1017C00098F803000328D5D198F80400104E114F63
:1017D0000528CFD2DFE800F003EEEDECEB0098F83F
:1017E00005000D4D0528C5D2DFE800F0FD2193FC72
:1017F000BC000228BED1CFE1248F0000048D000080
:1018000024900000048E0000848B000024910000CE
:101810005000002004950000880100202078002856
:1018200004D02A6850210320FFF7B1F8AAE1FE4B4B
:10183000022220210120FFF720F8FC4B0222402148
:101840000120FFF71AF804220121F94B032000E0E0
:101850000CE1FFF712F8AFF6341240210320FFF736
:1018600049F8F34B0222803301210520FFF705F8E8
:10187000EE4B0122E03B20210520FEF7FEFFAFF6F4
:101880005C1230210520FFF735F8E74B022201E01A
:101890000DE14EE201210720FEF7EFFFE34B0122AD
:1018A000E03B20210720FEF7E8FFAFF68812302149
:1018B0000720FFF71FF898F8060020B101280FD085
:1018C000022897D117E0207820B16A6850210320C0
:1018D000FFF75DF8EA6850210520FFF758F807E0A8
:1018E0006A6850210320FFF752F820780028F1D1D0
:1018F0006A69FAE24DE36A6850210320FFF747F86E
:10190000EA6850210520FFF742F820780028EFD13F
:10191000F5E5C64B0222403320210120FEF7ADFF42
:10192000C24B0222803340210120FEF7A6FFBF4BAD
:101930000222803301210720FEF79FFFBB4B0122CB
:10194000E03B20210720FEF798FFAFF62822302148
:101950000720FEF7CFFF20780028D9D0EA69C4E23B
:10196000287C0FE3B34B022220210120FEF785FFE4
:10197000B14B022240210120FEF77FFF98F80600BC
:10198000052873D2DFE800F003173F738300207847
:1019900000B3A74B0422C03301210320FEF76DFFE3
:1019A000A64B022240210320FEF767FF12E0F9E375
:1019B000F9E351E187E09E4B0422C033012103206B
:1019C000FEF75BFF9D4B022240210320FEF755FFEF
:1019D000207880B3994B0322603B01210520FEF75C
:1019E0004CFF02E0E5E07AE0D0E2944B0222C03303
:1019F00030210520FEF741FF904B022250210520A7
:101A0000FEF73BFF26E08A4B0422C033012103206E
:101A1000FEF733FF894B022240210320FEF72DFF02
:101A2000864B0322603B01210520FEF726FF834BF6
:101A3000C03301E0FEE30DE0022230210520FEF775
:101A40001CFF7E4B022250210520FEF716FF207856
:101A500000287DD0744B022201210720FEF70DFFE4
:101A6000764B403302222021FFF73BB9B4E02078C7
:101A7000E8B1724B0222803301210320FEF7FDFE04
:101A80006F4B022220210320FEF7F7FE0FE06B4B85
:101A90000222803301210320FEF7EFFE684B022271
:101AA00020210320FEF7E9FE20780028D1D0614BE9
:101AB0000222403301210520FEF7DFFE5D4B80331B
:101AC0000222FFF74CBA98F805005E4D38B10128A4
:101AD0003FF41FAF02286CD003287DD192E0534B16
:101AE0000222403B20210120FEF7C7FE4F4B02227D
:101AF00040210120FEF7C1FE4D4B042201210320AD
:101B0000FEF7BBFEAFF6E43240210320FEF7F2FE03
:101B1000464B0222403B01210520FEF7AEFE444B1E
:101B20000222403B20210520FEF7A7FEAFF60C4223
:101B300040210520FEF7DEFE3B4B0222012107205B
:101B4000FEF79BFE3E4B012240332021072000E0A0
:101B5000DDE0FEF792FEAFF6344230210720FEF7BB
:101B6000C9FE98F8060000283FF458AE01287FF41B
:101B700040AE2A6850210320FEF709FF2078002894
:101B80003FF4ADAE687C502156F820200520FEF7CA
:101B9000B1FEADE65CE1D0E32A6850210320FEF7F8
:101BA000F6FE687C502156F820200520FEF7A2FEA4
:101BB000ABE6204B0222403B20210120FEF75DFED8
:101BC0001F4B0222403B40210120FEF756FE1C4BDA
:101BD0000222403B012100E0C2E00720FEF74DFE5B
:101BE000AFF6C04220210720FEF784FE20780028AF
:101BF0003FF4B6AE287C402157F820200720FEF79E
:101C0000C6FEADE60B4B022220210120FEF735FE79
:101C1000094B022240210120FEF72FFE20780028E8
:101C200075D0064B80330FE0048D0000648F0000F8
:101C30008491000064900000848B000024930000D5
:101C4000448E0000AC010020022201210320FEF797
:101C500014FEFE4B022289E598F80500FC4E072889
:101C60007ED2DFE800F00467B3FBFAF9F800F94B25
:101C7000022220210120FEF700FEF74B0222402124
:101C80000120FEF7FAFDF54B042201210320FEF7A7
:101C9000F4FDAFF6705240210320FEF72BFEEF4B10
:101CA0000222803301210520FEF7E7FDE74B0122E8
:101CB000403320210520FEF7E0FDAFF69852302199
:101CC0000520FEF717FEE34B022201210720FEF755
:101CD000D4FDDE4B0122403320210720FEF7CDFD4D
:101CE000AFF6C05230210720FEF704FE98F8060038
:101CF00020B101280CD0022832D112E0207820B186
:101D0000726850210320FEF742FEF26850E069E15C
:101D1000726850210320FEF73AFE20780028F4D1A3
:101D200006E0726850210320FEF731FEF26845E0BC
:101D30007269DAE0C94B0122603B10211046FEF7C0
:101D40009CFDC44B022220210120FEF796FDC24BD0
:101D5000022240210120FEF790FDC04B042200E04A
:101D600092E101210520FEF788FDAFF6486240218F
:101D70000520FEF7BFFDB74B022201210720FEF729
:101D80007CFDB24B0122403320210720FEF775FD78
:101D9000AFF6706230210720FEF7ACFD98F8060020
:101DA00010B10128A8D108E020780028C0D0B2687E
:101DB00050210520FEF7EBFDBAE7B268502105205F
:101DC000FEF7E5FD20780028B2D10BE10121A4A2A5
:101DD0000846FEF78FFDA3A201210320FEF78AFD2E
:101DE000A1A201210520FEF785FDA0A20121072067
:101DF000FEF780FD98F806006DE3022877D00328EF
:101E0000D0D12CE0207820B12A7A18210120FEF7C9
:101E1000BEFD18216A7A032009E0207820B16A7A91
:101E200018210320FEF7B3FD2A7A18210120FEF7BE
:101E3000AEFD1821EA7A052007E06A7A182103200E
:101E4000FEF7A5FD2A7A18210120FEF7A0FD2A7BC6
:101E50001821FFF7A9BA9EE070E049E013E020786E
:101E600020B12A7B18210720FEF791FD6A7A1821FC
:101E70000320FEF78CFDEA7A18210520FEF787FD86
:101E80002A7A1821ECE2754B0122603B2021104692
:101E9000FEF7F3FC6F4B022230210120FEF7EDFC30
:101EA0006A4B0122403350211046FEF7E6FC6B4B93
:101EB0000122603B11460720FEF7DFFC654B022242
:101EC00010210720FEF7D9FC604B0122403330215E
:101ED0000720FEF7D2FCAFF6B47240210720FEF7D0
:101EE00009FD207800287DD0AA7C5021B1E7F9E2D5
:101EF000594B0222403320210120FEF7BEFC564BF5
:101F00000222803340210120FEF7B7FC524B02220F
:101F1000803301210720FEF7B0FC4C4B01224033F7
:101F200020210720FEF7A9FC51A230210720FEF74F
:101F3000E1FC20780028D6D0F269D6E7464B022291
:101F4000C03320210120FEF798FC404B0222403B89
:101F500040210120FEF791FC3C4B0222403B012135
:101F60000720FEF78AFC42A220210720FEF7C2FCD0
:101F7000207830B1307C402157F820200720FEF730
:101F800006FD307C57F82000504502D30420FFF7AF
:101F9000BCB80320FBE7374B022220210120FEF7CB
:101FA0006CFC354B022240210120FEF766FC98F8BC
:101FB0000600062868D2DFE800F00327688CAFD15E
:101FC000207858B12D4B022201210320FEF755FC49
:101FD0001E4B022220210320FEF74FFC274B4033EB
:101FE000022200E06AE201210520FEF746FC24A25D
:101FF00020210520FEF77EFC204B0222803B482159
:102000000520FEF73AFC0EE01C4B022201210320C2
:10201000FEF733FC0D4B022220210320FEF72DFC9E
:1020200020780028DAD1154B0322E03B012107205C
:10203000FEF723FC114B0222403330210720FEF72C
:102040001CFC0E4B0222803B50210DE5448E00000B
:10205000E4010020048D0000648F000084910000E2
:1020600049523A0049473A0049423A0049573A0032
:102070003A00000064900000848B0000A4930000EC
:10208000313638313300000009E1FE4B02220121D4
:102090000320FEF7F2FBFC4B022220210320FEF777
:1020A000ECFBF84B0222403301210520FEF7E5FB53
:1020B000AFF2340220210520FEF71CFCF14B022276
:1020C000803B48210520FEF7D8FB20780028AAD1C4
:1020D0002AE3207860B1EB4B0222803301210320F8
:1020E000FEF7CBFBE84B022220210320FEF7C5FBC5
:1020F000E6A201210520FEF7FDFBE24B0222C033E0
:1021000018210520FEF7B9FBDE4B0222803B382167
:102110000520FEF7B2FB0FE0DA4B022280330121EB
:102120000320FEF7AAFBD84B022220210320FEF752
:10213000A4FB20780028DBD1D54B02220121072007
:10214000FEF79BFBD24B0222403320210720FEF7F3
:1021500094FBCC4B0222403B402185E4C94B022238
:10216000803301210320FEF788FBC74B0222202188
:102170000320FEF782FBC5A201210520FEF7BAFB72
:10218000C04B0222C03318210520FEF776FBBD4B61
:102190000222803B38210520FEF76FFB20780028C3
:1021A000CAD1C1E22AE0FFE798F80500002876D1FD
:1021B000B84B022220210120FEF75FFBB24B012227
:1021C000403340211046FEF758FBB24B022201215A
:1021D0000720FEF752FBAC4B0122403320210720A1
:1021E000FEF74BFBAFF2781230210720FEF782FB9F
:1021F00020780028D5D0A848827A2CE098F80500ED
:10220000A64D10B10128D2D127E0A24B02222021F5
:102210000120FEF732FB9C4B012240334021104647
:10222000FEF72BFB9B4B022201210720FEF725FB2B
:10223000954B00E0E4E14033012220210720FEF726
:102240001CFBAFF2D41230210720FEF753FB20789D
:102250000028A6D0AA7A4021FBE5AFF2FC120121AA
:102260000846FEF747FBAFF2042201210320FEF7E8
:1022700041FBAFF20C2201210520FEF73BFBAFF240
:10228000142201210720FEF735FB98F8060038B12B
:10229000012811D0022821D0032888D135E0CBE0D5
:1022A000207828B12A7918210120521CFEF76FFBF3
:1022B00018216A7903200AE0207828B16A79182168
:1022C0000320521CFEF763FB2A7918210120521CBF
:1022D000FEF75DFB1821AA79052010E0207828B1CF
:1022E000AA7918210520521CFEF751FB6A791821A2
:1022F0000320521CFEF74BFB2A7918210120521CA7
:10230000FEF745FBEA79182166E0207828B1EA79E2
:1023100018210720521CFEF73AFB6A791821032086
:10232000521CFEF734FBAA7918210520521CFEF737
:102330002EFB2A7918210120521C9DE198F80300F8
:102340000328AAD198F8040020B1012873D00228EC
:10235000A3D102E198F8050004289ED198F8060060
:102360004F4D052868D2DFE800F003F617F57D0031
:102370004C4B042222210120FEF77FFA207840B145
:10238000287854E1484B01E0474B203301223821A3
:102390005BE646A23821BCE13E4B0222803322217B
:1023A0000120FEF76AFA374B0222403B422101200E
:1023B000FEF763FA334B0222403B01210720FEF770
:1023C0005CFAAFF2543220210720FEF793FA20780E
:1023D000002873D0AA7830210720ADE702286ED0FC
:1023E000032829D129E0207820B12A792C21012045
:1023F000FEF7CDFA2C216A79032009E0207820B17C
:102400006A792C210320FEF7C2FA2A792C210120B7
:10241000FEF7BDFA2C21AA79052007E06A792C2164
:102420000320FEF7B4FA2A792C210120FEF7AFFA37
:10243000EA792C210DE55FE08EE0207820B1EA7981
:102440002C210720FEF7A3FA6A792C210320FEF73E
:102450009EFAAA792C210520FEF799FA2A792C21D7
:10246000012009E1AFF2084201210846FEF742FAD5
:10247000AFF2104201210320FEF73CFAAFF21842FE
:1024800001211DE0A4930000448E000052545A0024
:10249000A4900000848C0000080200201302002099
:1024A0007401002044920000448B00002020202072
:1024B00020202020202020202000000077E077E04E
:1024C0000520FEF717FAAFF25C4201210720FEF764
:1024D00011FA98F8070000283FF494AC01283FF463
:1024E0009CAC8AE4207800283FF4A7ACEA7A182153
:1024F0000520FEF74CFAA0E498F8050003282BD13C
:1025000098F8060040BB894B022222210120FEF7E9
:10251000B4F9874B022242210120FEF7AEF9844B29
:10252000022201210720FEF7A8F9AFF2BC422021C8
:102530000720FEF7DFF92078C8B37E4D7E4A2821B8
:102540002B780720FEF7B4F928787C4951F8202031
:102550004921DEE00EE057E082E098F80500062809
:102560007ED198F8060006287AD2DFE800F0032B27
:102570004D6488A8012172A20846FEF7BBF972A239
:1025800001210320FEF7B6F971A201210520FEF713
:10259000B1F971A201210720FEF7ACF998F8070004
:1025A00000283FF420AF01283FF428AF16E758E099
:1025B000207800283FF432AFAA792C210520FEF7BD
:1025C000E6F92BE7594B0222403322210120FEF786
:1025D00054F9AFF2545242210120FEF78BF9534BCC
:1025E0000222403301210720FEF747F955A220219E
:1025F0000720FEF77FF9207898B35049E87B2C3903
:1026000051F82020FEF717BE484B0322E03B19216A
:102610000120FEF732F9454B0222403349210120C7
:10262000FEF72BF9207800283FF4B3AE6878002835
:102630003FF4AAAEA6E63D4B0222803322210120C0
:10264000FEF71BF93A4B022242210120FEF715F951
:10265000374B022201210720FEF70FF939A201E0D2
:102660005AE043E020210720FEF744F92078E8B340
:10267000AA7850210720D21CFEF789F94CE0AFF26E
:10268000F41222210120FEF735F9284B0222C03333
:102690003A210120FEF7F1F8244B0222C033012138
:1026A0000720FEF7EAF827A220210720FEF722F9EB
:1026B0002078D8B1297C57F82120402129E0284BE7
:1026C000022210210120FEF7D8F8254B02224033C8
:1026D00030210120FEF7D1F8144B0222403B50215B
:1026E0000120FEF7CAF8114B403B00E01CE002223B
:1026F00001210720FEF7C1F812A220210720FEF7D2
:10270000F9F8207880B10D49687C103151F820200B
:1027100048210720FEF7EEF8207828B1002020702D
:10272000BDE8F84F04F0D3B80120F8E7A493000007
:10273000448E000084000020448A000064000020D1
:102740004F5554523A0000004F5554473A0000008C
:102750004F5554423A0000004F5554573A0000007C
:10276000A490000070B5FC4C0546206803F042F8C8
:10277000322002F082FF2946F84804F0AEFA2068C1
:10278000BDE8704003F07DB870B5F34D044628688D
:1027900003F030F8642002F070FFF04824B1012CFF
:1027A00007D0022C0BD10FE0ED4904F096FAEDA012
:1027B00003E0F04904F091FAEFA005F043FA28682D
:1027C000BDE8704003F05DB8EF4904F086FAEFA071
:1027D000F3E770B5F14800248470C470047144714B
:1027E0008471C471EE4D2878082808D1ED4E306808
:1027F00002F05BFF032802D1306803F042F828782A
:10280000092808D1E84D286802F04FFF032802D1BB
:10281000286803F036F8E5480470FEF795F9E448B7
:102820000068BDE8704002F0E5BF2DE9F843DB4CDD
:1028300004F014FF207920B1012808D0022811D11A
:102840000BE06079022824D003280BD121E06079C5
:1028500001281ED0022805D11BE06079042818D079
:10286000052816D0BC4E306802F0C4FFDFF8408364
:10287000D8F8000002F0BEFFDFF838930021C9F855
:102880000010FDF7AFFFE0784FF47A7503282AD1E6
:1028900002E00020BDE8F883217921B1012931D07F
:1028A0000229F4D159E0BE4F983F387CFFF76CFF06
:1028B000607920B101280BD00428E8D114E0BEA231
:1028C00001210520FEF716F87A69797C386808E05E
:1028D000BEA201210520FEF70DF87A69F868C1B2A1
:1028E000786801F0F5FA93E0BDA201210520FEF71A
:1028F00001F8AB48AC3801F04FFBA948AC3801F007
:102900004BFB0DE0A64F743F387CFFF73DFF60792D
:10291000A24C083C10B103287AD105E0B5A204E02E
:10292000284602F0AAFE73E0B7A201210520FDF7B8
:10293000E1FF207800907A7C79693868D22301F031
:10294000ABFB284602F099FE207800907A7C7969EA
:102950003868002301F0A0FBE2E7914F3C3F387C50
:10296000FFF712FF6079072852D2DFE800F0041564
:10297000243351514300A9A210210120FDF7BAFFD1
:1029800094A210210520FDF7B5FF7A69F868C1B25D
:10299000786801F049FDC3E7A0A210210120FDF7EE
:1029A000A9FFA2A201210520FDF7A4FF7969B8685B
:1029B00001F09DFD2CE099A210210120FDF79AFF66
:1029C0009FA201210520FDF795FF7548503801F0C1
:1029D00073FE1DE091A210210120FDF78BFF9DA247
:1029E00001210520FDF786FF78696D49503901F016
:1029F000B2FE0DE089A210210120FDF77BFF9AA213
:102A000010210520FDF776FF6548503801F001FEE2
:102A1000284602F032FE62488068964951F820004C
:102A2000FFF7A0FE306802F02CFFD8F8000002F09B
:102A300028FF0121C9F8001008462BE770B55B4953
:102A4000564C00200870A1782246052922D2DFE8E2
:102A500001F003223A668100524D286802F025FEFB
:102A6000032802D0286802F0C5FE4F4D286802F006
:102A70001CFE032802D0286802F0BCFE4C48006807
:102A800002F0FFFEE078401CE070E078042801D3FB
:102A90000120E0703CE12179491C2171D1780129A4
:102AA00004D0022907D0032904D108E0217906299E
:102AB00000D120712CE121790229FAD028E1217975
:102AC0000529F6D024E16179491C6171D178012989
:102AD0000BD0022902D0032907D107E0117901297F
:102AE00003D16179052900D1607111E111790529BE
:102AF00008D2DFE801F00304080C1000F1E7617967
:102B00000429F1D004E161790729EDD000E1617970
:102B10000129E9D0FCE061790229E5D0F8E0A1794A
:102B2000491CA171D178032912D1117905290FD23D
:102B3000DFE801F003A2ABC0C3005179052907D239
:102B4000DFE801F0ACACC0C00300A179052900D0DA
:102B5000DEE0BAE0BFE00000B40000200020074043
:102B600090D00300626175645F3235306B2D2D2D7E
:102B70000D0A000020A10700626175645F353030E6
:102B80006B2D2D2D0D0A000040420F00626175640F
:102B90005F313030306B2D2D2D0D0A008C00002060
:102BA00020020020A8000020AC00002030000020FF
:102BB0002C00002044480040534D31373531585FD8
:102BC0006C616D7073202E2E2E000000534D313736
:102BD0003531585F4368616E6E656C202E2E2E0075
:102BE000534D31373531585F506172616D202E2E53
:102BF0002E000000534D31363558585F6C616D70B2
:102C000073202E2E2E000000534D31363558585F5C
:102C1000506172616D202E2E2E000000534D313711
:102C20003530305F4C4F41440000000053656C6606
:102C30005F4368616E6E656C202E2E2E00000000D2
:102C400043757272656E745F4761696E202E2E2E19
:102C50000000000053656C665F4368616E6E656CD2
:102C60005F4E756D2E2E0000506172616D5F736551
:102C7000742E2E0010950000517979B1012921D0D0
:102C800002291FD0032943D11CE0517907293FD2E3
:102C9000DFE801F004081D1818180C00A1790329B9
:102CA00013D035E0A17902290FD031E0A1790629AE
:102CB0000BD02DE0517959BB04E0517911B10129B4
:102CC00026D104E0A179012922D1A07120E0A179C7
:102CD0000429FAD01CE0D178032919D1117911B156
:102CE000022915D108E05179042911D191790329DC
:102CF00007D004290CD104E05179062908D1917933
:102D000031B9E179491CE171E179042900D1E0711F
:102D1000BDE87040FDF718BF70B5F749F74C0020CB
:102D20000870E07800285BD0A0780122052853D2F3
:102D3000DFE800F003050E374200A2704CE0E078B7
:102D4000012801D0022801D104F060FD022026E014
:102D5000E078012840D002283ED003281CD12179F8
:102D6000E74DE64B286821B101290ED0022913D185
:102D70000FE0617902290FD11A7002F096FC032846
:102D80000AD1286802F07DFD06E06179012903D1AE
:102D9000F2E761790429EFD004F038FD0320A07038
:102DA0001AE02079052813D2DFE800F003090D149A
:102DB00014006079042809D0FFF737FD0CE0607932
:102DC0000328F9D102E060790628F5D104F01EFD50
:102DD0000420E4E704F042FCBDE87040FDF7B4BE17
:102DE00070BD2DE9F041C4480023C6490370C348B3
:102DF000A0F1080285784FF40064022D04D0032D61
:102E00006DD0042D25D1BEE1C278012A02D0022A5C
:102E1000F8D13BE002790120062A1AD2DFE802F05D
:102E2000030A1A1E262E4A68A24201D248684000B0
:102E300048600CE08868401C88608868082800D1D9
:102E40008B608868B04951F82000FFF78BFC04F0D4
:102E500005FC40E2C868401CC860F8E70A7C521CC8
:102E60000A740A7C062AF2D10874F0E7487C401CF8
:102E70004874487C0228EAD14B74E8E7887C401CFF
:102E80008874887C0228E2D18B74E0E7027912B161
:102E9000012ADED107E00878401C087008780B286A
:102EA000D5D30B70D3E740790528D0D2DFE800F006
:102EB00003070B0F1300087E401C0876C7E7487E07
:102EC000401C4876C3E7887E401C8876BFE7C87EF2
:102ED000401CC876BBE7087F401C0877B7E7C1787D
:102EE0000329B6D1017903264FF400750529B0D224
:102EF000DFE801F0032855F2F10082494279983960
:102F000032B1012A09D0022A3AD0032AA1D113E012
:102F1000807908B3012804D122E0807920B101280A
:102F200006D0022895D123E04868401C4860D2E1D1
:102F3000C868401CC860CEE18079002889D126E0AD
:102F4000087CD6E06F4942797439002AE0D0012A22
:102F500016D0022AEBD1EFE70868401C0860BAE1FE
:102F6000487C401C4874487C0528E0D14E74B2E18E
:102F70004869400048614869A042D8D94D61AAE13A
:102F800080790028D3D1C869401CC861A3E1087CBE
:102F9000401C0874087C0328D2D10B74D0E7594A2E
:102FA00046793C3AA2F11401062EC0D2DFE806F0C1
:102FB000031A23868C95807920B1012806D0022837
:102FC000B5D107E05068401C506084E1D068401CD7
:102FD000D06080E15069400050615069A042A6D99C
:102FE000556178E1807910B10128A0D1F2E79068AD
:102FF000401C90606FE1807930B101281BD002281D
:103000002FD0032893D142E0087A401CC2B20A7242
:10301000487C00287AD0012804D0022805D0032853
:1030200085D105E00F2A71D855E11F2A6ED852E1EB
:103030003F2A6BD84FE1487A401CC2B24A72487CA2
:1030400090B3012804D0022805D0032802D105E05E
:103050000F2A29D83FE11F2A26D83CE13F2A23D84E
:1030600039E1C87A401CC2B2CA72487C90B30128C8
:1030700004D0022805D0032802D105E00F2A29D860
:1030800029E11F2A26D826E13F2A23D823E1087BFD
:10309000401CC2B20A73487CC8B3012805D002287C
:1030A00006D0032803D106E0B6E00F2A2FD812E19C
:1030B0001F2A2CD80FE13F2A29D80CE1807938BB90
:1030C000887C401C887406E1807908BBD069401C6C
:1030D000D06100E1A8E020E01BE08179C1B98079EE
:1030E000B0B9107C401C1074107C032800D11374FC
:1030F000107CFFF749FBEEE0300000208C00002040
:10310000B000002020020020109500007CE093E039
:1031100028E0F84942792ABB06E0F64942790B31AA
:1031200012B1012A1ED105E08079D8B9887A401CF5
:103130008872D0E0807930B101280CD0022812D0FA
:1031400003280FD117E00879401CC0B208710F287E
:1031500008D90B71BFE04879401CC0B248710F28F4
:1031600000D94B71B7E08879401CC0B288710F2834
:1031700000D98B71AFE0C879401CC0B2C8710F286C
:1031800000D9CB71A7E0C178032917D1017921B10A
:10319000012953D0022911D15DE0417904290DD1D3
:1031A000D44982799439052A08D2DFE802F0037BFA
:1031B0000F611E00087810B1002008708BE001201C
:1031C000FBE7012000E00020487084E08878401C84
:1031D000C0B2887004287ED38B707CE001284ED06A
:1031E000022850D0032876D151E0C07930B10128AF
:1031F0000CD0022812D003286DD117E0087A401CA9
:10320000C0B208720F2866D90B7264E0487A401C7D
:10321000C0B248720F285ED94B725CE0C87A401C7D
:10322000C0B2C8720F2856D9CB7254E0087B401C3C
:10323000C0B208730F284ED90B734CE041790329B3
:1032400049D1807910BB1078401CC0B2107004289E
:1032500041D313703FE0417906293CD1A5498279D9
:103260003839062A37D2DFE802F003161D21282F4D
:10327000C0790028B2D10879401C08712BE0487948
:10328000401C487127E08879401C887123E0C87988
:10329000401CC8711FE0C87B10B10020C8731AE041
:1032A0000120FBE7487800288DD18AE7887810B1A3
:1032B000002088700FE00120FBE7087C10B100209F
:1032C000087408E00120FBE7487C401CC0B2487449
:1032D000042800D34B74BDE8F041FDF735BC2DE95F
:1032E000F047854800258549057082488F78183059
:1032F000A1F108024FF40066022F07D050381023C6
:10330000447C032F78D0042F17D1EBE1CA78012A2F
:1033100002D0022AF8D145E00A790221062A0CD20D
:10332000DFE802F0030E1C2932394168012905D07B
:1033300041684908416004F091F97CE24660FAE78F
:10334000816809B9082181608168491E81608068AF
:103350006B4951F82000FFF705FA6CE2C1680129BA
:1033600003D0C168491EC160E5E7FDF7EDFBBDE88C
:10337000F04704F073B9017C012901D106210174E1
:10338000017C491E0174D6E7427C02B94174417C3C
:10339000491E4174CFE7827C02B98174817C491E49
:1033A0008174C8E70A7912B1012AC6D107E0017811
:1033B00009B90B2101700178491E0170BBE74979F9
:1033C0000529B8D2DFE801F003070B101400017ED5
:1033D000491E0176AFE7417E491E4176ABE7817E0B
:1033E000491E8176A7E707E0C17E491EC176A2E7A4
:1033F000017F491E01779EE7C87803289DD108798F
:103400004FF0050C4FF400774FF00309052894D2D4
:10341000DFE800F0035178F2F10036484A7980384D
:1034200032B1012A1AD0022A38D0032A85D139E0D4
:10343000897991B3012902D002298ED105E0417C1E
:10344000032901D180F811C0F2E1416949084161C5
:103450004169B94200D246610576ECE1897921B132
:10346000012909D00229F8D10DE04168012973D062
:103470004168491E4160DEE1C16801296CD0C16824
:10348000491EC160D7E14169490841614169B942BA
:1034900000D2466101210176CDE116E0897900294B
:1034A000DBD119E089790029D7D11CE0017C491EC4
:1034B0000174007CE3E00F484A795C38002AB7D0F9
:1034C000012AEBD0022AC8D1ECE70168012943D0D8
:1034D0000168491E0160AEE1C16900293CD0C169A3
:1034E000491EC161A7E1017C0029DFD180F810905D
:1034F000DCE7000008020020300000208C000020E3
:1035000010950000F94A91F805C0A2F11400BCF131
:10351000060FA2D2DFE80CF003212D949EA7887934
:1035200020B1012809D0022897D10DE05068012868
:1035300012D05068401E50607DE1D06801280BD049
:10354000D068401ED06076E15069400850615069F3
:10355000B84290D256616EE17AE0887910B10128C4
:1035600089D1F1E79068012872D09068401E906080
:1035700061E18E792021402236B1012E1AD0022E2F
:103580002ED0032E0CD144E04CB1D84D143D012C6B
:103590002D7A06D0022C07D0032C01D107E005724A
:1035A00049E155BB0372E0E03DBB0172DDE025BBA4
:1035B0000272DAE04CB1CD4D143D012C6D7A06D08B
:1035C000022C07D0032C01D107E0457233E185BB03
:1035D0004372D2E06DBB4172CFE055BB4272CCE08A
:1035E00064B1C24D143D012CED7A09D0022C0AD0F1
:1035F000032C04D10AE04EE044E0B6E0C5721AE1C3
:103600003DBBC372C1E025BBC172BEE00DBBC2723F
:10361000BBE04CB1B54D143D012C2D7B06D0022CE6
:1036200008D0032C01D108E0057304E18DBB0373BE
:10363000B3E0A2E06DBB0173AFE055BB0273ACE039
:10364000897939BB817C012902D0491E8174F2E05D
:1036500075E09AE08879E8B9D06900286FD0D06920
:10366000401ED061E7E08879A0B9887990B9107CD4
:1036700008B982F81090107C401E1074107CFFF77F
:1036800083F8D8E099484A7924301AB9897909B978
:1036900009E082E00CE095484A792F30002AF5D005
:1036A000012A05D105E0817A012948D0491E81729D
:1036B000C1E0897931B1012908D002290AD0032952
:1036C0002CD10BE0017971BB037186E0417959BBC4
:1036D000437186E0817941BB837186E0C17979BB12
:1036E000C37186E0C878032818D10879042520B171
:1036F000012856D0022811D15FE0487904280DD165
:103700007A488A797038052A08D2DFE802F0037D0A
:1037100012632100017811B1002101708BE00121B9
:10372000FBE7012103E058E05BE05EE0002141702F
:1037300081E0817801B985708178491E6BE07EE077
:1037400057E001294DD002294FD0032973D150E011
:10375000C97931B101290CD0022912D003296AD1CB
:1037600017E0017A00293FF41DAF017A491E01726A
:1037700061E0417A00293FF42BAF417A491E417242
:1037800059E0C17A00293FF43CAFC17A491EC172A9
:1037900051E0017B00293FF44AAF017B491E0173D0
:1037A00049E04879032846D1887908BB107800B9E8
:1037B00015701078401E10703DE0487906283AD107
:1037C0004A488A791438062A35D2DFE802F003160F
:1037D0001D21282FC9790029B3D10179491E017112
:1037E00029E04179491E417125E08179491E8171A5
:1037F00021E0C179491EC1711DE0C17B11B10021D9
:10380000C17318E00121FBE7417800298ED188E7D8
:10381000817811B1002181700DE00121FBE7017C6D
:1038200011B10021017406E00121FBE704B94574E0
:10383000417C491E4174BDE8F047FDF785B9BDE8FC
:10384000F08770B52A4CA078002505282DD2DFE836
:1038500000F003080B0F2900E5700020FEF7B9FF08
:1038600023E0A570257120E00120A07065711CE0A7
:103870002078012812D11F4E306801F016FF03286E
:1038800002D1306801F0FDFF1B4E306801F00DFFE2
:10389000032802D0306801F0ADFF25700220A0702F
:1038A000A57102E00320A070E571BDE87040FDF74E
:1038B0004BB97047704770470C4A943A42F8201051
:1038C00070470A4A0021943A42F82010704708B520
:1038D0008DF80000064808384068002804D000230E
:1038E0000A22694602F0EFFC08BD0000E401002056
:1038F0008C000020B4000020B000002008B5274C48
:10390000274D00230A226946606802F0B3FD0128B2
:1039100006D19DF8000055F8201009B10020884715
:10392000322001F0AAFEECE71FB5002201210A2097
:1039300002F01BFC1949486000200421CDE9001069
:1039400002900346322217A10390AFF24F0001F01C
:10395000ADFC1FBD10B5FFF7E7FFAFF61F711048B4
:103960000160AFF64B414160AFF689318160AFF243
:103970009161C160AFF235110161AFF2C9014161DE
:10398000AFF2CF018161AFF2D101C161084901629B
:10399000BDE81040642001F070BE000084000020EB
:1039A000500100206576656E745F6C6F6F7000006B
:1039B000D327000030B1012806D0022807D0032801
:1039C0000DD107E03D4807E03C48001F04E03B48BC
:1039D0008C3801E03948CC380068002800D001203C
:1039E00070472DE9F04100243549364F25468E1F9A
:1039F000085DFFF7DFFF68B1641CE4B2042CF7D365
:103A00007079B0B3F078082834D97571F5703570D5
:103A1000BDE8F0813571B0787070B470F078401CFA
:103A2000C0B2F070082802D97079012560B1BDE8F4
:103A3000F041642001F021BEB078FFF748FF3570F7
:103A4000C82001F01AFE00E08846B078032801D0B3
:103A5000022807D118F80400FFF7ACFF10B9B878B6
:103A60000028E9D1B078001DC0B2FFF730FF7571B2
:103A7000CEE7FFE7F078401E072804D2B078FFF7C2
:103A800026FFF570C4E7F878022802D138790128BA
:103A9000BED038780128BBD0F8780028B8D030796B
:103AA000401C3071642001F0E8FD30799628AFD9D0
:103AB0003571BDE8F0410820FFF709BFCC48004050
:103AC0009A0000208C000020002144E000BF00BFCD
:103AD00000BF00BF00BF00BF00BF00BF00BF00BFEE
:103AE00000BF00BF00BF00BF00BF00BF00BF00BFDE
:103AF00000BF00BF00BF00BF00BF00BF00BF00BFCE
:103B000000BF00BF00BF00BF00BF00BF00BF00BFBD
:103B100000BF00BF00BF00BF00BF00BF00BF00BFAD
:103B200000BF00BF00BF00BF00BF00BF00BF00BF9D
:103B300000BF00BF00BF00BF00BF00BF00BF00BF8D
:103B400000BF00BF00BF00BF00BF00BF00BF00BF7D
:103B500000BF491C89B28142B8D3704700B5024604
:103B60004FF47A7302E01846FFF7AEFF521E92B28E
:103B7000F9D200BD401EFDD2704730B50021FE4B8A
:103B800003240CE090F8205001EB41029D5490F882
:103B900021501A44557090F822509570491C426982
:103BA000921CB2FBF4F28A42ECD830BD2DE9F04110
:103BB0000C46054602F085FE4FF08046306C20F43E
:103BC00070603064306C3064EC4F00223A605A20F0
:103BD000FFF77AFF4FF0010CC7F800C00620FFF78F
:103BE00073FF306C20F470603064306C40F44070CF
:103BF0003064E34B1A609869C000FCD5002208E0ED
:103C0000A85C18609869000202D59869C000FCD5CC
:103C1000521CA242F4D39869C000FCD5306C20F449
:103C200070603064306C3064C7F800C00A20FFF761
:103C30004BFF306C20F470603064306C40F44070A6
:103C40003064BDE8F04102F042BE30B40022CA4BFD
:103C500014464FF400719C54521C92B28A42FAD31B
:103C60000022FF2402E09C54521C92B28242FAD3FA
:103C700030BCC1489AE710B583F8202083F82110A2
:103C800083F82200184603F11404FFF776FF216839
:103C9000BDE81040B84889E730B4027C0021B64B3B
:103CA000062A3ED2DFE802F03D06101C2A3AC27C0A
:103CB0005A54491C42688A42F9D832E0C27C5A54AC
:103CC000027D5C18891C627042688A42F6D828E03E
:103CD000C27C5A54047D5A185470447D9470C91C97
:103CE00042688A42F4D81CE0C27C5A54047D5A18B7
:103CF0005470447D9470847DD470091D42688A425A
:103D0000F2D80EE0C27C5A54047D5A185470447D97
:103D10009470847DD470C47D1471491D42688A42B8
:103D2000F0D8416830BC944840E730B40446DDE93F
:103D3000025042750175C4748375C57530BCABE71C
:103D4000024600200146130601D540F080000729F5
:103D500000D040085206491C120EC9B20829F2D3FD
:103D600070470146002002460B0701D440F0800056
:103D70004906521C4008090ED2B2042AF4D300228C
:103D80000B0601D540F08000032A00D04008490608
:103D9000521C090ED2B2042AF2D3704710B5024663
:103DA000042100F00F000124D30704FA01F301D02D
:103DB000984301E00343D8B2491C5208C9B208290C
:103DC000F2D310BD10B54FF4006421466D48FFF7E3
:103DD000EDFE21466B48FFF7E9FE21466948FFF7F3
:103DE000E5FE2146BDE810406648DFE62DE9F74FC5
:103DF0004FF080480446D8F840000F46454620F46E
:103E00007060C8F84000D8F84000C8F84000DFF8FB
:103E10006CC10026CCF800604FF4E160FFF79EFE15
:103E20004FF0010BCCF800B00820FFF74DFE286CD6
:103E300020F470602864286C40F440702864504A74
:103E40001660A52010605A2313604FF0D20CC2F800
:103E500000C013604FF47A70FFF736FE0298914667
:103E60009A46051917E0E0B2FFF76AFF0646C4F369
:103E70000720FFF793FFFFF763FF0146C9F80060D3
:103E8000C9F80010C9F800C0C9F800A04FF47A7052
:103E9000FFF71AFE3C44A542E5D8D8F84000424658
:103EA00020F47060C8F84000D8F84000C8F840001E
:103EB0003249C1F800B00A20FFF706FE106C20F46A
:103EC00070601064106C40F440701064BDE8FE8FA8
:103ED00070B514460D460646FFF774FF2246294684
:103EE0003046FFF783FF224629463046BDE8704042
:103EF0007CE770B5244C05462B202070287808B14B
:103F0000AB2000E06B202070C0B2FFF719FF2070DB
:103F10000026E670687808B10420E070E078A9789F
:103F20000844C0B2E070FFF70BFFE07026712879FB
:103F3000FFF706FF207166716879FFF701FF607176
:103F4000A671A879FFF7FCFEA071E671E879FFF78A
:103F5000F7FEE071A672687A0001A072297A08441F
:103F6000C0B2A072FFF7ECFEA0726673287B00015E
:103F70006073E97A084409E0400A0020884800405C
:103F8000002007404002002040120020C0B26073B1
:103F9000FFF7D6FE607370BDF0B5FFF7AAFF4FF0D4
:103FA0008044206C20F470602064206C2064FF4EFC
:103FB000002535604FF4E160FFF7D0FD0123336049
:103FC0000820FFF781FD206C20F470602064206CD5
:103FD00040F440702064F64A1560A32010605C2015
:103FE0001060D22010605A2010604FF47A77384663
:103FF000FFF76AFD1560156015601560ED490878DA
:104000001060C8781060087910604879106088796D
:104010001060C8791060887A1060487B106038465C
:10402000FFF752FD206C20F470602064206C206447
:1040300033600A20FFF748FD206C20F47060206494
:10404000206C40F440702064F0BD70B503464FF022
:1040500080400022016C21F470610164016C0164F4
:10406000D24C1646226001251806256005D5202071
:10407000FFF72AFD2660732004E00820FFF724FDE7
:1040800026608B20FFF720FD5806521C030ED2B28B
:10409000082AE9D3256070BD2DE9FF5F8046C34F34
:1040A000DDF838A00398154600244FF0804660B331
:1040B0004FF003094FF4617B4FF4FA71BE48FFF7EC
:1040C00075FD5846FFF700FD641CE4B2042CF3D3E1
:1040D000306C20F470603064306C306400203860E4
:1040E0004FF47A70FFF7F0FC00240020FFF7ADFFDB
:1040F000641CE4B2032CF8D3306C20F4706030649C
:10410000306C30640026BB4638E04FF00209F3E71C
:104110000020CBF800004FF46170FFF7D5FC019848
:10412000444608EB000725E0C4F30720E1B202078C
:1041300002D520F0800001E040F08000032D02D085
:10414000042D03D004E040F0100001E020F0100046
:1041500000EB4A1000F0FF0C0846FFF776FF6046C0
:10416000FFF773FF0398FFF770FF02F0AAFB02F05E
:10417000AEFB2C44A742D7D8761CF6B24E45C7D327
:104180000121CBF8001004B04FF47A70BDE8F05F65
:104190009AE42DE9F74F4FF080460446306C0D4607
:1041A00020F470603064306C3064DFF800C20027A7
:1041B000CCF8007040F2DC50FFF7D0FC4FF0010B60
:1041C000CCF800B00820FFF77FFC306C20F4706062
:1041D0003064306C40F440703064754A1760A5203C
:1041E00010605A231360D227176013604FF47A705F
:1041F000FFF76AFC029890469A46B94600EB040C19
:1042000013E0E7B2C4F30720FFF7ABFDFFF798FD1B
:10421000C8F80000C8F80070C8F80090C8F800A0FE
:104220004FF47A70FFF750FC2C44A445E9D8306C69
:1042300020F470603064306C30645C49C1F800B0C8
:104240000A20FFF741FC306C20F470603064306C61
:1042500040F44070306439E610B5564902790023C5
:104260000A7142794A7182798A71C279CA71827BF4
:104270008A73CB7082789206120ECA70447814B199
:1042800042F0020201E022F00202CA70027812B18A
:10429000CA78521CCA700B72027A03EB52020A727D
:1042A0004B72027AD20701D001224A724A7A520135
:1042B0004A72447A224492004A72C47AC4F3C10416
:1042C00022444A724B73C27A5207920E4A73007BA1
:1042D0001044487310BDF0B5FFF7BEFF4FF08044A7
:1042E000206C20F470602064206C20642F4D002628
:1042F0002E6040F2DC50FFF731FC01232B600820D8
:10430000FFF7E2FB206C20F470602064206C40F426
:1043100040702064264A1660A32010605C20106064
:10432000D22616605A2717604FF47A7C6046FFF752
:10433000CBFB2048017911604179116081791160CE
:10434000C1791160817B1160C078106016601760C0
:104350006046FFF7B9FB206C20F470602064206C8D
:1043600020642B600A20FFF7AFFB206C20F4706004
:104370002064206C40F440702064F0BDF0B5FFF77D
:104380006BFF4FF08044206C20F470602064206C40
:104390002064064D00262E6040F2DC50FFF7DEFB65
:1043A00001232B600820FFF78FFB07E088480040BF
:1043B000002007404012002040020020206C20F422
:1043C00070602064206C40F440702064FE4A1660E7
:1043D000AC20106053201060D22616605A27176058
:1043E0004FF47A7C6046FFF76FFBF848017A116062
:1043F000417A1160C07A1060166017606046FFF75E
:1044000063FB206C20F470602064206C20642B60BF
:104410000A20FFF759FB206C20F470602064206CA8
:1044200040F440702064F0BD2DE9F74F4FF0804616
:104430000446306C0D4620F470603064306C30649B
:10444000DFF88CC30027CCF8007040F2DC50FFF797
:1044500085FB4FF0010BCCF800B00820FFF734FBD0
:10446000306C20F470603064306C40F44070306424
:10447000D54A1760A52010605A231360D227176011
:1044800013604FF47A70FFF71FFB029890469A462C
:10449000B94600EB040C13E0E7B2C4F30720FFF7C2
:1044A00060FCFFF74DFCC8F80000C8F80070C8F8C1
:1044B0000090C8F800A04FF47A70FFF705FB2C4479
:1044C000A445E9D8306C20F470603064306C3064FE
:1044D000BF49C1F800B00A20FFF7F6FA306C20F4AB
:1044E00070603064306C40F440703064EEE42DE96C
:1044F000F04F4FF080460446306C8C4620F47060DC
:104500003064306C3064DFF8C8A200275546CAF822
:10451000007040F2DC50FFF721FB4FF0010BC5F8B3
:1045200000B00820FFF7D0FA306C20F470603064DF
:10453000306C40F440703064A34D2F60A720286099
:1045400058202860D2222A605A232B604FF47A70B8
:10455000FFF7BAFA91469846A44411E0E7B2C4F3D3
:104560000720FFF7FEFBFFF7EBFB28602F60C5F885
:104570000090C5F800804FF47A70FFF7A5FA641C2C
:10458000A445EBD8306C20F470603064306C30643B
:10459000CAF800B00A20FFF797FA306C20F4706078
:1045A0003064306C40F440703064BDE8F08F87496F
:1045B00002790A7142794A7182798A71C279CA7123
:1045C0000022CA73C37B0BB10123CB73CA70427C38
:1045D0005206120ECA70037C0BB1521CCA705206EE
:1045E000120ECA7083780BB1521CCA709206120E5A
:1045F000CA7043780BB1521CCA701206D20DCA7031
:10460000027A0A72427A4A72C27ACA72007B0873CC
:104610007047F0B5FFF7CBFF4FF08044206C20F4DB
:1046200070602064206C2064694D00262E6040F28A
:10463000DC50FFF793FA01232B600820FFF744FAC0
:10464000206C20F470602064206C40F44070206482
:104650005D4A1660A32010605C201060D2261660B0
:104660005A2717604FF47A7C6046FFF72DFA5748B7
:10467000017911604179116081791160C17911600E
:10468000C17B1160C0781060166017606046FFF74C
:104690001BFA206C20F470602064206C20642B6076
:1046A0000A20FFF711FA206C20F470602064206C5F
:1046B00040F440702064F0BDF0B5FFF778FF4FF094
:1046C0008044206C20F470602064206C2064404D95
:1046D00000262E6040F2DC50FFF740FA01232B60E9
:1046E0000820FFF7F1F9206C20F470602064206C42
:1046F00040F440702064344A1660AC2010605320AF
:104700001060D22616605A2717604FF47A7C6046F4
:10471000FFF7DAF92D48017A1160417A1160C17A08
:104720001160007B1060166017606046FFF7CCF9DF
:10473000206C20F470602064206C20642B600A20C0
:10474000FFF7C2F9206C20F470602064206C40F404
:1047500040702064F0BD2DE9F0474FF080460546DB
:10476000306C0C4620F470603064306C3064DFF8DC
:1047700060900027CC46C9F8007040F2DC50FFF78B
:10478000EDF94FF00108CCF800800820FFF79CF904
:10479000306C20F470603064306C40F440703064F1
:1047A000094B1F60A620186059201860D2271F608F
:1047B0004FF05A0CC3F800C04FF47A7A5046FFF716
:1047C00083F900220FE00000002007404012002083
:1047D00088480040A07C18601F60C3F800C05046A5
:1047E000FFF772F9521CAA42F4D3306C20F47060C7
:1047F0003064306C3064C9F800800A20FFF764F937
:10480000306C20F470603064306C40F44070306480
:10481000BDE8F08770B50022E14B14460125010682
:104820001D6015D51221491EFDD21C6000BF00BFBE
:1048300000BF00BF00BF00BF00BF00BF00BF00BF80
:1048400000BF00BF00BF00BF00BF00BF00BF14E03B
:1048500000BF00BF00BF00BF00BF00BF00BF00BF60
:1048600000BF00BF00BF00BF00BF00BF00BF00BF50
:1048700000BF1C601221491EFDD24006521C000ED2
:10488000D2B2082ACBD370BD70B50022C44B1446F7
:104890000125C1061D6015D51221491EFDD21C60DF
:1048A00000BF00BF00BF00BF00BF00BF00BF00BF10
:1048B00000BF00BF00BF00BF00BF00BF00BF00BF00
:1048C00000BF14E000BF00BF00BF00BF00BF00BFBB
:1048D00000BF00BF00BF00BF00BF00BF00BF00BFE0
:1048E00000BF00BF00BF1C601221491EFDD2400660
:1048F000521C000ED2B2052ACBD370BDF0B50246D1
:104900008CB0117A13790020194453796D4603F065
:104910000F0303EB0111CBB21372517A9479214446
:10492000D47904F00F0404EB0111C9B25172147868
:10493000E6092E546406401C240EC0B20828F7D3A2
:1049400054780820E6092E546406401C240EC0B298
:104950001028F7D394781020E6092E546406401CE2
:10496000240EC0B21828F7D3D4781820E6092E54A4
:104970006406401C240EC0B22028F7D32020DC0996
:104980002C545B06401C1B0EC0B22828F7D32820ED
:10499000CB092B544906401C090EC0B23028F7D36E
:1049A0007F4E002333605020FFF78EF8002701244C
:1049B00034E00020295C3460A9B11221491EFDD2E7
:1049C000336000BF00BF00BF00BF00BF00BF00BF1B
:1049D00000BF00BF00BF00BF00BF00BF00BF00BFDF
:1049E00000BF00BF14E000BF00BF00BF00BF00BF9A
:1049F00000BF00BF00BF00BF00BF00BF00BF00BFBF
:104A000000BF00BF00BF00BF33601221491EFDD2AE
:104A1000401CC0B22028CDD37F1CFFB2907AB84290
:104A2000C7D82020295C3460A9B11221491EFDD2CB
:104A3000336000BF00BF00BF00BF00BF00BF00BFAA
:104A400000BF00BF00BF00BF00BF00BF00BF00BF6E
:104A500000BF00BF14E000BF00BF00BF00BF00BF29
:104A600000BF00BF00BF00BF00BF00BF00BF00BF4E
:104A700000BF00BF00BF00BF33601221491EFDD23E
:104A8000401CC0B23028CDD333605020FFF71CF853
:104A900034600CB0F0BD187059709A7018462DE74C
:104AA000F0B50446407AA1793D4E0844E1790025ED
:104AB00001F0F00101EB001060722F4635605020CC
:104AC000FFF702F80AE02078FFF7A4FE6078FFF70E
:104AD000A1FEA078FFF79EFE6D1CEDB2A07AA84261
:104AE000F1D82079FFF796FE607AFFF793FE3760E2
:104AF0005020FEF7E9FF01203060F0BDF0B5284EF0
:104B0000002504462F4635605020FEF7DDFF0AE001
:104B10002078FFF77FFE6078FFF77CFEA078FFF734
:104B200079FE6D1CEDB2A07AA842F1D83760502012
:104B3000FEF7CAFF01203060F0BD187059709A70FE
:104B40001846DBE7F0B5164E002504462F463560C3
:104B50005020FEF7B9FF0DE02078FFF75BFE60788C
:104B6000FFF758FEA078FFF755FEE078FFF752FEFA
:104B70006D1CEDB2A07AA842EED82079FFF784FE32
:104B80006079FFF781FEA079FFF77EFEE079FFF7FD
:104B90007BFE37605020FEF797FF01203060F0BDAC
:104BA0008C480040F84951F8200018390028086066
:104BB00000D000477047F54C2078FFF7F3FFFBE784
:104BC0002DE9F041F04EF24DF04F183E28780128C3
:104BD0000FD0706900F069FD032802D1306900F040
:104BE00050FE306900F061FD032802D0306900F00A
:104BF00001FE706900F059FD032802D0706900F0D1
:104C0000F9FD287920B1012804D002280BD10CE04D
:104C1000E04C00E0E04CE06980B2FFF716F8E06994
:104C200080B2FFF712F8002408E0DC4CF3E72878A4
:104C300001280AD1322000F020FD641CF86800EB46
:104C40008000B4EB800FC1D2F1E7BDE8F0812DE91F
:104C5000F047DFF84CA3CD4F002600252FE00020C1
:104C60000146524601E01154401C7B688342FAD849
:104C7000FF20A9190AF801007968C948FEF796FFD4
:104C80007968C748FEF792FFDFF81893DFF81483BE
:104C9000002409F14009D8F80000002816D0D9F8FE
:104CA0000000002812D0387809280FD10A2000F01F
:104CB000E4FC641CE4B20F2CEDD3387C0544786826
:104CC000A842CCD8761CF6B2032EC6D3BDE8F08736
:104CD000AD4CAE4D0646183C2878092807D0E06850
:104CE00000F0E3FC032802D0E06800F083FDB04749
:104CF000F2E72DE9FC5F00273E46DFF890B234462C
:104D000000250E2F30D2DFE807F0070A10131A1D16
:104D10002329393E44494F5466F3070430E066F3D3
:104D2000070466F30F24E8431CE066F3070432E04F
:104D300066F30704E84334E066F3174414E065F3D0
:104D4000070402E0E84360F3070466F30F24F3E787
:104D500066F307042AE065F3174405E066F30704E9
:104D6000E84329E060F317449BF8000059460828FF
:104D70005ED1487C18B301284DD136E065F30704B5
:104D800066F30F24E7E7E84360F3070466F30F24B4
:104D9000E8E765F3070465F30F24CDE7E84360F324
:104DA000070460F30F24C7E765F3070465F30F24D6
:104DB000D1E7E84360F3070460F30F24D2E7CDE9BD
:104DC000006BC4F30742C4F30721E0B29246894660
:104DD00080460023FEF7A9FFCDE9006B0023524671
:104DE00049464046FEF7A1FF15E0887C10B1012836
:104DF00011D108E0C4F30742C4F30721E0B26A4BC3
:104E0000FFF79BFE07E0C4F30742C4F30721E0B2BB
:104E1000664BFFF740FE142000F02FFC6D1CEDB236
:104E2000FF2DFFF46EAF7F1CFFB20E2FFFF468AFB3
:104E3000BDE8FC9F544C554D0646183C2878082880
:104E400007D0A06800F031FC032802D0A06800F071
:104E5000D1FCB047F2E77FB54B4800240225001F84
:104E60000095CDE901042346642251A1AFF2B92097
:104E7000039400F01BFA444800951038CDE9010472
:104E8000AFF2911364224DA1AFF25700039400F0EA
:104E90000DFA3D4800950C38CDE90104AFF25123DD
:104EA00064224AA1AFF2D710039400F0FFF936480C
:104EB00000950838CDE901040023322248A1AFF261
:104EC000FF20039400F0F2F97FBD70B50646002480
:104ED0002E4D08E02878B04201D0012070BD32206C
:104EE00000F0CBFB641CE96801EB8100B4EB800FA0
:104EF000F0D3002070BD244951F820001839002853
:104F0000486000D00047704770B5204E0125284604
:104F1000FFF7F1FF002406E0307800280DD13220A1
:104F200000F0ABFB641CF16801EB8100B4EB800F77
:104F3000F2D36D1CEDB2082DE9D370BD7CB5134CD6
:104F4000607C10B101285FD111E00025CDE900544B
:104F50002B462A462946FF20FEF7E7FE0023CDE92F
:104F600000541A461946FF20FEF7DFFE4CE0A07CF5
:104F700010B1012848D141E000220B4B1146FF201F
:104F8000FFF7DBFD40E00000B80000202002002019
:104F90008C00002088010020AC010020E4010020EA
:104FA000400A0020004800400802002013020020B0
:104FB000444D585F446973706C6179006772616435
:104FC00075616C5F646973706C617900524143452F
:104FD0005F4C414D505F646973706C6179000000F3
:104FE00052756E5F6D616E75616C6C795F706F6923
:104FF0006E745F646973706C617900000022A14B6C
:105000001146FF20FFF747FDBDE87C4001205CE72B
:105010007CB59D4C607C10B1012824D111E00025A5
:10502000CDE900542B462A46FF212846FEF77DFE97
:105030000023CDE900541A46FF211846FEF775FEFD
:1050400011E0A07C10B101280DD106E000228F4BA9
:10505000FF211046FFF771FD05E00022894BFF217B
:105060001046FFF718FDBDE87C4002202DE77CB517
:10507000854C607C10B1012824D111E00025CDE9D8
:1050800000542B46FF2229462846FEF74EFE0023F9
:10509000CDE900541A46FF211846FEF746FE11E0FE
:1050A000A07C10B101280DD106E00021774BFF2232
:1050B0000846FFF742FD05E00021724BFF2208463B
:1050C000FFF7E9FCBDE87C400320FEE67CB56E4CB2
:1050D000607C10B1012824D111E00025FF22CDE928
:1050E00000542B4611461046FEF71FFEFF22CDE965
:1050F0000054002311461046FEF717FE11E0A07C75
:1051000010B101280DD106E0FF22604B1146104678
:10511000FFF713FD05E0FF225A4B11461046FFF73B
:10512000BAFCBDE87C400420CFE67CB5564C607CE0
:1051300010B1012824D111E00025CDE90054FF224F
:105140002B4611462846FEF7F0FDCDE9005400231A
:10515000FF2211461846FEF7E8FD11E0A07C10B1D1
:1051600001280DD106E0FF22484B11460020FFF731
:10517000E4FC05E0FF22434B11460020FFF78BFCC7
:10518000BDE87C400520A0E67CB53F4C607C10B1BA
:10519000012824D111E00025CDE90054FF222B463F
:1051A00029461046FEF7C1FDCDE900540023FF2239
:1051B00019461046FEF7B9FD11E0A07C10B1012898
:1051C0000DD106E0FF22314B00211046FFF7B5FC60
:1051D00005E0FF222B4B00211046FFF75CFCBDE8E9
:1051E0007C40062071E67CB5274C607C10B101281C
:1051F00024D111E00025CDE90054FF212B462A4699
:105200000846FEF792FDCDE900540023FF211A461F
:105210000846FEF78AFD11E0A07C10B101280DD1EF
:1052200006E0FF21194B00220846FFF786FC05E047
:10523000FF21144B00220846FFF72DFCBDE87C40FF
:10524000072042E6082040E609203EE61CB50E4C49
:10525000207FCDE90004E37EA27E617E207EFEF702
:1052600064FD207FCDE90004E37EA27E617E207E86
:10527000FEF75BFD06A002F0E5FCBDE81C400A203D
:1052800023E6000013020020200200200802002074
:10529000444D3531325F47616D6D615F4C414D501A
:1052A0005F444953504C41590D0A00002DE9FF5FFE
:1052B000DDE90E68109F15468A465FEA000B04D0B0
:1052C000052E05D3FAF790FFFEE7FAF78DFFFEE70C
:1052D0004C2001F01BFB040009D0A8008146AFB1AF
:1052E00038462063A8B1A522494602F0F3FB002C02
:1052F0007ED06FF00300216B00EB8500084420F0A6
:10530000070568070AD0FAF76FFFFEE701F0FEFA1B
:10531000E7E7204601F053FB0024E8E751460A2264
:1053200004F1340002F0F4FB002084F83D00E66252
:10533000201DA66400F0A7FE04F1180000F0A3FEF3
:105340002461C6F105006462A06159462846039AAB
:1053500001F078FA2060B8F1000F01D0C8F80040E1
:1053600001F0AFFAF74FB868401CB8603868DFF852
:10537000D88310B1B86940B32CE03C60B86801280C
:1053800028D1002505EB850108EB810000F070FEB7
:105390006D1C052DF6D3EC48643000F069FEEA4838
:1053A000783000F065FEE8488C3000F061FEE64899
:1053B000A03000F05DFEE448B43000F059FEE24851
:1053C000643078631430B86304E03868C06AB0426F
:1053D00000D83C60E06A3969884200D93861F96ACE
:1053E000491CF96221647969884200D9786100E03A
:1053F00015E000EB800108EB8100211D00F046FE66
:10540000012401F064FAB86928B13868C06AB04272
:1054100001D201F050FA04B02046BDE8F09F4FF0F1
:10542000FF34F8E770B5054601F04BFAC54E306819
:10543000854201D1002520E0FDB12C46201D00F061
:105440004BFEA06A18B104F1180000F045FEBE48FA
:10545000211DA03000F01AFE7068401C7060F06AD8
:10546000401CF06201F033FAB069002807D0002D2B
:1054700005D1BDE8704001F01EBA3468DEE770BDAA
:105480002DE9F041AF4DE86958B1286A401C286207
:10549000FAF7B3FF286A00284AD1BDE8F041FAF7CD
:1054A000ACBFE868401CE860E8684FF0FF36A0B980
:1054B000686B006810B1FAF797FEFEE7686BA96B9E
:1054C0006963A863A86A401CA862686B0068A8B1F9
:1054D000686BC068C06840682863E868296B8842C8
:1054E000D8D3994F686B006850B1686BC068C468C6
:1054F000E9686068814205D22863CBE72E63ECE758
:105500002E63C7E7201D00F0E7FDA06A18B104F183
:10551000180000F0E1FDE06A6969884200D968611D
:1055200000EB800007EB8000211D00F0AFFDD9E704
:10553000BDE8F0812DE9F047824D0027E86938B1D8
:1055400001F0BFF9E869401EE861E86918B142E07E
:10555000FAF74AFEFEE7A86898B3DFF8EC81002668
:1055600008F18C08DFF8E0911AE0C068C46804F123
:10557000180000F0B1FD201D00F0AEFDE06A696981
:10558000884200D9686100EB800109EB8100211D90
:1055900000F07CFDE06A2968C96A884200D30126D0
:1055A000D8F8001040460029DFD1286A28B909E060
:1055B000FFF766FF286A401E2862286A0028F7D194
:1055C00004E008E016B9686A012804D10020012728
:1055D000686201F070F901F07AF93846BDE8F087A9
:1055E00070B5584D044628684460E86829688442CC
:1055F00005D2A86BBDE87040091D00F055BD686B71
:10560000091D00F051FD286B844200D22C6370BD4F
:105610004C48C169491CC161704770B50C46030014
:105620004FF000020BD06CB1FFF7F2FF454918684C
:10563000CD680444A84208D9A04208D80BE0FAF784
:10564000D3FDFEE7FAF7D0FDFEE7A04202D8C86816
:10565000844200D901221C6032B10868001D00F0AC
:105660003BFD2046FFF7BCFFFFF764FF002803D196
:10567000BDE8704001F01FB970BD10B502000FD039
:10568000FFF7C6FF2F48C16800688C18001D00F0A6
:1056900023FD2046FFF7A4FFFFF74CFF002803D1AE
:1056A000BDE8104001F007B910BD70B5254D0446A6
:1056B0002868844201D1002070BD01F002F96469BC
:1056C00001F005F9686B844202D0A86B844201D1D5
:1056D000022070BD1C48B430844201D1032070BD4B
:1056E0001948A030844201D1042070BD012070BD52
:1056F00010B5044601F0E5F80CB912480468E46AF4
:1057000001F0E5F8204610BD2DE9F04100270D46D7
:105710000646052902D3FAF767FDFEE701F0D1F846
:10572000DFF82080D8F80000864201D100260DE085
:1057300066B13446A06CA84231D0854209D94EB931
:1057400009E00000E40000207C120020D8F80040AE
:10575000F0E706B90127E16A884200D1E562C5F1A8
:105760000501A564A161FE4D00EB8000616905EBB8
:105770008000814210D1201D00F0AEFCE06AD8F814
:1057800014204146904200D9486100EB800005EBAF
:105790008000211D00F07AFC0FB101F08CF8BDE80B
:1057A000F04101F094B8EF4910B5C869EC4A30B146
:1057B0000120486210BDD0B14869401E4861486967
:1057C00000EB800052F8200000284869F3D000EB7D
:1057D000800002EB80004268526800F108034260DA
:1057E0009A4201D152684260D068086010BDFAF751
:1057F000FBFCFEE770B5054601F063F8D94E306852
:10580000854201D1002519E0C5B12C46201D00F0CC
:1058100063FCA06A18B104F1180000F05DFCD048E8
:10582000211DB43000F032FC01F051F8002D0FD1F1
:10583000B06928B1BDE8704001F03DB83468E5E7D3
:10584000C748B4300068B168884202D10020306097
:1058500070BDBDE87040A6E710B5002158B1C04B3F
:105860004269B4339A420AD1806AA3F12802904275
:1058700005D018B103E0FAF7B7FCFEE701210846AE
:1058800010BD70B560B1B74D04462868844225D07C
:1058900001F017F82046FFF7DFFF012803D019E0D9
:1058A000FAF7A2FCFEE7201D00F016FCE06A696929
:1058B000884200D96861AA4900EB800001EB8000B2
:1058C000211D00F0E3FBE06A2968C96A884201D320
:1058D00000F0F1FFBDE8704000F0F9BF70BD2DE9A8
:1058E000F041002548B10446FAF77EFC0746204601
:1058F000FFF7B2FF012803D022E0FAF775FCFEE7BC
:10590000984EF06920B1964804F118018C3015E0EA
:10591000E06A3168C96A884201D3012500E00025A8
:10592000201D00F0D9FBE06A7169884200D97061DE
:105930008B4900EB800001EB8000211D00F0A6FBED
:105940003846FAF758FC2846F2E5854C00F0D9F9BC
:105950002068012801D900F0AEFFFAF74AFDF5E70B
:105960001FB50024009401940294234632227EA1A4
:105970007F480394FFF79AFC012803D100F067FAEF
:10598000012804D000280CD1FAF72EFCFEE7FAF724
:105990002BFC744801218161C460BDE81F4000F008
:1059A0006FBF1FBD10B5FAF71FFC6E49002088615C
:1059B000BDE8104000F07EBF10B500F082FF6948DE
:1059C000C46800F084FF204610BD10B5FAF70CFC47
:1059D0006449CC68FAF70FFC204610BD6148806826
:1059E00070472DE9FE438146486890460D46406861
:1059F00001F108064860B04201D1416869606868F9
:105A0000C768686840686860B04201D141686960F1
:105A10006868C468206B002102E0491C89B2401C00
:105A20000278A52AF9D08808216CE26ACDE9002025
:105A30004B480291434604F134024EA1283802F04B
:105A400011F947494846283902F056F8BC42D8D1E6
:105A5000BDE8FE832DE9F0410746FFF7D9FD0020A0
:105A6000387049A1384602F047F83E4D3C4E2C694B
:105A7000641C641E04EB840056F8201029B106EB68
:105A8000800152223846FFF7ACFF002CF1D1686B41
:105A9000006820B1696B42223846FFF7A2FFA86B6D
:105AA000006820B1A96B42223846FFF79AFF2C48C4
:105AB000A030006828B12A494422A0313846FFF7B7
:105AC00090FF2748B430006828B125495322B431EB
:105AD0003846FFF786FFBDE8F0412BE570B50D466F
