:03000000023BCBF5
:0C3BCB00787FE4F6D8FD758122023C12E0
:0641D20090000012086CD1
:1041D8009080197403F0908018F0E49002AEF0A378
:1041E800F0900234F0A3F0C2177F20FEFDFC90008F
:1041F80000E0F8A3E0F9A3E0FAA3E0FB120704A8A3
:1042080004A905AA06AB077F007E407D387C001212
:10421800078FC3E49FFFE49EAD0775C824F5CBAEB6
:0E422800058ECAF5CD8ECCD2CE759850D2AC94
:014236002265
:104169009002AFE0FD9002AEE0FCC39D5006C3EDA6
:104179009CFE800DED2414FE9002AEE0FDC3EE9D81
:10418900FEEED3940140D9C2AC9002AEE004F0E057
:1041990075F01484E5F0F0E0249AF582E43402F530
:1041A90083EFF0201720D2AC9002AFE004F0E07565
:1041B900F01484E5F0F0E0249AF582E43402F58302
:0841C900E0F599D21722D2ACF7
:0141D10022CB
:0300230002409503
:10409500C0E0C0F0C083C082C0D075D000C007307A
:1040A500981DC298900234E004F0E075F06484E550
:1040B500F0F0E02436F582E43402F583E599F0303A
:1040C500992BC2999002AFE0FF9002AEE06F601BA2
:1040D500A3E004F0E075F01484E5F0F0E0249AF52F
:1040E50082E43402F583E0F5998002C217D007D047
:0A40F500D0D082D083D0F0D0E032AA
:1045760090012EEBF0A3EAF0A3E9F090012EE0FB08
:10458600A3E0FAA3E0F91205CA601790012EA3E48E
:1045960075F0011206EEA9F0FA1205CAFF1241697A
:0345A60080D92297
:0B43AA00900000EBF0A3EAF0A3E9F0A4
:1043B50090002B7401F0A37400F0A37403F0900037
:1043C50000E0F9A3E0FAA3E090012EC9F0A3EAF01A
:1043D500A3E9F090002BE0F9A3E0FAA3E090013106
:1043E500C9F0A3EAF0A3E9F07B017A00792E124324
:0A43F500FF7B017A00792E02457665
:1000260090800A7482F090800BF090800CF09080A3
:100036000DF090801F7402F090801DF09080067481
:1000460081F0908007F090801CF0908005F0908001
:10005600037441F09080047481F090800E04F0C225
:020066009622E0
:0449000043A280222C
:0F48900043F14043F12043F18043E840D2AF228F
:104816009080087405F075B91D75BA10E5BA54F0A4
:084826004401F5BA53B9DF2289
:103FBD00E4900000F012489F1200037F90124728F2
:103FCD007FAB1247281248AC1200037FC11247285D
:103FDD001245DBEF64AA601612326F12489F120071
:103FED00037FC01247287FAA1247281248AC12003F
:103FFD00037F851247281245DB900000EFF030E774
:10400D00069002EC7401F09002ECE0B4010D90000A
:0B401D0000E030E5069003027401F0A3
:014028002275
:1046B4001200037FC31247281245DBEF64AA601679
:1046C400121BFA12489F1200037FC21247287FAAC6
:0646D4001247281248AC59
:0146DA0022BD
:10486E00E58954FC4401F589758CFF758ABAD2A985
:01487E002217
:07000300C2B7C2B5D2B5225D
:1045DB00E490800CF0FFD2B690801E7441F0E4FEA4
:1045EB00D2B7C2B790801E7441F0A2B6E433C43385
:0F45FB0033335480FDEFC3134DFF0EEEB408E1D0
:01460A00228D
:10472800E490800CF090801E7442F0E4FEC2B7C2A0
:10473800B6EF30E002D2B6D2B7EFC313FF0EEEB435
:0247480008EB7C
:01474A00224C
:0D489F001200037F8E124728E4FF02472815
:0D48AC001200037F8E1247287F80024728EC
:0A48C4001200031247281245DB2200
:10000E00AC0712489F120003AF04124728AF051227
:05001E0047280248AC78
:10484600EF1FAA0670011E4A600BE4FDEDC3940F2C
:0548560050EE0D80F79B
:01485B00223A
:10485C00AC07AF041CEF60097F147E001248468041
:02486C00F12237
:101E45005002243F065B4F666D7D077F6F777C39B7
:101E55005E797160C001640401050106010701088E
:101E65000109010A010B0104020502060207020825
:101E75000209020A020B0204040504060407040809
:101E85000409040A040B04040805080608070808E1
:101E95000809080A080B08000101010201030108ED
:101EA5001009100A100B10000201020202030208B9
:101EB5002009200A200B2000040104020403040861
:101EC5004009400A400B40000801080208030808C1
:101ED5008009800A800B8000100110021003100495
:101EE5001005100610071000200120022003200411
:101EF5002005200620072000400140024003400441
:101F050040054006400740008001800280038004B0
:071F150080058006800780B3
:10478E001247A5900012E0FBA3E0FAA3E090000F01
:07479E00F91208F512094BA6
:0547A500007F19DFFE9A
:0147AA0022EC
:103D6800900012EBF0A3EAF0A3E9F0900012E0FB58
:103D7800A3E0FAA3E0F99000121208F512094B909B
:103D88000012E0FBA3E0FAA3E0F990000C1208F59A
:103D980012094B900012E0FBA3E0FAA3E0F99000AF
:103DA800031208F512094B900012E0FBA3E0FAA3F6
:103DB800E0F91208D512094B1247A5900012E0FB52
:103DC800A3E0FAA3E090001512479E900012E0FBD2
:103DD800A3E0FAA3E0F990000F1208F512094B02CC
:023DE80047A5ED
:10402900900012EBF0A3EAF0A3E9F0900012E0FB94
:10403900A3E0FAA3E0F990000C1208F512094B90DD
:104049000012E0FBA3E0FAA3E0F99000151208F5CD
:1040590012094B900012E0FBA3E0FAA3E0F99000EB
:104069000312479F900012E0FBA3E0FAA3E0F99046
:1040790000121208F512094B900012E0FBA3E0FAB6
:0C408900A3E0F99000061208F502094BB4
:0E2E1B00900012EBF0A3EAF0A3E9F0A3EDF0B3
:102E2900E4900017F0A3F0900012E0FBA3E0FAA3EE
:102E3900E0F99000031208F512094BE4900016F02E
:102E4900900015E090001230E70DE0FBA3E0FAA333
:102E5900E0F9900012800BE0FBA3E0FAA3E0F990FF
:102E690000151208F512094B900012E0FBA3E0FAD5
:102E7900A3E0F990000C1208F512094B900015E037
:102E8900FF25E0F012478E900016E004F0E0640898
:102E990070AE900012E0FBA3E0FAA3E0F9900012F3
:102EA9001208F512094B900012E0FBA3E0FAA3E027
:102EB900F99000061208F512094B900012E0FBA3E5
:102EC900E0FAA3E0F990000C1208F512094B900002
:102ED90012E0FBA3E0FAA3E0F99000091208F51249
:102EE900094BEF4E9000177005F0A3F08005E4F050
:0E2EF900A304F012478E900017E0FEA3E0FF46
:012F070022A7
:1045A900900011EDF090000EEBF0A3EAF0A3E9F012
:1045B900123D6890000EE0FBA3E0FAA3E0F9A3E046
:1045C900FD122E1B90000EE0FBA3E0FAA3E0F90216
:0245D900402977
:0B3DEA00900007EBF0A3EAF0A3E9F063
:103DF500A3E0FBA3E0FAA3E0F97D401245A99000FA
:103E05000AE0FBA3E0FAA3E0F9123D6890000AE09E
:103E1500FBA3E0FAA3E0F97DC0122E1BE490000D90
:103E2500F090000DE0FFD3940B502A900007E0FBC3
:103E3500A3E0FAA3E0F98F827583001205E3FD90F4
:103E4500000AE0FBA3E0FAA3E0F9122E1B90000D97
:103E5500E004F080CC90000AE0FBA3E0FAA3E0F9CF
:033E6500024029EF
:103F4F00900001EBF0A3EAF0A3E9F0900001E0FB91
:103F5F00A3E0FAA3E0F990000D1205E3FD90000431
:103F6F00E0FBA3E0FAA3E0F91245A9900004E0F901
:103F7F00A3E0FAA3E090000AC9F0A3EAF0A3E9F0E6
:103F8F00900001E0FBA3E0FAA3E0F9123DEA9000F4
:103F9F0001E0FBA3E0FAA3E0F990000C1205E3FDAA
:0E3FAF00900004E0FBA3E0FAA3E0F90245A9AC
:102F0800900001EFF0A3EDF0A3EBF0A3EAF0A3E942
:012F1800F0C8
:102F1900E4A3F0900006E0FFC394084003022FF1F8
:102F290074017E00A807088005C333CE33CED8F9D3
:102F3900FF900002E0FDEF5D9000016052E0FFC4E8
:102F490054F02464F582E43401F583C083C082908F
:102F59000006E0FED082D08375F0021208A9E0FDD8
:102F6900900007F0900003E0FBA3E0FAA3E02DF93D
:102F7900E43AFA1205CAFDEFC454F02465F582E477
:102F89003401F58375F002EE1208A9E04D804DE099
:102F9900FFC454F02464F582E43401F583C083C08E
:102FA90082900006E0FED082D08375F0021208A953
:102FB900E0FD900003E0FBA3E0FAA3E02DF9E43A79
:102FC900FA1205CAFDEFC454F02465F582E4340110
:102FD900F58375F002EE1208A9E0F45D120665901A
:082FE9000006E004F0022F1CB9
:012FF10022BD
:0B40FF00900000EBF0A3EAF0A3E9F052
:10410A00A3E0FBA3E0FAA3E0F990000DE41206771E
:10411A00900000E0FBA3E0FAA3E0F9E4FD1245A950
:10412A00E4FF900003E0FBA3E0FAA3E0F98F8275B5
:10413A00830074FF1206770FEFB40CE6900003E0D9
:10414A00FBA3E0FAA3E0F990000C748F12067790B3
:0F415A000000E0FBA3E0FAA3E0F97D8F0245A986
:0748D70090800D7482F022B5
:0748DE0090800C7482F022AF
:0748E50090800C7401F02229
:0748EC00A294E4FE33FF2259
:03006800D295220C
:03490400C2952237
:03490700D2942225
:03490A00C2942232
:10387A0090031374FFF0A37449F0A37404F0900347
:10388A000474FFF0A37448F0A374D7F09003107483
:10389A00FFF0A37400F0A37468F090031974FFF0AA
:1038AA00A37449F0A3740AF090030A74FFF0A37496
:1038BA0048F0A374E5F090030774FFF0A37448F08E
:1038CA00A374DEF090030D74FFF0A37448F0A374A0
:1038DA00ECF090031674FFF0A37449F0A37407F098
:1038EA009000037401F0A37403F0A3741CF07B012D
:1038FA007A0379041240FFE4FF741C2FF582E43442
:10390A0003F583E4F00FEFB40CEF9000047401F0B8
:10391A00A37403F0A37404F07B017A03791C023FB9
:01392A004F4D
:0548FA00007F19DFFE44
:0148FF002296
:1047E40090800A7482F090800BF0D292D293124897
:0947F400FAC2921248FAC29322A3
:1047FD0090800A7482F090800BF0C2921248FAD227
:09480D00931248FAD2920248FA13
:02450800AE07FC
:10450A0090800A7482F0E4FDEE30E704D2928002D1
:10451A00C2921248FAD293EE25E0FE1248FAC293EA
:10452A000DEDB408E3D29290800A7401F01248FAB1
:07453A00D2931248FAC2936C
:014541002257
:10482E00900361EFF01247E47F4812450890036150
:08483E00E0FF1245080247FDEE
:1047C8009003617401F0E4FF74512FF582E434031F
:0C47D800F583E4F00FEFB410EF0248B9D5
:0B48B900124663900361E0FF02482EEE
:104663001247E47F60124508E4FC74512CF582E4A0
:104673003403F583E0FF1245080CECB410EC124749
:09468300FD900361E0FF02482EE6
:0B3EE000900013EFF0A3ECF0A3EDF056
:103EEB00E4FD900015E030E02374512DF582E434AD
:103EFB0003F583C083C082E0FF900013E0FE7401E2
:103F0B00A806088002C333D8FC4F802274512DF5CC
:103F1B0082E43403F583C083C082E0FF900013E09A
:103F2B00FE7401A806088002C333D8FCF45FD0826C
:103F3B00D083F0900014E0C313F0A3E013F00DED69
:033F4B00B4109F10
:013F4E002250
:0748F30053746172740A00A6
:104354007F007EC27D017C001241D27BFF7A4879C6
:10436400F31243AAD2AF1249001248901200261247
:10437400481612463912486E123FBD1247C8123809
:104384007A123FBD1246B4122A4312097812163922
:1043940012460B122298300C0512371380EC122AA5
:0643A4004312448A80E48C
:101F1C004102B1004102CD004102B6014102ED0087
:101F2C004102F7014102FD044102B0004102F300FD
:101F3C004102F2024102D0004102D1004102FF00F5
:101F4C00410300004102B4004102B200C105C1844A
:101F5C004102F0004402C900000000C186410302A6
:101F6C00004102EC004102BF00410301004102EFBD
:101F7C00014102BB004102EB014102B3004102B539
:101F8C0001C18BC107C10D4102CE00C1014102FC50
:101F9C0000410303004102F1004102EE01C10C417A
:101FAC0002BC004102C0014102C8004102CF004105
:101FBC0002BD00C1804A02D23F065B4F666D7D07B1
:021FCC007F6F25
:03000B000248CEDA
:0948CE00758CFF758ABAB29632AE
:03006B00023C57FD
:103C5700C0E0C083C082C0D075D000C007E5EE3099
:103C6700E20375EE04E5EE30E16775EE029002EDD2
:103C7700E004F09002F7E0FF9002EDE0B5070FD205
:103C870003D20A9003037401F09002EDE4F090026E
:103C9700BEE004F09002FDE0FF9002BEE0B507072A
:103CA700E4F09002FE04F09002F3E004F09002F2D8
:103CB700E0FFA3E0B5071AE4F09002CEE004F0902D
:103CC70002B0E004F09002FCE004F09002C8E004C7
:0C3CD700F0D007D0D0D082D083D0E032F3
:10474B00EFF0A3E0FF124760EFF0A3E0FF1247602A
:05475B00EFF0A3E0FFF8
:0E476000EFC4540F75F006A4FEC3EF9EFF22B7
:05487F009002C3E0FF00
:0C488400EF75F00A8475F006A42FFF22E7
:10468C00AB07AA067C017D90120699ED4C6013EBEA
:10469C0054037011AE02AF03FC7D64120699ED4C0D
:0846AC0060037F01227F002260
:10460B009002DFE060097B017A0279DC12214C9089
:10461B0002E4E060097B017A0279E112214C9002FD
:0E462B00E9E060097B017A0279E612214C2257
:10097800123CE39002E0E06003020DE79002E5E03C
:100988006003020DE79002EAE06003020DE730B46D
:1009980003020A6D1247AB30B403020A579002BD36
:1009A800E0FF600964016005EF6402706E30036B5C
:1009B800300234C20290035FE054EFF0900302E08B
:1009C800600790035FE04408F09002DFE0700C904D
:1009D80002E4E070069002E9E0600790035FE044FB
:1009E80040F01248B98009D20290035FE04410F049
:1009F800900302E0600790035FE04408F09002DF94
:100A0800E0700C9002E4E070069002E9E060079064
:100A1800035FE04440F01248B9C203123B2790023A
:100A2800FEE06401600302099FD2059002D004F041
:100A3800E49002BDF09002B5F09002EF04F090024D
:100A4800EBF0D200E4FF12365412196102099FE458
:100A58009002FEF030B4FD20050B9002D17401F035
:100A6800E49002FEF0308603020B4D1247AB30864D
:100A780003020B35123B279002FEE0B401F0D205C9
:100A8800A37401F0D2079002D0E0B401E19002BD56
:100A9800E0B40F0050D8900AA5F8282873020AD2AB
:100AA800020AD9020AE0020A76020AE7020AEE02FC
:100AB8000A76020AF5020AFD020A76020B05020B03
:100AC8000D020A76020B15020B25E4FF1231A580F0
:100AD8009DE4FF1234038096E4FF1239D6808FE438
:100AE800FF122FF28088E4FF12392B80817B017A74
:100AF8000279DC801E7B017A0279DC80267B017A10
:100B08000279E1800E7B017A0279E180167B017A15
:100B18000279E6E4FD7F01121FCF020A767B017A93
:100B28000279E6E4FD7F01122737020A76C207E45C
:100B38009002FEF03086FD20050B9003007401F052
:100B4800E49002FEF0308503020DB91247AB308500
:100B580003020D9B123B279002FEE0B401F0D2077E
:100B6800C28CD2059002B27401F09002D0E0640108
:100B78006003020C1E9002BDE0B40F0050D0900B31
:100B88008DF8282873020BBA020BC1020BC8020B9E
:100B980056020BCF020BD6020B56020BDE020BE6F7
:100BA800020B56020BEE020BF6020B56020BFE026C
:100BB8000C0E7F011231A580957F01123403808EBF
:100BC8007F011239D680877F01122FF280807F0142
:100BD80012392B020B567B017A0279DC801E7B01CD
:100BE8007A0279DC80267B017A0279E1800E7B012A
:100BF8007A0279E180167B017A0279E67D017F012C
:100C0800121FCF020B567B017A0279E67D017F0124
:100C1800122737020B569002B6E064016003020BFC
:100C2800569002B1E0700404F08005E49002B1F03F
:100C38009002B1E0147003020CD5046003020D9316
:100C48009002F8E0FCA3E0FDA3E0FEA3E0FF12039E
:100C58004AEF75F00A8424D2F582E43402F583E081
:100C6800FD7B017A03791C7F08122F089002F8E0B7
:100C7800FCA3E0FDA3E0FEA3E0FF12034AEF75F03A
:100C88000A8474D225F0F582E43402F583E0FD7B12
:100C9800017A03791C7F09122F087B017A03791CDA
:100CA8007D617F0A122F08900323E04440F09000F2
:100CB800047401F0A37403F0A37404F07B017A03B5
:100CC800791C123F4FE49002CDF0020D939002B7C9
:100CD800E0FCA3E0FDA3E0FEA3E0FF12034AEF75EA
:100CE800F064849002F6F0EFFB7A00E075F064A4FB
:100CF800FFC3EB9FFFEA95F0FE7C007D0A12069980
:100D08009002F5EFF0A3E075F064A4FFC3EB9FFF3A
:100D1800EA95F0FE7C007D0A1206999002F4EDF047
:100D28009002F6E024D2F582E43402F583E0FD7BFC
:100D3800017A03791C7F08122F089002F5E024D26B
:100D4800F582E43402F583E0FD7B017A03791C7FA8
:100D580009122F089002F4E024D2F582E43402F557
:100D680083E0FD7B017A03791C7F0A122F0890002B
:100D7800047401F0A37403F0A37404F07B017A03F4
:100D8800791C123F4F9002CD7401F0E49002B6F046
:100D9800020B569002B67401F0C207E49002FEF00E
:100DA8003085FD20050B9002B47401F0E49002FE3A
:100DB800F020872BD28C7F4612485CC28CC29612D8
:100DC800326F900361740BF0FF12482E9003287461
:100DD8008AF07B017A037904FD1245A93087FD7BEF
:100DE800017A0279DC12476E7B017A0279E11247B7
:0A0DF8006E7B017A0279E602476E75
:10163900123CE31219619002D0E070030219603084
:101649000B0BC20BE4900300F09002B4F09002D1AE
:10165900E060169002BDE004F0E49002D1F090023F
:10166900BDE0D3940F4002E4F09002BDE0B40F0056
:101679004003021920901685F82828730216B20231
:1016890016FE02174002178502182F02187E02184B
:10169900B40218C50218CD0218D50218E60218EED0
:1016A9000218F602190A021915E49002B5F0FF12A0
:1016B9003654900300E0B401139002C1E004F0E055
:1016C900D394634002E4F0E4900300F09002B4E0A4
:1016D900B401129002C1E014F0E0B4FF037463F0A6
:1016E900E49002B4F09002C1E0FF124884EFF0FDEB
:1016F9007F8C02177FE49002EBF09002B504F0E4CE
:10170900FF12283D900300E0B40108124237E4902B
:101719000300F09002B4E0B4010E9002C2E014F0AC
:1017290012423DE49002B4F09002C2E0FF124884F4
:10173900EFF0FD7F88803FE49002EBF09002B50462
:10174900F0E4FF122D2B900300E0C394014008122E
:101759002940E4900300F09002B4E0C39401400EE4
:101769009002C3E014F0122946E49002B4F0124842
:101779007FEFF0FD7F8612000E0219387F8512482F
:10178900C49002C5EFF07F831248C49002C6EFF0FF
:101799009002ECE0B401179002C5E033333354F8FA
:1017A900F0E0131313541FF0547FF054DFF090024C
:1017B900C5124756EFF0E49002EFF09002EB04F007
:1017C900E4FF123E68900300E064016003021938E7
:1017D9009002ECE06023E4F0FF1233397B017A02D6
:1017E90079DC1247027B017A0279E11247027B0117
:1017F9007A0279E612470280259002EC7401F0FF23
:101809001233397B017A0279DC1245427B017A0273
:1018190079E11245427B017A0279E6124542E49068
:101829000300F0021938E49002EFF09002ECE0B402
:1018390001179002C5E033333354F8F0E013131362
:10184900541FF0547FF054DFF0E4FF1234CC9003BE
:1018590000E0B40108123A7FE4900300F09002B46A
:10186900E0640160030219389002C5E014F07F01B9
:10187900123A87802EE49002EFF0FF123590900320
:1018890000E0B401081244CBE4900300F09002B4E4
:10189900E0640160030219389002C6E014F07F0188
:1018A9001244D3E49002B4F0021938C200E4900261
:1018B900EFF07B017A0279DC7F0180407B017A02BB
:1018C90079DC80437B017A0279DC8046C200E490AE
:1018D90002EFF07B017A0279E17F02801F7B017AB6
:1018E9000279E180227B017A0279E18025C200E454
:1018F9009002EFF07B017A0279E67F0312261F80BE
:101909002E7B017A0279E612429B80237B017A02BF
:1019190079E61242F88018E49002BDF09002D0F006
:101929009002EB04F09002EFF09002B5F0D2009033
:1019390002B0E0B40A219002EB7401F09002EFF0DA
:101949009002B5F0D200E49002D0F09002B0F0D24B
:0819590004D20B9002BDF02244
:104639009002DC740CF0E4A3F0A3F0A3F0A3F0A3C0
:10464900740CF0E4A3F0A3F0A3F0A3F0A3740CF0AE
:0A465900E4A3F0A3F0A3F0A3F02205
:1047AB00C205D204E49002FEF09002BEF09002B07B
:0D47BB00F0D28C7F4612485CC28CC2962260
:103E6800900000EFF0300A6F300840C2089002EC72
:103E7800E060119002D3E0FD7C007F03123EE090E9
:103E880002D4800F9002D4E0FD7C007F03123EE054
:103E98009002D6E0FD7C007F04123EE07D767C0037
:103EA8007F05123EE07D447C008022D2089000000D
:103EB800E07022FDFC7F03123EE0E4FDFC7F04126B
:103EC8003EE0E4FDFC7F05123EE0E4FDFC7F0612C7
:083ED8003EE01248B9C20A22C3
:10365400900000EFF0200A0302371230095DC2091E
:103664009002D4E0FD7B017A03791CE4FF122F0859
:103674009002D2E0FD7B017A03791C7F01122F08AE
:103684009002C1E075F00A8424D2F582E43402F594
:1036940083E0FD7B017A03791C7F02122F089002DC
:1036A400C1E075F00A8474D225F0F582E43402F5A1
:1036B40083E0FD7B017A03791C8035D209900000F8
:1036C400E070497B017A03791CFDFF122F087B010E
:1036D4007A03791CE4FD7F01122F087B017A0379B8
:1036E4001CE4FD7F02122F087B017A03791CE4FDA0
:1036F4007F03122F089000047401F0A37403F0A355
:0F3704007404F07B017A03791C123F4FC20A2232
:101961009002EFE0B401031237C89002EBE064018A
:101971006003021A359002C2E0FFC3940A4029EFC6
:1019810075F00A8424D2F582E43402F583E0FD7B0C
:10199100017A03791C7F06122F089002C2E075F0CC
:1019A1000A8474D225F0801C9002C2E0D3940950BD
:1019B100277B017A03791CE4FD7F06122F08900230
:1019C100C2E024D2F582E43402F583E0FD7B017AA2
:1019D10003791C7F07122F089002C3E075F00A8477
:1019E10024D2F582E43402F583E0FD7B017A0379A8
:1019F1001C7F04122F089002C3E075F00A8474D290
:101A010025F0F582E43402F583E0FD7B017A037968
:101A11001C7F05122F08900327E04410F09000046A
:101A21007401F0A37403F0A37404F07B017A0379C9
:101A31001C123F4F9002B5E0640170759002D4E032
:101A4100FD7B017A03791CE4FF122F089002D2E09A
:101A5100FD7B017A03791C7F01122F089002C1E0FE
:101A610075F00A8424D2F582E43402F583E0FD7B2B
:101A7100017A03791C7F02122F089002C1E075F0F0
:101A81000A8474D225F0F582E43402F583E0FD7B0B
:101A9100017A03791C7F03122F089000047401F06E
:101AA100A37403F0A37404F07B017A03791C123F41
:101AB1004F3006051223C9C2069002CEE0B40A08CF
:101AC1001223C9E49002CEF01212859002CDE0708B
:101AD1006F9002F8E0FCA3E0FDA3E0FEA3E0FF129B
:101AE100034AEF75F00A8424D2F582E43402F583C7
:101AF100E0FD7B017A03791C7F08122F089002F820
:101B0100E0FCA3E0FDA3E0FEA3E0FF12034AEF75B2
:101B1100F00A8474D225F0F582E43402F583E0FD05
:101B21007B017A03791C7F09122F087B017A0379E3
:101B31001C7D617F0A122F08900323E04440F022AC
:101B41009002B7E0FCA3E0FDA3E0FEA3E0FF1203D7
:101B51004AEF75F064849002F6F0EFFB7A00E075CD
:101B6100F064A4FFC3EB9FFFEA95F0FE7C007D0AC1
:101B71001206999002F5EFF0A3E075F064A4FFC39B
:101B8100EB9FFFEA95F0FE7C007D0A120699900218
:101B9100F4EDF09002F6E024D2F582E43402F5830C
:101BA100E0FD7B017A03791C7F08122F089002F572
:101BB100E024D2F582E43402F583E0FD7B017A036F
:101BC100791C7F09122F089002F4E024D2F582E4F7
:101BD1003402F583E0FD7B017A03791C7F0A122F21
:101BE100089000047401F0A37403F0A37404F07B63
:091BF100017A03791C123F4F2216
:1034CC00900000EFF0200A0302358F9002C6E075E1
:1034DC00F00A8424D2F582E43402F583E0FD7C000A
:1034EC007F05123EE09002C6E075F00A8474D22586
:1034FC00F0F582E43402F583E0FD7C007F06123E99
:10350C00E030083B900000E07002C2089002C5E079
:10351C0075F00A8424D2F582E43402F583E0FD7C54
:10352C00007F03123EE09002C5E075F00A8474D26D
:10353C0025F0F582E43402F583E0FD7C00800DD2A9
:10354C0008E4FDFC7F03123EE0E4FDFC7F04123E28
:10355C00E090035FE04410F0900302E060079003FA
:10356C005FE04408F09002DFE0700C9002E4E07041
:10357C00069002E9E0600790035FE04440F01248D7
:04358C00B9C20A2294
:104449001200037F851247281245DB9002BFEFF067
:1044590030E50BE054DFF0E4900302F0800D9002A8
:10446900BFE04420F09003027401F012489F12004B
:10447900037F841247289002BFE0FF1247280248B1
:01448900AC86
:10359000900000EFF0200A030236539002C5E07558
:1035A000F00A8424D2F582E43402F583E0FD7C0045
:1035B0007F03123EE09002C5E075F00A8474D225C4
:1035C000F0F582E43402F583E0FD7C007F04123ED6
:1035D000E030083B900000E07002C2089002C6E0B4
:1035E00075F00A8424D2F582E43402F583E0FD7C90
:1035F000007F05123EE09002C6E075F00A8474D2A6
:1036000025F0F582E43402F583E0FD7C00800DD2E4
:1036100008E4FDFC7F05123EE0E4FDFC7F06123E5F
:10362000E090035FE04410F0900302E06007900335
:103630005FE04408F09002DFE0700C9002E4E0707C
:10364000069002E9E0600790035FE04440F0124812
:04365000B9C20A22CF
:10283D00900000EFF09002C3E075F00A8424D2F509
:10284D0082E43402F583E0FD7B017A03791C7F0479
:10285D00122F089002C3E075F00A8474D225F0F5AA
:10286D0082E43402F583E0FD7B017A03791C7F0558
:10287D00122F08900327E04410F0200A0302293F8D
:10288D0030086EC2089002C2E0FFC3940A4029EFDF
:10289D0075F00A8424D2F582E43402F583E0FD7BE1
:1028AD00017A03791C7F06122F089002C2E075F0A1
:1028BD000A8474D225F0801C9002C2E0D394095092
:1028CD00587B017A03791CE4FD7F06122F089002D4
:1028DD00C2E024D2F582E43402F583E0FD7B017A77
:1028ED0003791C7F07122F08900327E04410F08016
:1028FD0028D208900000E070377B017A03791CFD27
:10290D007F06122F087B017A03791CE4FD7F0712E5
:10291D002F08900327E04410F09000047401F0A3F9
:10292D007403F0A37404F07B017A03791C123F4FFA
:03293D00C20A22A9
:102D2B00900000EFF09002C2E0FFC3940A4029EF3D
:102D3B0075F00A8424D2F582E43402F583E0FD7B3E
:102D4B00017A03791C7F06122F089002C2E075F0FE
:102D5B000A8474D225F0801C9002C2E0D3940950EF
:102D6B00277B017A03791CE4FD7F06122F08900262
:102D7B00C2E024D2F582E43402F583E0FD7B017AD4
:102D8B0003791C7F07122F08200A03022E1A300822
:102D9B003DC2089002C3E075F00A8424D2F582E4A8
:102DAB003402F583E0FD7B017A03791C7F04122F3B
:102DBB00089002C3E075F00A8474D225F0F582E422
:102DCB003402F583E0FD7B017A03791C801CD20869
:102DDB00900000E070377B017A03791CFD7F0412B1
:102DEB002F087B017A03791CE4FD7F05122F0890D5
:102DFB000327E04410F09000047401F0A37403F077
:102E0B00A37404F07B017A03791C123F4FC20A2290
:103B27009002FEE06003023BCA9002D0E0640160AD
:103B370003023BCA9002BDE0B40F004003023BCA38
:103B4700903B4EF8282873023B7B023B80023B8563
:103B5700023BCA023B8A023B8F023BCA023B9402EA
:103B67003B9C023BCA023BA4023BAC023BCA023B62
:103B7700B4023BBF7F010236547F0102283D7F011B
:103B8700022D2B7F010234CC7F010235907B017A15
:103B97000279DC801E7B017A0279DC80217B017A45
:103BA7000279E1800E7B017A0279E180117B017A4B
:103BB7000279E67F01022B407B017A0279E67F01D9
:043BC700122C382262
:102FF200900000EFF07F851248C49002C5EFF09078
:1030020002ECE0B401119002C5E033333354F8F01E
:10301200E0131313541FF09002C5E0FF124760EF54
:10302200F0900000E07003123A7F900000E0B401DB
:103032000B9002C5E014F07F01123A877F85124897
:10304200C49002C5EFF09002ECE0B401119002C509
:10305200E033333354F8F0E0131313541FF09002AB
:10306200C5E0FF124760EFF075F00A8424D2F582C2
:10307200E43402F583E0FD7C007F03123EE090021F
:10308200C5E075F00A8474D225F0F582E43402F5C5
:1030920083E0FD7C007F04123EE090035FE0441079
:1030A200F0900302E0600790035FE04408F09002B2
:1030B200DFE0700C9002E4E070069002E9E0600745
:1030C20090035FE04440F01248B9122A437FFA129B
:0830D200485CE49002B0F0221A
:10392B00900000EFF07F831248C49002C6EFF012B4
:10393B004760EFF0900000E070031244CB90000062
:10394B00E0B4010B9002C6E014F07F011244D37F68
:10395B00831248C49002C6EFF0124760EFF075F087
:10396B000A8424D2F582E43402F583E0FD7C007FE7
:10397B0005123EE09002C6E075F00A8474D225F081
:10398B00F582E43402F583E0FD7C007F06123EE015
:10399B00900302E0600790035FE04408F090035F40
:1039AB00E04410F09002DFE0700C9002E4E070064F
:1039BB009002E9E0600790035FE04440F01248B9E1
:0B39CB007FFA12485CE49002B0F0228A
:1031A500900000EFF07F8D1248C49002C1EFF0123D
:1031B5004760EFF0900000E0FFB4010D9002C1E020
:1031C50014F0E0B4FF037463F0EF700E9002C1E0F9
:1031D50004F0E0D394634002E4F09002D4E0FD7B78
:1031E500017A03791CE4FF122F089002D2E0FD7BDF
:1031F500017A03791C7F01122F089002C1E075F056
:103205000A8424D2F582E43402F583E0FD7B017A59
:1032150003791C7F02122F089002C1E075F00A8421
:1032250074D225F0F582E43402F583E0FD7B017A62
:1032350003791C7F03122F089000047401F0A37416
:1032450003F0A37404F07B017A03791C123F4F90BD
:1032550002C1E0FF124884EFF0FD7F8C12000E7F63
:0A326500FA12485CE49002B0F02277
:10340300900000EFF07F891248C49002C2EFF012DF
:103413004760EFF0900000E0700312423790000025
:10342300E0B401099002C2E014F012423D9002C2DE
:10343300E0FFC3940A4029EF75F00A8424D2F58291
:10344300E43402F583E0FD7B017A03791C7F0612E5
:103453002F089002C2E075F00A8474D225F0801C14
:103463009002C2E0D39409502E7B017A03791CE4C5
:10347300FD7F06122F089002C2E024D2F582E434C5
:1034830002F583E0FD7B017A03791C7F07122F0885
:10349300900327E04410F09000047401F0A3740338
:1034A300F0A37404F07B017A03791C123F4F90025E
:1034B300C2E0FF124884EFF0FD7F8812000E7FFA0E
:0934C30012485CE49002B0F02212
:1039D600900000EFF07F871248C49002C3EFF01208
:1039E6004760EFF0900000E070031229409000005D
:1039F600E0B401099002C3E014F01229469002C314
:103A0600E075F00A8424D2F582E43402F583E0FD01
:103A16007B017A03791C7F04122F089002C3E0759C
:103A2600F00A8474D225F0F582E43402F583E0FDD1
:103A36007B017A03791C7F05122F08900327E04447
:103A460010F09000047401F0A37403F0A37404F062
:103A56007B017A03791C123F4F12487FEFF0FD7FFE
:103A66008612000E9002C3E0FF124760EFF07FFA65
:093A760012485CE49002B0F02259
:1023C90090000012087840533333900008740FF0DE
:1023D900A3746EF043B980E5B930E5FB43B920AF8A
:1023E900BDEFFEADBC7C00E42DFFEC3EC4F854F01B
:1023F900C868FEEFC4540F48FFFDAC06E412031190
:10240900900000E0F8A3E0F9A3E0FAA3E0FB1201D1
:1024190066E4FBFA7980784512026F90000412088D
:102429006C900004E0F8A3E0F9A3E0FAA3E0FB90C4
:102439000000E0FCA3E0FDA3E0FEA3E0FF120071B1
:10244900A804A905AA06AB07900004E0FCA3E0FDD7
:10245900A3E0FEA3E0FF12026F12252AC004C00503
:10246900C006C007900008E0FCA3E0FDE4120311D8
:10247900A804A905AA06AB07D007D006D005D00441
:1024890012026F7B0F7ACF795B783B120075A80433
:10249900A905AA06AB07E4FFFE7D807C3F12026F07
:1024A9009002F812086C9002F8E0FCA3E0FDA3E0AA
:1024B900FEA3E0FF7B337A93798878C31200759085
:1024C90002F812086C7F667E667DE67C3F9002F812
:1024D900E0F8A3E0F9A3E0FAA3E0FB120166E4FB4C
:0D24E900FAF978421200759002B702086CF3
:10214C009002C7E070311205CAFF9002C5E06F70B3
:10215C00269000011205E3FF9002C6E0B507189027
:10216C0000021205E3FF900302E0B5070A90000499
:10217C007401120677D2019000041205E370030279
:10218C0022979000011205E3FF04900000F0EF2469
:10219C0006A3F09000011205E3FF2407900002F063
:1021AC00EF240CFF9000011205E3240DFE30011604
:1021BC00900303E06010308C06C28CC2968002D271
:1021CC008CE4900303F0900000E0FDC3943C400DC0
:1021DC00ED24C4FD9002C6E0B50514800C9002C637
:1021EC00E0FD900000E0B50506C28CC296C20190DD
:1021FC000001E0FDC3943C400FED24C4FD9002C6E9
:10220C00E0B50512D201800E9002C6E0FD900001EF
:10221C00E0B50502D201900002E0FDC3943C400DF4
:10222C00ED24C4FD9002C6E0B50514800C9002C6E6
:10223C00E0FD900002E0B50506C28CC296C201EF2B
:10224C00C3943C400FEF24C4FD9002C6E0B5050DCD
:10225C00D20180099002C6E0B50702D201EEC39408
:10226C003C4014EE24C4FF9002C6E06F701DC28C7B
:10227C00C296900004800F9002C6E0B5060DC28C89
:0B228C00C296900004E4120677C20125
:012297002224
:1030DA00EF14B4070040030231A49030F275F003F4
:1030EA00A4C58325F0C58373023107023115023165
:1030FA002B0231410231590231710231897D367C0C
:10310A002AE4FF123EE07D3F0231947D017C09E40E
:10311A00FF123EE07D3E7C007F01123EE07DF98099
:10312A002A7D367C15E4FF123EE07DF97C007F01A2
:10313A00123EE07D0F80447D017C09E4FF123EE0EF
:10314A007DF67C007F01123EE07D3E7C0080467D5C
:10315A00F17C00E4FF123EE07DF37C047F01123E25
:10316A00E07409FDFC802E7DED7C00E4FF123EE058
:10317A007DF77C007F01123EE07D017C0980167D8F
:10318A00ED7C00E4FF123EE07D3E7C007F01123EB2
:0B319A00E07D367C247F02123EE02224
:1012850090000C120878000000001200037F8D12F8
:1012950047281245DB900012EFF01200037F8912F8
:1012A50047281245DB900010EFF01200037F8712EC
:1012B50047281245DB90001112475BEFF0900010B4
:1012C500124756EFF0A3E024D0FFE43407FEE4FC18
:1012D500FD90000412086C900000120878000007C9
:1012E500D0900004E0FCA3E0FDA3E0FEA3E0FF90A6
:1012F5000000E0F8A3E0F9A3E0FAA3E0FBC31208BD
:101305002F5060900000A3A3E0FEA3E0FF12468CDF
:10131500EF90000C600EE0FCA3E0FDA3E0FEA3E06F
:10132500246E800CE0FCA3E0FDA3E0FEA3E0246DA9
:10133500FFEE3401FEE43DFDE43CFC90000C120898
:101345006C900000E0FCA3E0FDA3E0FEA3E0240117
:10135500FFE43EFEE43DFDE43CFC90000012086C19
:101365000212E690000812087800000001900010B3
:10137500E0FFE4FCFDFE900008E0F8A3E0F9A3E03F
:10138500FAA3E0FBC312082F400302157AE47F019C
:10139500FEFDFC900008E0F8A3A3A3E0C312082F0C
:1013A5007003021428E47F03FEFDFC900008E0F8BA
:1013B500A3A3A3E0C312082F6069E47F05FEFDFC2B
:1013C500900008E0F8A3A3A3E0C312082F6054E43B
:1013D5007F07FEFDFC900008E0F8A3A3A3E0C3127D
:1013E500082F603FE47F08FEFDFC900008E0F8A3AD
:1013F500A3A3E0C312082F602AE47F0AFEFDFC9038
:101405000008E0F8A3A3A3E0C312082F6015E47F4A
:101415000CFEFDFC900008E0F8A3A3A3E0C31208AE
:101425002F701F90000CE0FCA3E0FDA3E0FEA3E0FD
:10143500241FFFE43EFEE43DFDE43CFC90000C125D
:10144500086CE47F04FEFDFC900008E0F8A3E0F9D9
:10145500A3E0FAA3E0FBC312082F603FE47F06FE7A
:10146500FDFC900008E0F8A3A3A3E0C312082F60D9
:101475002AE47F09FEFDFC900008E0F8A3A3A3E0A1
:10148500C312082F6015E47F0BFEFDFC900008E0F9
:10149500F8A3A3A3E0C312082F701F90000CE0FC73
:1014A500A3E0FDA3E0FEA3E0241EFFE43EFEE43D31
:1014B500FDE43CFC90000C12086C9002C9E0FCA312
:1014C500E0FDA3E0FEA3E0FFEC4D4E4F6039E47F65
:1014D50002FEFDFC900008E0F8A3E0F9A3E0FAA302
:1014E500E0FBC312082F701F90000CE0FCA3E0FD89
:1014F500A3E0FEA3E0241DFFE43EFEE43DFDE43C45
:10150500FC90000C12086C9002C9E0FCA3E0FDA35E
:10151500E0FEA3E0FFEC4D4E4F70387F02FEFDFC70
:10152500900008E0F8A3E0F9A3E0FAA3E0FBC312FA
:10153500082F701F90000CE0FCA3E0FDA3E0FEA3C4
:10154500E0241CFFE43EFEE43DFDE43CFC90000C81
:1015550012086C900008E0FCA3E0FDA3E0FEA3E008
:101565002401FFE43EFEE43DFDE43CFC900008124E
:10157500086C02137290000CE0F8A3E0F9A3E0FAFE
:10158500A3E0FB900011E0FFE4FCFDFEEB2FFFEE76
:101595003AFEED39FDEC38FC90000C12086CE47B4A
:1015A50007FAF9F890000CE0FCA3E0FDA3E0FEA328
:1015B500E0FF12078FAF03EFB4070050529015C933
:1015C500F82828730215DE0215E60215EE0215F657
:1015D5000215FE02160602160E9002C47405F0806E
:1015E5002E9002C47406F080269002C47407F08021
:1015F5001E9002C47401F080169002C47402F0803B
:101605000E9002C47403F080069002C47404F012B4
:10161500489F1200037F8A1247289002C4E0FF12F8
:1016250047281200031248AC3000089002C4E0FFBE
:031635001230DA96
:01163800228F
:102298009002B4E0700302238DE49002FCF09002F7
:1022A800D0E0600302237F9002B5F09002F1E004D1
:1022B800F09002EEE0B4010B9002F1E014F0E4902B
:1022C80002EEF09002F1E0D394014002E4F09002B3
:1022D800F1E014605504600302237F7B017A0379DF
:1022E8001C7D40E4FF122F087B017A03791C7D4096
:1022F8007F01122F087B017A03791C7D6D7F021202
:102308002F087B017A03791C7D5E7F03122F0890CA
:1023180000047401F0A37403F0A37404F07B017A41
:1023280003791C123F4FC20C804D7B017A03791C44
:102338007D5CE4FF122F087B017A03791C7D547FB2
:1023480001122F087B017A03791C7D6D7F02122F01
:10235800087B017A03791C7D5E7F03122F089000A9
:10236800047401F0A37403F0A37404F07B017A03EE
:10237800791C123F4FD20CE49002B4F0300406905E
:1023880002B0F0C204300407E49002B0F0C2049036
:1023980002B0E0640A60079002D1E0B4011C900228
:1023A800B57401F0E49002B0F0D204900300F0900C
:1023B80002D1F09002EE04F0C20D300C0312371374
:0123C80022F2
:103713009002BCE070569080037441F0308334F023
:10372300308349122A43900361E06008900328E044
:10373300648070389003617401F0FF12482E900387
:1037430028748FF07B017A037904FD1245A9122AAC
:10375300438019E4900361F0FF12482E900328740C
:1037630080F07B017A037904FD1245A9900328E0D8
:1037730020E307900361E030E04A9002BC7401F05B
:103783009002C0E06009E49002FCF09002C0F09067
:1037930002FCE06405702DF09002BCF09002C004BE
:1037A300F0E4900361F0FF12482E9003287480F038
:1037B3007B017A037904FD1245A97F9612485C7F49
:0537C3009612485C2293
:10326F007F12124884900001EFF07F01124884A36F
:10327F00EFF07F01124884A3EFF07F01124884A37F
:10328F00EFF07F0C124884A3EFF0E4FF124884A301
:10329F00EFF0E4FF124884A3EFF0900005E04480C4
:1032AF00F054DFF09002EC7401F0E4900302F0129E
:1032BF00489F1200037F901247287FAB12472812B6
:1032CF0000037FBE124728900007E0FF12472890A7
:1032DF000006E0FF124728900005E0FF12472890F4
:1032EF000003E0FF124728900002E0FF12472890EA
:1032FF000004E0FF124728900001E0FF124728E486
:10330F00FF1247281200031248ACE49002F0F0902D
:10331F0002D0F09002EF04F09002EBF09002B5F0C3
:09332F00D200C20CE49002F1F09E
:013338002272
:102A43001200037F851247281245DB900001EFF047
:102A53009002ECE07003022B00900001E03333336B
:102A630054F8F0E0131313541FFFF0124760EFF014
:102A7300900302E06046900001E0FFC3940140062A
:102A8300EFD394064004EFB40C1A9003617401F081
:102A9300FF12482E900328748FF07B017A03790488
:102AA300FD1245A9900001E0FFC394075003022BD8
:102AB3003FEFD3940B4003022B3F8066900001E06D
:102AC300FFC394074020EFD3940B501A9003617413
:102AD30001F0FF12482E900328748FF07B017A03D4
:102AE3007904FD1245A9900001E0FFC3940140065B
:102AF300EFD394064005EF640C70418025900001EC
:102B0300E0FF124760EFF0C394074016E0941350C0
:102B1300119003617401F0FF12482E900328748F03
:102B2300800F900361740BF0FF12482E90032874FA
:0C2B33008AF07B017A037904FD1245A9A9
:012B3F002273
:101BFA007FE812485CE4900000F0900000E0FFC328
:101C0A00940A4003021DC674D22FF582E43402F509
:101C1A0083E0FD7B017A03791CE4FF122F08900010
:101C2A0000E024D2F582E43402F583E0FD7B017AF8
:101C3A0003791C7F01122F08900000E024D2F5825C
:101C4A00E43402F583E0FD7B017A03791C7F0212FA
:101C5A002F08900000E024D2F582E43402F583E0F4
:101C6A00FD7B017A03791C7F03122F08900000E0A4
:101C7A0024D2F582E43402F583E0FD7B017A03790C
:101C8A001C7F04122F08900000E024D2F582E4346D
:101C9A0002F583E0FD7B017A03791C7F05122F0888
:101CAA00900000E024D2F582E43402F583E0FD7B63
:101CBA00017A03791C7F06122F08900000E024D2D3
:101CCA00F582E43402F583E0FD7B017A03791C7F17
:101CDA0007122F08900000E024D2F582E43402F5BE
:101CEA0083E0FD7B017A03791C7F08122F0890009C
:101CFA0000E024D2F582E43402F583E0FD7B017A28
:101D0A0003791C7F09122F08900000E024D2F58283
:101D1A00E43402F583E0FD7B017A03791C7F0A1221
:101D2A002F08900000E024D2F582E43402F583E023
:101D3A00FD7B017A03791C7F0B122F08900000E0CB
:101D4A0024D2F582E43402F583E0FD7C007F03129D
:101D5A003EE0900000E024D2F582E43402F583E00C
:101D6A00FD7C007F04123EE0900000E024D2F58260
:101D7A00E43402F583E0FD7C007F05123EE090002A
:101D8A0000E024D2F582E43402F583E0FD7C007F92
:101D9A0006123EE01248B99000047401F0A37403DD
:101DAA00F0A37404F07B017A03791C123F4F7FE899
:101DBA0012485C900000E004F0021C04E4FF741C6A
:101DCA002FF582E43403F583E4F00FEFB40CEFE46B
:101DDA00900000F0900000E0FFC39410501474517A
:101DEA002FF582E43403F583E4F0900000E004F078
:101DFA0080E21248B99000047401F0A37403F0A3BE
:101E0A007404F07B017A03791C123F4F900000742E
:101E1A0001F0900000E0FFC3940850131230DA1268
:101E2A0048B97FE812485C900000E004F080E3D2F1
:0A1E3A008C7FE812485CC28CC2964F
:011E4400227B
:10448A009080017441F02081329002CFE07009904F
:10449A0002C8F09002CF04F09002C8E0D3941E4004
:1044AA001FD20C9002F17401F0E49002BCF0900269
:1044BA00FCF09002C8F09002CFF022E49002C8F01B
:0144CA0022CF
:05333900900000EFF020
:10333E001200037F851247281245DB900001EFF043
:10334E00900000E064017052A3E0FF124760EFF0BE
:10335E00D3940C4019E024F4F0E0FF124884EFF00F
:10336E004420F04480F09003027401F0802C900011
:10337E0001E0FFB40C129003027401F01248849025
:10338E000001EFF04420800E900001E0FFC3940C8A
:10339E005008124884EFF04480F0900000E0703F37
:1033AE00A3E030E51E547FF054DFFFF0E4900302FB
:1033BE00F0124760900001EFF0640C6018E0240CEE
:1033CE00F08012900001E0547FFFF0124760EFF0A2
:1033DE00BF0C02E4F0900001E0FF124884EFF012FF
:1033EE00489F1200037F84124728900001E0FF12CD
:0533FE0047280248AC65
:1037C8009002C5E075F00A8424D2F582E43402F54B
:1037D80083E0FD7C007F03123EE09002C5E075F0B7
:1037E8000A8474D225F0F582E43402F583E0FD7C86
:1037F800007F04123EE09002C6E075F00A8424D2ED
:10380800F582E43402F583E0FD7C007F05123EE09A
:103818009002C6E075F00A8474D225F0F582E4348B
:1038280002F583E0FD7C007F06123EE03003423063
:10383800020BC20290035FE054EFF08009D20290BD
:10384800035FE04410F0900302E0600790035FE03C
:103858004408F09002DFE0700C9002E4E0700690FB
:1038680002E9E0600790035FE04440F01248B9C203
:02387800032229
:103CE3001200037FBF1247281245DB9002C7EFF093
:103CF3001245DB9002C6EFF01245DB9002C5EFF0F0
:103D03001245DB9002C3EFF01245DB9002C2EFF0E5
:103D13001245DB9002C4EFF01245DB9002C1EFF0D5
:103D23001200039002ECE0640170299002C5E0FFE9
:103D330030E50B30E7089003027401F08005E4904E
:103D43000302F0EF33333354F89002C5F0E013135A
:103D530013541FF09002C1E0FF12476012474B1249
:053D6300474BEFF022C8
:064237009002C2E004F059
:10423D009002C2E0C3940D40037401F09002C2E0FD
:10424D007003740CF09002C2E0FF6404600EEF6422
:10425D00066009EF64096004EFB40B159002C3E02A
:10426D00B41F037401F012487FEFF0FD7F8612003A
:10427D000E9002C2E0B40215A3E0C3941E40037475
:0E428D0001F012487FEFF0FD7F8612000E2236
:062940009002C3E004F068
:102946009002C1E024D0FFE43407FEE4FCFD124609
:102956008CE4FCFDFE9002C912086C9002C2E0FFF6
:102966006401601DEF64036018EF64056013EF6493
:1029760007600EEF64086009EF640A6004EFB40CA8
:10298600139002C3E0B420037401F09002C3E07018
:1029960003741FF09002C2E0FF6404600EEF640649
:1029A6006009EF64096004EFB40B139002C3E0B44E
:1029B6001F037401F09002C3E07003741EF09002CE
:1029C600C2E0640270769002C9E0FCA3E0FDA3E0D9
:1029D600FEA3E0FFEC4D4E4F600A9002C3E0B41E2A
:1029E600037401F09002C9E0FCA3E0FDA3E0FEA39E
:1029F600E0FFEC4D4E4F60099002C3E07003741D7A
:102A0600F09002C9E0FCA3E0FDA3E0FEA3E0FFEC2A
:102A16004D4E4F700A9002C3E0B41D037401F0904E
:102A260002C9E0FCA3E0FDA3E0FEA3E0FFEC4D4EEF
:0C2A36004F70099002C3E07003741CF0A4
:012A42002271
:104702009000021205E360131205CA640C6005747E
:104712000C120610900002E40206771205CAB40CCD
:0647220004E4120665220A
:104542001205CAD3940C400D74F4120610900002A6
:1045520074011206771205CAFFB40C0890000274A7
:1045620001120677EF700C740C120665900002E4DB
:044572001206772294
:083A7F009002C5E004F0E4FF31
:103A8700900001EFF09002ECE06037900001E01445
:103A9700601B04704E9002C5E0B40C0312444990B9
:103AA70002C5E0C3940D403B7401F080369002C517
:103AB700E0B40B031244499002C5E07026740CF081
:103AC7008021900001E01460100470179002C5E097
:103AD700C39418400EE4F0800A9002C5E0B4FF03D7
:103AE7007417F09002C5E0FF124884EFF09002ECE3
:103AF700E0601C9002C5E04480F0900302E0900271
:103B0700C56006E04420F0800DE054DFF0800790A8
:103B170002C5E0547FF09002C5E0FD7F8402000EED
:0844CB009002C6E004F0E4FFDA
:1044D300EF1460100470179002C6E0C3943C400EC2
:1044E300E4F0800A9002C6E0B4FF03743BF0E4FDFD
:1044F3007F8012000E9002C6E0FF124884EFF0FDA9
:054503007F8202000EA2
:10261F00900000EFF0A3EBF0A3EAF0A3E9F07DF751
:10262F007C00E4FF123EE07D387C007F01123EE02B
:10263F00900000E0B4010C24D2F582E43402F5835B
:10264F00E08010900000E024D2F582E43402F5839C
:10265F00E04480FD7C007F02123EE0200A03022648
:10266F00EF300858900001E0FBA3E0FAA3E0F990E7
:10267F0000031205E3701FFDFC7F03123EE07D5C3B
:10268F007C007F04123EE07D717C007F05123EE0EE
:10269F007D717C00801DE4FDFC7F03123EE07D5CBC
:1026AF007C007F04123EE07D547C007F05123EE0EB
:1026BF00E4FDFC7F06123EE0C2088022E4FDFC7FB1
:1026CF0003123EE0E4FDFC7F04123EE0E4FDFC7FDC
:1026DF0005123EE0E4FDFC7F06123EE0D208C20A7E
:1026EF00900001E0FBA3E0FAA3E0F99000031205CC
:1026FF00E3600790035FE04440F01248B990030095
:10270F00E0B40123900001E0FBA3E0FAA3E0F9900D
:10271F0000031205E39000036003E48002740112CA
:08272F000677E4900300F0229C
:102B4000900003EFF0A3EBF0A3EAF0A3E9F090000C
:102B5000011205E375F00A8424D2F582E43402F50B
:102B600083E0FD7C007F05123EE0900004E0FBA3C3
:102B7000E0FAA3E0F99000011205E375F00A84740D
:102B8000D225F0F582E43402F583E0FD7C007F0677
:102B9000123EE0200A03022C37300854900004E073
:102BA000FBA3E0FAA3E0F91205CA75F00A8424D267
:102BB000F582E43402F583E0FD7C007F03123EE001
:102BC000900004E0FBA3E0FAA3E0F91205CA75F057
:102BD0000A8474D225F0F582E43402F583E0FD7CAA
:102BE000007F04123EE0900003E07016C2088012DD
:102BF000D208E4FDFC7F03123EE0E4FDFC7F0412FA
:102C00003EE0900004E0FBA3E0FAA3E0F9900002AC
:102C10001205E3600790035FE04408F090000312A0
:102C200005E3600790035FE04440F090035FE044F9
:082C300010F01248B9C20A229B
:10429B00900000EBF0A3EAF0A3E9F0E4FF122B404F
:1042AB00900300E0B40120900000E0FBA3E0FAA330
:1042BB00E0F97401120610900000A3A3E4FDFF12B5
:1042CB001FCFE4900300F09002B4E0B4011EE4F0C1
:1042DB00900000E0FBA3E0FAA3E0F974FF120610D4
:0D42EB00900000A3A37D01E4FF121FCF226D
:101FCF00900003EBF0A3EAF0A3E9F0ED706FEF6080
:101FDF0010900003E0FBA3E0FAA3E0F974011206EE
:101FEF00109002ECE0603F900003E0FBA3E0FAA347
:101FFF00E0F91205CAC3940D4005740112066590ED
:10200F000003E0FBA3E0FAA3E0F91205CA640C7029
:10201F002C9000021205E39000026003E48002742A
:10202F00011206778017900003E0FBA3E0FAA3E00C
:10203F00F91205CAC394184004E4120665ED640151
:10204F00706DEF6010900003E0FBA3E0FAA3E0F9DE
:10205F0074FF1206109002ECE0603C900003E0FB6E
:10206F00A3E0FAA3E0F91205CA7005740C12066515
:10207F00900003E0FBA3E0FAA3E0F91205CA640B9A
:10208F00702D9000021205E39000026003E48002BD
:10209F0074011206778018900003E0FBA3E0FAA307
:1020AF00E0F91205CAC394FF40057417120665EFD5
:1020BF00700302214B900003E0FBA3E0FAA3E0F9C9
:1020CF001205CA75F00A8424D2F582E43402F5832E
:1020DF00E0FD7C007F03123EE0900003E0FBA3E0F5
:1020EF00FAA3E0F91205CA75F00A8474D225F0F547
:1020FF0082E43402F583E0FD7C007F04123EE09021
:10210F000003E0FBA3E0FAA3E0F99000021205E35D
:10211F00600790035FE04408F09000031205E3604E
:10212F000790035FE04440F090035FE04410F0122B
:0D213F0048B9E49002B0F07FFA12485C222B
:102C3800900003EFF0A3EBF0A3EAF0A3E9F012058C
:102C4800CA75F00A8424D2F582E43402F583E0FDE3
:102C58007C007F03123EE0900004E0FBA3E0FAA3AF
:102C6800E0F91205CA75F00A8474D225F0F582E4F9
:102C78003402F583E0FD7C007F04123EE0200A0365
:102C8800022D2A300855900003E07002C208900017
:102C980004E0FBA3E0FAA3E0F99000011205E37554
:102CA800F00A8424D2F582E43402F583E0FD7C0046
:102CB8007F05123EE0900004E0FBA3E0FAA3E0F9F0
:102CC8009000011205E375F00A8474D225F0F582AC
:102CD800E43402F583E0FD7C00800DD208E4FDFCBD
:102CE8007F05123EE0E4FDFC7F06123EE090000402
:102CF800E0FBA3E0FAA3E0F99000021205E3600705
:102D080090035FE04408F09000031205E360079029
:102D1800035FE04440F090035FE04410F01248B9CC
:032D2800C20A22BA
:1042F800900000EBF0A3EAF0A3E9F0E4FF122C38F9
:10430800900300E0B4011E900000E0FBA3E0FAA3D4
:10431800E0F99000017401120632E4FDFF1227371C
:10432800E4900300F09002B4E0B4011F900000E0B4
:10433800FBA3E0FAA3E0F990000174FF1206327DB6
:0C43480001E4FF122737E49002B4F022D9
:10273700900003EBF0A3EAF0A3E9F0ED7032EF604D
:1027470013900003E0FBA3E0FAA3E0F99000017403
:1027570001120632900003E0FBA3E0FAA3E0F99030
:1027670000011205E3C3943C4038900001E4802F38
:10277700EF6013900003E0FBA3E0FAA3E0F99000F9
:102787000174FF120632900003E0FBA3E0FAA3E016
:10279700F99000011205E3B4FF08900001743B12A1
:1027A7000677EF700302283C900003E0FBA3E0FAF2
:1027B700A3E0F99000011205E375F00A8424D2F52D
:1027C70082E43402F583E0FD7C007F05123EE09051
:1027D7000003E0FBA3E0FAA3E0F99000011205E390
:1027E70075F00A8474D225F0F582E43402F583E0AB
:1027F700FD7C007F06123EE0900003E0FBA3E0FAB9
:10280700A3E0F99000021205E3600790035FE0443C
:1028170008F09000031205E3600790035FE044406F
:10282700F090035FE04410F01248B9E49002B0F072
:062837007FFA12485C224A
:10476E009000041205E3B4011630B406308603201F
:10477E00850D900004E4120677C296C28CC2012207
:10006E000203B6E86480F8E933E83360110460F007
:10007E00ED33EC337009E8FCE9FDEAFEEBFF2204F8
:10008E0060DED3EB9FEA9EE99DE8C2E78CF0C2F7F3
:10009E0095F0400CE8CCF8E9CDF9EACEFAEBCFFBBF
:1000AE0012038185D0F05804700320D5B3E8047094
:1000BE00075002B2D50203C092D5EC0460F7E4CC2F
:1000CE00C0E0C398F8603B94186008400DD0E0FB88
:1000DE00020398E4FBFAC9FC8028E830E406E4C980
:1000EE00FBE4CAFCE830E305E4C9CACBFCE85407DC
:1000FE006010F8C3E913F9EA13FAEB13FBEC13FCE7
:10010E00D8F130F52FC3E49CFCEF9BFFEE9AFEED89
:10011E0099FDD0E0FBEF4E4D4C701222DB03020333
:10012E00BDEC2CFCEF33FFEE33FEED33FDED30E78F
:10013E00EB020398EF2BFFEE3AFEED39FDD0E0FB1C
:10014E0050130BBB00030203C0ED13FDEE13FEEFC5
:08015E0013FFEC13FC020398EF
:10016600EC4D6011E8497017ED33EC3304600DE493
:10017600FCFFFEFD22E933E8330470F80203B612F1
:10018600038158046009E4CC2481500628500902F2
:1001960003C02840030203BDC0E0EB4A7044B980A7
:1001A60006D0E0FB0203ACEF4E701CBD8008EBFFEF
:1001B600EAFEE9FD80EBE98DF0A4FEE5F002024FD0
:1001C600E9CDF9EAFEEBFFEF89F0A4FCE5F0CE8974
:1001D600F0A42EFFE435F0CD89F0A42DFEE435F031
:1001E6008067EF4E7005BD80D780C3EF8BF0A4AC5F
:1001F600F0EE8BF0A42CFCE435F0F8EF8AF0A42C9A
:10020600E5F038FCE433CB8DF0A42CFCE5F03BF8AC
:10021600EE8AF0A42CFCE5F038F8E433CF89F0A49C
:100226002CFCE5F038CF3400CE89F0A42FFFE5F0A2
:100236003EFEE433C98DF0A42EFEE5F039CD8AF0FA
:10024600A42FFFE5F03EFEE43DFD33D0E0FB500772
:100256000BBB000F0203C0EC2CFCEF33FFEE33FEAA
:06026600ED33FD020398D8
:10026C000203C0EC5D046005E8590470030203B698
:10027C00120381580460F6EC4860F2EC7004FDFE49
:10028C00FF22C860DB2481C85009C3986002500665
:10029C000203BD9850CAF582E9294B4A7005AB821E
:1002AC000203AC75F0007C1A7880C3EF9BEE9AEDDC
:1002BC0099400DC3EF9BFFEE9AFEED99FDE842F0DD
:1002CC00DC23ACF0D0E0FFD0E0FED0E0FDAB822030
:1002DC00E7101BEB60BAEC2CFCEF33FFEE33FEEDBA
:1002EC0033FD020398E803F830E705C0F075F00021
:1002FC00EF2FFFEE33FEED33FD40B830E7C280AA9E
:10030C0075F020800E75F010800575F0087D007E6C
:10031C00007F003392D530D503120821EC33401006
:10032C00EF33FFEE33FEED33FDEC33FCD5F0ED2275
:0E033C00E5F0247EA2D513CC92E7CDCEFF22B1
:10034A00EDD2E7CD33EC3392D524814006E4FFFEAB
:10035A00FDFC22FCE4CFCECDCC24E0501174FF800A
:10036A00EDC3CC13CCCD13CDCE13CECF13CF0470A7
:07037A00F030D5DE0208217E
:1024F6003E9248DA3ECCCCCD3F2AAAAB4000000043
:102506003F8000003F9837F03FB504F33FD744FCC7
:102516003E3172173EB172173F0515913EDE5BD90B
:10252600D20E8002C20EEDD2E7F8CD33EC33047042
:102536000BBD800592D50203C00203B640FBD3143F
:1025460060F2F5F07C3FEE7A00C39496C8948B4017
:10255600230AC89469C8941A401A0AC89468C89489
:102566001F40110AC8945AC89425400805F07A00FD
:10257600CDC2E7CDC0F090000A12086CEA2323C052
:10258600E02406F582E43425F58312085C12007512
:10259600ECC0E0EDC0E0EEC0E0EFC0E01208409015
:1025A600000A120850120071D0E0FBD0E0FAD0E029
:1025B600F9D0E0B2E7F812026F90000A12086C90A8
:1025C60024F674031203CB90000A12085012016617
:1025D600D0E0600F2412F582E43425F58312085CFE
:1025E60012007590000A12086CD0E0C3947FFDE4D7
:1025F6009400FC1203117B187A727931783F12012C
:102606006690000A120850120075300E0B7BD97ABC
:092616005B79DE783E12016622B8
:1043FF0090012EE0FFA3E0FEA3E0CF900137F0A3E2
:10440F00EEF0A3EFF0900131E0CBF0A3E0CAF0A300
:10441F00E0C9F07F2290013AAD82AC831205CA8DBC
:10442F00828C83F0A309E970010ADFEC900131E07F
:0A443F00FBA3E0FAA3E0F9020E6708
:10038100E9D2E7C933E833F892D5EDD2E7CD33ECC2
:0703910033FC5002B2D5223B
:10039800EC30E7100FBF000C0EBE00080DBD0004C6
:1003A8000BEB6014A2D5EB13FCED92E7FD2274FF72
:1003B800FCFDFEFF22E480F8A2D574FF13FC7D80CB
:0303C800E480EFDF
:100E0200E5082437F582E43401F583E005082290F1
:100E12000134301503900137E475F0011208B50270
:100E220005CA200EE97F2ED20E8018EF540F2490AF
:100E3200D43440D4FF30120BEF24BFB41A00500355
:100E42002461FFE50960021509050CE50C70020535
:100E52000B30150E900134E475F0011208B5EF0263
:100E620006650246DB7403D2158003E4C215F50859
:100E72009001341208CCE4F509F50BF50CE5096094
:100E8200077F20120E4580F5750AFFC20FC20EC2FF
:100E920010C211C213C214C216120E11FF700D300D
:100EA20015057F00120E56AF0CAE0B22B4255FC2A1
:100EB200D5C212120E11FF24D0B40A00501A75F0D6
:100EC2000A780930D50508B6FF0106C6A426F62021
:100ED200D5047002D21180D924CFB41A00EF500485
:100EE200C2E5D212021148D20F80C6D20E80C0D201
:100EF2001080BCD2D580BAD21380B47F20120E45A6
:100F02002010077401B5090040F1120E02FF120E03
:100F120045020E7FD216D2148095120E02FB120EDB
:100F220002FA120E02F94A4B700679467A127BFFD8
:100F320020102EE509602A7E008E8275830012053C
:100F4200E360060EEE650A70F0C2D5EBC0E0EAC0BF
:100F5200E0E9C0E0EE1211A9D0E0F9D0E0FAD0E069
:100F6200FB1205CAFF60AAEBC0E0EAC0E0E9C0E0FC
:100F7200120E45D0E02401F9D0E03400FAD0E0FBB3
:100F8200E50A0460DCD50AD98087D21080A212114A
:100F92008B60F7E50A700104120418A90A600DE5D6
:100FA2000A600914F50A121233EF60F3EA30E7021D
:100FB200F404C3995079EAF4250A0430E701E40401
:100FC200F50A800D12118B60C1EA050A250A120486
:100FD20018EA900163F030E701E4250A04D50A0417
:100FE200201301141211A9E4C0E01212339001631C
:100FF200E0601320E70714F0120E2D802204F0D0D7
:10100200E014C0E07F00120E2DE50A6007120E24E4
:10101200150A800B301303120E24D0E0020E7FD08B
:10102200E00480C412118B609EE50A041204189039
:101032000163EAF0E50A201302600104240412119C
:01104200A904
:1010430074FF04C0E0121233120E2DE50A201302BE
:101053006003120E24D0E0B50AE87F45120E3790E4
:101063000163E07F2B30E7047F2DF404C0E0120E10
:1010730045D0E075F00A84C0F0120E2ED0E0120EB7
:101083002E020E7F791080027908C214C2168008DE
:10109300D2D5790A8004790AC2D5E50A047002F52B
:1010A3000AE4FAFDFEFF120E02FC7B08200F131266
:1010B3000E02FD7B10300E0A120E02FE120E02FF0C
:1010C3007B20EC3382D592D55013C3E4300E069FB8
:1010D300FFE49EFEE4200F039DFDE49CFCE4CBF8BB
:1010E300C20FEC700CCFCECDCCE824F8F870F380AF
:1010F30017C3EF33FFEE33FEED33FDEC33FCEB337D
:10110300FB994002FB0FD8E9EB300F05F8D0E0C4A0
:1011130048B20FC0E00AEC4D4E4F78207B0070C2FE
:10112300EAB50A0040BCC0E01211ABD0F0D0E02019
:101133000F04C4C0E0C4B20FC0F0120E2ED0F0D51D
:10114300F0EB020E7F1209250F1C531087580EED8A
:101153004C0EE942108B4F1093441093490F0243F6
:101163001099550FC6461026450F90471266500E2C
:10117300F12D0EF52E0F182B0EF9230F1620124FFB
:101183002A0EB14800000F10E50AB4FF03750A06E2
:10119300120E02FC120E02FD120E02FE120E02FFCE
:1011A30090015C020455790AA2D520111430130969
:1011B300B910020404B9080104A2D5201402500195
:1011C300042010689210B509005034C0E07F20302D
:1011D30011197F30A21072147213500F121202C22F
:1011E30010C214C213C2167F30800F301303E9C03C
:1011F300E0120E45301303D0E0F9D0E0B509CC304E
:1012030013177F30B9100C120E457F583012077F29
:10121300788003B90803120E453010057F2D020EA6
:10122300457F202016F87F2B2014F322921080CFC5
:101233007F00B40700500B245CF582E43401F5838E
:10124300E0FF22286E756C6C2900D20F120E02305B
:101253000FF8C20F780930D50108F6020EB12D50F0
:10126300434958120E022403B405004001E49012CE
:101273006193120E36743A120E36D21175090402B6
:021283001087D2
:1003CB00C0E0EFFBEEFAEDF9ECF8120166D0E0F5C8
:1003DB00F0EFFBEEFAEDF9ECF8120840A3A3A3A3A0
:1003EB00E8C0E0E9C0E0EAC0E0EBC0E0C0F0120119
:1003FB006612085CA3A3A3A3120075D0F0D0E0FB98
:0D040B00D0E0FAD0E0F9D0E0F8D5F0D4222E
:10041800F920E73624F950037907E4F42402FBE5D0
:1004280082158270021583DBF6E024FB501BE9601D
:1004380014E4F0E582158270021583E004F0B40A32
:0D04480008E4F0D9EE7401F00A22C2D522BA
:10045500ED33EC3392D5FA602AB4FF33EDC2E77B76
:10046500FF60067A04797AE4227A04798320D50438
:100475007A04797E224E614E002B494E46002D4965
:100485004E4600E47A08F0A3DAFC7B00740722C02C
:1004950083C082ECC0E0EDC0E0EEC0E0EFC0E0EA72
:1004A50075F010A4CAABF075F04DA42BFBE435F044
:1004B500FCEA2410FAEB34C5FBEC34D9FCEDC2E7B9
:1004C500FF75F056A4F42411C5F0F434C58FF0A4DB
:1004D5002AE5F03BE43CF020E71412058AD0E0FF62
:1004E500D0E0FED0E0FDD0E0FC12026F8014F404F1
:1004F50012058AD0E0FFD0E0FED0E0FDD0E0FC128E
:100505000166D082D083E0FAEDD2E7CD33EC332417
:1005150082FBE4C3CF33CFCE33CECD33CD33DBF344
:100525007B0775F00A846004F0A31B0AE5F0F0A3CD
:100535008FF0740AA4FFACF08EF0740AA42CFEAC04
:10054500F050010C8DF0740AA42CFDE435F0F0A3F5
:05055500DBDE7407224B
:10055A003F8000004120000042C80000447A0000A9
:10056A00461C400047C35000497424004B1896802B
:10057A004CBEBC205A0E1BCA6753C21C749DC5AE22
:10058A00FB60065407601C23231205B8EB5438603D
:10059A00091205A41205B3120166ECF8EDF9EEFA98
:1005AA00EFCB22EB1205B380F1543803241C9005DB
:1005BA005AFE93FC0EEE93FD0EEE930ECE93FF229F
:103BD700024354E493A3F8E493A34003F68001F26D
:103BE70008DFF48029E493A3F85407240CC8C333EF
:103BF700C4540F4420C8834004F456800146F6DFBE
:103C0700E4800B0102040810204080901E45E47EEA
:103C1700019360BCA3FF543F30E509541FFEE493B2
:103C2700A360010ECF54C025E060A840B8E493A379
:103C3700FAE493A3F8E493A3C8C582C8CAC583CAA4
:103C4700F0A3C8C582C8CAC583CADFE9DEE780BE5C
:011FCE000012
:1005CA00BB010689828A83E0225002E722BBFE022F
:0905DA00E32289828A83E4932262
:1005E300BB010CE58229F582E5833AF583E02250CD
:1005F30006E92582F8E622BBFE06E92582F8E22217
:0D060300E58229F582E5833AF583E4932230
:10061000BB010989828A83F8E028F022500327F77A
:1006200022BBFE05F8E328F3228A838982F8E4934B
:0206300028227E
:10063200BB010FF8E58229F582E5833AF583E028CC
:10064200F0225009C58229F8E58226F622BBFE096E
:10065200C58229F8E22582F222F8EA2583F583E9A8
:03066200932822B8
:10066500BB010689828A83F0225002F722BBFE0174
:02067500F3226E
:10067700F8BB010DE58229F582E5833AF583E8F0B9
:10068700225006E92582C8F622BBFE05E92582C865
:02069700F2224D
:10069900BC000BBE0029EF8DF084FFADF022E4CC45
:1006A900F875F008EF2FFFEE33FEEC33FCEE9DEC0E
:1006B900984005FCEE9DFE0FD5F0E9E4CEFD22ED54
:1006C900F8F5F0EE8420D21CFEADF075F008EF2F9E
:1006D900FFED33FD4007985006D5F0F222C398FD8F
:0506E9000FD5F0EA222C
:1006EE00A3F8E0C5F025F0F0E582158270021583BF
:0606FE00E0C838F0E8221C
:10070400E88FF0A4CC8BF0A42CFCE98EF0A42CFC94
:100714008AF0EDA42CFCEA8EF0A4CDA8F08BF0A412
:100724002DCC3825F0FDE98FF0A42CCD35F0FCEB71
:100734008EF0A4FEA9F0EB8FF0A4CFC5F02ECD3936
:0F074400FEE43CFCEAA42DCE35F0FDE43CFC22A3
:1007530075F008758200EF2FFFEE33FECD33CDCC5D
:1007630033CCC58233C5829BED9AEC99E5829840E0
:100773000CF582EE9BFEED9AFDEC99FC0FD5F0D6BD
:10078300E4CEFBE4CDFAE4CCF9A88222B800C1B9E7
:100793000059BA002DEC8BF084CFCECDFCE5F0CB25
:1007A300F97818EF2FFFEE33FEED33FDEC33FCEB5E
:1007B30033FB10D703994004EB99FB0FD8E5E4F919
:1007C300FA227818EF2FFFEE33FEED33FDEC33FC06
:1007D300C933C910D7059BE99A4007EC9BFCE99AFA
:1007E300F90FD8E0E4C9FAE4CCFB2275F010EF2F3F
:1007F300FFEE33FEED33FDCC33CCC833C810D7073F
:100803009BEC9AE899400AED9BFDEC9AFCE899F879
:0E0813000FD5F0DAE4CDFBE4CCFAE4C8F9220C
:0E082100C3E49FFFE49EFEE49DFDE49CFC22E8
:10082F00EB9FF5F0EA9E42F0E99D42F0E89C45F01F
:01083F002296
:10084000E493FC740193FD740293FE740393FF22FE
:0C085000E0F8A3E0F9A3E0FAA3E0FB222B
:10085C00E493F8740193F9740293FA740393FB22F2
:0C086C00ECF0A3EDF0A3EEF0A3EFF022FF
:10087800A8828583F0D083D08212088F12088F1245
:10088800088F12088FE473E493A3C583C5F0C5836A
:10089800C8C582C8F0A3C583C5F0C583C8C582C8CA
:0108A800222D
:0C08A900A42582F582E5F03583F583225A
:1008B500F8E0FBA3A3E0F925F0F0E58215827002CC
:0708C5001583E0FA38F02270
:0908CC00EBF0A3EAF0A3E9F0222D
:1008D500BB010789828A8302095A5005E9F8020992
:1008E50051BBFE05E9F802096389828A8302096C16
:1008F500BB010DE58229F582E5833AF58302095AA4
:100905005007E92582F8020951BBFE07E92582F85F
:10091500020963E58229F582E5833AF58302096CCC
:10092500D083D082F8E4937012740193700DA3A361
:1009350093F8740193F5828883E473740293686075
:06094500EFA3A3A380DF75
:06094B008A838982E47337
:1046DB00EFB40A07740D1246E6740A309811A899C4
:1046EB00B8130CC2983098FDA899C298B811F6303F
:0746FB0099FDC299F5992217
:09095100E6FB08E6FA08E6F922CB
:09095A00E0FBA3E0FAA3E0F9229E
:09096300E2FB08E2FA08E2F922C5
:0C096C00E493FB740193FA740293F922E7
:00000001FF
