:03000000022D9A34
:0C2D9A00787FE4F6D8FD758120022DE161
:101870005000CE3F065B4F666D7D077F6F777C39EA
:101880005E797160C00000040105010601070108CE
:101890000109010A010B0104020502060207020800
:1018A0000209020A020B02040405040604070408E4
:1018B0000409040A040B04040805080608070808BC
:1018C0000809080A080B08000101010201030108C8
:1018D0001009100A100B1000020102020203020894
:1018E0002009200A200B200004010402040304083C
:1018F0004009400A400B400008010802080308089C
:101900008009800A800B800010011002100310046F
:1019100010051006100710002001200220032004EB
:10192000200520062007200040014002400340041B
:10193000400540064007400080018002800380048B
:07194000800580068007808E
:05375500007F19DFFEFA
:01375A00224C
:1036E500D2B0D2B1123755C2B0123755C2B1023776
:0136F500557F
:0A372F00D2B1C2B0123755D2B02259
:02346900AE07AC
:10346B00E4FDFCFBEE30E704D2B08002C2B0D2B177
:10347B00EE25E0FE123755C2B11237550BEBB408EF
:10348B00E3D2B0D2B120B005E4FCFD80047C007D1A
:0D349B0001123755C2B1123755AE04AF050E
:0134A8002201
:0D000E00AE071236E5AF0612346902372F37
:103565007F4012000E1236E57FC0123469E4FA740A
:10357500C02AF582E43400F583E0FF1234690AEAD3
:06358500B40CEC02372F2C
:10369C009000CDE0FF12000E1235659000CCE0FFDB
:0336AC0002000E0B
:0827600090016DEFF0A3EDF014
:10276800E4A3F090016FE0FFC39408400302283C03
:1027780074017E00A807088005C333CE33CED8F98C
:10278800FF90016EE0FDEF5D90016D604FE0FFC4CA
:1027980054F02400F582E43400F583C083C08290AD
:1027A800016FE0FED082D08375F002121864E090C9
:1027B8000170F024C0F582E43400F583C083C08240
:1027C800E0FDEFC454F02401F582E43400F583758C
:1027D800F002EE121864E0FFED4F804AE0FFC454A7
:1027E800F02400F582E43400F583C083C0829001B0
:1027F8006FE0FED082D08375F002121864E024C026
:10280800F582E43400F583C083C082E0FDEFC45450
:10281800F02401F582E43400F58375F002EE121815
:1028280064E0F4FFED5FD082D083F090016FE004A4
:04283800F002276B18
:01283C002279
:10353C00E49000CDF0FF12000EE4FF74C02FF58272
:10354C00E43400F583E4F00FEFB40CEF9000CC748E
:09355C008FF0FF12000E02369CF4
:1029E300E4900166F0900166E0FFC3940A4003029D
:1029F3002A9174132FF582E43401F583E0FDE4FF9B
:102A0300122760900166E02413F582E43401F58314
:102A1300E0FD7F01122760900166E02413F582E454
:102A23003401F583E0FD7F02122760900166E02404
:102A330013F582E43401F583E0FD7F0312276090F0
:102A43000166E02413F582E43401F583E0FD7F049D
:102A5300122760900166E02413F582E43401F583C4
:102A6300E0FD7F05122760900166E02413F582E400
:102A73003401F583E0FD7F0612276012369C7FC880
:102A83007E00123670900166E004F00229E8D28CD1
:0B2A93007FC87E00123670C28CC2B4F7
:012A9E002215
:1036AF0075A15575A1AAE5B954F84404F5B9E4F527
:0236BF00A12246
:0E370700EF4E600905A1EF1F70F61E80F32241
:10367000AD07AC06ED4C600E7FE87E03123707ED18
:073680001D70F11C80EE2219
:1032B90053C67F7D047F0312320F7D057F031232CF
:1032C9000F7D067F0312320FE4FD7F031232647D06
:1032D900017F031232647D02E4FF1232647D047FB0
:1032E90003123264C2B47D077F0312320F7D077F58
:0B32F900031232647D037F0302326485
:09374300EF44FE529A439A082259
:10339900E4900166F07DAB7F901236877FC11237CA
:1033A90039EF64AA600A122BDF7DAA7FC012368723
:1033B9007F85123739900166EFF030E706900129D1
:1033C9007401F0900129E0B4010D900166E030E547
:0733D900069001617401F090
:0133E00022CA
:103626005389F75389FB5389FD43890153C9EF75C4
:0A3636008CFF758A90D2A9D2AF2252
:1035EE0053897F5389BF5389DF43891053C9DF75D0
:0C35FE008D3C758BB0D2ABD2AFD28E22C8
:10320F00EF14601B14602914603924037046740195
:10321F00A805088002C333D8FCF45292529322744B
:10322F0001A805088002C333D8FCFFF45292802115
:10323F007401A805088002C333D8FCFF4292EFF453
:10324F005293227401A805088002C333D8FCFF42B1
:05325F0092EF429322F2
:10326400EF14601B14602914603924037046740140
:10327400A805088002C333D8FCF4529652972274EE
:1032840001A805088002C333D8FCFFF452968021BC
:103294007401A805088002C333D8FCFF4296EFF4FA
:1032A4005297227401A805088002C333D8FCFF4258
:0532B40096EF42972295
:103640007FC3123739EF64AA600D1229E312353CAB
:073650007DAA7FC21236873C
:013657002250
:07000300C294C296D29622BE
:1035CF00E4FFD295FED294C294A295E433C4333370
:0E35DF00335480FDEFC3134DFF0EEEB408E72A
:0135ED0022BB
:10365800E4FEC294C295EF30E002D295D294EFC353
:0736680013FF0EEEB408EBA6
:01366F002238
:0D3715001200037F8E123658E4FF02365872
:0D3722001200037F8E1236587F8002365849
:0A3739001200031236581235CF2299
:10368700AC07123715120003AF04123658AF0512F4
:05369700365802372245
:10334F001236AF7F147E001236701232B912362643
:10335F001235EE1236C1E4FF12374312339912249D
:10336F003312353C1236401207AA9000F9E0701262
:10337F0012001E12360A123428900131E060031237
:0A338F002FAA12283D122B4380DD07
:1019470041012200420126002842015F00004201B6
:101957005A000A42015D000041010E0041011000DA
:1019670041015700410159004100E6004100E400F0
:1019770041015C0041012C014100EC004A01133F89
:10198700065B4F666D7D077F6F41012801410107A7
:1019970000410156004101481441012E0141012532
:1019A700014100E500410133004101060041012BDF
:1019B700004101300041013200410134004100E0A3
:1019C7000041010D00410109144100F7014100EAFE
:1019D700004101470041016300410108004100E95E
:1019E700004100E20041010C0041010A00410112DF
:1019F70000410111004100ED004100FB0141012DB3
:101A0700004100F9004101310041012A014100E193
:101A170000410105004100E80141012F014100EEAD
:101A2700014100E30041015800410155004100E731
:101A37000041010F0041010B00410165004100FA1F
:101A4700004100FC004100EB00410121004100F88A
:101A57000041012900410161004101620041016427
:051A6700004100DE005B
:03000B0002374C6D
:09374C00758CFF758A90B2B4324D
:03001B00022319A4
:10231900C0E0C083C082C0D075D010758D3C758B6C
:10232900B0900160E004F0700690015FE004F09065
:102339000126E0FEA3E0FF90015FE0B51612A3E0DD
:10234900B5170D9000DF7401F090015FE4F0A3F080
:1023590090015EE004F0700690015DE004F09001E8
:102369005AE0FEA3E0FF90015DE0B51612A3E0B5C7
:10237900170D9001227401F090015DE4F0A3F09033
:102389000156E004F0900148E0FD900156E0B515D2
:102399000B900107E004F0900156E4F090010DE084
:1023A90004F0900109E0FD90010DE0B5150B9000D6
:1023B900E0E004F090010DE4F09000EAE004F0E0C0
:1023C900B5150B900147E004F09000EAE4F09001A4
:1023D90008E004F0E07C00B5170FECB5160B90018E
:1023E900637401F0900108E4F09000E7E004F090D4
:1023F9000109E0FF9000E7E0B5172690015CE0FFD6
:10240900B40106900158E004F0EF7006900155E020
:1024190004F0EFB4050690010FE004F09000E7E442
:0A242900F0D0D0D082D083D0E03292
:10358B00EFF0A3E0FF1235A0EFF0A3E0FF1235A0A0
:05359B00EFF0A3E0FFCA
:0E35A000EFC4540F75F006A4FEC3EF9EFF2289
:0536F600A3EFF07F01CD
:0C36FB00EF75F00A8475F006A42FFF2282
:1036C100E490011DF0A3F0A3F0A3F0900123F0A377
:0236D100F022E5
:1033E100E49000FDF09000F704F0900126E4F0A3D2
:1033F1007428F0E49000DFF090015FF0A3F09000FA
:10340100E0F09000E3E0700C90010FF0900155F0B6
:10341100900158F0D28C7F467E00123670C28CC269
:07342100B4E4900147F02222
:1007AA00122EAE9000E9E06003020D8D900111E077
:1007BA006003020D8DA3E06003020D8D30B30302C6
:1007CA0008AE1233E130B30302089690015CE07080
:1007DA003F90010EE070397F81123739900104EFA2
:1007EA00F01235A0EFF075F00A842413F582E43490
:1007FA0001F583E0FD7F04122760900104E075F0A3
:10080A000A84741325F0F582E43401F583E0800844
:10081A00E4FD7F04122760E4FD7F0512276012368B
:10082A009C9000DFE0B4019D9000FD7401F09001FE
:10083A000EF090015CE014601614601B146026141C
:10084A006031240460030207CF1233040207CFE4A5
:10085A00FF1231510207CF78667C017D017B017A54
:10086A0001791D801A78667C017D017B017A017904
:10087A001F800C78667C017D017B017A0179237ED9
:10088A00007F021217C7122F330207CFE49000DF4E
:10089A00F030B3FD9000FDE0700A90011004F0E41E
:1008AA009000DFF030B703020B091233E130B703CF
:1008BA00020A2190010EE0B401031225469000DFDE
:1008CA00E0B401E99000FD7401F0900157F0900145
:1008DA000BF090010EE0B401D4E49000E0F0900037
:1008EA00E3E0700C90010FF0900155F0900158F080
:1008FA0090015CE014602D1460521470030209998F
:10090A001470030209DB240470A39000ECE0B40124
:10091A0005E4FF121C529000ECE06402708FFF1293
:10092A002C7B80899000E5E07004FF1231B79000BB
:10093A00E5E0B40105E4FF1230179000E5E0640237
:10094A0060030208B7FF122D0B0208B7900133E0CB
:10095A00701978687C017D017B017A01791DFE7F1F
:10096A00021217C77D017F01121A6D900133E064EC
:10097A000160030208B778687C017D017B017A0176
:10098A00791DFE7F021217C77D017F01020A1B90A3
:10099A000133E0701978687C017D017B017A017965
:1009AA001FFE7F021217C77D017F02121A6D900186
:1009BA0033E0640160030208B778687C017D017B3B
:1009CA00017A01791FFE7F021217C77D017F02801B
:1009DA0040900133E0701978687C017D017B017ACF
:1009EA00017923FE7F021217C77D017F03121A6D58
:1009FA00900133E0640160030208B778687C017DE6
:100A0A00017B017A017923FE7F021217C77D017FDC
:100A1A00031229110208B79000FAE024FE6032148A
:100A2A0060542402707890011DE014F0900129E0CE
:100A3A00600B90011DE07011740CF0800C90011D88
:100A4A00E0C3941840037417F0E49000FAF0F080C1
:100A5A004D90011FE014F0900129E0600B90011FF6
:100A6A00E07036740CF0803190011FE0C394184096
:100A7A00287417F08023900123E014F0900129E0F4
:100A8A00600B900123E07011740CF0800C9001232C
:100A9A00E0C3941840037417F0E49000FAF0900051
:100AAA00FCE024FE60181460262402703690011EB1
:100ABA00E014F0E0C3943C4025743BF080209001A0
:100ACA0020E014F0E0C3943C4003743BF0800F90A4
:100ADA000124E014F0E0C3943C4003743BF0E4903A
:100AEA0000FCF0E490010BF09000DFF030B7FD90CD
:100AFA0000FDE0700A90015904F0E49000DFF03044
:100B0A009703020D8D1233E1309703020CAE900168
:100B1A000EE0B401031225469000DFE0B401E9E4D7
:100B2A00A3F09000E3E0700C90010FF0900155F0F3
:100B3A00900158F090010B7401F09000FDF09000C4
:100B4A00E4F090010EE064016003020C7E90015C07
:100B5A00E014603514605C147003020BFF14700318
:100B6A00020C3E24046003020C7E9000ECE0B40107
:100B7A00057F01121C529000ECE064026003020C33
:100B8A007E7F01122C7B020C7E9000E5E070057FCF
:100B9A00011231B79000E5E0B401057F0112301768
:100BAA009000E5E064026003020C7E7F01122D0BC7
:100BBA00020C7E900133E0701978687C017D017B1C
:100BCA00017A01791DFE7F021217C77D027F011289
:100BDA001A6D900133E064016003020C7E78687C30
:100BEA00017D017B017A01791DFE7F021217C77D03
:100BFA00027F01807C900133E0701978687C017D66
:100C0A00017B017A01791FFE7F021217C77D027FDD
:100C1A0002121A6D900133E06401705878687C0101
:100C2A007D017B017A01791FFE7F021217C77D02BF
:100C3A007F02803D900133E0701978687C017D0164
:100C4A007B017A017923FE7F021217C77D027F0397
:100C5A00121A6D900133E0B4011A78687C017D01A3
:100C6A007B017A0179237E007F021217C77D027FFA
:100C7A000312291190015CE064056003020B1290D3
:100C8A0000E8E064016003020B129000E1E07004E6
:100C9A0004F08005E49000E1F0122657E49000E8A1
:100CAA00F0020B129000FAE024FB602C14604E2430
:100CBA0002707290011DE004F0900129E0600C902E
:100CCA00011DE0B40D107401F0805590011DE0C3C0
:100CDA009418404CE4F0804890011FE004F0900121
:100CEA0029E0600C90011FE0B40D107401F0800B34
:100CFA0090011FE0C394184002E4F080239001237E
:100D0A00E004F0900129E0600C900123E0B40D109A
:100D1A007401F0800B900123E0C394184002E4F0C0
:100D2A00E49000FAF09000FCE024FB6015146020C7
:100D3A002402702D90011EE004F0E0B43C02E4F0BD
:100D4A00801A900120E004F0E0B43C02E4F0800C48
:100D5A00900124E004F0E0B43C02E4F0E49000FCEA
:100D6A00F0E490010BF09000E804F0E49000DFF06A
:100D7A003097FD9000FDE0700A9000E604F0E490E0
:100D8A0000DFF09000E9E0B4011530B30630B70394
:100D9A0020970CE49000E9F0539DF79000E2F09060
:100DAA000111E0B4011530B30630B70320970CE403
:100DBA00900111F0539DF790010AF0900112E0B4EE
:100DCA00011530B30630B70320970CE4900112F0F6
:080DDA00539DF790010CF0227B
:10001E00122EAE90010EE0FF7021900110E0601BD9
:10002E0090015CE004F0E4900110F090015CE0D3EC
:10003E0094054007E4F090012E04F090015CE0700E
:10004E0039EF703690012CE06401702E900104E0BF
:10005E0075F00A842413F582E43401F583E0FD7F04
:10006E0004122760900104E075F00A84741325F0E1
:10007E00F582E43401F583E08008E4FD7F04122765
:10008E0060E4FD7F0512276012369C90015CE0143F
:10009E007003020481147003020711147003020727
:1000AE002814700302073F147003020757240560DB
:1000BE00030207A990012CE06003122A9F90010E03
:1000CE00E070030207A990012FE0600AE4F09001AE
:1000DE0059F09000E6F0E490012CF0900110E060F1
:1000EE00169000ECE004F0E4900110F09000ECE0CB
:1000FE00D394044002E4F09000ECE0600302022C82
:10010E00123304900159E06401600302022C900145
:10011E0029E0606EE4F0FF122E26900162E060137B
:10012E0090011DE0640C6004E0240CF0E490016288
:10013E00F0800990011DE0B40C02E4F0900164E03F
:10014E00601390011FE0640C6004E0240CF0E49056
:10015E000164F0800990011FE0B40C02E4F09000FD
:10016E00DEE0600F900123E0640C6004E0240CF0EC
:10017E00020222900123E0640C6003020227F002C7
:10018E0002279001297401F0FF122E2690011DE026
:10019E00D3940C400AE024F4F09001627401F090C4
:1001AE00011DE0FFB40C069001627401F0EF700BBC
:1001BE0090011D740CF0E4900162F090011FE0D3E9
:1001CE00940C400AE024F4F09001647401F0900164
:1001DE001FE0FFB40C069001647401F0EF700B90F9
:1001EE00011F740CF0E4900164F0900123E0D394AD
:1001FE000C400AE024F4F09000DE7401F09001232C
:10020E00E0FFB40C069000DE7401F0EF700B90016D
:10021E0023740CF0E49000DEF0E4900159F09000AD
:10022E00ECE06401600302036A900103E0FF75F0E5
:10023E000A842413F582E43401F583E0FDEF75F0B2
:10024E000A84741325F0F582E43401F583E0FB7F14
:10025E00021230A9900122E060439000EBE0602A88
:10026E00E4F0900102E0FF75F00A842413F582E4B5
:10027E003401F583E0FDEF75F00A84741325F0F573
:10028E0082E43401F583E0FB80099000EB7401F009
:10029E00E4FBFD7F011230A9E4900122F090015998
:1002AE00E064017034900102E004F0900129E060F6
:1002BE0018900102E0C3940D40037401F090010206
:1002CE00E0B40C101234E2800B900102E0C39418DB
:1002DE004002E4F0E4900159F09000E6E064017011
:1002EE003E900102E014F0900129E060209001029E
:1002FE00E0FFC3940D5003EF7007900102E0240C51
:10030E00F0900102E0B40B121234E2800D90010263
:10031E00E0C394184004E02418F0E49000E6F09056
:10032E000102E0FF1236FBEFF0900129E0601C9015
:10033E000102E04480F0900161E09001026006E06D
:10034E004420F0800DE054DFF08007900102E0546D
:10035E007FF0900102E0FD7F841236879000ECE082
:10036E006402600302042C9000CCE04404F01230CE
:10037E0081900122E060559000EBE06030E4F09057
:10038E000103E075F00A842413F582E43401F58349
:10039E00E0FD7F02122760900103E075F00A84747D
:1003AE001325F0F582E43401F583E0800E9000EB26
:1003BE007401F0E4FD7F02122760E4FD7F03122733
:1003CE0060121EA412369CE4900122F0900159E0B6
:1003DE00B40119900103E004F0E0C3943C4002E440
:1003EE00F0E4900159F0FD7F801236879000E6E030
:1003FE00B4011B900103E014F0E0D3943C4004E000
:10040E00243CF0E49000E6F0FD7F801236879001E8
:10041E0003E0FF1236FBEFF0FD7F8212368790006D
:10042E00ECE0B4031490012C7401F0E490010EF092
:10043E009000ECF090012F04F09000F7E06009E4DA
:10044E009000E0F09000F7F09000E0E0640F6003A1
:10045E000207A990012C04F0E490010EF09000EC3C
:10046E001235AE9000E3E0640260030207A990012A
:10047E005CF02290010EE070030206B690012FE0B0
:10048E00600AE4F0900159F09000E6F0E490012546
:10049E00F0900110E060169000E5E004F0E49001A9
:1004AE0010F09000E5E0D394044002E4F09000E5F3
:1004BE00E07040FF123151900159E0B401139000E9
:1004CE00FEE004F0E0D394634002E4F0E4900159BE
:1004DE00F09000E6E0B4010B9000FEE014F0E49022
:1004EE0000E6F09000FEE0FF1236FBEFF0FD7F8C91
:1004FE001236879000E5E0640160030205CC90019E
:10050E0000E0FF75F00A842413F582E43401F583CC
:10051E00E0FDEF75F00A84741325F0F582E43401E2
:10052E00F583E0FB7F021230A9900122E060439038
:10053E0000EBE0602AE4F09000FFE0FF75F00A8423
:10054E002413F582E43401F583E0FDEF75F00A849F
:10055E00741325F0F582E43401F583E0FB800990F5
:10056E0000EB7401F0E4FBFD7F011230A9E4900171
:10057E0022F0900159E0B401149000FFE004F0E085
:10058E00C3940D40037401F0E4900159F09000E61D
:10059E00E0B4011A9000FFE014F0E06005D3940D72
:1005AE0040079000FFE0240CF0E49000E6F090008D
:1005BE00FFE0FF1236FBEFF0FD7F881236879000CA
:1005CE00E5E0640260030206749000FF123084902E
:1005DE000122E060439000EBE0602AE4F09001001D
:1005EE00E0FF75F00A842413F582E43401F583E00C
:1005FE00FDEF75F00A84741325F0F582E43401F5ED
:10060E0083E0FB80099000EB7401F0E4FBFD7F02B8
:10061E001230A9E4900122F0900159E0C3940140F8
:10062E0013900100E004F0E0942040037401F0E424
:10063E00900159F09000E6E0C3940140199001003A
:10064E00E014F0E0600494204007900100E0241FC5
:10065E00F0E49000E6F0900100E0FF1236FBEFF0C0
:10066E00FD7F861236879000E5E0B40314900125D5
:10067E007401F0E490010EF09000E5F090012F046B
:10068E00F09000F7E06009E49000E0F09000F7F0E1
:10069E009000E0E0B40F119001257401F0E4900198
:1006AE000EF09000E51235AE900125E070030207C2
:1006BE00A99000FFE0FE75F00A842413F582E4345D
:1006CE0001F583E0FFEE75F00A84741325F0F582D0
:1006DE00E43401F583E0FD900100E0FE75F00A843C
:1006EE002413F582E43401F583E0FBEE75F00A8401
:1006FE00741325F0F582E43401F583E090016CF07B
:10070E0002311E78677C017D017B017A01791D7EA5
:10071E00007F021217C77F01802C78677C017D0154
:10072E007B017A01791F7E007F021217C77F02803C
:10073E001578677C017D017B017A0179237E007F2C
:10074E00021217C77F03020DE290010EE0B4010200
:10075E00E4F0900159E06002E4F090012EE0600CAC
:10076E00122433E490012EF0900107F01236D3904C
:10077E0000F7E06009E49000E0F09000F7F09000E0
:10078E00E0E0B40F16E4F09000F704F09000E3E020
:0C079E00B40205E490015CF01235BC22AE
:102433009001661218334098A3D790016E740FF081
:10244300A3746EF0C281C2805393FDD2842084FDB5
:10245300AC9FE41215F5900166E0F8A3E0F9A3E060
:10246300FAA3E0FB121445E4FBFA797F78431215D3
:102473004E90016A12182790016AE0F8A3E0F9A3CD
:10248300E0FAA3E0FB900166E0FCA3E0FDA3E0FE1D
:10249300A3E0FF121350A804A905AA06AB079001F5
:1024A3006AE0FCA3E0FDA3E0FEA3E0FF12154E12D9
:1024B3001DAFC004C005C006C00790016EE0FCA3B9
:1024C300E0FDE41215F0A804A905AA06AB07D0079E
:1024D300D006D005D00412154E7B0F7ACF795B78E6
:1024E3003B121354A804A905AA06AB07E4FFFE7D1B
:1024F300807C3F12154E9001431218277F667E663B
:102503007DE67C3F9000EFE0F8A3E0F9A3E0FAA3B7
:10251300E0FB121445E4FBFAF978421213549000DD
:10252300F31218277F337E937D887CC3900143E0A9
:10253300F8A3E0F9A3E0FAA3E0FB1213549000EF31
:0325430002182754
:1020E300900104E0702E90011DE0FF900102E0B525
:1020F300072290011EE0FF900103E0B5071690014F
:1021030062E0FF900161E0B5070A9000E97401F015
:102113009000E2F09000E9E070030221FD90011EBF
:10212300E0FF04F9EF2406FFE0FE2407FDEE240C94
:10213300FEE0240DFC9000E2E06016900163E06095
:1021430010308C06C28CC2B48002D28CE49001633E
:10215300F0E9C3943C400DE924C4FB900103E0B5CE
:1021630003128007900103E0B50109C28CC2B4E4F5
:102173009000E2F0EFC3943C400DEF24C4FB9001C8
:1021830003E0B5030F8007900103E0B50706900055
:10219300E27401F0EDC3943C400DED24C4FF9001C3
:1021A30003E0B507128007900103E0B50509C28C6F
:1021B300C2B4E49000E2F0EEC3943C400DEE24C4BC
:1021C300FF900103E0B5070F8007900103E0B50618
:1021D300069000E27401F0ECC3943C400DEC24C47F
:1021E300FF900103E0B507128007900103E0B504F7
:0A21F30009C28CC2B4E49000E2F0CF
:0121FD0022BF
:101FC500900104E0702E90011FE0FF900102E0B542
:101FD5000722900120E0FF900103E0B5071690016C
:101FE50064E0FF900161E0B5070A9001117401F00A
:101FF50090010AF0900111E070030220E2900120A7
:10200500E0FF04F9EF2406FFE0FE2407FDEE240CB3
:10201500FEE0240DFC90010AE06016900163E0608B
:1020250010308C06C28CC2B48002D28CE49001635D
:10203500F0E9C3943C400DE924C4FB900103E0B5ED
:1020450003128007900103E0B50109C28CC2B4E414
:1020550090010AF0EFC3943C400DEF24C4FB9001BE
:1020650003E0B5030F8007900103E0B50706900173
:102075000A7401F0EDC3943C4010ED24C4FF9001B7
:1020850003E0FBEFC39B40128007900103E0B50519
:1020950009C28CC2B4E490010AF0EEC3943C400D31
:1020A500EE24C4FF900103E0B5070F8007900103FC
:1020B500E0B5060690010A7401F0ECC3943C400DAE
:1020C500EC24C4FF900103E0B507128007900103DB
:0D20D500E0B50409C28CC2B4E490010AF029
:0120E20022DB
:1021FE00900104E0702E900123E0FF900102E0B503
:10220E000722900124E0FF900103E0B5071690002D
:10221E00DEE0FF900161E0B5070A9001127401F053
:10222E0090010CF0900112E070030223189001242B
:10223E00E0FF04F9EF2406FFE0FE2407FDEE240C78
:10224E00FEE0240DFC90010CE06016900163E0604E
:10225E0010308C06C28CC2B48002D28CE490016322
:10226E00F0E9C3943C400DE924C4FB900103E0B5B2
:10227E0003128007900103E0B50109C28CC2B4E4D9
:10228E0090010CF0EFC3943C400DEF24C4FB900181
:10229E0003E0B5030F8007900103E0B50706900138
:1022AE000C7401F0EDC3943C400DED24C4FF90017D
:1022BE0003E0B507128007900103E0B50509C28C53
:1022CE00C2B4E490010CF0EEC3943C400DEE24C475
:1022DE00FF900103E0B5070F8007900103E0B506FC
:1022EE000690010C7401F0ECC3943C400DEC24C438
:1022FE00FF900103E0B507128007900103E0B504DB
:0A230E0009C28CC2B4E490010CF087
:0123180022A2
:10360A00900130E060031220E3900132E06003127F
:0C361A001FC5900134E060031221FE2265
:102FAA0090010EE070669000EDE0701A30B20A30BF
:102FBA00B2149000CC748F80059000CC7480F0FF1E
:102FCA0012000E12369C9000CCE030E33F9000EDE8
:102FDA007401F09000FBE06009E4900147F0900072
:102FEA00FBF0900147E0B40A23E49000EDF0900072
:102FFA00FB04F0E490015CF09000CC7480F0FF12C6
:0D300A00000E12369C7F967E0012370722C2
:10283D009000E6E070030228D29001657401F090DB
:10284D00010EE0706390015CE0705D9000F904F0A2
:10285D0090012DE004F090012AE0B4010B90012DC0
:10286D00E014F0E490012AF090012DE0D3940140A2
:10287D0002E4F090012DE014601904702B90016CAE
:10288D00745EF07B6D7D407F4012311EE49001310E
:10289D00F0801590016C745EF07B6D7D547F5C1241
:1028AD00311E9001317401F0E4900165F09000E665
:1028BD00F09000EE04F09000F7E06009E49000E085
:1028CD00F09000F7F09000F7E06009E49000E0F080
:1028DD009000F7F09000E0E0640F6007900110E0C9
:1028ED00B40120E49000F9F09000E0F09000F704BE
:1028FD00F0E4900159F0900110F09000EE04F0908A
:04290D00012AF02289
:102B4300900159E07003022BCF9001657401F0905E
:102B5300010EE0706290015CE0705C9000F904F09B
:102B63009000E3E004F09000EEE0B4010B9000E38A
:102B7300E014F0E49000EEF09000E3E0D394024020
:102B830002E4F09000E3E014600E1460122402707B
:102B93001D90016C7406800C90016C745B80059031
:102BA300016C744FF07B407D737F5E12311EE490A5
:102BB3000159F0900165F090012A7401F09000F73B
:102BC300E06009E49000E0F09000F7F09000F7E097
:0C2BD3006009E49000E0F09000F7F022B0
:103428009000E3E0703A90010EE07034900158E0AB
:10343800B4020B90015C7405F0E4900158F090011F
:1034480055E0B40A0B90015C7401F0E4900155F06A
:1034580090010FE0B40209E490015CF090010FF0D4
:013468002241
:1031B700900166EFF07F8D1237399000FEEFF01225
:1031C70035A0EFF0900166E0FFB401069000FEE045
:1031D70014F0EF700E9000FEE004F0E0D39463402B
:1031E70002E4F01230EB9000FEE0FF1236FBEFF046
:1031F700FD7F8C1236877FFA7E001236709000FEB4
:08320700E0FF1235A0EFF022F8
:101C5200900166EFF07F85123739900102EFF09024
:101C62000129E0B40111900102E033333354F8F05A
:101C7200E0131313541FF0900102E0FF1235A0EF9E
:101C8200F0900166E07047900102E004F0900129B3
:101C9200E06030900102E0C3940D40037401F090C3
:101CA2000102E0640C70277F851237399000F8EF4B
:101CB200F030E507E4900161F08013900161740156
:101CC200F0800B900102E0C394184002E4F090010E
:101CD20066E064017051900102E014F0900129E085
:101CE2006038900102E0FFC3940D5003EF7007903B
:101CF2000102E0240CF0900102E0640B70297F8560
:101D02001237399000F8EFF030E507E4900161F006
:101D120080159001617401F0800D900102E0C3947E
:101D2200184004E02418F0123081900102E0FF1202
:101D320036FBEFF0900129E0601C900102E0448044
:101D4200F0900161E09001026006E04420F0800D15
:101D5200E054DFF08007900102E0547FF09001022E
:101D6200E0FD7F841236877FFA7E00123670900182
:091D720002E0FF1235A0EFF0229F
:102C7B00900166EFF07F83123739900103EFF0126A
:102C8B0035A0EFF0900166E0FF700E900103E004B9
:102C9B00F0E0C3943C4002E4F0EFB4011090010368
:102CAB00E014F0E0D3943C4004E0243CF0900103AA
:102CBB00E0FF75F00A842413F582E43401F583E018
:102CCB00FDEF75F00A84741325F0F582E43401F5F9
:102CDB0083E0FB7F021230A9900103E0FF1236FB69
:102CEB00EFF0FD7F82123687E4FD7F8012368790EE
:102CFB000103E0FF1235A0EFF07FFA7E0002367081
:10301700900166EFF07F891237399000FFEFF012C9
:1030270035A0EFF0900166E0FF700F9000FFE0041D
:10303700F0E0C3940D40037401F0EFB40115900064
:10304700FFE014F0E06005D3940D40079000FFE027
:10305700240CF09000FF1230849000FFE0FF12363E
:10306700FBEFF0FD7F881236879000FFE0FF1235F7
:0A307700A0EFF07FFA7E0002367031
:102D0B00900166EFF07F87123739900100EFF012D8
:102D1B0035A0EFF0900166E0FF700F900100E0042A
:102D2B00F0E0D3941F40037401F0EFB40115900150
:102D3B0000E014F0E06005D3941F4007900100E021
:102D4B00241FF0900100E0FF75F00A842413F58234
:102D5B00E43401F583E0FDEF75F00A84741325F07C
:102D6B00F582E43401F583E0FB7F021230A9900178
:102D7B0000E0FF1236FBEFF0FD7F861236879001E5
:0F2D8B0000E0FF1235A0EFF07FFA7E00023670F5
:101A6D00ED64016003021B4AEF6401704290011D99
:101A7D00E004F0900129E0602590011DE0C3940D74
:101A8D0040037401F090011DE0B4011D900162E06E
:101A9D006004E4F080139001627401F0800B9001FA
:101AAD001DE0C394184002E4F09000FA7401F0EFC9
:101ABD006402704290011FE004F0900129E060255E
:101ACD0090011FE0C3940D40037401F090011FE0DD
:101ADD00B4011D900164E06004E4F0801390016492
:101AED007401F0800B90011FE0C394184002E4F0E4
:101AFD009000FA7402F0EF64037042900123E00449
:101B0D00F0900129E06025900123E0C3940D40037E
:101B1D007401F0900123E0B4011D9000DEE060043B
:101B2D00E4F080139000DE7401F0800B900123E04F
:101B3D00C394184002E4F09000FA7403F0ED6402CF
:101B4D006003021C45EF6401704C90011DE014F020
:101B5D00900129E0602D90011DE0FEC3940D50030E
:101B6D00EE700790011DE0240CF090011DE0B40A09
:101B7D001F900162E06004E4F08015900162740131
:101B8D00F0800D90011DE0C394184004E02418F07E
:101B9D009000FA7404F0EF6402704C90011FE01491
:101BAD00F0900129E0602D90011FE0FEC3940D50CF
:101BBD0003EE700790011FE0240CF090011FE0B4BC
:101BCD000A1F900164E06004E4F0801590016474D4
:101BDD0001F0800D90011FE0C394184004E024181B
:101BED00F09000FA7405F0EF6403704C900123E05F
:101BFD0014F0900129E0602D900123E0FFC3940DB6
:101C0D005003EF7007900123E0240CF0900123E0C6
:101C1D00B40A1F9000DEE06004E4F080159000DE51
:101C2D007401F0800D900123E0C394184004E0246A
:101C3D0018F09000FA7406F09001681230847FFA63
:051C4D007E000236706C
:10291100ED64017048EFB4011490011EE004F0E091
:10292100C3943C4002E4F09000FC7401F0EFB40267
:1029310014900120E004F0E0C3943C4002E4F090E4
:1029410000FC7402F0EFB40314900124E004F0E001
:10295100C3943C4002E4F09000FC7403F0ED640287
:10296100704EEFB4011690011EE014F0E0D3943CD8
:102971004004E0243CF09000FC7404F0EFB4021633
:10298100900120E014F0E0D3943C4004E0243CF0BA
:102991009000FC7405F0EFB40316900124E014F0EC
:1029A100E0D3943C4004E0243CF09000FC7406F039
:1029B100900169E0FF75F00A842413F582E4340183
:1029C100F583E0FDEF75F00A84741325F0F582E4D8
:1029D1003401F583E0FB7F021230A97FFA7E000209
:0229E10036704E
:100DE200900166EFF090010EE0700302120C900188
:100DF2002FE0600AE4F0900159F09000E6F09001D3
:100E020066E0FFB401069001307401F0EFB402060F
:100E12009001327401F0EFB403069001347401F0D2
:100E2200900110E06016900133E004F0E4900110AC
:100E3200F0900133E0D394034002E4F0900133E0F8
:100E4200600302108D900122E060439000EBE060AD
:100E52002AE4F0900167E0FF75F00A842413F5821A
:100E6200E43401F583E0FDEF75F00A84741325F094
:100E7200F582E43401F583E0FB80099000EB740114
:100E8200F0E4FBFD7F011230A9E4900122F0900111
:100E920068E0FF75F00A842413F582E43401F583D7
:100EA200E0FDEF75F00A84741325F0F582E4340155
:100EB200F583E0FB7F021230A9900159E0640160E2
:100EC20003020F95900166E0FF6401703C90011DE2
:100ED200E004F0900129E0602590011DE0C3940D2B
:100EE20040037401F090011DE0B40C1D900162E01A
:100EF2006004E4F080139001627401F0800B9001B1
:100F02001DE0C394184002E4F0EF6402703C9001CB
:100F12001FE004F0900129E0602590011FE0C394D6
:100F22000D40037401F090011FE0B40C1D900164A8
:100F3200E06004E4F080139001647401F0800B908F
:100F4200011FE0C394184002E4F0900166E06403DC
:100F5200703C900123E004F0900129E060259001AB
:100F620023E0C3940D40037401F0900123E0B40C1C
:100F72001D9000DEE06004E4F080139000DE740156
:100F8200F0800B900123E0C394184002E4F0E49057
:100F92000159F09000E6E06401600302108D9001B7
:100FA20066E0FF6401704690011DE014F090012993
:100FB200E0602D90011DE0FEC3940D5003EE70071A
:100FC20090011DE0240CF090011DE0B40B1F900174
:100FD20062E06004E4F080159001627401F0800D1B
:100FE20090011DE0C394184004E02418F0EF64025D
:100FF200704690011FE014F0900129E0602D9001ED
:101002001FE0FFC3940D5003EF700790011FE0240F
:101012000CF090011FE0B40B1F900164E06004E447
:10102200F080159001647401F0800D90011FE0C3FF
:1010320094184004E02418F0900166E064037046BE
:10104200900123E014F0900129E0602D900123E04B
:10105200FFC3940D5003EF7007900123E0240CF0BE
:1010620090011FE0B40B1F900164E06004E4F08083
:10107200159001647401F0800D900123E0C394186F
:101082004004E02418F0E49000E6F0900133E064BC
:10109200016003021181900122E060439000EBE0C5
:1010A200602AE4F0900168E0FF75F00A842413F5E9
:1010B20082E43401F583E0FDEF75F00A84741325B0
:1010C200F0F582E43401F583E0FB80099000EB74D3
:1010D20001F0E4FBFD7F021230A9E4900122F090BE
:1010E2000167123084900159E064017042900166F8
:1010F200E0FFB4010E90011EE004F0E0C3943C4016
:1011020002E4F0EFB4020E900120E004F0E0C39498
:101112003C4002E4F0900166E0B4030E900124E04A
:1011220004F0E0C3943C4002E4F0E4900159F090F2
:1011320000E6E064017048900166E0FFB40110909F
:10114200011EE014F0E0D3943C4004E0243CF0EFB4
:10115200B40210900120E014F0E0D3943C4004E08B
:10116200243CF0900166E0B40310900124E014F0F6
:10117200E0D3943C4004E0243CF0E49000E6F0909C
:101182000133E0B40230900166E0FFB40106900141
:10119200307401F0EFB402069001327401F0EFB442
:1011A20003069001347401F0E490010EF0900133D3
:1011B200F090012F04F09000F7E06009E49000E065
:1011C200F09000F7F09000E0E0640F703D9001664F
:1011D200E0FFB401069001307401F0EFB402069012
:1011E20001327401F0EFB403069001347401F0E4AB
:1011F20090010EF0900133F09000E0F09000F704BF
:10120200F01235BC90012F7401F0900166E0640188
:101212007052900130E0702190016C7406F07B777F
:101222007D407F4012311E900159E0B4010B9001C4
:10123200307401F0E4900159F090010EE0702590B5
:101242000130E0601F90016C7406F07B777D547F63
:101252005C12311E900159E0B40109E4900130F0B2
:10126200900159F0900166E064027052900132E000
:10127200702190016C745BF07B777D407F4012316E
:101282001E900159E0B4010B9001327401F0E49018
:101292000159F090010EE07025900132E0601F903C
:1012A200016C745BF07B777D547F5C12311E900180
:1012B20059E0B40109E4900132F0900159F0900133
:1012C20066E064037052900134E0702190016C7406
:1012D2004FF07B777D407F4012311E900159E0B480
:1012E200010B9001347401F0E4900159F090010E69
:1012F200E07025900134E0601F90016C744FF07B28
:10130200777D547F5C12311E900159E0B40109E4EB
:10131200900134F0900159F090010EE0702C900091
:10132200F7E06009E49000E0F09000F7F09000E050
:10133200E0B40F16E4F09000F704F09000E3E0B49C
:0B1342000205E490015CF01235BC22B3
:0E34A90078667C017D017B01FE7F021217C751
:1034B700900166E0FF75F00A842413F582E4340175
:1034C700F583E0FDEF75F00A84741325F0F582E4C7
:0B34D7003401F583E0FB7F010230A907
:10351100900167E0FF75F00A842413F582E4340119
:10352100F583E0FDEF75F00A84741325F0F582E46C
:0B3531003401F583E0FB7F020230A9AB
:102F3300900122E06401706E9000EBE0602AE4F0FF
:102F4300900166E0FF75F00A842413F582E43401EE
:102F5300F583E0FDEF75F00A84741325F0F582E440
:102F63003401F583E0FB80099000EB7401F0E4FB8E
:102F7300FD7F011230A9900167E0FF75F00A8424F8
:102F830013F582E43401F583E0FDEF75F00A8474F0
:102F93001325F0F582E43401F583E0FB7F02123060
:072FA300A9E4900122F022D5
:0E35AE00F09000E0F09000F704F090012FF094
:1035BC009000E3E0700C90015CF0900155F09001EC
:0335CC0058F02292
:1025460090010BE0600302265690015CE0146034B3
:102556001470030225DD14700302260014700302B2
:102566002624240460030226569000ECE0B40103FE
:102576001230819000ECE06402600302265690015E
:10258600030225B59000E5E070031230EB9000E5FC
:10259600E06401700C90010BE070069000FF1230B1
:1025A600849000E5E064026003022656900100E094
:1025B600FF75F00A842413F582E43401F583E0FD07
:1025C600EF75F00A84741325F0F582E43401F5837F
:1025D600E0FB7F020230A9900133E070077A0179AF
:1025E6001D1234A9900133E06401706478667C01A1
:1025F6007D017B017A01791D8021900133E070070E
:102606007A01791F1234A9900133E0640170417890
:10261600667C017D017B017A01791FFE802A90018B
:1026260033E0700F78667C017D017B017A017923A6
:102636001234B1900133E0B4011678667C017D0155
:102646007B017A0179237E007F021217C7123511AA
:012656002261
:1030EB00900115E0FF900113E0FD9000FEE0FE75EE
:1030FB00F00A842413F582E43401F583E0FBEE75CA
:10310B00F00A84741325F0F582E43401F583E09022
:03311B00016CF054
:10311E0090016AEDF0A3EBF0AD07E4FF122760908B
:10312E00016AE0FD7F0112276090016BE0FD7F02D6
:10313E0012276090016CE0FD7F03122760121EA41F
:03314E0002369CAA
:10308100900102E0FF75F00A842413F582E4340113
:10309100F583E0FDEF75F00A84741325F0F582E401
:0830A1003401F583E0FB7F011F
:1030A90090016BEDF0A3EBF090016AEFF0BF011511
:1030B900A3E0FDE4FF12276090016CE0FD7F01129F
:1030C9002760121EA490016AE0B40215A3E0FD7FF7
:1030D9000212276090016CE0FD7F03122760121E27
:0230E900A4221F
:101EA400900129E064016003021FA0900161E0FC3D
:101EB4009000CBB40106E04401F08004E054FEF04D
:101EC40090010EE0FD64016003021F83900162E053
:101ED400FEB4010E90015CE0B402079000CBE04434
:101EE40001F0EE700E90015CE0B402079000CBE0CC
:101EF40054FEF0900164E0FFB4010E90015CE0B484
:101F040003079000CBE04401F0EF700E90015CE019
:101F1400B403079000CBE054FEF09000DEE0FFB481
:101F2400010E90015CE0B404079000CBE04401F0A2
:101F3400EF700E90015CE0B404079000CBE054FE17
:101F4400F090015CE0FF70149000ECE0FE6401602E
:101F540004EEB402079000CBE04402F0EF640260A8
:101F64000D90015CE0FF64036004EFB40411900180
:101F740033E0FF6003B401079000CBE04402F0EDCE
:101F8400701A90015CE0FF600864016004EFB4051E
:101F94000BECB401079000CBE04401F0900130E079
:101FA400700C900132E07006900134E060099000FA
:101FB400CBE04408F080079000CBE054F7F0023601
:011FC4009C80
:1034E2007F851237399000F8EFF030E50BE054DFBA
:1034F200F0E4900161F0800D9000F8E04420F0903B
:0F35020001617401F09000F8E0FD7F84023687CC
:052E2600900166EFF0D1
:102E2B007F85123739900166E06401703D1235A041
:102E3B00EFD3940C401574F42FFF1236FBEF4420A4
:102E4B004480FF9001617401F0801FEFB40C0E9071
:102E5B0001617401F01236FBEF4420800AEFC3943A
:102E6B000C50071236FBEF4480FF900166E0702C8C
:102E7B00EF30E518547F54DFFFE4900161F0123519
:102E8B00A0EF640C6013740C2FFF800DEF547FFFC9
:102E9B001235A0EFB40C02E4FF1236FBAD077F84B2
:032EAB0002368765
:1036D300900107E0B41E08122433E4900107F002BE
:0236E300265768
:10330400900122E0640170429000EBE06026E4F05A
:10331400900129E06008900114E0FDA38008900169
:1033240015E0FD9001171230A57B447D767F0212D3
:1033340030A980119000EB7401F0E490016CF0FB73
:0B334400FDFF12311EE4900122F02278
:10315100900166EFF0900122E0640170589000EB5D
:10316100E06037E4F0900115E0FF900113E0FD907D
:1031710000FEE0FE75F00A842413F582E43401F5C3
:1031810083E0FBEE75F00A84741325F0F582E434D4
:1031910001F583E090016CF080139000EB7401F075
:1031A100900166E0700A90016CF0FBFDFF12311E88
:0631B100E4900122F0226F
:102EAE001200037FBF1236581235CF900104EFF097
:102EBE001235CF900103EFF01235CF900102EFF0F3
:102ECE001235CF900100EFF01235CF9000FFEFF0EA
:102EDE001235CF900101EFF01235CF9000FEEFF0DA
:102EEE00120003900129E064017029900102E0FFB5
:102EFE0030E50B30E7089001617401F08005E49035
:102F0E000161F0EF33333354F8900102F0E0131304
:102F1E0013541FF09000FEE0FF1235A012358B12F5
:052F2E00358BEFF022DD
:102BDF007F121236FB9001671236F71236F6123655
:102BEF00F6A3EFF07F0C1236FBA3EFF0E4FF1236E3
:102BFF00FBA3EFF0E4FF1236FBA3EFF090016BE0C5
:102C0F004480F054DFF09001297401F0E4900161E9
:102C1F00F01237151200037F901236587FAB123621
:102C2F00581200037FBE12365890016DE0FF123626
:102C3F005890016CE0FF12365890016BE0FF12368E
:102C4F0058900169E0FF123658900168E0FF123684
:102C5F005890016AE0FF123658900167E0FF123674
:0C2C6F0058E4FF1236581200030237220E
:102A9F00900102E075F00A842413F582E43401F505
:102AAF0083E0FDE4FF122760900102E075F00A84D5
:102ABF00741325F0F582E43401F583E0FD7F0112F4
:102ACF002760900103E075F00A842413F582E43443
:102ADF0001F583E0FD7F02122760900103E075F09E
:102AEF000A84741325F0F582E43401F583E0FD7F49
:102AFF00031227609000CBE04402F0900161E09058
:102B0F0000CBB40106E04401F08004E054FEF090E5
:102B1F000130E0700C900132E07006900134E060FB
:102B2F00099000CBE04408F080079000CBE054F709
:042B3F00F002369CCE
:102657009000E1E014607104600302275FE4FDFF6E
:102667001227609000EFE0FCA3E0FDA3E0FEA3E0EB
:10267700FF121629EF75F00A842413F582E434015A
:10268700F583E0FD7F011227609000EFE0FCA3E0F7
:10269700FDA3E0FEA3E0FF121629EF75F00A84748C
:1026A7001325F0F582E43401F583E0FD7F0212275C
:1026B700607D617F031227609000CBE04440F012F9
:1026C700369CE4900105F0229000F3E0FCA3E0FDC6
:1026D700A3E0FEA3E0FF121629EF75F0648424132C
:1026E700F582E43401F583E0FDE4FF1227609000F2
:1026F700F3E0FCA3E0FDA3E0FEA3E0FF121629EF41
:1027070075F06484E5F075F00A842413F582E434E7
:1027170001F583E0FD7F011227609000F3E0FCA341
:10272700E0FDA3E0FEA3E0FF121629EF75F0648435
:10273700E5F075F00A84741325F0F582E43401F5A9
:1027470083E0FD7F021227607D717F0312276012ED
:09275700369C9001057401F0228A
:10134D00021695E86480F8E933E83360110460F023
:10135D00ED33EC337009E8FCE9FDEAFEEBFF220406
:10136D0060DED3EB9FEA9EE99DE8C2E78CF0C2F701
:10137D0095F0400CE8CCF8E9CDF9EACEFAEBCFFBCD
:10138D0012166085D0F05804700320D5B3E80470B0
:10139D00075002B2D502169F92D5EC0460F7E4CC4B
:1013AD00C0E0C398F8603B94186008400DD0E0FB96
:1013BD00021677E4FBFAC9FC8028E830E406E4C99C
:1013CD00FBE4CAFCE830E305E4C9CACBFCE85407EA
:1013DD006010F8C3E913F9EA13FAEB13FBEC13FCF5
:1013ED00D8F130F52FC3E49CFCEF9BFFEE9AFEED98
:1013FD0099FDD0E0FBEF4E4D4C701222DB0302162F
:10140D009CEC2CFCEF33FFEE33FEED33FDED30E7BE
:10141D00EB021677EF2BFFEE3AFEED39FDD0E0FB38
:10142D0050130BBB000302169FED13FDEE13FEEFE1
:08143D0013FFEC13FC0216770B
:10144500EC4D6011E8497017ED33EC3304600DE4A1
:10145500FCFFFEFD22E933E8330470F8021695120D
:10146500166058046009E4CC24815006285009020E
:10147500169F28400302169CC0E0EB4A7044B980D1
:1014850006D0E0FB02168BEF4E701CBD8008EBFF0B
:10149500EAFEE9FD80EBE98DF0A4FEE5F002152EEC
:1014A500E9CDF9EAFEEBFFEF89F0A4FCE5F0CE8982
:1014B500F0A42EFFE435F0CD89F0A42DFEE435F03F
:1014C5008067EF4E7005BD80D780C3EF8BF0A4AC6D
:1014D500F0EE8BF0A42CFCE435F0F8EF8AF0A42CA8
:1014E500E5F038FCE433CB8DF0A42CFCE5F03BF8BB
:1014F500EE8AF0A42CFCE5F038F8E433CF89F0A4AB
:101505002CFCE5F038CF3400CE89F0A42FFFE5F0B0
:101515003EFEE433C98DF0A42EFEE5F039CD8AF008
:10152500A42FFFE5F03EFEE43DFD33D0E0FB500780
:101535000BBB000F02169FEC2CFCEF33FFEE33FEC6
:06154500ED33FD021677F4
:10154B0002169FEC5D046005E859047003021695C2
:10155B00121660580460F6EC4860F2EC7004FDFE65
:10156B00FF22C860DB2481C85009C3986002500673
:10157B0002169C9850CAF582E9294B4A7005AB823A
:10158B0002168B75F0007C1A7880C3EF9BEE9AEDF8
:10159B0099400DC3EF9BFFEE9AFEED99FDE842F0EB
:1015AB00DC23ACF0D0E0FFD0E0FED0E0FDAB82203E
:1015BB00E7101BEB60BAEC2CFCEF33FFEE33FEEDC8
:1015CB0033FD021677E803F830E705C0F075F0003D
:1015DB00EF2FFFEE33FEED33FD40B830E7C280AAAC
:1015EB0075F020800E75F010800575F0087D007E7B
:1015FB00007F003392D530D5031217EDEC3340103A
:10160B00EF33FFEE33FEED33FDEC33FCD5F0ED2283
:0E161B00E5F0247EA2D513CC92E7CDCEFF22BF
:10162900EDD2E7CD33EC3392D524814006E4FFFEB9
:10163900FDFC22FCE4CFCECDCC24E0501174FF8018
:10164900EDC3CC13CCCD13CDCE13CECF13CF0470B5
:07165900F030D5DE0217EDB1
:101D7B003E9248DA3ECCCCCD3F2AAAAB40000000C5
:101D8B003F8000003F9837F03FB504F33FD744FC4A
:101D9B003E3172173EB172173F0515913EDE5BD98E
:101DAB00D2008002C200EDD2E7F8CD33EC330470E1
:101DBB000BBD800592D502169F02169540FBD314DE
:101DCB0060F2F5F07C3FEE7A00C39496C8948B409A
:101DDB00230AC89469C8941A401A0AC89468C8940C
:101DEB001F40110AC8945AC89425400805F07A0080
:101DFB00CDC2E7CDC0F0900170121827EA2323C0A3
:101E0B00E0248BF582E4341DF5831218171213545A
:101E1B00ECC0E0EDC0E0EEC0E0EFC0E01217FB90CD
:101E2B00017012180B121350D0E0FBD0E0FAD0E087
:101E3B00F9D0E0B2E7F812154E9001701218279006
:101E4B001D7B74031216AA90017012180B12144505
:101E5B00D0E0600F2497F582E4341DF58312181738
:101E6B00121354900170121827D0E0C3947FFDE435
:101E7B009400FC1215F07B187A727931783F1214AA
:101E8B004590017012180B12135430000B7BD97A4A
:091E9B005B79DE783E1214452249
:10166000E9D2E7C933E833F892D5EDD2E7CD33ECD0
:0716700033FC5002B2D52249
:10167700EC30E7100FBF000C0EBE00080DBD0004D4
:101687000BEB6014A2D5EB13FCED92E7FD2274FF80
:10169700FCFDFEFF22E480F8A2D574FF13FC7D80D9
:0316A700E480EFED
:1016AA00C0E0EFFBEEFAEDF9ECF8121445D0E0F5E4
:1016BA00F0EFFBEEFAEDF9ECF81217FBA3A3A3A3E4
:1016CA00E8C0E0E9C0E0EAC0E0EBC0E0C0F0121414
:1016DA0045121817A3A3A3A3121354D0F0D0E0FB0A
:0D16EA00D0E0FAD0E0F9D0E0F8D5F0D4223D
:102DA60002334FE493A3F8E493A34003F68001F2C1
:102DB60008DFF48029E493A3F85407240CC8C3332E
:102DC600C4540F4420C8834004F456800146F6DFFD
:102DD600E4800B0102040810204080901870E47E05
:102DE600019360BCA3FF543F30E509541FFEE493F2
:102DF600A360010ECF54C025E060A840B8E493A3B9
:102E0600FAE493A3F8E493A3C8C582C8CAC583CAE3
:102E1600F0A3C8C582C8CAC583CADFE9DEE780BE9B
:011A6C000079
:1016F700E709F608DFFA8046E709F208DFFA803ED5
:1017070088828C83E709F0A3DFFA8032E309F608C1
:10171700DFFA8078E309F208DFFA807088828C8329
:10172700E309F0A3DFFA806489828A83E0A3F608DD
:10173700DFFA805889828A83E0A3F208DFFA804CB7
:1017470080D280FA80C680D4806980F2803380108E
:1017570080A680EA809A80A880DA80E280CA8033F7
:1017670089828A83ECFAE493A3C8C582C8CCC5836F
:10177700CCF0A3C8C582C8CCC583CCDFE9DEE7803F
:101787000D89828A83E493A3F608DFF9ECFAA9F0BE
:10179700EDFB2289828A83ECFAE0A3C8C582C8CC14
:1017A700C583CCF0A3C8C582C8CCC583CCDFEADE2D
:1017B700E880DB89828A83E493A3F208DFF980CC8F
:1017C70088F0EF60010E4E60C388F0ED2402B40488
:1017D7000050B9F582EB2402B4040050AF2323452F
:0617E700822390174773F6
:0E17ED00C3E49FFFE49EFEE49DFDE49CFC220D
:1017FB00E493FC740193FD740293FE740393FF2234
:0C180B00E0F8A3E0F9A3E0FAA3E0FB2260
:10181700E493F8740193F9740293FA740393FB2227
:0C182700ECF0A3EDF0A3EEF0A3EFF02234
:10183300A8828583F0D083D08212184A12184A12E4
:10184300184A12184AE473E493A3C583C5F0C58309
:10185300C8C582C8F0A3C583C5F0C583C8C582C8FF
:011863002262
:0C186400A42582F582E5F03583F583228F
:00000001FF
