:100BEC00004B4559203D20253032580A00B5B1C77D
:100BFC00B0D0BEC6ACD0C5CFA23A0A00D0BEC6ACEF
:100C0C00C4A3CABD3A2046443635300A00D0BEC60D
:100C1C00ACC4A3CABD3A2046443635310A00D0BE16
:100C2C00C6ACC4A3CABD3A2046443633380A00D0F9
:100C3C00BEC6ACC4A3CABD3A2046443633320A0001
:100C4C00D0BEC6ACC4A3CABD3A20464435303132FE
:100C5C000A00B9A4D7F7C4A3CABD3A20CFD4CABEE0
:100C6C00C4A3CABD300A00B9A4D7F7C4A3CABD3AFD
:100C7C0020CFD4CABEC4A3CABD310A00B9A4D7F7C9
:100C8C00C4A3CABD3A20B0B4BCFCC4A3CABD300ACC
:100C9C0000B9A4D7F7C4A3CABD3A20B0B4BCFCC4F5
:100CAC00A3CABD310A00B9A4D7F7C4A3CABD3A2060
:100CBC00C6E4CBFBC4A3CABD0A00B9A4D7F7C4A32E
:100CCC00CABD3A20CFD4CABECAB1BCE40A00B9A48A
:100CDC00D7F7C4A3CABD3A20CEC4BCFEC3FCC1EE38
:100CEC00D1ADBBB70A00434E5452203D20253032C3
:100CFC00580A0044495330203D20253032583B20BF
:100D0C0044495331203D20253032583B204449532F
:100D1C0032203D20253032583B2044495333203D6E
:100D2C0020253032583B200A44495334203D20259D
:100D3C003032583B2044495335203D202530325821
:100D4C003B2044495336203D20253032583B20442B
:100D5C00495337203D20253032583B200A00444966
:100D6C0053307E44495337203D20253032582025BE
:100D7C00303258202530325820253032582025303A
:100D8C003258202530325820253032582025303228
:100D9C0058200A000A00464420D0BEC6ACB2E2CAB3
:100DAC00D4C8EDBCFEC6F4B6AFB3C9B9A60A00B53B
:100DBC00B1C7B0D0BEC6ACC4A3CABDB7C7464435D4
:100DCC003031322CC7EBD6D8D0C2D1A1D4F14644A5
:0A0DDC0035303132D0BEC6AC0A003B
:10167D0041021C004100730041021D004102160091
:10168D0041021A0042007C000041007B00410071C4
:10169D000041007A00410076004100020041021E27
:1016AD00004100740042021F000041020E00410083
:1016BD0072004100770041021B004100750041029C
:1016CD000F484100794F410210684102116A4102F1
:1016DD00126C4102136E41021466410215704102F3
:1016ED0017724102197441007809410218784200BD
:0316FD00000000EA
:0F170100FD7B017A00790390007AE0900236F0C8
:10171000900231EFF0A3EDF0A3EBF0A3EAF0A3E920
:01172000F0D8
:101721007F55121AE97FAA121AE9900231E0FF12DD
:101731001AE9900232E0FF121AE9900236E0FF1234
:101741001AE9E4900237F0900236E0FFA3E0FEC30D
:101751009F501F900233E0FBA3E0FAA3E0F98E82D1
:10176100758300120DE6FF121AE9900237E004F0CA
:0C17710080D57FAA121AE97F55021AE900
:101AA4007BFF7A0B79ECE4900236F07D0E7F3202F4
:021AB400171009
:0517F200900226EFF05B
:1017F700E4A3F0900079E0FF121A23900227EFF09C
:10180700900068E06F60047F0180027F00900226ED
:10181700E04F603E90020EE06003121AA4D2B47B40
:10182700FF7A0B79ED900227E0FF90022BE4F0A3FB
:10183700EFF01208F2C2B4900227E0900068F07B44
:10184700017A0079689002367401F07D807F30124A
:02185700171068
:01185900226C
:100FB1007BFF7A0B79F91208F2121AA4900075E0FE
:100FC10014600D14601214601714601C2404802036
:100FD1007BFF7A0C7919801E7BFF7A0C792A8016A7
:100FE1007BFF7A0C793B800E7BFF7A0C794C800673
:100FF1007BFF7A0C79081208F290021EE0B4070018
:10100100504E90100AF828287302101F0210210276
:1010110010290210310210390210410210498030AA
:101021007BFF7A0C7973802E7BFF7A0C798880267E
:101031007BFF7A0C799D801E7BFF7A0C79B280163A
:101041007BFF7A0C79C6800E7BFF7A0C79DA8006F9
:101051007BFF7A0C795E1208F27BFF7A0C79F290B1
:101061000067E0FF90022BE4F0A3EFF01208F27F9B
:10107100011217F27BFF7A0C79FF900069E0FF9073
:10108100022BE4F0A3EFF090006AE0FF90022DE460
:10109100F0A3EFF090006BE0FF90022FE4F0A3EFDC
:1010A100F090006CE0FF900231E4F0A3EFF09000CB
:1010B1006DE0FF900233E4F0A3EFF090006EE0FFEB
:1010C100900235E4F0A3EFF090006FE0FF9002375B
:1010D100E4F0A3EFF0900070E0FF900239E4F0A398
:1010E100EFF01208F27BFF7A0D796A900069E0FF58
:1010F10090022BE4F0A3EFF090006AE0FF90022D44
:10110100E4F0A3EFF090006BE0FF90022FE4F0A376
:10111100EFF090006CE0FF900231E4F0A3EFF0906B
:10112100006DE0FF900233E4F0A3EFF090006EE079
:10113100FF900235E4F0A3EFF090006FE0FF900222
:1011410037E4F0A3EFF0900070E0FF900239E4F093
:0F115100A3EFF01208F27BFF7A0D79A00208F2EB
:1013D400E490021CF0900073F090021DF09002164D
:1013E400F090021AF090007CF0A3F090007BF09053
:1013F4000071F090007AF0900076F0900002F09086
:10140400021EF0900074F090021FF0A3F090020E00
:10141400F0900072F0900077F090021BF09000754D
:10142400F090020F7448F0900079744FF09002101D
:101434007468F0A3746AF0A3746CF0A3746EF0A3E0
:101444007466F0A37470F09002177472F09002192D
:101454007474F09000677430F0E4900069F0A3F0C5
:10146400A3F0A3F0A3F0A3F0A3F0A3F0900068749A
:101474002EF0E4FDFCED25E0FFEC33FE747E2FF549
:101484008274003EF583E4F0747F2FF58274003E8D
:10149400F583E4F00DBD00010CED64C84C70D67BFF
:0D14A400FF7A0D79A21208F2120FB1C2B446
:0114B1002218
:10116000900073E0FF75F002A4247EF582E5F03470
:1011700000F583E070030212EB75F002EFA4247E09
:10118000F582E5F03400F583E4F090021AE0FF64A4
:10119000557036900073E075F002A4247FF582E567
:1011A000F03400F583E0B4AA2090007CE07002A344
:1011B000E0701690021DF090021604F0E490007C9E
:1011C000F0A3F0900076F08043EF64AA703E9000A8
:1011D00073E075F002A4247FF582E5F03400F58316
:1011E000E0B4552890007AE02405FFE433FEC39074
:1011F000007DE09F90007CE09E401190021D7401F4
:10120000F0E4900216F090007CF0A3F0900216E05B
:1012100070030212C690007CE0FEA3E0FFEE705562
:10122000EF24FE602014603624027049900073E0C1
:1012300075F002A4247FF582E5F03400F583E09098
:10124000007BF08030900073E075F002A4247FF5FD
:1012500082E5F03400F583E0900071F08017900093
:1012600073E075F002A4247FF582E5F03400F58385
:10127000E090007AF0C3EF9404EE9400403A9000BE
:1012800073E075F002A4247FF582E5F03400F58365
:10129000E0FF900076E02403F582E43400F583EF6C
:1012A000F0900076E004F0E0C39464400BE490001A
:1012B0007CF0A3F0900076F090007DE004F07006E2
:1012C00090007CE004F0900073E075F002A4247FAD
:1012D000F582E5F03400F583E090021AF090007397
:0C12E000E004F0E0C394C84002E4F022F7
:101AD90090021EE024FC60078000E4FF1217F22246
:10177D0090020FE0FF900067E0FD12000390021051
:10178D00E0FF900069E0FD120003900211E0FF9070
:10179D00006AE0FD120003900212E0FF90006BE082
:1017AD00FD120003900213E0FF90006CE0FD1200AB
:1017BD0003900214E0FF90006DE0FD120003900213
:1017CD0015E0FF90006EE0FD120003900217E0FFA0
:1017DD0090006FE0FD120003900219E0FF90007081
:0517ED00E0FD02000315
:101A000090021FE0FCA3E0FDED1DAA0470011C4A3A
:101A100060107E007F02EF1FAA0670011E4A60E878
:021A200080F450
:011A220022A1
:1018C200E4FDFCEF604BD3900001E0941490000023
:1018D200E064809480403AE4F0A3F074502DF582E5
:1018E20074023CF583E0FF74252DF58274023CF509
:1018F20083EFF00DBD00010CED64064C70DD7B0141
:101902007A027925900236740CF07DF07F3412173A
:0F19120010900001E004F07006900000E004F077
:0119210022A3
:1012EC00900075E0FF6003B4033390020F7448F074
:1012FC00900079744FF09002107468F0A3746AF047
:10130C00A3746CF0A3746EF0A37470F0A37472F0F9
:10131C009002177474F09002197476806CEFB4021A
:10132C003390020F7448F0900079744FF0900210D3
:10133C007460F0A37462F0A37464F0A37466F0A3F9
:10134C007468F0A3746AF0900217746CF090021930
:10135C00746E8035EFB4013890020F7448F0900031
:10136C0079744FF09002107466F0A37468F0A37453
:10137C006AF0A3746CF0A3746EF0A37470F0900216
:10138C00177472F09002197474F0E490021BF0223E
:10139C00EFB4043390020F7408F090007804F0A3BB
:1013AC007448F0E4900210F0A304F0A304F0A3043A
:1013BC00F0A304F0A304F090021704F090021904B7
:0813CC00F090021B7401F022F5
:10002600E4900225F090021DE07003020886E4F0D9
:10003600900076F090007BE06420600302027E90E0
:100046000075E06404600302016C900071E0B4087E
:1000560000400302023A900063F828287302007BEE
:1000660002009A0200B80200D60200F30201100252
:10007600012D02014A900210E0FF7B017A0079030C
:1000860090007AE0FED3940840077D087E080201BE
:1000960065020165900211E0FF7B017A0079039009
:1000A600007AE0FED3940740067D077E07800002B3
:1000B6000165900212E0FF7B017A00790390007AD5
:1000C600E0FED3940640067D067E068000020165AA
:1000D600900213E0FF7B017A00790390007AE0FE3C
:1000E600D3940540067D057E05800080729002143B
:1000F600E0FF7B017A00790390007AE0FED3940456
:1001060040067D047E0480008055900215E0FF7B4A
:10011600017A00790390007AE0FED3940340067DCD
:10012600037E0380008038900217E0FF7B017A008F
:10013600790390007AE0FED3940240067D027E02A7
:100146008000801B900219E0FF7B017A0079039002
:10015600007AE0FED3940140067D017E0180009086
:10016600022AEE020236900071E0B4080040030253
:10017600023A90017FF82828730201970201AC0227
:1001860001C00201D40201E80201FC0202100202CF
:1001960024900210E0FF7B017A00790390007AE058
:1001A60090022A020236900211E0FF7B017A007962
:1001B6000390007AE090022A8076900212E0FF7B9C
:1001C600017A00790390007AE090022A8062900218
:1001D60013E0FF7B017A00790390007AE090022A0F
:1001E600804E900214E0FF7B017A00790390007A3A
:1001F600E090022A803A900215E0FF7B017A0079AE
:100206000390007AE090022A8026900217E0FF7B96
:10021600017A00790390007AE090022A8012900217
:1002260019E0FF7B017A00790390007AE090022AB8
:10023600F01214B2E4900225F090007AE0FF9002EA
:1002460025E0FEC39F4003020874EEC394084003F2
:10025600020874E0FF2403F582E43400F583E0FE2F
:10026600900071E02F2469F582E43400F583EEF006
:10027600900225E004F080C190007BE0B43011903C
:100286000071E060030208747F011217F20208741D
:1002960090007BE0641E60030204E6900071E012A9
:1002A6000F40032700033F01035D02036A03037443
:1002B60004037E20038821039222039C2303A624A1
:1002C60003B02503BA2603C42703CE2803D829037F
:1002D600E22A03EC2B03F630040031040A3204143C
:1002E60033041E34042835043236043C37044638B9
:1002F600045039045A3A04643B046E4004784104BD
:100306008242048C4304964404A04504AA4604B4DD
:100316004704BE4804C84904D24A04DC4B0000081E
:100326007490020FE0FF900003E0FD1200039000BE
:1003360003E0900067F0020874900067E0548FFFB6
:10034600F0900003E0FEC454F04F900067F0FD907B
:10035600020FE0FF0206D6900078E0FF900003E06F
:10036600FD0206D6900003E0FD7F4A0206D6900005
:1003760003E0FD7F2F0206D6900003E0FD7F0B020F
:1003860006D6900003E0FD7F0C0206D6900003E03F
:10039600FD7F0D0206D6900003E0FD7F0E0206D615
:1003A600900003E0FD7F0F0206D6900003E0FD7F7C
:1003B600100206D6900003E0FD7F110206D69000DB
:1003C60003E0FD7F120206D6900003E0FD7F1302D4
:1003D60006D6900003E0FD7F140206D6900003E0E7
:1003E600FD7F150206D6900003E0FD7F160206D6B5
:1003F600900003E0FD7F170206D6900003E0FD7F24
:10040600180206D6900003E0FD7F190206D690007A
:1004160003E0FD7F1A0206D6900003E0FD7F1B0273
:1004260006D6900003E0FD7F1C0206D6900003E08E
:10043600FD7F1D0206D6900003E0FD7F1E0206D654
:10044600900003E0FD7F1F0206D6900003E0FD7FCB
:10045600200206D6900003E0FD7F210206D690001A
:1004660003E0FD7F220206D6900003E0FD7F230213
:1004760006D6900003E0FD7F240206D6900003E036
:10048600FD7F250206D6900003E0FD7F260206D6F4
:10049600900003E0FD7F270206D6900003E0FD7F73
:1004A600280206D6900003E0FD7F290206D69000BA
:1004B60003E0FD7F2A0206D6900003E0FD7F2B02B3
:1004C60006D6900003E0FD7F2C0206D6900003E0DE
:1004D600FD7F2D0206D6900003E0FD7F2E0206D694
:1004E60090007BE0641060030205E1900071E0B4C7
:1004F6000B004003020874900504F82828730205CF
:100506002502053702054A02055D020570020583CC
:100516000205960205A90205BC0208740205CF90E1
:100526000067E0FF900003E0FEEF4E9000670206D2
:100536002B900210E0FF900003E0FE900069E04E71
:10054600FD0206D6900211E0FF900003E0FE900047
:100556006AE04EFD0206D6900212E0FF900003E02C
:10056600FE90006BE04EFD0206D6900213E0FF906F
:100576000003E0FE90006CE04EFD0206D6900214E9
:10058600E0FF900003E0FE90006DE04EFD0206D60F
:10059600900215E0FF900003E0FE90006EE04EFD35
:1005A6000206D6900217E0FF900003E0FE90006F6F
:1005B600E04EFD0206D6900219E0FF900003E0FE31
:1005C600900070E04EFD0206D6900218E0FF900003
:1005D60003E0FEEF4E9002180206E790007BE0640F
:1005E6001160030206FB900071E0B40B00400302A9
:1005F60008749005FFF828287302062002063F02B9
:10060600065302066602067902068C02069F020659
:10061600B20206C50208740206DC900003E0F4FF8D
:10062600900067E05FF0FD90020FE0FF120003907C
:100636000067E054FBF0020874900210E0FF90009F
:1006460003E0F4FE900069E05EFD0206D69002111A
:10065600E0FF900003E0F4FE90006AE05EFD80702B
:10066600900212E0FF900003E0F4FE90006BE05E63
:10067600FD805D900213E0FF900003E0F4FE900021
:100686006CE05EFD804A900214E0FF900003E0F407
:10069600FE90006DE05EFD8037900215E0FF900051
:1006A60003E0F4FE90006EE05EFD8024900217E009
:1006B600FF900003E0F4FE90006FE05EFD80119075
:1006C6000219E0FF900003E0F4FE900070E05EFD8A
:1006D600120003020874900003E0F4FF900218E091
:1006E6005FF0FD900078E0FF120003900218E054DE
:1006F600EBF002087490007BE0FFB4310B900071C0
:10070600E090021EF0020874EF7007900071E0029C
:10071600087490007BE06432600302081790007151
:10072600E0B412004003020874900736F8282873D4
:1007360002076C02077202077802077E020786022A
:1007460007960207A20207A40207B00207BC020727
:10075600C80207D40207E00207EC0207F602080403
:1007660002080B02081012177D020874120FB1025C
:10077600087490007402085DE4900074F002087436
:10078600900003E0FF90021FE4F0A3EFF00208746C
:1007960090021FE4F0A374FFF0020874800C90022C
:1007A6001FE4F0A374C8F002087490021FE4F0A3DB
:1007B6007496F002087490021FE4F0A37464F002C9
:1007C600087490021FE4F0A37432F00208749002D9
:1007D6001FE4F0A37414F002087490021FE4F0A35F
:1007E600740AF0020874E490021FF0A3F002087481
:1007F600900074E07003121AA490020E8059E490DF
:10080600020EF08069900072804DE4900072F080D4
:100816005D90007BE0FEB4330D900071E0900075B2
:10082600F01212EC8048EEB4701090007BE0FF905E
:100836000071E04480121701803490007BE064343C
:10084600702C900071E0248F601D04701C90007560
:10085600E0B404089000777401F080127BFF7A0DF3
:1008660079BB1208F280078000E4900077F09000D0
:1008760074E0600C90007BE0FF900071E0121701BD
:01088600224F
:101AC800121160120026121AD9900077E0FF02184E
:011AD800C24B
:091AF500D2B3D2B5C2B3C2B522CE
:091AFE00C2B3D2B5D2B3D2B322B7
:101A4600E4FEEF30E704D2B38002C2B3D2B5EF258D
:101A5600E0FFC2B50EEEB408E9D2B3D2B3D2B5C236
:011A6600B5CA
:011A6700225C
:10000300AC07121AF590021BE0B401057F48121ADF
:0E00130046AF04121A46AF05121A46021AFE34
:0D14B200900227EBF0A3EAF0A3E9F0AD07EC
:1014BF00900072E06047121AF590021BE0B401052C
:1014CF007F48121A46AF05121A46E490022BF0908D
:1014DF00022AE0FFA3E0FEC39F501F900227E0FB0C
:1014EF00A3E0FAA3E0F98E82758300120DE6FF12D6
:1014FF001A4690022BE004F080D5021AFE90022CBF
:10150F00EDF0E490022BF090022AE0FFA3E0FEC37F
:10151F009F5035A3E0FF900227E0FBA3E0FAA3E082
:10152F00F98E82758300120DE6FD12000390021BE7
:10153F00E090022CB40105E004F08004E02402F0F6
:08154F0090022BE004F080BFC4
:011557002271
:1019AE00D2B3D2B3E4FEFDD2B5EE25E0FE30B304E1
:1019BE0030B3010EC2B50DEDB408ECEF6004D2B336
:0A19CE008002C2B3D2B5C2B5AF0665
:0119D80022EC
:021A2300AD070D
:101A2500E4FC121AF590021BE0B401057F49121A75
:101A350046AF05121A467F011219AEAC07121AFEFF
:011A4500227E
:0D185A00900257EBF0A3EAF0A3E9F0AD0710
:10186700121AF590021BE0B401057F49121A46AF20
:1018770005121A46E4FC90025AE014FFECC39F508D
:101887001CE4FF1219AE900257E0FBA3E0FAA3E0B5
:10189700F98C82758300EF120E130C80D97F011229
:1018A70019AE900257E0FBA3E0FAA3E0F9AE048E6D
:0B18B70082758300EF120E13021AFE70
:101A6800464438313420B4AEBFDAC6F4B6AFB3C991
:041A7800B9A60A0001
:101AB60075A15575A1AAE5B954F84404F5B9E4F53C
:021AC600A1225B
:10155800C29FD29EC29DC2CDC2CC43878090022535
:10156800120F0F00000186E47B0AFAF9F8900225B1
:10157800E0FCA3E0FDA3E0FEA3E0FF120E719002E1
:1015880029EBF0900225E0FCA3E0FDA3E0FEA3E038
:10159800FFE47B0AFAF9F8120E71900225120F0384
:1015A800900229E0C39405401F900225E0FCA3E0C7
:1015B800FDA3E0FEA3E02401FFE43EFEE43DFDE4DC
:1015C8003CFC900225120F03E589540F4420F5894D
:1015D80043C9A0900225A3A3A3E0F404F58DD28EFD
:0815E800D299D29CD2ACD2AF23
:0115F00022D8
:0C1AE9008F99C2993099FDC2997F0122AB
:071B100053930C43C31022A4
:1019D900900221120F0F00000000121AB6121558BA
:1019E900121B107BFF7A1A79681208F21213D412AB
:0719F9001975121AC880F8ED
:030023000219229D
:10192200C0E0C0F0C083C082C0D075D00830983803
:10193200C29890021CE0FF75F002A4247FF582E5B4
:10194200F03400F583E599F075F002EFA4247EF5FA
:1019520082E5F03400F5837401F090021CE004F09B
:10196200E0C394C84002E4F0D0D0D082D083D0F05B
:03197200D0E03290
:081B07007F047E80DEFEDFFC9E
:011B0F0022B3
:101A7C00AD07AC06ED1DAE0470011C4E6005121BCB
:041A8C000780F122BC
:061B170000007F02DFFE6A
:011B1D0022A5
:101A9000AD07AC06ED1DAE0470011C4E6005121BB7
:041AA0001780F12298
:10197500E5C330E7FBAFC4AEC5E5C35407FDEF785B
:1019850006CEC313CE13D8F9FF744F2DF582E43478
:1019950002F583EFF0AF05EDD394054009E5C35497
:0819A500F84401F5C32205C35B
:0119AD002217
:030000000215F1F5
:0C15F100787FE4F6D8FD758121021638E1
:100DE600BB010CE58229F582E5833AF583E02250C2
:100DF60006E92582F8E622BBFE06E92582F8E2220C
:0D0E0600E58229F582E5833AF583E4932225
:100E1300F8BB010DE58229F582E5833AF583E8F015
:100E2300225006E92582C8F622BBFE05E92582C8C1
:020E3300F222A9
:100E350075F008758200EF2FFFEE33FECD33CDCC74
:100E450033CCC58233C5829BED9AEC99E5829840F7
:100E55000CF582EE9BFEED9AFDEC99FC0FD5F0D6D4
:100E6500E4CEFBE4CDFAE4CCF9A88222B800C1B9FE
:100E75000059BA002DEC8BF084CFCECDFCE5F0CB3C
:100E8500F97818EF2FFFEE33FEED33FDEC33FCEB75
:100E950033FB10D703994004EB99FB0FD8E5E4F930
:100EA500FA227818EF2FFFEE33FEED33FDEC33FC1D
:100EB500C933C910D7059BE99A4007EC9BFCE99A11
:100EC500F90FD8E0E4C9FAE4CCFB2275F010EF2F56
:100ED500FFEE33FEED33FDCC33CCC833C810D70756
:100EE5009BEC9AE899400AED9BFDEC9AFCE899F891
:0E0EF5000FD5F0DAE4CDFBE4CCFAE4C8F92224
:0C0F0300ECF0A3EDF0A3EEF0A3EFF02261
:100F0F00A8828583F0D083D082120F26120F26126B
:100F1F000F26120F26E473E493A3C583C5F0C58390
:100F2F00C8C582C8F0A3C583C5F0C583C8C582C82C
:010F3F00228F
:100F4000D083D082F8E4937012740193700DA3A340
:100F500093F8740193F5828883E473740293686054
:060F6000EFA3A3A380DF54
:10088700E510242BF582E43402F583E0051022906D
:10089700022830070390022BE475F001120F910232
:1008A7000F662000E97F2ED2008018EF540F2490A6
:1008B700D43440D4FF30040BEF24BFB41A005003E4
:1008C7002461FFE511600215110514E51470020596
:1008D7001330070E900228E475F001120F91EF0212
:1008E7000F7F021AE97403D2078003E4C207F510E9
:1008F700900228120FA8E4F511F513F514E511601D
:10090700077F201208CA80F57512FFC201C200C214
:1009170002C203C205C206C208120896FF700D3054
:1009270007057F001208DBAF14AE1322B4255FC2A0
:10093700D5C204120896FF24D0B40A00501A75F0E5
:100947000A781130D50508B6FF0106C6A426F62099
:10095700D5047002D20380D924CFB41A00EF500413
:10096700C2E5D204020ADCD20180C6D20080C0D21E
:100977000280BCD2D580BAD20580B47F201208CAC3
:100987002002077401B5110040F1120887FF120811
:10099700CA020904D208D2068095120887FB1208FA
:1009A70087FA120887F94A4B700679AD7A0B7BFFF5
:1009B70020022EE511602A7E008E82758300120DBB
:1009C700E660060EEE651270F0C2D5EBC0E0EAC035
:1009D700E0E9C0E0EE120B23D0E0F9D0E0FAD0E076
:1009E700FB120F66FF60AAEBC0E0EAC0E0E9C0E0D7
:1009F7001208CAD0E02401F9D0E03400FAD0E0FBB5
:100A0700E5120460DCD512D980877BFF7A0B791F4A
:100A1700D202809C791080027908C206C208800839
:100A2700D2D5790A8004790AC2D5E512047002F595
:100A370012E4FAFDFEFF120887FC7B08200113125F
:100A47000887FD7B1030000A120887FE120887FF0F
:100A57007B20EC3382D592D55013C3E43000069F38
:100A6700FFE49EFEE42001039DFDE49CFCE4CBF83B
:100A7700C201EC700CCFCECDCCE824F8F870F3802F
:100A870017C3EF33FFEE33FEED33FDEC33FCEB33EF
:100A9700FB994002FB0FD8E9EB300105F8D0E0C421
:100AA70048B201C0E00AEC4D4E4F78207B0070C27F
:100AB700EAB5120040BCC0E0120B25D0F0D0E02010
:100AC7000104C4C0E0C4B201C0F01208B3D0F0D52D
:100AD700F0EB020904120F4009A1530A1B580972CF
:100AE7004C096E420A1F4F0A27440A2749098743C0
:080AF7000A2D550A11460A11EF
:100AFF00450A11470BCD5009762D097A2E099D2BEA
:100B0F00097E23099B200BB62A0936480000099558
:100B1F003F3F3F00790AA2D5200314300509B910D1
:100B2F00020404B9080104A2D520060250010420D2
:100B3F0002689202B511005034C0E07F20300319D3
:100B4F007F30A20272067205500F120B7CC202C2D6
:100B5F0006C205C2087F30800F300503E9C0E012DE
:100B6F0008CA300503D0E0F9D0E0B511CC30051735
:100B7F007F30B9100C1208CA7F583004077F788075
:100B8F0003B908031208CA3002057F2D0208CA7F75
:100B9F00202008F87F2B2006F322920280CF286EA8
:100BAF00756C6C2900D2011208873001F8C20178E8
:100BBF001130D50108F60209362D50434958120855
:100BCF00872403B405004001E4900BC8931208BBBF
:0D0BDF00743A1208BBD203751104020A1B00
:1015FD000219D9E493A3F8E493A34003F68001F212
:10160D0008DFF48029E493A3F85407240CC8C333EE
:10161D00C4540F4420C8834004F456800146F6DFBD
:10162D00E4800B010204081020408090167DE47EBA
:10163D00019360BCA3FF543F30E509541FFEE493B2
:10164D00A360010ECF54C025E060A840B8E493A379
:10165D00FAE493A3F8E493A3C8C582C8CAC583CAA4
:10166D00F0A3C8C582C8CAC583CADFE9DEE780BE5C
:0117000000E8
:100F6600BB010689828A83E0225002E722BBFE0289
:090F7600E32289828A83E49322BC
:100F7F00BB010689828A83F0225002F722BBFE0151
:020F8F00F3224B
:100F9100F8E0FBA3A3E0F925F0F0E58215827002E9
:070FA1001583E0FA38F0228D
:090FA800EBF0A3EAF0A3E9F0224A
:00000001FF
